:020000040800F2
:1000000000000120493D000839320008453200084F
:100010004B3200085132000857320008000000003F
:100020000000000000000000000000005D32000839
:1000300069320008000000007532000881320008B3
:10004000913D0008913D0008913D0008913D000858
:10005000913D0008913D0008913D0008913D000848
:10006000913D0008913D0008913D00088D32000847
:10007000913D0008913D0008913D0008A132000823
:10008000913D0008913D0008913D0008913D000818
:10009000B5320008913D0008913D0008913D0008EF
:1000A000913D0008913D0008913D0008913D0008F8
:1000B000913D0008C9320008DD320008913D00087A
:1000C000913D0008913D0008913D0008913D0008D8
:1000D000913D0008913D0008913D0008913D0008C8
:1000E000913D0008913D0008913D0008913D0008B8
:1000F000913D0008913D0008913D0008913D0008A8
:10010000913D0008913D0008913D0008913D000897
:10011000913D0008913D0008913D0008913D000887
:10012000913D0008913D0008913D0008913D000877
:1001300000000000000000000000000000000000BF
:1001400000000000000000000000000000000000AF
:10015000000000000000000000000000000000009F
:10016000000000000000000000000000000000008F
:10017000000000000000000000000000000000007F
:10018000000000000000000000000000000000006F
:10019000000000000000000000000000000000005F
:1001A000000000000000000000000000000000004F
:1001B000000000000000000000000000000000003F
:1001C000000000000000000000000000000000002F
:1001D000000000000000000000000000000000001F
:0401E0005FF8E0F1F3
:1001E40010B5054C237833B9044B13B10448AFF36D
:1001F40000800123237010BDE801002000000000EE
:1002040028DE000808B5034B1BB103490348AFF3CC
:10021400008008BD00000000EC01002028DE00087A
:1002240081F0004102E000BF83F0004330B54FEAA3
:1002340041044FEA430594EA050F08BF90EA020F10
:100244001FBF54EA000C55EA020C7FEA645C7FEAA3
:10025400655C00F0E2804FEA5454D4EB5555B8BFC6
:100264006D420CDD2C4480EA020281EA030382EA37
:10027400000083EA010180EA020281EA0303362DC9
:1002840088BF30BD11F0004F4FEA01314FF4801C9C
:100294004CEA113102D0404261EB410113F0004FAE
:1002A4004FEA03334CEA133302D0524263EB430365
:1002B40094EA050F00F0A780A4F10104D5F1200E03
:1002C4000DDB02FA0EFC22FA05F2801841F100015E
:1002D40003FA0EF2801843FA05F359410EE0A5F132
:1002E40020050EF1200E012A03FA0EFC28BF4CF063
:1002F400020C43FA05F3C01851EBE37101F0004519
:1003040007D54FF0000EDCF1000C7EEB00006EEB25
:100314000101B1F5801F1BD3B1F5001F0CD34908AF
:100324005FEA30004FEA3C0C04F101044FEA445206
:1003340012F5800F80F09A80BCF1004F08BF5FEA8D
:10034400500C50F1000041EB045141EA050130BD6D
:100354005FEA4C0C404141EB010111F4801FA4F110
:100364000104E9D191F0000F04BF01460020B1FA65
:1003740081F308BF2033A3F10B03B3F120020CDA9D
:100384000C3208DD02F1140CC2F10C0201FA0CF07B
:1003940021FA02F10CE002F11402D8BFC2F1200CE0
:1003A40001FA02F120FA0CFCDCBF41EA0C01904096
:1003B400E41AA2BF01EB0451294330BD6FEA0404DF
:1003C4001F3C1CDA0C340EDC04F11404C4F12002CA
:1003D40020FA04F001FA02F340EA030021FA04F3DC
:1003E40045EA030130BDC4F10C04C4F1200220FA33
:1003F40002F001FA04F340EA0300294630BD21FA71
:1004040004F0294630BD94F0000F83F4801306BF36
:1004140081F480110134013D4EE77FEA645C18BF2A
:100424007FEA655C29D094EA050F08BF90EA020FC1
:1004340005D054EA000C04BF1946104630BD91EAB9
:10044400030F1EBF0021002030BD5FEA545C05D1BC
:100454004000494128BF41F0004130BD14F58004FB
:100464003CBF01F5801130BD01F0004545F0FE416F
:1004740041F470014FF0000030BD7FEA645C1ABFA4
:10048400194610467FEA655C1CBF0B46024650EADB
:10049400013406BF52EA033591EA030F41F4002107
:1004A40030BD00BF90F0000F04BF0021704730B58D
:1004B4004FF4806404F132044FF000054FF0000162
:1004C40050E700BF90F0000F04BF0021704730B523
:1004D4004FF4806404F1320410F0004548BF4042F8
:1004E4004FF000013EE700BF42004FEAE2014FEA4D
:1004F40031014FEA02701FBF12F07F4393F07F4F28
:1005040081F06051704732F07F4208BF704793F02A
:100514007F4F04BF41F40021704730B54FF460743D
:1005240001F0004521F000411CE700BF50EA010240
:1005340008BF704730B54FF000050AE050EA0102E9
:1005440008BF704730B511F0004502D5404261EB59
:1005540041014FF4806404F132045FEA915C3FF49A
:10056400D8AE4FF003025FEADC0C18BF03325FEA37
:10057400DC0C18BF033202EBDC02C2F1200300FAE8
:1005840003FC20FA02F001FA03FE40EA0E0021FA0D
:1005940002F11444BDE600BF70B54FF0FF0C4CF4FB
:1005A400E06C1CEA11541DBF1CEA135594EA0C0FAD
:1005B40095EA0C0F00F0DEF82C4481EA030621EAE8
:1005C4004C5123EA4C5350EA013518BF52EA033523
:1005D40041F4801143F4801338D0A0FB02CE4FF0D5
:1005E4000005E1FB02E506F00042E0FB03E54FF005
:1005F4000006E1FB03569CF0000F18BF4EF0010EFD
:10060400A4F1FF04B6F5007F64F5407404D25FEAF8
:100614004E0E6D4146EB060642EAC62141EA5551AB
:100624004FEAC52040EA5E504FEACE2EB4F1FD0CED
:1006340088BFBCF5E06F1ED8BEF1004F08BF5FEA6B
:10064400500E50F1000041EB045170BD06F000461D
:1006540046EA010140EA020081EA0301B4EB5C04CA
:10066400C2BFD4EB0C0541EA045170BD41F48011C2
:100674004FF0000E013C00F3AB8014F1360FDEBFE7
:10068400002001F0004170BDC4F10004203C35DAC3
:100694000C341BDC04F11404C4F1200500FA05F346
:1006A40020FA04F001FA05F240EA020001F00042E7
:1006B40021F0004110EBD37021FA04F642EB06015D
:1006C4005EEA430E08BF20EAD37070BDC4F10C0487
:1006D400C4F1200500FA04F320FA05F001FA04F24B
:1006E40040EA020001F0004110EBD37041F1000137
:1006F4005EEA430E08BF20EAD37070BDC4F1200542
:1007040000FA05F24EEA020E20FA04F301FA05F2A9
:1007140043EA020321FA04F001F0004121FA04F251
:1007240020EA020000EBD3705EEA430E08BF20EA21
:10073400D37070BD94F0000F0FD101F0004640005B
:1007440041EB010111F4801F08BF013CF7D041EADD
:10075400060195F0000F18BF704703F000465200E1
:1007640043EB030313F4801F08BF013DF7D043EAB2
:100774000603704794EA0C0F0CEA135518BF95EA68
:100784000C0F0CD050EA410618BF52EA4306D1D1EF
:1007940081EA030101F000414FF0000070BD50EA0E
:1007A400410606BF1046194652EA430619D094EA98
:1007B4000C0F02D150EA013613D195EA0C0F05D182
:1007C40052EA03361CBF104619460AD181EA0301D6
:1007D40001F0004141F0FE4141F470014FF000008E
:1007E40070BD41F0FE4141F4780170BD70B54FF029
:1007F400FF0C4CF4E06C1CEA11541DBF1CEA1355A9
:1008040094EA0C0F95EA0C0F00F0A7F8A4EB05048A
:1008140081EA030E52EA03354FEA013100F0888081
:100824004FEA03334FF0805545EA131343EA12634A
:100834004FEA022245EA111545EA10654FEA0026FF
:100844000EF000419D4208BF964244F1FD0404F5B8
:10085400407402D25B084FEA3202B61A65EB030514
:100864005B084FEA32024FF480104FF4002CB6EBD1
:10087400020E75EB030E22BFB61A754640EA0C0051
:100884005B084FEA3202B6EB020E75EB030E22BF91
:10089400B61A754640EA5C005B084FEA3202B6EBD2
:1008A400020E75EB030E22BFB61A754640EA9C0091
:1008B4005B084FEA3202B6EB020E75EB030E22BF61
:1008C400B61A754640EADC0055EA060E18D04FEA1F
:1008D400051545EA16754FEA06164FEAC30343EABF
:1008E40052734FEAC2025FEA1C1CC0D111F4801F8C
:1008F4000BD141EA00014FF000004FF0004CB6E785
:1009040011F4801F04BF01430020B4F1FD0C88BF23
:10091400BCF5E06F3FF6AFAEB5EB030C04BFB6EB2E
:10092400020C5FEA500C50F1000041EB045170BD21
:100934000EF0004E4EEA113114EB5C04C2BFD4EB4E
:100944000C0541EA045170BD41F480114FF0000ED2
:10095400013C90E645EA060E8DE60CEA135594EA4E
:100964000C0F08BF95EA0C0F3FF43BAF94EA0C0F51
:100974000AD150EA01347FF434AF95EA0C0F7FF4C6
:1009840025AF104619462CE795EA0C0F06D152EA1A
:1009940003353FF4FDAE1046194622E750EA4106FE
:1009A40018BF52EA43067FF4C5AE50EA41047FF40F
:1009B4000DAF52EA43057FF4EBAE12E74A0011D2C1
:1009C40012F5001211D20DD56FF47873B3EB6252A5
:1009D4000ED44FEAC12343F0004343EA505323FAB1
:1009E40002F070474FF00000704750EA013002D126
:1009F4004FF0FF3070474FF00000704780F0004028
:100A040002E000BF81F0004142001FBF5FEA4103E2
:100A140092EA030F7FEA226C7FEA236C6AD04FEAE2
:100A24001262D2EB1363C1BFD21841404840414027
:100A3400B8BF5B42192B88BF704710F0004F40F4D9
:100A4400000020F07F4018BF404211F0004F41F4F5
:100A5400000121F07F4118BF494292EA030F3FD0C1
:100A6400A2F1010241FA03FC10EB0C00C3F12003D4
:100A740001FA03F100F0004302D5494260EB400063
:100A8400B0F5000F13D3B0F1807F06D340084FEACE
:100A9400310102F10102FE2A51D2B1F1004F40EBC3
:100AA400C25008BF20F0010040EA0300704749002B
:100AB40040EB000010F4000FA2F10102EDD1B0FAF6
:100AC40080FCACF1080CB2EB0C0200FA0CF0AABFEB
:100AD40000EBC25052421843BCBFD0401843704789
:100AE40092F0000F81F4000106BF80F4000001328F
:100AF400013BB5E74FEA41037FEA226C18BF7FEA66
:100B0400236C21D092EA030F04D092F0000F08BFA7
:100B14000846704790EA010F1CBF0020704712F08E
:100B24007F4F04D1400028BF40F00040704712F1CD
:100B340000723CBF00F50000704700F0004343F032
:100B4400FE4040F4000070477FEA226216BF084668
:100B54007FEA23630146420206BF5FEA412390EA2B
:100B6400010F40F4800070474FF0000304E000BF21
:100B740010F0004348BF40425FEA000C08BF7047D2
:100B840043F0964301464FF000001CE050EA010296
:100B940008BF70474FF000030AE000BF50EA0102AB
:100BA40008BF704711F0004302D5404261EB410198
:100BB4005FEA010C02BF84460146002043F0B643BD
:100BC40008BFA3F18053A3F50003BCFA8CF2083AE2
:100BD400A3EBC25310DB01FA02FC634400FA02FCEB
:100BE400C2F12002BCF1004F20FA02F243EB0200F2
:100BF40008BF20F00100704702F1200201FA02FC54
:100C0400C2F1200250EA4C0021FA02F243EB020046
:100C140008BF20EADC70704742000ED2B2F1FE4FEA
:100C24000BD34FF09E03B3EB126209D44FEA0023B7
:100C340043F0004323FA02F070474FF0000070477E
:100C440012F1610F01D1420202D14FF0FF3070471F
:100C54004FF00000704700BF80B483B000AF7860ED
:100C64007B6818460C37BD4680BC704780B483B09F
:100C740000AF78607B6818460C37BD4680BC70476F
:100C840084B080B582B000AF786007F1140080E8CA
:100C94000E007B6807F11401542218460DF006F883
:100CA40000BF0837BD46BDE8804004B0704780B53A
:100CB40088B004AF78600B46FB700023FB73786840
:100CC400FB789AB2642302930123019307F10F0383
:100CD400009301236C2104F0F5FF03461A467B6858
:100CE40083F85420FB7B18461037BD4680BD90B571
:100CF40083B000AF78600D217868FFF7D8FF034612
:100D04009CB20C217868FFF7D2FF03469BB21B020A
:100D14009BB223449BB218460C37BD4690BD80B4A9
:100D240085B000AF78600023FB6017E0FB6803F137
:100D34000113DB021A467B6893420CD2FB6803F56D
:100D44008033DB021A467B68934204D3FB6803F5C5
:100D54008033DB0207E0FB680133FB60FB68FF2B99
:100D6400E4DD4FF0FF3318461437BD4680BC7047AE
:100D740090B58BB000AFF860B9607A607B689B086F
:100D84007A6802F00302002A14BF01220022D2B2C0
:100D940013443B6204F02CFAF868FFF7C0FFF861D3
:100DA4003B6A9B001A46FB681344BB61B869FFF7B2
:100DB400B6FF78611D4B00221A601C4AFB699360E0
:100DC4007A69FB69D31ADB0A0133184AD36007F145
:100DD40010031946154804F0FDFA0346002B03D00E
:100DE40004F03CFA03461CE000237B6212E07B6AB9
:100DF4009A00FB68D118BA687B6A13441B78DBB28B
:100E04004FF000041A462346022004F081F97B6A5D
:100E140001337B627A6A7B689A42E8D304F00EFA63
:100E2400002318462C37BD4690BD00BF04020020A5
:100E340080B586B000AFF860B9607A6000237B614A
:100E440010E07B699B001A46FB681344184600F0C7
:100E540011F801467B69BA681344CAB21A707B69F7
:100E640001337B617B697A689A42EAD800BF1837FC
:100E7400BD4680BD80B485B000AF78607B68FB6000
:100E8400FB681B6818461437BD4680BC70470000D9
:100E940090B593B012AF02F07BFF00F093F83D4B96
:100EA40093F89C32042B03D1642002F0D3FFF6E7BD
:100EB40000F0CAFA00F0A2FA00F0F2F800F04CF9DF
:100EC4000CF0DEFA00F07CF900F0E0F900F03AFAF8
:100ED400314801F02FFD4FF47A7002F0BBFF2E4B26
:100EE4009B7C002B05D002222C492D4803F0BEF830
:100EF40039E02C4C684604F10C03482219460CF0E6
:100F0400D5FE94E80E00284802F044FA0A2002F0C4
:100F1400A1FF244C684604F10C03482219460CF046
:100F2400C5FE94E80E002148FFF7AAFE0A2002F04D
:100F340091FF1C4C684604F10C03482219460CF03E
:100F4400B5FE94E80E001A48FFF79AFE0A2002F054
:100F540081FF184B1B78002B02D0164B00221A700D
:100F6400154807F0D1FC642002F074FF134807F021
:100F7400CBFC02F065FF0246114B1A60064B5B7B0B
:100F8400002BFBD0044BD3F80E30184601F083F944
:100F9400F4E700BF8806002000040020F8030020C6
:100FA400140200208802002050040020A80400201D
:100FB40000050020580500206C03002024030020B5
:100FC4006005002080B596B000AF07F130032822F9
:100FD400002118460CF075FE07F11C0300221A606C
:100FE4005A609A60DA601A613B1D00221A605A60E6
:100FF4009A60DA601A615A6101233B634FF48033CB
:101004007B630023BB6301233B640223FB644FF433
:1010140080333B654FF4E0137B6507F130031846DA
:1010240006F064FF0346002B14BF01230023DBB248
:10103400002B01D000F0BEFB0F23FB6102233B62B7
:1010440000237B624FF48063BB620023FB6207F1E1
:101054001C030221184607F0C9F90346002B14BFEC
:1010640001230023DBB2002B01D000F0A3FB1223E9
:101074007B604FF40043FB600023BB613B1D1846BB
:1010840007F03CFB0346002B14BF01230023DBB213
:10109400002B01D000F08EFB00BF5837BD4680BD49
:1010A40080B584B000AF3B1D00221A605A609A607C
:1010B400274B284A1A60264B4FF480729A60244BBF
:1010C40001221A73224B00221A75214B4FF460221D
:1010D400DA611F4B00225A601D4B02221A611C4820
:1010E40002F0DAFE0346002B14BF01230023DBB217
:1010F400002B01D000F05EFB01237B600123BB6069
:101104000723FB603B1D1946114803F0A9F8034669
:10111400002B14BF01230023DBB2002B01D000F00D
:1011240049FB02237B600223BB603B1D1946084830
:1011340003F096F80346002B14BF01230023DBB20F
:10114400002B01D000F036FB00BF1037BD4680BD38
:10115400140200200024014080B500AF154B164A4C
:101164001A60144B154A5A60124B00229A60114BB4
:101174000022DA600F4B4FF480421A610D4B0022BB
:101184005A610C4B00229A610A4B0022DA61094B26
:1011940000221A62074804F05FFB0346002B14BFC9
:1011A40001230023DBB2002B01D000F003FB00BFBE
:1011B40080BD00BF8802002000540040801A060051
:1011C40080B58AB000AF07F1200300221A605A608C
:1011D4003B1D00221A605A609A60DA601A615A61F3
:1011E4009A61294B4FF080421A60274B00225A60C3
:1011F400254B00229A60244B5922DA60224B0022AC
:101204001A61214B00229A611F4807F00BFC034628
:10121400002B14BF01230023DBB2002B01D000F00C
:10122400C9FA00233B6200237B6207F120031946BD
:10123400154808F015FD0346002B14BF01230023B5
:10124400DBB2002B01D000F0B5FA60237B600023F1
:10125400BB600023FB6000237B613B1D0022194619
:10126400094807F0B3FF0346002B14BF01230023F2
:10127400DBB2002B01D000F09DFA034801F0AAFF75
:1012840000BF2837BD4680BDDC02002080B586B093
:1012940000AF07F1080300221A605A609A60DA600E
:1012A4003B4600221A605A60244B254A1A60234B9D
:1012B40047225A60214B00229A60204B40F2F312DD
:1012C400DA601E4B00221A611C4B00229A611B48F3
:1012D40007F0CAFA0346002B14BF01230023DBB234
:1012E400002B01D000F066FA4FF48053BB6007F185
:1012F40008031946114808F027F80346002B14BFC9
:1013040001230023DBB2002B01D000F053FA0023A9
:101314003B6000237B603B461946084808F0A0FC6C
:101324000346002B14BF01230023DBB2002B01D0A2
:1013340000F040FA00BF1837BD4680BD24030020EA
:101344000004004080B586B000AF07F10803002216
:101354001A605A609A60DA603B4600221A605A604A
:10136400244B254A1A60234B47225A60214B002202
:101374009A60204B40F2E732DA601E4B00221A6179
:101384001C4B00229A611B4807F06EFA0346002B9F
:1013940014BF01230023DBB2002B01D000F00AFAB2
:1013A4004FF48053BB6007F108031946114807F056
:1013B400CBFF0346002B14BF01230023DBB2002B19
:1013C40001D000F0F7F900233B6000237B603B462B
:1013D4001946084808F044FC0346002B14BF0123B7
:1013E4000023DBB2002B01D000F0E4F900BF183772
:1013F400BD4680BD6C0300200008004080B582B06B
:1014040000AF104B5B690F4A43F0010353610D4B6E
:101414005B6903F001037B607B68002200210B20E1
:1014240003F0F3F90B2003F00CFA002200210F2043
:1014340003F0EBF90F2003F004FA00BF0837BD46B0
:1014440080BD00BF0010024080B586B000AF07F138
:10145400080300221A605A609A60DA60134B9B6991
:10146400124A43F004039361104B9B6903F0040395
:101474007B607B680D4B9B690C4A43F008039361C6
:101484000A4B9B6903F008033B603B683823BB604D
:101494000023FB6002233B6107F10803194604485B
:1014A40004F040F800BF1837BD4680BD001002406C
:1014B400000C0140B0B582B000AF044608461146A6
:1014C4001A462346FB800346BB800B467B801346AB
:1014D4003B80FA88BB88D31A398B3A888A1A02FB74
:1014E40003F31846FEF7EEFF04460D467A88BB88E0
:1014F400D31A1846FEF7E6FF02460B462046294655
:10150400FFF774F903460C4625461C463B881846EB
:10151400FEF7D8FF02460B4620462946FEF786FE14
:1015240003460C4618462146FFF748FA03469BB289
:1015340018460837BD46B0BD80B584B002AF7860A8
:101544007B681A68914B1B689A4229D10121904803
:1015540001F03BFF8F48FFF7CAFB03461A468E4B48
:101564001A8002218A4801F030FF8C48FFF7BFFB44
:1015740003461A46884B5A8002F062FC0246884BA6
:101584001B68D31A40F2E732934294BF012300232D
:10159400DBB2002B04D0834B1B680133814A1360F8
:1015A4007B681A68804B1B689A4240F0EA807F4B44
:1015B40093F84E30002B40D07C4BB3F813309BB2E1
:1015C400002B05D1744B1B889AB2784BA3F81320D7
:1015D400764BB3F815309BB2012B05D16E4B1B88AB
:1015E4009AB2724BA3F815206B4B1B889AB26F4BBF
:1015F400B3F815309BB29A428CBF01230023DBB2AF
:10160400002B05D0644B1B889AB2684BA3F81520B5
:10161400614B1B889AB2654BB3F813309BB29A4264
:1016240034BF01230023DBB2002B28D05A4B1B8884
:101634009AB25E4BA3F8132021E0574B1B8898B253
:101644005A4BB3F8133099B2584BB3F815309AB2D9
:1016540040F6FF7300930023FFF72CFF03461A465E
:10166400534B1A80524B1B8899B240F6FF730022E9
:101674004E4801F02AFC03461A464D4B1A804B4B48
:1016840093F84E30002B40D0484BB3F817309BB240
:10169400002B05D1404B5B889AB2444BA3F817202A
:1016A400424BB3F819309BB2012B05D13A4B5B88FE
:1016B4009AB23E4BA3F81920374B5B889AB23B4B46
:1016C400B3F819309BB29A428CBF01230023DBB2DA
:1016D400002B05D0304B5B889AB2344BA3F8192009
:1016E4002D4B5B889AB2314BB3F817309BB29A42B8
:1016F40034BF01230023DBB2002B1BD0264B5B88B5
:101704009AB22A4BA3F8172014E0234B5B8898B2B3
:10171400264BB3F8173099B2244BB3F819309AB268
:1017240040F6FF7300930023FFF7C4FE03461A46F6
:101734001F4B5A801E491D4801F0E0F91B4B93F8DA
:101744004C30002B02D0012B04D01AE0174801F0D2
:10175400A5FF16E0154B93F84D30012B08D0022B52
:101764000AD0002B00D00AE0104801F0C3FF07E0C4
:101774000E4802F009F803E00C4802F069F900BFD2
:1017840000BF00BF0837BD4680BD00BF6C0300200A
:1017940050040020A8040020F803002000050020C5
:1017A40060050020640500202403002000040020BC
:1017B400FC03002080B400AF00BFBD4680BC70476E
:1017C40080B582B000AF786039607B68012B10D19E
:1017D4003B684FF6FF7293420BD1124801F038FF79
:1017E400114801F0BFFD1148FFF736FA1048FFF722
:1017F40033FA7B68002B10D13B684FF6FF7293429B
:101804000BD10B48FFF732FA0848FFF72FFA0648C6
:1018140001F0B6FD034801F033FF00BF0837BD46B1
:1018240080BD00BF0004002050040020A804002054
:101834000005002080B500AF4FF6FF710120FFF7CF
:10184400BFFF80BD80B500AF4FF6FF710020FFF7EA
:10185400B7FF80BD80B483B000AF78600B46FB70E7
:10186400FB78542B13D8FB781A4652001344DAB28F
:101874007B681A70FB781A469B00D31ADBB2013BD3
:10188400DAB27B685A707B6800229A702CE0FB788D
:10189400A92B12D8FB78553BFB70FB78DB43DAB2FB
:1018A4007B681A707B6800225A70FB781A465200D3
:1018B4001344DAB27B689A7016E0FB785633FB70F7
:1018C4007B6800221A70FB781A4652001344DAB27D
:1018D4007B685A70FB781A469B00D31ADBB2013B33
:1018E400DAB27B689A7000BF0C37BD4680BC704783
:1018F40080B582B000AF786039600CF0EBF9024635
:1019040039687B68CB1A013392FBF3F103FB01F3D3
:10191400D21A7B68134418460837BD4680BDF0B51B
:101924008BB000AF3B600346FB710B46BB711346A3
:101934007B713B685B00C3F107023B6CD31A194609
:101944000020FFF7D5FFF861FA693B6813443A6C4D
:101954001344BB6100237B627A6A3B689A4215DABE
:10196400FA697B6A134418467B79BA79F97900F0ED
:101974008BFEBA697B6A134418467B79BA79F97984
:1019840000F082FE7B6A01337B62E5E7012000F010
:1019940029FF97F84430002B6DD0BB6C3B623B6A47
:1019A400002B68DBFA79BB6C92FBF3F33A6A02FB17
:1019B40003F31846FFF7DCF803467B61BA79BB6C86
:1019C40092FBF3F33A6A02FB03F31846FFF7D0F8ED
:1019D40003463B617A79BB6C92FBF3F33A6A02FBF0
:1019E40003F31846FFF7C4F80346FB6000237B6249
:1019F4007A6A3B689A4233DAFA697B6A13441E4670
:101A04007869FFF709F90346DCB23869FFF704F98E
:101A14000346DDB2F868FFF7FFF80346DBB22A4657
:101A24002146304600F030FEBA697B6A13441E46F4
:101A34007869FFF7F1F80346DCB23869FFF7ECF890
:101A44000346DDB2F868FFF7E7F80346DBB22A463F
:101A54002146304600F018FE7B6A01337B62C7E7FB
:101A6400012000F0BFFEFB6C184602F0F3F93B6A5C
:101A7400013B3B6293E700220021002000F036FE88
:101A84003B6D184602F0E6F900BF2C37BD46F0BDA9
:101A940080B588B000AF0346FB71FB79002B6CD096
:101AA4000023FB61FB69022B00F3EB800023BB6185
:101AB400BB69FF2B28DCFB69012B0BD0022B11D057
:101AC400002B17D1BB69DBB200220021184600F0BD
:101AD4000DFE0FE0BB69DBB200221946002000F0C6
:101AE40005FE07E0BB69DBB21A460021002000F0C6
:101AF400FDFD00BF012000F075FE3C2002F0AAF9B4
:101B0400BB690133BB61D3E74FF4C87002F0A2F99B
:101B1400FF237B617B69002B28DBFB69012B0BD046
:101B2400022B11D0002B17D17B69DBB200220021DC
:101B3400184600F0DBFD0FE07B69DBB2002219469A
:101B4400002000F0D3FD07E07B69DBB21A460021D8
:101B5400002000F0CBFD00BF012000F043FE3C203C
:101B640002F078F97B69013B7B61D3E7C82002F07E
:101B740071F9FB690133FB6194E7444B1B68FB7209
:101B8400424B1B681B12BB72404B1B681B147B72BD
:101B940000233B613B69952B33DCFB7A3A6902FBFA
:101BA40003F33B4A82FB03121211DB17D31AD8B298
:101BB400BB7A3A6902FB03F3354A82FB0312121122
:101BC400DB17D31AD9B27B7A3A6902FB03F3304AA2
:101BD40082FB03C21211DB17D31ADBB21A4600F0E0
:101BE40085FD012000F0FEFD3B693E2B02DC6420F4
:101BF40002F030F90A2002F02DF93B6901333B6110
:101C0400C8E7C82002F026F99623FB60FB68002B86
:101C140033DBFB7AFA6802FB03F31D4A82FB0312EF
:101C24001211DB17D31AD8B2BB7AFA6802FB03F39A
:101C3400174A82FB03121211DB17D31AD9B27B7A2B
:101C4400FA6802FB03F3124A82FB03C21211DB1788
:101C5400D31ADBB21A4600F049FD012000F0C2FDA0
:101C6400FB683E2B02DC3C2002F0F4F80A2002F070
:101C7400F1F8FB68013BFB60C8E740F2262002F064
:101C8400E9F800BF2037BD4680BD00BF5C050020D9
:101C9400B5814E1B90B587B000AF04460846114687
:101CA4001A462346FB710346BB710B467B711346F0
:101CB4003B7100220021002000F018FD3B795A1EE0
:101CC4003A71002B14BF01230023DBB2002B3BD05D
:101CD40000237B617B69092BF0DC00233B613B69BA
:101CE400012B2DDC0023FB60FB68062B0CDCFA685F
:101CF4003B69134418467B79BA79F97900F0C4FC3E
:101D0400FB680233FB60EFE7012000F06BFD9620D7
:101D140002F0A0F80023BB60BB68062B0CDCBA6899
:101D24003B691344184600230022002100F0ACFC58
:101D3400BB680233BB60EFE73B6901333B61CEE72D
:101D44007B6901337B61C5E700BF1C37BD4690BD8D
:101D540080B582B000AF0023BB80BB88FF2B23D8A3
:101D64000023FB80FB88062B14D8FB88DAB2BB88DF
:101D7400DBB21344DAB23B4611461846FFF76AFD5C
:101D8400F88839787A78BB7800F07EFCFB880133D8
:101D9400FB80E7E7012000F025FD082002F05AF857
:101DA400BB880133BB80D8E700BF0837BD4680BD80
:101DB40080B584B000AF0346FB71FB795A1EFA71FB
:101DC400002B14BF01230023DBB2002B32D00023ED
:101DD400BB81BB89B3F5A06FEFD20023FB81FB89E4
:101DE400062B1DD8FB891B02144A82FB03121A44DA
:101DF4009210DB17D31ADAB2BB89DBB21344DAB21E
:101E040007F1080311461846FFF724FDF889397ACB
:101E14007A7ABB7A00F038FCFB890133FB81DEE778
:101E2400012000F0DFFC022002F014F8BB8901332A
:101E3400BB81CEE700BF1037BD4680BD93244992D5
:101E440090B585B000AF0446084611461A462346AD
:101E5400FB710346BB710B467B7113463B713B79A7
:101E6400002B04D100220021002000F03FFC0023BD
:101E7400FB81FB89062B0FD8F8897B79BA79F9792C
:101E840000F002FC012000F0ADFC502001F0E2FF64
:101E9400FB890133FB81ECE700BF1437BD4690BDDD
:101EA40080B584B000AF0346FB71FB795A1EFA710A
:101EB400002B14BF01230023DBB2002B3AD00023F4
:101EC400FB73FB7B062B11D8F87B00230022FF2138
:101ED40000F0DAFBFB7B01331846002300220021CB
:101EE40000F0D2FBFB7B0233FB73EAE7012000F036
:101EF40079FCB42001F0AEFF0023BB73BB7B062B3F
:101F040011D8B87B00230022002100F0BDFBBB7B6D
:101F14000133184680238022802100F0B5FBBB7B6F
:101F24000233BB73EAE7012000F05CFCB42001F04B
:101F340091FFBAE700BF1037BD4680BD80B584B0BD
:101F440000AF0346FB71FB795A1EFA71002B14BFD4
:101F540001230023DBB2002B00F04B810023FB7331
:101F6400FB7B062BEFD8FA7BA44B83FB02131344B1
:101F74009910D317C91A0B46DB005B1AD11A08460D
:101F8400002300221F2100F07FFBFB7B5A1C9B4B8C
:101F940083FB021313449910D317C91A0B46DB00B1
:101FA4005B1AD11A0846002300221F2100F06CFBA3
:101FB400FB7B9A1C914B83FB021313449910D31798
:101FC400C91A0B46DB005B1AD11A084600231F22EC
:101FD400002100F059FBFB7BDA1C884B83FB0213C6
:101FE40013449910D317C91A0B46DB005B1AD11A94
:101FF400084600231F22002100F046FBFB7B1A1D2C
:102004007E4B83FB021313449910D317C91A0B4652
:10201400DB005B1AD11A08461F230022002100F0BE
:1020240033FBFB7B5A1D754B83FB0213134499103E
:10203400D317C91A0B46DB005B1AD11A08461F23B3
:102044000022002100F020FBFB7B9A1D6B4B83FBDD
:10205400021313449910D317C91A0B46DB005B1AF9
:10206400D11A084600231F22002100F00DFBFB7B40
:10207400DA1D624B83FB021313449910D317C91A58
:102084000B46DB005B1AD11A084600231F220021ED
:1020940000F0FAFAFB7B03F10802584B83FB0213AE
:1020A40013449910D317C91A0B46DB005B1AD11AD3
:1020B4000846002300221F2100F0E6FAFB7B03F10F
:1020C40009024E4B83FB021313449910D317C91A08
:1020D4000B46DB005B1AD11A0846002300221F219D
:1020E40000F0D2FAFB7B03F10A02444B83FB021398
:1020F40013449910D317C91A0B46DB005B1AD11A83
:10210400084600231F22002100F0BEFAFB7B03F1E6
:102114000B023A4B83FB021313449910D317C91AC9
:102124000B46DB005B1AD11A084600231F2200214C
:1021340000F0AAFAFB7B03F10C02304B83FB021381
:1021440013449910D317C91A0B46DB005B1AD11A32
:1021540008461F230022002100F096FAFB7B03F1BE
:102164000D02264B83FB021313449910D317C91A8B
:102174000B46DB005B1AD11A08461F2300220021FC
:1021840000F082FAFB7B03F10E021C4B83FB02136B
:1021940013449910D317C91A0B46DB005B1AD11AE2
:1021A400084600231F22002100F06EFAFB7B03F196
:1021B4000F02124B83FB021313449910D317C91A4D
:1021C4000B46DB005B1AD11A084600231F220021AC
:1021D40000F05AFA012000F005FB00220021002043
:1021E40000F084FA502001F035FEFB7B0133FB73D1
:1021F400B6E600BF1037BD4680BD00BF93244992A8
:1022040080B584B000AF3B600346FB710B46BB71E5
:1022140013467B710023FB60FA683B689A421CDA20
:102224007A79B979FB79184600F060FA012000F058
:10223400D9FABB69184601F00DFE002200210020E6
:1022440000F054FA012000F0CDFABB69184601F001
:1022540001FEFB680133FB60DEE7FB69184601F011
:10226400F9FD00BF1037BD4680BD80B483B000AF18
:102274007860396001223B6802FA03F31A467B68EE
:102284001340002B14BF01230023DBB218460C3784
:10229400BD4680BC7047B0B588B006AF78601F21DA
:1022A4007868FFF7E2FF0346002B1DD0322105209A
:1022B400FFF71EFB044696213220FFF719FB054663
:1022C40042F210714FF47A70FFF712FB0346049345
:1022D4000395029401230193042300930123002214
:1022E4000021FF20FFF71BFB1E217868FFF7BDFFCD
:1022F4000346002B02D00120FFF7CAFB1D2178689A
:10230400FFF7B3FF0346002B1DD00023002200215A
:102314001F20FFF795FD012300221F210020FFF756
:102324008FFD01231F2200210020FFF789FD0123D7
:102334001F221F211F20FFF783FD012300220021FC
:102344000020FFF77DFD1C217868FFF78EFF034610
:10235400002B01D0FFF7FCFC1B217868FFF785FFF9
:102364000346002B02D00220FFF722FD1A217868D1
:10237400FFF77BFF0346002B05D003230B2200212C
:102384001F20FFF787FC19217868FFF76EFF0346CB
:10239400002B02D01420FFF783FD18217868FFF783
:1023A40064FF0346002B02D01420FFF7C7FD17215A
:1023B4007868FFF75AFF0346002B02D00020FFF78E
:1023C40067FB16217868FFF750FF0346002B0AD0FD
:1023D4004FF47A730193322300930A23FF22FF21DF
:1023E400FF20FFF70DFF00BF0837BD46B0BD80B525
:1023F40082B000AF78607B681B7F012B02D1012083
:1024040000F0A8F800BF0837BD4680BD80B582B093
:1024140000AF78607B681B7F012B02D1002000F0A5
:1024240099F800BF0837BD4680BD000080B485B070
:1024340000AF786039607B68062B00F2818000234E
:10244400FB60FB68072B79D87A6813465B0013445A
:1024540001333E4AD35C1A46FB68C3F1070342FAD0
:1024640003F303F00103002B09D04FF08043DB6A30
:102474005B00374AA2FB03235B08DBB207E04FF0A3
:102484008043DB6A324AA2FB03235B08DBB2396870
:10249400FA680A4413707A6813465B0013442B4AA3
:1024A400D35C1A46FB68C3F1070342FA03F303F053
:1024B4000103002B09D04FF08043DB6A5B00244A00
:1024C400A2FB03235B08DBB207E04FF08043DB6A27
:1024D4001F4AA2FB03235B08DBB2FA68083239689F
:1024E4000A4413707A6813465B0013440233174A94
:1024F400D35C1A46FB68C3F1070342FA03F303F003
:102504000103002B09D04FF08043DB6A5B00104AC3
:10251400A2FB03235B08DBB207E04FF08043DB6AD6
:102524000B4AA2FB03235B08DBB2FA68103239685A
:102534000A441370FB680133FB6082E7012300E067
:10254400002318461437BD4680BC70476805002038
:10255400ABAAAAAA80B582B000AF0346FB71FB798F
:10256400002B14BF01230023DBB2FB713F4B1B780C
:10257400022B07D100213E4806F056FC3D4B0022B9
:102584001A706FE0394B1B78012B0DD1FB79002BAE
:1025940067D00021364806F047FC344B00221A70FD
:1025A400354B00221A6004E0334B1B680133324A76
:1025B4001360314B1B68062B94BF01230023DBB24D
:1025C400002B43D02C4B1B68002B02D0FB79002B33
:1025D40001D1012300E00023002B06D0264B1B6809
:1025E40026491846FFF722FF05E0234B1B682449C0
:1025F4001846FFF71BFF204B1B68002B0CBF012361
:102604000023DBB2002B2DD01B4B1B6801331A4A6D
:102614001360194B1B681A491846FFF707FF194B3B
:1026240020229A61174802F02BF90346002B14BFAD
:1026340001230023DBB2002B01D0FFF7BBF83023CA
:102644000E4A00210A4806F03DFA0BE0FB79002B04
:1026540008D10021064806F0E7FB022000F078F8D4
:1026640000E000BF0837BD4680BD00BFB0050020B4
:10267400DC020020B1050020B40500208005002004
:1026840098050020B403002080B483B000AF7860C4
:10269400084611461A460346FB700B46BB701346A8
:1026A4007B707B68062B18D87A6813465B0013444A
:1026B4000D49FA78CA547A6813465B00134401330F
:1026C4000949BA78CA547A6813465B001344023342
:1026D40005497A78CA54012300E0002318460C37D0
:1026E400BD4680BC704700BF6805002080B485B03B
:1026F40000AF0346FB710B46BB7113467B7100238D
:10270400FB60FB68062B1AD8FA6813465B00134477
:102714000E49FA79CA54FA6813465B00134401332C
:102724000A49BA79CA54FA6813465B00134402335F
:1027340006497A79CA54FB680133FB60E1E7012357
:1027440018461437BD4680BC704700BF680500209A
:1027540080B582B000AF0346FB71164AFB79137053
:102764003022002114480BF0ACFAFB79012B06D17E
:102774004FF08043DB6A5B08DAB20F4B1A700F4BE1
:1027840000229A610D4802F07BF80346002B14BF27
:1027940001230023DBB2002B01D0FFF70BF8282321
:1027A400054A0021064806F08DF90123184608372A
:1027B400BD4680BDB005002080050020B403002084
:1027C400DC02002080B400AF054B1B78DBB2002B89
:1027D4000CBF01230023DBB21846BD4680BC704702
:1027E400B105002080B582B000AF0346FB71124BE7
:1027F4001B78DBB2002B14BF01230023DBB2002BB8
:1028040001D0002314E00C4B01221A700120FFF7C1
:102814009FFFFB79002B0AD0FFF7D4FF0346002B60
:102824000CBF01230023DBB2002B00D0F4E701230B
:1028340018460837BD4680BDB105002080B483B07A
:1028440000AF78607B6818460C37BD4680BC704783
:1028540080B483B000AF78607B6818460C37BD46FF
:1028640080BC704780B483B000AF78600B46FB70C7
:10287400FB7883F00103DBB2002B11D07B680022CC
:102884001A637B6800225A637B6801225A737B684F
:1028940001229A747B680022DA767B6820221A77F8
:1028A4007B68002262F02302DA70002242F0050203
:1028B4001A717B68002262F03B025A71002242F0D6
:1028C40009029A717B68002262F05302DA710022D5
:1028D40042F00D021A727B68002242F008025A721A
:1028E400002242F007029A727B68002242F0100232
:1028F400DA72002242F00E021A737B680022DA7444
:1029040000221A757B68002242F001025A750022E7
:102914009A757B680022DA7500221A767B68002299
:1029240042F001025A7600229A7600BF0C37BD4667
:1029340080BC704780B584B000AF786000217868AF
:10294400FFF790FF0821534802F056FF03461A464A
:102954007B6883F829200023FB737B6893F8293074
:10296400012B1AD107F10F03012219464A48FEF739
:102974005FFAFB7BCC2B06D17B6802331F221946FE
:102984004648FEF755FA7B6800229A707B6893F8F4
:1029940029207B6883F828203AE07B680022DA70DB
:1029A40000221A717B6800225A7100229A717B6896
:1029B4000022DA7100221A727B68002242F060025F
:1029C4005A72002242F009029A727B68002242F095
:1029D4004802DA72002242F00D021A7307F10F0363
:1029E400012219462E48FEF723FAFB7BCC2B06D195
:1029F4007B6802331F2219462A48FEF719FA7B68BE
:102A040001229A707B6893F829207B6883F8282038
:102A14007B68B3F813309BB241F28832934204D9F5
:102A24007B680022DA7400221A757B68B3F81530CB
:102A34009BB241F28832934206D97B68002242F06D
:102A440001025A7500229A757B68B3F817309BB25D
:102A540041F28832934204D97B680022DA7500225D
:102A64001A767B68B3F819309BB241F288329342EC
:102A740006D97B68002242F001025A7600229A7637
:102A84007B68D3F81D30084A136000BF1037BD4679
:102A940080BD00BF000C014000F0070800F80708E3
:102AA40000E0070800E807085C05002080B483B054
:102AB40000AF78600B467B807B681B881AB27B88EA
:102AC400013B012101FA03F31BB213431BB29AB277
:102AD4007B681A8000BF0C37BD4680BC704780B548
:102AE40082B000AF78607B680222002118460BF0A8
:102AF400E8F800BF0837BD4680BD000080B582B04D
:102B040000AF786039607868FFF7E9FF082158481A
:102B140002F072FE03461A467B6883F829207B681C
:102B240093F828207B6893F829309A4202D0786879
:102B3400FFF700FF7B68DB7E012B03D07B68DB7E25
:102B4400032B08D13B681B889BB2C3F57F630F330B
:102B54009AB23B681A807B68DB7E022B03D07B68C9
:102B6400DB7E032B0AD13B6802331B889BB23A6895
:102B74000232C3F57F630F339BB2138010213C48AC
:102B840002F03AFE03461A467B6883F82A20202185
:102B9400374802F031FE03461A467B6883F82B203F
:102BA4007B6893F82A30012B03D109217868FFF759
:102BB4007DFF7B6893F82B30012B03D10A217868C1
:102BC400FFF774FF7B685B8C1A467B681B7F03FBF3
:102BD40002F33A68128892B21A447B681B7F01336D
:102BE40092FBF3F39AB27B685A847B689B8C1A46F7
:102BF4007B681B7F03FB02F33A680232128892B2AD
:102C04001A447B681B7F013392FBF3F39AB27B680F
:102C14009A847B685B8CB3F5805F03D37B6840F652
:102C2400FF725A847B689B8CB3F5805F03D37B6807
:102C340040F6FF729A847B6893F82930002B03D105
:102C44007B684FF400625A84786800F0BAF87B68B5
:102C540093F82930012B03D10B217868FFF726FF65
:102C6400786800F007F800BF0837BD4680BD00BF94
:102C7400000C014080B582B000AF78607B689B781F
:102C8400002B02D0012B7ED097E07B6893F82C3088
:102C9400002B09D17B6893F82D30002B04D101213E
:102CA4007868FFF703FF6DE07B6893F82C30002B06
:102CB40009D17B6893F82D30022B04D10221786866
:102CC400FFF7F4FE5EE07B6893F82C30012B09D10A
:102CD4007B6893F82D30002B04D103217868FFF72B
:102CE400E5FE4FE07B6893F82C30012B09D17B681B
:102CF40093F82D30022B04D104217868FFF7D6FE17
:102D040040E07B6893F82C30022B09D17B6893F860
:102D14002D30002B04D105217868FFF7C7FE31E080
:102D24007B6893F82C30022B09D17B6893F82D3003
:102D3400022B04D106217868FFF7B8FE22E07B68F5
:102D440093F82C30032B09D17B6893F82D30002B9A
:102D540004D107217868FFF7A9FE13E07B6893F894
:102D64002C30032B09D17B6893F82D30022B04D12E
:102D740008217868FFF79AFE04E000217868FFF7DD
:102D840095FE1AE019E07B689A8C7B68B3F80930E9
:102D94009BB29A4204D801217868FFF787FE0BE0C2
:102DA4007B689A8C7B68B3F80B309BB29A4203D34E
:102DB40002217868FFF77AFE00BF00BF0837BD46DE
:102DC40080BD80B483B000AF78607B685A8C7B6828
:102DD400B3F803309BB29A4204D87B68002283F88C
:102DE4002C203AE07B685A8C7B68B3F803309BB2A2
:102DF4009A420CD97B685A8C7B68B3F805309BB235
:102E04009A4204D87B68012283F82C2025E07B6851
:102E14005A8C7B68B3F805309BB29A420CD97B6814
:102E24005A8C7B68B3F807309BB29A4204D87B680B
:102E3400022283F82C2010E07B685A8C7B68B3F85C
:102E440007309BB29A4204D97B68032283F82C2072
:102E540003E07B68042283F82C207B689A8C7B68CF
:102E6400B3F809309BB29A4204D27B68002283F8FB
:102E74002D2025E07B689A8C7B68B3F809309BB2DF
:102E84009A420CD97B689A8C7B68B3F80B309BB25E
:102E94009A4204D27B68012283F82D2010E07B68DB
:102EA4009A8C7B68B3F80B309BB29A4204D97B6846
:102EB400022283F82D2003E07B68032283F82D206F
:102EC40000BF0C37BD4680BC704780B485B000AFEE
:102ED400F860084611461A4603467B810B463B813F
:102EE4001346FB807A89FB889A4201D9FB887B814F
:102EF4007A893B899A4201D23B897B81FA883B8952
:102F040013449AB27B89D31A9BB218461437BD4630
:102F140080BC704780B485B000AF154B9B69144AE0
:102F240043F001039361124B9B6903F00103BB60FF
:102F3400BB680F4BDB690E4A43F08053D3610C4BE3
:102F4400DB6903F080537B607B680A4B5B68FB6042
:102F5400FB6823F0E063FB60FB6843F00073FB60F5
:102F6400044AFB68536000BF1437BD4680BC7047F9
:102F7400001002400000014080B588B000AF7860C6
:102F840007F1100300221A605A609A60DA607B68C5
:102F94001B68284A934249D1274B9B69264A43F42C
:102FA40000739361244B9B6903F40073FB60FB681B
:102FB400214B9B69204A43F0040393611E4B9B6998
:102FC40003F00403BB60BB6806233B6103237B61FE
:102FD40007F110031946194802F0A4FA184B194ACC
:102FE4001A60174B00225A60154B00229A60144B4A
:102FF4008022DA60124B4FF480721A61104B4FF446
:1030040080625A610E4B20229A610D4B0022DA61D4
:103014000B4801F035FC0346002B01D0FEF7CAFB38
:103024007B68074A1A62064A7B68536200BF2037EE
:10303400BD4680BD0024014000100240000801404C
:10304400440200200800024080B588B000AF7860D8
:1030540007F1100300221A605A609A60DA607B68F4
:103064001B68154A934223D1144B9B69134A43F0BE
:1030740008039361114B9B6903F00803FB60FB6831
:10308400C0233B6112237B610323FB6107F110031F
:1030940019460B4802F046FA084BDB69074A43F429
:1030A4000013D361054BDB6903F40013BB60BB68F9
:1030B40000BF2037BD4680BD0054004000100240D0
:1030C400000C014080B584B000AF78607B681B6859
:1030D400B3F1804F32D11B4BDB691A4A43F0010331
:1030E400D361184BDB6903F00103FB60FB68164BEB
:1030F400164A1A60144B10225A60134B00229A602D
:10310400114B8022DA60104B4FF480721A610E4B1F
:1031140000225A610C4B20229A610B4B0022DA6187
:10312400094801F0ADFB0346002B01D0FEF742FB3A
:103134007B68054A5A62044A7B68536200BF1037B1
:10314400BD4680BD00100240B40300205800024078
:1031540080B584B000AF78607B681B681A4A9342DC
:1031640014D11A4BDB69194A43F00203D361174B9C
:10317400DB6903F00203FB60FB68002200211D20D1
:1031840001F043FB1D2001F05CFB18E07B681B6829
:103194000F4A934213D10D4BDB690C4A43F00403ED
:1031A400D3610A4BDB6903F00403BB60BB680022F4
:1031B40000211E2001F029FB1E2001F042FB00BF6C
:1031C4001037BD4680BD00BF00040040001002401F
:1031D4000008004080B588B000AF786007F11003A4
:1031E40000221A605A609A60DA607B681B68B3F147
:1031F400804F17D10D4B9B690C4A43F00403936134
:103204000A4B9B6903F00403FB60FB6801233B61E9
:1032140012237B610323FB6107F110031946044861
:1032240002F080F900BF2037BD4680BD0010024087
:103234000008014080B400AF00BFBD4680BC7047A9
:1032440080B400AFFEE780B400AFFEE780B400AF07
:10325400FEE780B400AFFEE780B400AF00BFBD4618
:1032640080BC704780B400AF00BFBD4680BC7047CF
:1032740080B400AF00BFBD4680BC704780B500AFCE
:1032840000F0CCFD00BF80BD80B500AF024801F066
:10329400D5FC00BF80BD00BF4402002080B500AF54
:1032A400024801F0CBFC00BF80BD00BFB403002086
:1032B40080B500AF024803F0DEFB00BF80BD00BF55
:1032C4004C0B002080B500AF024805F077FE00BF2C
:1032D40080BD00BF2403002080B500AF024805F084
:1032E4006DFE00BF80BD00BF6C03002080B586B0BA
:1032F40000AF7860144A154BD31A7B617B693B613C
:10330400134B1B68002B02D1114B124A1A60104B4D
:103314001A687B6813443A699A4207D20AF09CFC03
:1033240002460C2313604FF0FF3309E0084B1B687F
:10333400FB60074B1A687B681344054A1360FB68FB
:1033440018461837BD4680BD000001200004000067
:10335400B8050020400E002080B400AF00BFBD4679
:1033640080BC704780B483B000AF78607B68002273
:1033740083F854207B6818460C37BD4680BC7047E0
:1033840080B483B000AF78607B6818460C37BD46C4
:1033940080BC704784B080B582B000AF786007F11C
:1033A400140080E80E007B6807F1140154221846CB
:1033B4000AF07CFC0021786800F007F800BF0837A9
:1033C400BD46BDE8804004B0704780B584B002AF0C
:1033D40078600B46FB707868FA1CC82300930123BD
:1033E400E02102F071FB03461A467B6883F85420FF
:1033F4007B6893F85430002B02D0786800F004F80E
:1034040000BF0837BD4680BD80B588B000AF786086
:103414008C4805F0D9FA8C4805F0D6FA6423BB61D0
:103424000023FB617B681B681A687B681B6822F0B9
:1034340001021A601123FB6001233B6103237B61BA
:103444004023BB6007F108031946804802F06AF87C
:10345400012240217D4802F0E6F98023BB6007F198
:1034640008031946794802F05DF801228021774863
:1034740002F0D9F94021754802F0BEF90346012B48
:1034840014BF01230023DBB2002B08D0FB690133F6
:10349400FB61FA69BB699A4200F3C580EAE78021BF
:1034A4006A4802F0A9F90346012B14BF0123002343
:1034B400DBB2002B13D000224021644802F0B3F9A0
:1034C40000BF01224021614802F0ADF9FB690133DC
:1034D400FB61FA69BB699A4200F3A780DFE7002227
:1034E40080215A4802F09FF98021584802F084F95B
:1034F4000346002B14BF01230023DBB2002B08D0AA
:10350400FB690133FB61FA69BB699A4200F38F805E
:10351400EAE7002240214D4802F085F940214B485A
:1035240002F06AF90346002B14BF01230023DBB227
:10353400002B07D0FB690133FB61FA69BB699A422E
:1035440077DCEBE701224021404802F06CF940218E
:103554003E4802F051F90346012B14BF0123002316
:10356400DBB2002B07D0FB690133FB61FA69BB694D
:103574009A4260DCEBE701228021344802F053F9DF
:103584008021324802F038F90346012B14BF01238D
:103594000023DBB2002B07D0FB690133FB61FA691E
:1035A400BB699A4249DCEBE71223FB6001233B61D0
:1035B40003237B614023BB6007F1080319462348BA
:1035C40001F0B0FF8023BB6007F1080319461F48D0
:1035D40001F0A8FF012240211C4802F024F9012235
:1035E40080211A4802F01FF97B681B681A687B68FF
:1035F4001B6842F400421A6000BF7B681B681A68AB
:103604007B681B6822F400421A6000BF7B681B6859
:103614001A687B681B6842F001021A607B681846CE
:1036240002F01AF90AE000BF08E000BF06E000BF9C
:1036340004E000BF02E000BF00E000BF2037BD4649
:1036440080BD00BF240300206C030020000C014057
:1036540080B582B000AF78607B681846FFF7EEF85B
:103664007B68064A12689A647B68002283F84C20BF
:103674007B6818460837BD4680BD00BF40DE0008A1
:1036840080B582B000AF78607B681846FFF7E0F839
:103694007B6818460837BD4680BD000080B584B0FD
:1036A40000AF78600023FB60FB685A1CFA600F4A85
:1036B4000121D1547B681988FB685A1CFA60C9B28D
:1036C4000A4AD1547B681B881B0A99B2FB685A1CAE
:1036D400FA60C9B2054AD15440220449044808F0AA
:1036E40061FD00BF1037BD4680BD00BFBC05002092
:1036F4008806002080B584B000AF7860204B00229B
:1037040083F840200023FB60FB685A1CFA601C4AC3
:103714004121D154FB685A1CFA60194A1921D15429
:10372400FB685A1CFA60164AFF21D154FB685A1CE4
:10373400FA607A6892F84810114AD154FB685A1C0E
:10374400FA607A6892F849100D4AD154FB685A1C01
:10375400FA607A6892F84A10094AD154FB685A1CF4
:10376400FA607A6892F84B10054AD1544022044911
:10377400044808F017FD00BF1037BD4680BD00BFE8
:10378400BC0500208806002080B584B000AF7860B6
:10379400A14B002283F840200023FB60FB685A1CE5
:1037A400FA609D4A4121D154FB685A1CFA609A4A36
:1037B4001621D154FB685A1CFA60974AFF21D15450
:1037C400FB685A1CFA60944A0021D1547B68B3F810
:1037D400033099B2FB685A1CFA60C9B28E4AD154BC
:1037E4007B68B3F803309BB21B0A99B2FB685A1C7E
:1037F400FA60C9B2884AD1547B68B3F8053099B2EB
:10380400FB685A1CFA60C9B2834AD1547B68B3F886
:1038140005309BB21B0A99B2FB685A1CFA60C9B204
:103824007D4AD1547B68B3F8073099B2FB685A1CBF
:10383400FA60C9B2784AD1547B68B3F807309BB2B6
:103844001B0A99B2FB685A1CFA60C9B2724AD15475
:103854007B68B3F8093099B2FB685A1CFA60C9B2A4
:103864006D4AD1547B68B3F809309BB21B0A99B2F4
:10387400FB685A1CFA60C9B2674AD1547B68B3F832
:103884000B3099B2FB685A1CFA60C9B2624AD1542F
:103894007B68B3F80B309BB21B0A99B2FB685A1CC5
:1038A400FA60C9B25C4AD1547B68597BFB685A1CE4
:1038B400FA60594AD1547B68D3F80E10FB685A1C3D
:1038C400FA60C9B2544AD1547B68D3F80E30190A4D
:1038D400FB685A1CFA60C9B24F4AD1547B68D3F8CA
:1038E4000E30190CFB685A1CFA60C9B24A4AD1540A
:1038F4007B68D3F80E30190EFB685A1CFA60C9B203
:10390400454AD1547B68997CFB685A1CFA60424A48
:10391400D1547B68B3F8133099B2FB685A1CFA602F
:10392400C9B23D4AD1547B68B3F813309BB21B0A29
:1039340099B2FB685A1CFA60C9B2374AD1547B6801
:10394400B3F8153099B2FB685A1CFA60C9B2324A0E
:10395400D1547B68B3F815309BB21B0A99B2FB684B
:103964005A1CFA60C9B22C4AD1547B68B3F8173098
:1039740099B2FB685A1CFA60C9B2274AD1547B68D1
:10398400B3F817309BB21B0A99B2FB685A1CFA6051
:10399400C9B2214AD1547B68B3F8193099B2FB6893
:1039A4005A1CFA60C9B21C4AD1547B68B3F8193066
:1039B4009BB21B0A99B2FB685A1CFA60C9B2164A38
:1039C400D154FB685A1CFA607A68D17E124AD154E9
:1039D400FB685A1CFA607A68117F0F4AD1547B68DD
:1039E400D3F81D10FB685A1CFA60C9B20A4AD154B4
:1039F4007B68D3F81D301912FB685A1CFA60C9B2EF
:103A0400054AD1547B68D3F81D301914FB685A1C3D
:103A1400FA60C9B202E000BFBC0500200A4AD154D2
:103A24007B68D3F81D30190EFB685A1CFA60C9B2C2
:103A3400054AD15440220449044808F0B3FB00BFAE
:103A44001037BD4680BD00BFBC050020880600209D
:103A540080B584B000AF7860224B002283F8402008
:103A64000023FB60FB685A1CFA601E4A4121D154B2
:103A7400FB685A1CFA601B4A1521D154FB685A1C76
:103A8400FA60184AFF21D1547B68598CFB685A1C90
:103A9400FA60C9B2134AD1547B685B8C1B0A99B291
:103AA400FB685A1CFA60C9B20E4AD1547B68998CDF
:103AB400FB685A1CFA60C9B20A4AD1547B689B8CD1
:103AC4001B0A99B2FB685A1CFA60C9B2054AD15460
:103AD40040220449044808F065FB00BF1037BD4686
:103AE40080BD00BFBC0500208806002080B582B0E0
:103AF40000AF786039603B681B78172B60D01A2BB5
:103B040059D0142B00D05CE03B6803331B78062BA0
:103B14001BD0062B06DC012B12D0042B24D0002B47
:103B240009D04EE0082B38D0082B18DB902B3CD062
:103B3400FF2B37D045E03968786800F04DF839E05C
:103B44003968786800F05BF834E07B680121184636
:103B5400FEF788FE7B68012283F84E202AE07B680A
:103B6400002283F84E2025E0184BFF221A707B6850
:103B74009B78002B02D0012B06D00BE001221349C5
:103B84001348FDF7F5F805E0012210491148FDF747
:103B9400EFF800BF00F063FE0CE07B681846FEF708
:103BA400C9FE07E000F05BFE04E07B68002283F8B6
:103BB4004C2000BF05E03968786800F0ABF800E0FD
:103BC40000BF00BF0837BD4680BD00BFFC05002014
:103BD40000F0070800E0070880B483B000AF786005
:103BE40039607B68012283F84C203B681A797B6832
:103BF40083F84D2000BF0C37BD4680BC704780B5AC
:103C040082B000AF786039603B6808331946786841
:103C140000F004F800BF0837BD4680BD80B582B00F
:103C240000AF786039603B68B3F801309AB27B68C2
:103C3400A3F803203B68B3F803309AB27B68A3F877
:103C440005203B68B3F805309AB27B68A3F80720D7
:103C54003B68B3F807309AB27B68A3F809203B6845
:103C6400B3F809309AB27B68A3F80B203B68DA7A80
:103C74007B685A733B68DA687B68C3F80E203B683C
:103C84001A7C7B689A743B685A7E7B68DA763B6858
:103C94009A7E7B681A773B68D3F81B207B68C3F84D
:103CA4001D207B68D3F81D30144A1360144BCC22BA
:103CB4001A707B689B78002B02D0012B0DD019E081
:103CC40001220F490F48FDF753F87B6802331F2286
:103CD40019460D48FDF74CF80CE0012208490B4841
:103CE400FDF746F87B6802331F2219460848FDF7A2
:103CF4003FF800BF00BF0837BD4680BD5C0500200B
:103D0400FC05002000F0070800F8070800E0070899
:103D140000E8070880B483B000AF7860396000BF62
:103D24000C37BD4680BC704780B582B000AF786068
:103D340079680348FFF7DAFE00BF0837BD4680BD47
:103D440000040020002103E00B4B5B584350043176
:103D54000A480B4B42189A42F6D30A4A02E000235F
:103D640042F8043B084B9A42F9D3FFF7F5FA09F0FD
:103D740079FFFDF78DF87047CCDE000800000020C5
:103D8400E4010020E80100203C0E0020FEE70000D2
:103D940080B500AF084B1B68074A43F0100313605B
:103DA400032000F027FD002000F008F8FFF7B2F828
:103DB4000023184680BD00BF0020024080B582B0B9
:103DC40000AF7860124B1A68124B1B7819464FF4F7
:103DD4007A73B3FBF1F3B2FBF3F3184600F043FD3F
:103DE4000346002B01D001230EE07B680F2B0AD879
:103DF400002279684FF0FF3000F007FD064A7B6827
:103E04001360002300E0012318460837BD4680BD37
:103E140000000020080000200400002080B400AF4F
:103E2400054B1B781A46054B1B681344034A136061
:103E340000BFBD4680BC704708000020600600201B
:103E440080B400AF024B1B681846BD4680BC704767
:103E54006006002080B584B000AF7860FFF7F0FF03
:103E6400B8607B68FB60FB68B3F1FF3F05D0094B8A
:103E74001B781A46FB681344FB6000BFFFF7E0FFA2
:103E84000246BB68D31AFA689A42F7D800BF1037C3
:103E9400BD4680BD0800002080B586B000AF7860C4
:103EA4000023FB7500233B610023BB600023FB6000
:103EB4007B68002B01D10123CEE07B689B68002B3B
:103EC4007B689B6A002B09D17B680022DA627B68DD
:103ED400002283F824207868FFF74EF8786800F011
:103EE40009FB0346FB757B689B6A03F01003002BF8
:103EF40040F0A980FB7D002B40F0A5807B689B6A85
:103F040023F4885323F0020343F002027B689A628D
:103F14007B685A687B681B6851498B420AD17B686D
:103F2400DB69B3F5402F02D07B68DB6904E04FF412
:103F3400002301E07B68DB691A437B681B7B5B0021
:103F44001343BA681343BB607B689B68B3F5807FF7
:103F540003D07B689B68012B02D14FF4807300E08F
:103F640000233A6913433B617B681B7D012B19D104
:103F74007B681B7B002B09D17B689B69013B5A033F
:103F84003B69134343F400633B610BE07B689B6A2A
:103F940043F020027B689A627B68DB6A43F001028B
:103FA4007B68DA627B681B685B6823F469417B6821
:103FB4001B683A690A435A607B681B689A68294BF4
:103FC40013407A681268B9680B4393607B689B68F6
:103FD400B3F5807F03D07B689B68012B04D17B6899
:103FE4001B69013B1B05FB607B681B68DB6A23F4D0
:103FF40070017B681B68FA680A43DA627B681B6895
:104004009A68194B1340BA689A420BD17B68002214
:10401400DA627B689B6A23F0030343F001027B6846
:104024009A6218E07B689B6A23F0120343F0100243
:104034007B689A627B68DB6A43F001027B68DA6220
:104044000123FB7507E07B689B6A43F010027B68E1
:104054009A620123FB75FB7D18461837BD4680BD67
:10406400003C0140FDF7E1FFFE0E1FFF80B586B066
:1040740000AFF860B9607A600023FB75FB681B68C9
:10408400644A934204D0FB681B68634A934206D196
:10409400604B5B6803F47023002B40F0B380FB6833
:1040A40093F82430012B01D10223AEE0FB680122F6
:1040B40083F82420F86800F0CBF90346FB75FB7DF8
:1040C400002B40F09A80FB689B6A23F4706323F012
:1040D400010343F48072FB689A62FB681B684E4AD2
:1040E400934205D14B4B5B6803F47023002B15D12D
:1040F400FB689B6A23F48012FB689A62FB681B6866
:104104005B6803F48063002B26D0FB689B6A23F46E
:10411400405343F48052FB689A621DE0FB689B6A3B
:1041240043F48012FB689A62FB681B68394A934225
:1041340004D0FB681B68384A93420DD1354B5B6849
:1041440003F48063002B07D0FB689B6A23F440537D
:1041540043F48052FB689A62FB689B6A03F48053C1
:10416400002B06D0FB68DB6A23F00602FB68DA62E8
:1041740002E0FB680022DA62FB68002283F8242054
:10418400FB681B6A254A9A62FB681B6A244ADA6246
:10419400FB681B6A234A1A63FB681B686FF0020200
:1041A4001A60FB681B689A68FB681B6842F480729B
:1041B4009A60FB68186AFB681B684C331946BA6836
:1041C4007B6800F0D3FBFB681B689B6803F46023E7
:1041D400B3F5602F08D1FB681B689A68FB681B68FD
:1041E40042F4A0029A600FE0FB681B689A68FB68BF
:1041F4001B6842F480129A6006E0FB68002283F890
:10420400242001E00123FB75FB7D18461837BD46C9
:1042140080BD00BF00240140002801406D45000816
:10422400E94500080546000880B483B000AF786013
:1042340000BF0C37BD4680BC704780B483B000AF6C
:10424400786000BF0C37BD4680BC704780B483B033
:1042540000AF786000BF0C37BD4680BC70470000DB
:1042640080B485B000AF786039600023FB7300230D
:10427400BB607B6893F82430012B01D10223DCE07E
:104284007B68012283F824203B685B68062B1CD8DA
:104294007B681B68596B3B685A6813469B00134440
:1042A400053B1F2202FA03F3DB4319403B681868FD
:1042B4003B685A6813469B001344053B00FA03F21B
:1042C4007B681B680A435A633CE03B685B680C2BC1
:1042D4001CD87B681B68196B3B685A6813469B00A3
:1042E4001344233B1F2202FA03F3DB4319403B68C8
:1042F40018683B685A6813469B001344233B00FA32
:1043040003F27B681B680A431A631BE07B681B6823
:10431400D96A3B685A6813469B001344413B1F22E9
:1043240002FA03F3DB4319403B6818683B685A6898
:1043340013469B001344413B00FA03F27B681B685D
:104344000A43DA623B681B68092B1CD97B681B682B
:10435400D9683B681A6813465B0013441E3B072266
:1043640002FA03F3DB4319403B6898683B681A6818
:1043740013465B0013441E3B00FA03F27B681B6880
:104384000A43DA6019E07B681B6819693B681A689C
:1043940013465B001344072202FA03F3DB4319407C
:1043A4003B6898683B681A6813465B00134400FA3C
:1043B40003F27B681B680A431A613B681B68102B75
:1043C40003D03B681B68112B32D17B681B681D4AE4
:1043D400934225D17B681B689B6803F40003002B80
:1043E40026D17B681B689A687B681B6842F40002CC
:1043F4009A603B681B68102B1AD1134B1B68134A35
:10440400A2FB03239A0C13469B0013445B00BB607E
:1044140002E0BB68013BBB60BB68002BF9D107E03D
:104424007B689B6A43F020027B689A620123FB73DA
:104434007B68002283F82420FB7B18461437BD4692
:1044440080BC7047002401400000002083DE1B4331
:1044540080B584B000AF78600023FB600023BB60AC
:104464007B681B689B6803F00103012B39D07B68D0
:104474001B689A687B681B6842F001029A601B4BB8
:104484001B681B4AA2FB03239B0CBB6002E0BB68B6
:10449400013BBB60BB68002BF9D1FFF7D1FCF8608E
:1044A40018E0FFF7CDFC0246FB68D31A022B11D9A2
:1044B4007B689B6A43F010027B689A627B68DB6AC4
:1044C40043F001027B68DA627B68002283F82420CF
:1044D400012307E07B681B689B6803F00103012B41
:1044E400DFD1002318461037BD4680BD00000020F0
:1044F40083DE1B4380B584B000AF78600023FB608B
:104504007B681B689B6803F00103012B27D17B6840
:104514001B689A687B681B6822F001029A60FFF7A7
:104524008FFCF86014E0FFF78BFC0246FB68D31A9B
:10453400022B0DD97B689B6A43F010027B689A6258
:104544007B68DB6A43F001027B68DA62012307E0DF
:104554007B681B689B6803F00103012BE3D00023F5
:1045640018461037BD4680BD80B584B000AF786072
:104574007B685B6AFB60FB689B6A03F05003002B5B
:1045840027D1FB689B6A43F40072FB689A62FB685C
:104594001B689B6803F46023B3F5602F15D1FB6897
:1045A4001B7B002B11D1FB689B6A23F48072FB6890
:1045B4009A62FB689B6A03F48053002B05D1FB6865
:1045C4009B6A43F00102FB689A62F868FFF72CFECD
:1045D40004E0FB681B6A1B6B7868984700BF1037C0
:1045E400BD4680BD80B584B000AF78607B685B6AEF
:1045F400FB60F868FFF721FE00BF1037BD4680BDA1
:1046040080B584B000AF78607B685B6AFB60FB6850
:104614009B6A43F04002FB689A62FB68DB6A43F0E2
:104624000402FB68DA62F868FFF710FE00BF103777
:10463400BD4680BD80B485B000AF78607B6803F070
:104644000703FB600C4BDB68BB60BA684FF6FF03E3
:104654001340BB60FB681A02BB68134343F0BF639B
:1046640043F40033BB60044ABB68D36000BF143713
:10467400BD4680BC704700BF00ED00E080B400AFD1
:10468400044BDB681B0A03F007031846BD4680BCD5
:10469400704700BF00ED00E080B483B000AF034674
:1046A400FB7197F90730002B0BDBFB7903F01F023A
:1046B400064997F907305B09012000FA02F241F834
:1046C400232000BF0C37BD4680BC704700E100E0EA
:1046D40080B483B000AF03463960FB7197F90730AB
:1046E400002B0ADB3B68DAB20C4997F90730120158
:1046F400D2B20B4483F800230AE03B68DAB20849DB
:10470400FB7903F00F03043B1201D2B20B441A7677
:1047140000BF0C37BD4680BC704700BF00E100E01D
:1047240000ED00E080B489B000AFF860B9607A6051
:10473400FB6803F00703FB61FB69C3F10703042B68
:1047440028BF0423BB61FB690433062B02D9FB6930
:10475400033B00E000237B614FF0FF32BB6902FAA8
:1047640003F3DA43BB681A407B699A404FF0FF3188
:104774007B6901FA03F3D9437B680B401343184662
:104784002437BD4680BC704780B400AFBFF34F8F61
:10479400054BDB6803F4E0620349044B1343CB602D
:1047A400BFF34F8F00BFFDE700ED00E00400FA0502
:1047B40080B582B000AF78607B68013BB3F1807F45
:1047C40001D301230FE00A4A7B68013B53600F21A8
:1047D4004FF0FF30FFF77CFF054B00229A60044B3B
:1047E40007221A60002318460837BD4680BD00BF63
:1047F40010E000E080B582B000AF78607868FFF721
:1048040019FF00BF0837BD4680BD80B586B000AF34
:104814000346B9607A60FB7300237B61FFF72EFFC8
:1048240078617A68B9687869FFF77CFF024697F97E
:104834000F3011461846FFF74BFF00BF1837BD462F
:1048440080BD80B582B000AF0346FB7197F9073095
:104854001846FFF721FF00BF0837BD4680BD80B56D
:1048640000AFFFF791FF80B582B000AF7860786841
:10487400FFF79EFF034618460837BD4680BD00007B
:1048840080B485B000AF78600023FB607B68002BA8
:1048940001D1012359E07B681B681A462D4B9A42CB
:1048A4000FD87B681B681A462B4B13442B4AA2FB78
:1048B40003231B099A007B681A647B68284ADA631D
:1048C4000EE07B681B681A46264B1344234AA2FB5E
:1048D40003231B099A007B681A647B68224ADA6303
:1048E4007B68022283F821207B681B681B68FB60BD
:1048F400FB6823F47F5323F03003FB607B685A6822
:104904007B689B681A437B68DB681A437B681B6976
:104914001A437B685B691A437B689B691A437B680B
:10492400DB691343FA681343FB607B681B68FA680E
:104934001A607B6800229A637B68012283F8212035
:104944007B68002283F82020002318461437BD46D4
:1049540080BC704707040240F8FFFDBFCDCCCCCC2F
:1049640000000240F8FBFDBF0004024080B586B0A1
:1049740000AFF860B9607A603B600023FB75FB68A8
:1049840093F82030012B01D102234AE0FB68012275
:1049940083F82020FB6893F82130012B3AD1FB687F
:1049A400022283F82120FB6800229A63FB681B68BB
:1049B4001A68FB681B6822F001021A603B687A6877
:1049C400B968F86800F076FBFB68DB6A002B08D056
:1049D400FB681B681A68FB681B6842F00E021A60C9
:1049E4000FE0FB681B681A68FB681B6822F004026E
:1049F4001A60FB681B681A68FB681B6842F00A02AD
:104A04001A60FB681B681A68FB681B6842F00102A5
:104A14001A6005E0FB68002283F820200223FB755E
:104A2400FB7D18461837BD4680BD000080B584B0B4
:104A340000AF78600023FB737B6893F82130022B6E
:104A440005D07B6804229A630123FB73D6E07B685C
:104A54001B681A687B681B6822F00E021A607B6868
:104A64001B681A687B681B6822F001021A607B6865
:104A74001B681A46644B9A4258D97B681B68634A80
:104A840093424FD07B681B68614A934248D07B684D
:104A94001B68604A934240D07B681B685E4A93421D
:104AA40038D07B681B685D4A934230D07B681B68B2
:104AB4005B4A934228D07B681B68534A934220D0B8
:104AC4007B681B68574A934219D07B681B68564A17
:104AD400934212D07B681B68544A93420AD07B6885
:104AE4001B68534A934202D14FF480531BE04FF4A6
:104AF400803318E04FF4807315E0102313E0012392
:104B040011E04FF080730EE04FF480130BE04FF48C
:104B1400803308E04FF4805305E04FF4807302E0E3
:104B2400102300E00123434A536057E07B681B686D
:104B3400364A93424FD07B681B68354A934248D02B
:104B44007B681B68334A934240D07B681B68324AB7
:104B5400934238D07B681B68304A934230D07B68DC
:104B64001B682F4A934228D07B681B68264A9342CD
:104B740020D07B681B682B4A934219D07B681B6842
:104B8400294A934212D07B681B68284A93420AD070
:104B94007B681B68264A934202D14FF480531BE082
:104BA4004FF4803318E04FF4807315E0102313E0C2
:104BB400012311E04FF080730EE04FF480130BE0FB
:104BC4004FF4803308E04FF4805305E04FF48073D2
:104BD40002E0102300E00123174A53607B6801229E
:104BE40083F821207B68002283F820207B685B6B9C
:104BF400002B03D07B685B6B78689847FB7B184677
:104C04001037BD4680BD00BF80000240080002404E
:104C14001C000240300002404400024058000240A0
:104C24006C000240080402401C04024030040240AC
:104C340044040240000402400000024080B584B0F5
:104C440000AF78607B68DB6B1B68FB607B681B686C
:104C54001B68BB607B681B6C04229A40FB68134092
:104C6400002B00F0D680BB6803F00403002B00F097
:104C7400D0807B681B681B6803F02003002B07D1DE
:104C84007B681B681A687B681B6822F004021A6040
:104C94007B681B681A469B4B9A4258D97B681B68F1
:104CA400994A93424FD07B681B68984A934248D0F4
:104CB4007B681B68964A934240D07B681B68954A80
:104CC400934238D07B681B68934A934230D07B6808
:104CD4001B68924A934228D07B681B68894A934296
:104CE40020D07B681B688E4A934219D07B681B686E
:104CF4008C4A934212D07B681B688B4A93420AD039
:104D04007B681B68894A934202D14FF480431BE0BD
:104D14004FF4802318E04FF4806315E0402313E040
:104D2400042311E04FF080630EE04FF480030BE0A6
:104D34004FF4802308E04FF4804305E04FF4806390
:104D440002E0402300E00423794A536057E07B6883
:104D54001B686D4A93424FD07B681B686B4A934231
:104D640048D07B681B686A4A934240D07B681B68C2
:104D7400684A934238D07B681B68674A934230D0B4
:104D84007B681B68654A934228D07B681B685D4A30
:104D9400934220D07B681B68614A934219D07B6898
:104DA4001B68604A934212D07B681B685E4A934238
:104DB4000AD07B681B685D4A934202D14FF480435A
:104DC4001BE04FF4802318E04FF4806315E0402388
:104DD40013E0042311E04FF080630EE04FF48003EE
:104DE4000BE04FF4802308E04FF4804305E04FF4D8
:104DF400806302E0402300E004234E4A53607B6852
:104E0400DB6A002B00F036817B68DB6A78689847A0
:104E140030E17B681B6C02229A40FB681340002B34
:104E240000F0F880BB6803F00203002B00F0F2806E
:104E34007B681B681B6803F02003002B0BD17B6885
:104E44001B681A687B681B6822F00A021A607B6878
:104E5400012283F821207B681B681A46294B9A4259
:104E640073D97B681B68284A93426AD07B681B68A5
:104E7400264A934263D07B681B68254A93425BD0E1
:104E84007B681B68234A934238D07B681B68224A9C
:104E9400934230D07B681B68204A934228D07B68B9
:104EA4001B68184A934220D07B681B681C4A9342B3
:104EB40019D07B681B681B4A934212D07B681B681D
:104EC400194A93420AD07B681B68184A934202D15C
:104ED4004FF4005336E04FF4003333E04FF40073E3
:104EE40030E020232EE002232CE04FF0007329E071
:104EF4004FF4001326E04FF4003323E04FF4005343
:104F040020E000BF80000240080002401C00024074
:104F14003000024044000240580002406C0002404D
:104F2400080402401C0402403004024044040240CD
:104F340000040240000002404FF4007302E020230A
:104F440000E002234E4A536057E07B681B684D4AD9
:104F540093424FD07B681B684B4A934248D07B688E
:104F64001B684A4A934240D07B681B68484A934274
:104F740038D07B681B68474A934230D07B681B68F3
:104F8400454A934228D07B681B68444A934220D008
:104F94007B681B68424A934219D07B681B68414A6C
:104FA400934212D07B681B683F4A93420AD07B68C5
:104FB4001B683E4A934202D14FF400531BE04FF466
:104FC400003318E04FF4007315E0202313E00223AC
:104FD40011E04FF000730EE04FF400130BE04FF4B8
:104FE400003308E04FF4005305E04FF4007302E08F
:104FF400202300E002232E4A53607B68002283F8BA
:1050040020207B689B6A002B34D07B689B6A78687D
:1050140098472FE07B681B6C08229A40FB6813407A
:10502400002B28D0BB6803F00803002B23D07B6837
:105034001B681A687B681B6822F00E021A607B6882
:105044001A6C7B68DB6B012101FA02F25A607B68FF
:1050540001229A637B68012283F821207B68002265
:1050640083F820207B681B6B002B04D07B681B6BB0
:105074007868984700BF00BF1037BD4680BD00BFA9
:1050840000040240080002401C00024030000240BC
:1050940044000240580002406C000240800002407C
:1050A400080402401C04024030040240440402404C
:1050B4000000024080B485B000AFF860B9607A6047
:1050C4003B60FB681A6CFB68DB6B012101FA02F29E
:1050D4005A60FB681B683A685A60FB685B68102B6F
:1050E40008D1FB681B687A689A60FB681B68BA6819
:1050F400DA6007E0FB681B68BA689A60FB681B68A3
:105104007A68DA6000BF1437BD4680BC704700007F
:10511400F0B587B000AFF860B960C7E90023012398
:10512400FB750023BB7500237B752F4B1B7E012B66
:1051340001D1022354E02C4B01221A764CF2503058
:1051440000F0B2F80346FB75FB7D002B44D1FB68ED
:10515400012B02D101237B7507E0FB68022B02D1EE
:1051640002237B7501E004237B750023BB752DE0CE
:10517400BB7D5A00BB6802EB030CBB7D1901D7E968
:105184000023C1F12006A1F1200022FA01F403FA60
:1051940006F6344323FA00F0044323FA01F5A3B2DC
:1051A4001946604600F064F84CF2503000F07CF888
:1051B4000346FB750D4B1B690C4A23F00103136175
:1051C400FB7D002B07D1BB7D0133BB75BA7D7B7D95
:1051D4009A42CDD300E000BF034B00221A76FB7D38
:1051E40018461C37BD46F0BD68060020002002406A
:1051F40080B483B000AF0023FB710D4B1B6903F037
:105204008003002B0DD00A4B0A4A5A60084B0A4A05
:105214005A60074B1B6903F08003002B01D0012364
:10522400FB71FB7918460C37BD4680BC704700BF44
:105234000020024023016745AB89EFCD80B400AF65
:10524400054B1B69044A43F080031361002318468D
:10525400BD4680BC704700BF0020024080B400AF50
:10526400024BDB691846BD4680BC704768060020C7
:1052740080B483B000AF78600B467B80084B00227B
:10528400DA61084B1B69074A43F0010313617B6829
:105294007A881A8000BF0C37BD4680BC704700BFB7
:1052A400680600200020024080B584B000AF78601A
:1052B400FEF7C6FDF86010E07B68B3F1FF3F0CD049
:1052C4007B68002B07D0FEF7BBFD0246FB68D31AB0
:1052D4007A689A4201D2032325E0154BDB6803F078
:1052E4000103002BE8D1124BDB6803F02003002BF1
:1052F40002D00F4B2022DA600D4BDB6803F0100361
:10530400002B0BD10A4BDB6903F00103002B05D101
:10531400074BDB6803F00403002B03D000F00AF80A
:10532400012300E0002318461037BD4680BD00BFAE
:105334000020024080B483B000AF00237B60234B85
:10534400DB6803F01003002B09D0214BDB6943F029
:1053540002031F4AD3617B6843F010037B601B4B3D
:10536400DB6803F00403002B09D0194BDB6943F01D
:105374000103174AD3617B6843F004037B60134B3A
:10538400DB6903F00103002B0BD0114BDB6943F005
:1053940004030F4AD3610D4BDB690C4A23F001036C
:1053A400D3617B6840F20112934206D1074BDB695B
:1053B400064A23F00103D36102E0044A7B68D36008
:1053C40000BF0C37BD4680BC704700BF00200240C0
:1053D4006806002080B584B000AF7860396001238E
:1053E400FB730023BB602F4B1B7E012B01D10223D7
:1053F40053E02C4B01221A767B681B68022B16D1D2
:105404004CF25030FFF750FF0346002B41D10120EE
:1054140000F04CF84CF25030FFF746FF0346FB73A4
:10542400214B1B69204A23F00403136131E04CF241
:105434005030FFF739FF0346002B2AD13B684FF069
:10544400FF321A607B689B68BB6019E0B86800F0A3
:1054540049F84CF25030FFF727FF0346FB73124B19
:105464001B69114A23F002031361FB7B002B03D059
:105474003B68BA681A600CE0BB6803F50063BB6064
:105484007B68DB68DA027B689B681344BA689A42DB
:10549400DCD3044B00221A76FB7B18461037BD463A
:1054A40080BD00BF680600200020024080B483B0A5
:1054B40000AF7860094B0022DA61094B1B69084A86
:1054C40043F004031361064B1B69054A43F0400390
:1054D400136100BF0C37BD4680BC704768060020CE
:1054E4000020024080B483B000AF78600B4B0022F0
:1054F400DA610B4B1B690A4A43F002031361084A41
:105504007B685361064B1B69054A43F040031361F2
:1055140000BF0C37BD4680BC704700BF6806002042
:105524000020024080B48BB000AF78603960002363
:105534007B6200233B6233E101227B6A02FA03F3BC
:10554400FB613B681B68FA691340BB61BA69FB697C
:105554009A4240F022813B685B68122B34D0122BB4
:105564000DD8022B2BD0022B04D8002B31D0012BC9
:105574001CD048E0032B43D0112B1BD043E08F4AAF
:10558400934226D08D4A934206D88D4A934220D026
:105594008C4A93421DD036E08B4A934219D08B4AF1
:1055A400934216D08A4A934213D02CE03B68DB68BE
:1055B4003B6228E03B68DB6804333B6223E03B68E2
:1055C400DB6808333B621EE03B68DB680C333B62FC
:1055D40019E03B689B68002B02D104233B6212E074
:1055E4003B689B68012B05D108233B627B68FA6901
:1055F4001A6108E008233B627B68FA695A6102E099
:1056040000233B6200BFBB69FF2B01D87B6801E02C
:105614007B6804337B61BB69FF2B02D87B6A9B00E8
:1056240002E07B6A083B9B003B617B691A680F219F
:105634003B6901FA03F3DB431A40396A3B6901FA17
:1056440003F31A437B691A603B685B6803F0805379
:10565400002B00F0A2805F4B9B695E4A43F001037C
:1056640093615C4B9B6903F00103BB60BB685A4ABE
:105674007B6A9B08023352F82330FB607B6A03F099
:1056840003039B000F2202FA03F3DB43FA6813407F
:10569400FB607B68514A93421FD07B68504A934217
:1056A40019D07B684F4A934213D07B684E4A934289
:1056B4000DD07B684D4A934207D07B684C4A934295
:1056C40001D105230AE0062308E0042306E00323AE
:1056D40004E0022302E0012300E000237A6A02F0DE
:1056E400030292009340FA681343FB603A497B6AD1
:1056F4009B080233FA6841F823203B685B6803F493
:105704008033002B06D03B4B1A683A49BB691343DC
:105714000B6006E0374B1A68BB69DB43354913401D
:105724000B603B685B6803F40033002B06D0314BFD
:105734005A683049BB6913434B6006E02D4B5A68E5
:10574400BB69DB432B4913404B603B685B6803F444
:105754008013002B06D0274B9A682649BB69134354
:105764008B6006E0234B9A68BB69DB4321491340F5
:105774008B603B685B6803F40013002B06D01D4B61
:10578400DA681C49BB691343CB6006E0194BDA683D
:10579400BB69DB4317491340CB607B6A01337B62EF
:1057A4003B681A687B6A22FA03F3002B7FF4C4AEC9
:1057B40000BF2C37BD4680BC704700BF00002110DD
:1057C400000011100000121000003110000032100F
:1057D40000002210001002400000014000080140B7
:1057E400000C014000100140001401400018014069
:1057F400001C01400004014080B485B000AF786013
:105804000B467B807B689A687B881340002B02D010
:105814000123FB7301E00023FB73FB7B1846143761
:10582400BD4680BC704780B483B000AF78600B463F
:105834007B8013467B707B78002B03D07A887B684F
:105844001A6103E07B881A047B681A6100BF0C3775
:10585400BD4680BC7047000080B584B000AF78605E
:105864007B68002B01D101231FE17B6893F83D3055
:10587400DBB2002B06D17B68002283F83C207868D9
:10588400FDF7E2FB7B68242283F83D207B681B68DC
:105894001A687B681B6822F001021A607B681B6827
:1058A4001A687B681B6842F400421A607B681B68B4
:1058B4001A687B681B6822F400421A6002F0ECFE4E
:1058C400F8607B685B687B4A934207D8FB687A4A36
:1058D400934294BF01230023DBB206E0FB68774ABE
:1058E400934294BF01230023DBB2002B01D0012398
:1058F400DBE0FB68724AA2FB03239B0CBB607B6862
:105904001B685B6823F03F017B681B68BA680A4325
:105914005A607B681B681B6A23F03F017B685B68E5
:10592400644A934202D8BB68013309E0BB684FF470
:10593400967202FB03F3634AA2FB03239B09013320
:105944007A6812680B4313627B681B68DB6923F473
:105954004F4222F0FF027B685B6856498B420DD8A8
:10596400FB68591E7B685B685B00B1FBF3F3013392
:10597400C3F30B03042B38BF04234FE07B689B68FD
:10598400002B11D1FB68581E7B6859680B465B00DD
:105994000B44B0FBF3F30133C3F30B03002B0CBF35
:1059A40001230023DBB212E0FB68581E7B685968B0
:1059B4000B469B000B4499000B44B0FBF3F30133FB
:1059C400C3F30B03002B0CBF01230023DBB2002B1A
:1059D40001D0012322E07B689B68002B0ED1FB6879
:1059E400581E7B6859680B465B000B44B0FBF3F30D
:1059F4000133C3F30B0343F400430FE0FB68581E69
:105A04007B6859680B469B000B4499000B44B0FB20
:105A1400F3F30133C3F30B0343F440437968096898
:105A24001343CB617B681B681B6823F0C0017B6850
:105A3400DA697B681B6A1A437B681B680A431A602D
:105A44007B681B689B6823F4034323F0FF037A6895
:105A540011697A68D26811437A6812680B439360BB
:105A64007B681B68DB6823F0FF017B685A697B68ED
:105A74009B691A437B681B680A43DA607B681B686E
:105A84001A687B681B6842F001021A607B68002276
:105A94001A647B68202283F83D207B6800221A6305
:105AA4007B68002283F83E20002318461037BD4649
:105AB40080BD00BFA08601007F841E00FF083D005A
:105AC40083DE1B43D34D621080B588B002AFF8600B
