:020000040800F2
:1000000000000220792500081D2200082B2200088C
:100010004F220008552200085B2200080000000063
:100020000000000000000000000000006122000845
:100030006F220008000000007D2200088B220008CB
:10004000C9250008C9250008C9250008C9250008D8
:10005000C9250008C9250008C9250008C9250008C8
:1000600097220008C9250008C9250008C9250008ED
:10007000C9250008C9250008C9250008C9250008A8
:10008000C9250008C9250008C9250008C925000898
:10009000C9250008C9250008C9250008C925000888
:1000A000C9250008C9250008C9250008C925000878
:1000B000A9220008BD220008C9250008C92500089A
:1000C000C9250008C9250008C9250008C925000858
:1000D000C9250008C9250008D1220008C925000843
:1000E000C9250008C9250008C9250008C925000838
:1000F000C9250008C9250008C9250008C925000828
:10010000C9250008C9250008C9250008C925000817
:10011000C9250008C9250008C9250008C925000807
:10012000C9250008C9250008C9250008C9250008F7
:10013000C9250008C9250008C9250008C9250008E7
:10014000C9250008C9250008C9250008E5220008BE
:10015000C9250008C9250008C9250008C9250008C7
:10016000C9250008C9250008C9250008C9250008B7
:10017000C9250008C9250008C9250008000000009D
:08018000C9250008C92500088B
:1001900010B5054C237833B9044B13B10448AFF3C1
:1001A00000800123237010BD100700200000000014
:1001B000CC4A010808B5034B1BB103490348AFF310
:1001C000008008BD0000000014070020CC4A010890
:1001D00001F0FF01102A2BDB10F0070F08D010F8F8
:1001E000013B013A8B422DD010F0070F42B3F6D1FC
:1001F000F0B441EA012141EA014122F007047FF015
:1002000000070023F0E80256083C85EA010586EA6B
:10021000010685FA47F5A3FA87F586FA47F6A5FAA7
:1002200087F68EB9EED1F0BC01F0FF0102F00702B3
:1002300032B110F8013B013A83EA010313B1F8D15E
:100240000020704701387047002D06BF354603383F
:10025000073815F0010F07D1013015F4807F02BF78
:10026000013015F4C03F0130F0BC0138704700BFC9
:1002700081F0004102E000BF83F0004330B54FEA57
:1002800041044FEA430594EA050F08BF90EA020FC4
:100290001FBF54EA000C55EA020C7FEA645C7FEA57
:1002A000655C00F0E2804FEA5454D4EB5555B8BF7A
:1002B0006D420CDD2C4480EA020281EA030382EAEB
:1002C000000083EA010180EA020281EA0303362D7D
:1002D00088BF30BD11F0004F4FEA01314FF4801C50
:1002E0004CEA113102D0404261EB410113F0004F62
:1002F0004FEA03334CEA133302D0524263EB430319
:1003000094EA050F00F0A780A4F10104D5F1200EB6
:100310000DDB02FA0EFC22FA05F2801841F1000111
:1003200003FA0EF2801843FA05F359410EE0A5F1E5
:1003300020050EF1200E012A03FA0EFC28BF4CF016
:10034000020C43FA05F3C01851EBE37101F00045CC
:1003500007D54FF0000EDCF1000C7EEB00006EEBD9
:100360000101B1F5801F1BD3B1F5001F0CD3490863
:100370005FEA30004FEA3C0C04F101044FEA4452BA
:1003800012F5800F80F09A80BCF1004F08BF5FEA41
:10039000500C50F1000041EB045141EA050130BD21
:1003A0005FEA4C0C404141EB010111F4801FA4F1C4
:1003B0000104E9D191F0000F04BF01460020B1FA19
:1003C00081F308BF2033A3F10B03B3F120020CDA51
:1003D0000C3208DD02F1140CC2F10C0201FA0CF02F
:1003E00021FA02F10CE002F11402D8BFC2F1200C94
:1003F00001FA02F120FA0CFCDCBF41EA0C0190404A
:10040000E41AA2BF01EB0451294330BD6FEA040492
:100410001F3C1CDA0C340EDC04F11404C4F120027D
:1004200020FA04F001FA02F340EA030021FA04F38F
:1004300045EA030130BDC4F10C04C4F1200220FAE6
:1004400002F001FA04F340EA0300294630BD21FA24
:1004500004F0294630BD94F0000F83F4801306BFEA
:1004600081F480110134013D4EE77FEA645C18BFDE
:100470007FEA655C29D094EA050F08BF90EA020F75
:1004800005D054EA000C04BF1946104630BD91EA6D
:10049000030F1EBF0021002030BD5FEA545C05D170
:1004A0004000494128BF41F0004130BD14F58004AF
:1004B0003CBF01F5801130BD01F0004545F0FE4123
:1004C00041F470014FF0000030BD7FEA645C1ABF58
:1004D000194610467FEA655C1CBF0B46024650EA8F
:1004E000013406BF52EA033591EA030F41F40021BB
:1004F00030BD00BF90F0000F04BF0021704730B541
:100500004FF4806404F132044FF000054FF0000115
:1005100050E700BF90F0000F04BF0021704730B5D6
:100520004FF4806404F1320410F0004548BF4042AB
:100530004FF000013EE700BF42004FEAE2014FEA00
:1005400031014FEA02701FBF12F07F4393F07F4FDB
:1005500081F06051704732F07F4208BF704793F0DE
:100560007F4F04BF41F40021704730B54FF46074F1
:1005700001F0004521F000411CE700BF50EA0102F4
:1005800008BF704730B54FF000050AE050EA01029D
:1005900008BF704730B511F0004502D5404261EB0D
:1005A00041014FF4806404F132045FEA915C3FF44E
:1005B000D8AE4FF003025FEADC0C18BF03325FEAEB
:1005C000DC0C18BF033202EBDC02C2F1200300FA9C
:1005D00003FC20FA02F001FA03FE40EA0E0021FAC1
:1005E00002F11444BDE600BF70B54FF0FF0C4CF4AF
:1005F000E06C1CEA11541DBF1CEA135594EA0C0F61
:1006000095EA0C0F00F0DEF82C4481EA030621EA9B
:100610004C5123EA4C5350EA013518BF52EA0335D6
:1006200041F4801143F4801338D0A0FB02CE4FF088
:100630000005E1FB02E506F00042E0FB03E54FF0B8
:100640000006E1FB03569CF0000F18BF4EF0010EB0
:10065000A4F1FF04B6F5007F64F5407404D25FEAAC
:100660004E0E6D4146EB060642EAC62141EA55515F
:100670004FEAC52040EA5E504FEACE2EB4F1FD0CA1
:1006800088BFBCF5E06F1ED8BEF1004F08BF5FEA1F
:10069000500E50F1000041EB045170BD06F00046D1
:1006A00046EA010140EA020081EA0301B4EB5C047E
:1006B000C2BFD4EB0C0541EA045170BD41F4801176
:1006C0004FF0000E013C00F3AB8014F1360FDEBF9B
:1006D000002001F0004170BDC4F10004203C35DA77
:1006E0000C341BDC04F11404C4F1200500FA05F3FA
:1006F00020FA04F001FA05F240EA020001F000429B
:1007000021F0004110EBD37021FA04F642EB060110
:100710005EEA430E08BF20EAD37070BDC4F10C043A
:10072000C4F1200500FA04F320FA05F001FA04F2FE
:1007300040EA020001F0004110EBD37041F10001EA
:100740005EEA430E08BF20EAD37070BDC4F12005F5
:1007500000FA05F24EEA020E20FA04F301FA05F25D
:1007600043EA020321FA04F001F0004121FA04F205
:1007700020EA020000EBD3705EEA430E08BF20EAD5
:10078000D37070BD94F0000F0FD101F0004640000F
:1007900041EB010111F4801F08BF013CF7D041EA91
:1007A000060195F0000F18BF704703F00046520095
:1007B00043EB030313F4801F08BF013DF7D043EA66
:1007C0000603704794EA0C0F0CEA135518BF95EA1C
:1007D0000C0F0CD050EA410618BF52EA4306D1D1A3
:1007E00081EA030101F000414FF0000070BD50EAC2
:1007F000410606BF1046194652EA430619D094EA4C
:100800000C0F02D150EA013613D195EA0C0F05D135
:1008100052EA03361CBF104619460AD181EA030189
:1008200001F0004141F0FE4141F470014FF0000041
:1008300070BD41F0FE4141F4780170BD70B54FF0DC
:10084000FF0C4CF4E06C1CEA11541DBF1CEA13555C
:1008500094EA0C0F95EA0C0F00F0A7F8A4EB05043E
:1008600081EA030E52EA03354FEA013100F0888035
:100870004FEA03334FF0805545EA131343EA1263FE
:100880004FEA022245EA111545EA10654FEA0026B3
:100890000EF000419D4208BF964244F1FD0404F56C
:1008A000407402D25B084FEA3202B61A65EB0305C8
:1008B0005B084FEA32024FF480104FF4002CB6EB85
:1008C000020E75EB030E22BFB61A754640EA0C0005
:1008D0005B084FEA3202B6EB020E75EB030E22BF45
:1008E000B61A754640EA5C005B084FEA3202B6EB86
:1008F000020E75EB030E22BFB61A754640EA9C0045
:100900005B084FEA3202B6EB020E75EB030E22BF14
:10091000B61A754640EADC0055EA060E18D04FEAD2
:10092000051545EA16754FEA06164FEAC30343EA72
:1009300052734FEAC2025FEA1C1CC0D111F4801F3F
:100940000BD141EA00014FF000004FF0004CB6E738
:1009500011F4801F04BF01430020B4F1FD0C88BFD7
:10096000BCF5E06F3FF6AFAEB5EB030C04BFB6EBE2
:10097000020C5FEA500C50F1000041EB045170BDD5
:100980000EF0004E4EEA113114EB5C04C2BFD4EB02
:100990000C0541EA045170BD41F480114FF0000E86
:1009A000013C90E645EA060E8DE60CEA135594EA02
:1009B0000C0F08BF95EA0C0F3FF43BAF94EA0C0F05
:1009C0000AD150EA01347FF434AF95EA0C0F7FF47A
:1009D00025AF104619462CE795EA0C0F06D152EACE
:1009E00003353FF4FDAE1046194622E750EA4106B2
:1009F00018BF52EA43067FF4C5AE50EA41047FF4C3
:100A00000DAF52EA43057FF4EBAE12E74FF0FF3C27
:100A100006E000BF4FF0010C02E000BF4FF0010CF8
:100A20004DF804CD4FEA410C7FEA6C5C4FEA430C71
:100A300018BF7FEA6C5C1BD001B050EA410C0CBFC0
:100A400052EA430C91EA030F02BF90EA020F002022
:100A5000704710F1000F91EA030F58BF994208BF89
:100A600090422CBFD8176FEAE37040F00100704746
:100A70004FEA410C7FEA6C5C02D150EA013C07D19D
:100A80004FEA430C7FEA6C5CD6D152EA033CD3D0E8
:100A90005DF8040B704700BF8446104662468C46E2
:100AA0001946634600E000BF01B5FFF7B7FF002815
:100AB00048BF10F1000F01BD4DF808EDFFF7F4FF3E
:100AC0000CBF012000205DF808FB00BF4DF808EDC9
:100AD000FFF7EAFF34BF012000205DF808FB00BFEC
:100AE0004DF808EDFFF7E0FF94BF012000205DF80E
:100AF00008FB00BF4DF808EDFFF7CEFF94BF0120C3
:100B000000205DF808FB00BF4DF808EDFFF7C4FFBB
:100B100034BF012000205DF808FB00BF4FEA410C04
:100B20007FEA6C5C02D150EA013C0AD14FEA430CE7
:100B30007FEA6C5C02D152EA033C02D14FF0000024
:100B400070474FF0010070474FEA410212F5001262
:100B500015D211D56FF47873B3EB625212D94FEA04
:100B6000C12343F0004343EA505311F0004F23FAEE
:100B700002F018BF404270474FF00000704750EA43
:100B8000013005D111F0004008BF6FF00040704700
:100B90004FF00000704700BF4FEA4102B2F1E0435E
:100BA00024BFB3F5001CDCF1FE5C0DD901F0004C54
:100BB0004FEAC0024CEA5070B2F1004F40EB8300A4
:100BC00008BF20F00100704711F0804F21D113F1D0
:100BD0003872BCBF01F00040704741F480114FEA09
:100BE0005252C2F11802C2F1200C10FA0CF320FA92
:100BF00002F018BF40F001004FEAC1234FEAD323AF
:100C000003FA0CFC40EA0C0023FA02F34FEA430318
:100C1000CCE77FEA625307D150EA01331EBF4FF0A1
:100C2000FE4040F44000704701F0004040F0FE40BC
:100C300040F40000704700BF53B94AB9002908BF0B
:100C400000281CBF4FF0FF314FF0FF3000F072B9A9
:100C5000ADF1080C6DE904CE00F006F8DDF804E013
:100C6000DDE9022304B070472DE9F047089E0446F1
:100C70008846002B4BD18A42154667D9B2FA82F2D8
:100C80004AB1C2F1200701FA02F320FA07F79540B2
:100C900047EA030894404FEA154E230CB8FBFEF7D1
:100CA0001FFA85FC0EFB178843EA084307FB0CF18B
:100CB000994209D9EB1807F1FF3080F01B81994266
:100CC00040F21881023F2B445B1AA4B2B3FBFEF042
:100CD0000EFB103344EA034400FB0CFCA44509D985
:100CE0002C1900F1FF3380F00781A44540F2048104
:100CF00002382C4440EA0740A4EB0C0400271EB144
:100D0000D4400023C6E900433946BDE8F0878B4252
:100D100009D9002E00F0EB800027C6E90001384613
:100D20003946BDE8F087B3FA83F7002F47D18B42ED
:100D300002D3824200F2FA80841A61EB030301209D
:100D40009846002EE0D0C6E90048DDE702B9FFDE94
:100D5000B2FA82F2002A40F08F80491B4FEA154E0A
:100D60001FFA85F80127B1FBFEFC230C0EFB1C11BA
:100D700043EA014308FB0CF1994207D9EB180CF147
:100D8000FF3002D2994200F2CD808446591AA3B2B4
:100D9000B1FBFEF00EFB101443EA044408FB00F81C
:100DA000A04507D92C1900F1FF3302D2A04500F26B
:100DB000B6801846A4EB080440EA0C409FE7C7F150
:100DC000200CBB4022FA0CFE4EEA030E01FA07F497
:100DD00020FA0CF521FA0CF34FEA1E482543B3FB29
:100DE000F8F92C0C08FB19331FFA8EFA44EA034376
:100DF00009FB0AF49C4202FA07F200FA07F10BD948
:100E00001EEB030309F1FF3080F087809C4240F223
:100E10008480A9F1020973441B1BADB2B3FBF8F047
:100E200008FB103345EA034400FB0AFAA24508D93F
:100E30001EEB040400F1FF336BD2A24569D90238DE
:100E4000744440EA0940A0FB0289A4EB0A044C4523
:100E5000C2464B4654D351D0002E69D0B1EB0A059F
:100E600064EB030404FA0CFCFD40FC404CEA05056D
:100E7000C6E90054002747E7C2F1200320FA03F730
:100E8000954001FA02F021FA03F34FEA154E384378
:100E9000010CB3FBFEF71FFA85F80EFB173341EA8E
:100EA000034107FB08F38B4204FA02F407D96918DF
:100EB00007F1FF3C2FD28B422DD9023F2944CB1A98
:100EC00081B2B3FBFEF00EFB103341EA034100FB9D
:100ED00008F38B4207D9691800F1FF3C17D28B4207
:100EE00015D902382944C91A40EA07473BE7374673
:100EF000304609E70746E7E61846FBE64145ABD230
:100F0000B8EB020A69EB0E0201381346A4E760460B
:100F1000E9E7184695E76746D1E781467CE702385E
:100F20002C4447E7ACF1020C2B442FE7384608E786
:100F30003746E9E6704700BF80B483B000AF786001
:100F40007B68002BB8BF5B4218460C37BD465DF886
:100F5000047B704780B483B000AF87ED010AD7ED02
:100F6000017AF0EEE77AB0EE670A0C37BD465DF81D
:100F7000047B704780B582B000AF78607B68033334
:100F80003D220021184613F058F97B6818460837AF
:100F9000BD4680BDF0B597B002AF01F017FB00F081
:100FA00093FAA04807F08EFA9F499E4807F06CFA22
:100FB0009E499C4807F077FA9C4A9B499C480DF053
:100FC000B7FF0B21974808F061F8964BD3ED277ACD
:100FD000F5EEC07AF1EE10FA03D8924B954AC3F8B9
:100FE0009C20904B93F9A630DBB219468D4808F04F
:100FF0004DF800F0B5FD00F0DBFA00F01DFB00F04D
:1010000057FB00F039FC00F04DFD00F079FD10F0C9
:1010100081F800F08FFC00F0E9FC87480EF038FE04
:101020008649814809F084FF854804F02CF88548FA
:1010300004F005F8012387F84F307A4B1B78022B18
:1010400002D1002387F84F3097F84F301A467E4977
:101050007E480DF0F7FC4FF4805301937C4B0093D6
:101060004FF400637A4A7B497B480DF036FD97F8D0
:101070004F301A4679496D480DF067FD73496B484A
:101080000DF080FD674BB3F801309BB219466748FD
:101090000DF0E2FE634972480EF0AEFB07F10C035F
:1010A0001846FFF767FF6E480EF0B4FB5D4B93F8F0
:1010B000C030002B4AD06B4B1B78012B12D0022B77
:1010C0001DD0002B00D02AE0574B1B695B4219460C
:1010D00057480DF0CDFF0346002B1BD0614B01227A
:1010E0001A7017E0504B1B69194651480DF0C0FFAC
:1010F0000346002B10D05B4B02221A700CE000213B
:101100004B480DF0B5FF0346002B07D0554B03228B
:101110001A7003E000BF02E000BF00E000BF514BC7
:101120001B78032B12D1002140480DF039FD3D4BB7
:10113000002283F8C0204B4B00221A700B21394843
:1011400008F0D6F80B21374807F0CEFE354B93F860
:10115000A130002B40D035480DF05AFE03463B71BC
:1011600032480DF06DFE0346A7F805302F480DF00C
:101170005BFE03461BB2A7F8073041233B73FF23F6
:10118000BB73A1237B7307F10F033A1D106818602E
:1011900012791A7107F10C0340221946324809F0FE
:1011A0006DFDFE237B73244B1C4607F10F0C04F1ED
:1011B000300E654626460FCE28606960AA60EB6057
:1011C00010340CF1100C7445F3D107F10C034022DC
:1011D0001946254809F052FD244B1B78002B3FF49B
:1011E00062AF114809F0BCFE0F4B1B681846FFF7B1
:1011F000A3FE02460C4B1B699A42ACBF012300239D
:10120000DBB2002B36D0084B1A69074B1B68002B4A
:1012100002DA4FF0FF3300E0012302FB03F3144A2C
:1012200013602BE0000B002020090020E0090020C3
:10123000F009002000007041A00A0020D80700201B
:1012400018080020580800202C070020DC09002086
:101250000004024040070020CC090020980700202D
:10126000F80B0020850C0020C00F0020840C00200B
:1012700018090020894B1B68894A1360884B18683D
:10128000864B1B695942854B1A69864BDC69854B35
:101290001B6A0093234601F0DFF80246824B1A6076
:1012A000814B1B68194681480EF011FD7F480EF0F6
:1012B0001DFD7A497D480BF045FF034607EE903A45
:1012C000F8EEE77A774BC3ED2B7A764BD3ED2B7A9A
:1012D000B0EE670AFFF73EFEF0EE407AF5EEC07A18
:1012E000F1EE10FA16DD6F4BD3ED2B7AB0EE670AF4
:1012F000FFF730FEB0EE407A6A4BB3F8583007EE95
:10130000903AF8EEE77AB4EEE77AF1EE10FA01D807
:10131000012300E00023002B18D0624BB3F85830B3
:101320001A46604BD3ED2B7AF5EEC07AF1EE10FA47
:1013300002D54FF0FF3300E0012302FB03F307EE79
:10134000903AF8EEE77A574BC3ED2B7A534B1B6874
:101350001846FFF7F1FD0246504B1B699A42CCBF7D
:1013600001230023DBB2002B35D04E4BB3F85630AF
:101370001C464A4B1B681846FFF7DEFD0246474BEA
:101380001B69D31A03FB04F2444BDB69484981FB18
:1013900003014910DB17CB1A92FBF3F307EE903AE7
:1013A000F8EEE77A3F4BC3ED2C7A3E4BD3ED2C7A27
:1013B0003A4B1B68002B02DABFEE007A01E0B7EE71
:1013C000007A27EE277A374BD3ED2B7A77EE277A00
:1013D000344BC3ED2B7A334BB3F99A30002BB8BFA3
:1013E0005B4242F20F72934219DD2E4BB3F8563036
:1013F0001A462A4B1B68002B02DA4FF0FF3300E03D
:10140000012302FB03F2274B93ED2B7A07EE902A80
:10141000F8EEE77A77EE277A224BC3ED2B7A214B51
:10142000D3ED2B7A9FED231ADFED230AB0EE670A86
:1014300001F055F8F0EE407A1A4BC3ED2B7A194BB8
:10144000D3ED2B7AFDEEE77A42F20F7300931B4B3C
:1014500042F210721A4917EE900A00F0FDFF07EEF3
:10146000900AF8EEE77A0F4BC3ED2B7A0D4B93ED14
:101470002B7A0C4BD3ED2A7A67EE277A094BC3ED12
:101480002B7A084BD3ED2B7AFDEEE77A17EE903AE4
:101490001BB219460B480DF083FB04E6200900201F
:1014A00018090020000B00201C090020A00A0020C1
:1014B000398EE33800401C4600401CC6F1D8FFFFBF
:1014C000F0D8FFFFE009002080B594B000AF07F12D
:1014D000200330220021184612F0AFFE07F10C0362
:1014E00000221A605A609A60DA601A610023BB60B9
:1014F0002D4B1B6C2C4A43F0805313642A4B1B6CFE
:1015000003F08053BB60BB6800237B60274B1B68E4
:10151000264A43F480431360244B1B6803F4804342
:101520007B607B6801233B624FF480337B62022344
:10153000BB634FF48003FB6308233B644FF4A87341
:101540007B640223BB640723FB6407F12003184676
:1015500003F084F80346002B14BF01230023DBB201
:10156000002B01D000F0C8FB0F23FB6002233B617E
:1015700000237B614FF4A053BB614FF48053FB61A8
:1015800007F10C030521184603F0D8FA0346002B97
:1015900014BF01230023DBB2002B01D000F0ACFB11
:1015A00000BF5037BD4680BD00380240007000408B
:1015B00080B582B000AF3B4600221A605A601C4BD7
:1015C0001C4A1A601A4801F0EEF90346002B14BFBA
:1015D00001230023DBB2002B01D000F08DFB0023A0
:1015E0003B6000237B603B4600221946104801F017
:1015F00062FA0346002B14BF01230023DBB2002B49
:1016000001D000F079FB3B4610221946084801F052
:1016100052FA0346002B14BF01230023DBB2002B38
:1016200001D000F069FB00BF0837BD4680BD00BF98
:101630002C0700200074004080B500AF1A4B1B4AF5
:101640001A60194B4FF482725A60174B00229A604D
:10165000154B0022DA60144B00221A61124B002253
:101660005A61114B4FF400729A610F4B0022DA61FC
:101670000D4B00221A620C4B00225A620A4B0022C8
:101680009A62094B0A22DA62074803F049FC0346D2
:10169000002B14BF01230023DBB2002B01D000F08C
:1016A0002BFB00BF80BD00BF40070020003800407A
:1016B00080B596B000AF07F1480300221A605A6067
:1016C0009A60DA6007F1400300221A605A6007F15D
:1016D000240300221A605A609A60DA601A615A6123
:1016E0009A613B1D20220021184612F0A6FD5E4B98
:1016F0005E4A1A605E4BD3F8BC3018460DF0A0FB72
:1017000003461A4642F2107303FB02F3594A92FB56
:10171000F3F3013B1A46544B5A60534B00229A6034
:10172000514B42F20F72DA604F4B00221A614E4B5E
:1017300000225A614C4B00229A614B4803F054FC42
:101740000346002B14BF01230023DBB2002B01D082
:1017500000F0D2FA4FF48053BB6407F148031946F6
:10176000414803F0DFFF0346002B14BF0123002391
:10177000DBB2002B01D000F0BFFA3B4803F0A7FC1E
:101780000346002B14BF01230023DBB2002B01D042
:1017900000F0B2FA00233B6400237B6407F14003AE
:1017A0001946314804F0AEFB0346002B14BF012359
:1017B0000023DBB2002B01D000F09EFA60237B6295
:1017C0000023BB620023FB6200233B6300237B6397
:1017D0000023BB630023FB6307F1240300221946A7
:1017E000214803F0D9FE0346002B14BF0123002338
:1017F000DBB2002B01D000F07FFA07F124030422B2
:101800001946194803F0C8FE0346002B14BF0123F4
:101810000023DBB2002B01D000F06EFA00237B60C6
:101820000023BB600023FB6000233B6100237B613E
:101830004FF40053BB6100233B623B1D19460A482D
:1018400004F0DCFB0346002B14BF01230023DBB2B2
:10185000002B01D000F050FA034800F015FC00BF47
:101860005837BD4680BD00BF9807002000000140EA
:10187000000B0020007A030A80B58CB000AF07F19E
:101880000C0324220021184612F0D7FC3B1D002235
:101890001A605A60264B4FF080421A60244B002297
:1018A0005A60234B00229A60214B4FF0FF32DA60DE
:1018B0001F4B00221A611E4B00229A610323FB601A
:1018C00000233B6101237B610023BB610F23FB618C
:1018D00000233B6201237B620023BB620F23FB6278
:1018E00007F10C031946124803F064FC0346002B71
:1018F00014BF01230023DBB2002B01D000F0FCF960
:1019000000237B600023BB603B1D1946084804F0A0
:10191000F9FA0346002B14BF01230023DBB2002B8E
:1019200001D000F0E9F900BF3037BD4680BD00BFEF
:10193000D807002080B586B000AF07F10803002269
:101940001A605A609A60DA603B4600221A605A6058
:10195000244B254A1A60234B53225A60214B002204
:101960009A60204B40F28F12DA601E4B00221A61FF
:101970001C4B00229A611B4803F036FB0346002BE8
:1019800014BF01230023DBB2002B01D000F0B4F917
:101990004FF48053BB6007F108031946114803F068
:1019A000C1FE0346002B14BF01230023DBB2002B32
:1019B00001D000F0A1F900233B6000237B603B468F
:1019C0001946084804F09EFA0346002B14BF012371
:1019D0000023DBB2002B01D000F08EF900BF1837D6
:1019E000BD4680BD180800200004004080B586B0C8
:1019F00000AF07F1080300221A605A609A60DA60AB
:101A00003B4600221A605A60244B254A1A60234B39
:101A100000225A60214B00229A60204B4FF0FF3287
:101A2000DA601E4B00221A611C4B00229A611B488F
:101A300003F0DAFA0346002B14BF01230023DBB2C4
:101A4000002B01D000F058F94FF48053BB6007F130
:101A500008031946114803F065FE0346002B14BF26
:101A600001230023DBB2002B01D000F045F9002355
:101A70003B6000237B603B461946084804F042FA6D
:101A80000346002B14BF01230023DBB2002B01D03F
:101A900000F032F900BF1837BD4680BD580800205D
:101AA000000C004080B500AF134B144A1A60124B73
:101AB0004FF4E1325A60104B00229A600E4B002224
:101AC000DA600D4B00221A610B4B0C225A610A4B53
:101AD00000229A61084B0022DA61074804F0F4FA08
:101AE0000346002B14BF01230023DBB2002B01D0DF
:101AF00000F002F900BF80BD9808002000100140EE
:101B000080B500AF144B154A1A60134B4FF4964240
:101B10005A60114B00229A600F4B0022DA600E4B84
:101B20004FF4C0621A610C4B0C225A610A4B00221E
:101B30009A61094B0022DA61074804F0C5FA0346AE
:101B4000002B14BF01230023DBB2002B01D000F0D7
:101B5000D3F800BF80BD00BFD8080020004400407B
:101B600080B58AB000AF07F1140300221A605A60F2
:101B70009A60DA601A6100233B614D4B1B6B4C4A43
:101B800043F0800313634A4B1B6B03F080033B61FC
:101B90003B690023FB60464B1B6B454A43F0010346
:101BA0001363434B1B6B03F00103FB60FB680023D3
:101BB000BB603F4B1B6B3E4A43F0100313633C4B2F
:101BC0001B6B03F01003BB60BB6800237B60384BCA
:101BD0001B6B374A43F002031363354B1B6B03F057
:101BE00002037B607B6800233B60314B1B6B304AF8
:101BF00043F0080313632E4B1B6B03F008033B6099
:101C00003B6801224FF480512A4801F07FFB0122FA
:101C10004FF4C051284801F079FB04237B61274B26
:101C2000BB610023FB6107F114031946244801F04E
:101C3000D3F9244B1B78022B0FD14FF4C0537B6197
:101C40000123BB610223FB6103233B6207F1140301
:101C50001946184801F0C0F90EE04FF480537B613B
:101C60000123BB610223FB6103233B6207F11403E1
:101C70001946104801F0B0F94FF4C0537B610123BD
:101C8000BB610123FB6103233B6207F11403194687
:101C9000094801F0A1F900220021082000F03BFED4
:101CA000082000F054FE00BF2837BD4680BD00BFAD
:101CB00000380240001002400004024000002110E1
:101CC00000000240000B002080B483B000AF7860B9
:101CD0007B681A68064B1B689A4202D1054B0122A9
:101CE0001A7000BF0C37BD465DF8047B704700BF1B
:101CF00018080020840C002080B400AF00BFBD464F
:101D00005DF8047B7047000080B582B000AF78605A
:101D100039607B68012B1CD13B684FF6FF72934200
:101D200017D11E4809F093F81D480CF0C0FE1D485D
:101D30000CF072FE1C480CF0ECFE1C480DF0C4F8D0
:101D40001B480DF08BFF1B4806F06CFB1A480DF08A
:101D500035FD7B68002B1CD13B684FF6FF72934228
:101D600017D115480DF03DFD124806F07FFB1048D5
:101D70000DF081FF0D480DF0CDF80B480CF0DAFEA8
:101D800008480CF054FE06480CF09CFE034809F08D
:101D900087F800BF0837BD4680BD00BF200900207E
:101DA000CC090020DC090020E0090020F009002017
:101DB000A00A0020000B0020F80B002080B500AF27
:101DC0004FF6FF710120FFF79FFF80BD80B500AF88
:101DD0004FF6FF710020FFF797FF80BD80B582B0FE
:101DE00000AF00237B60104B5B6C0F4A43F48043D1
:101DF00053640D4B5B6C03F480437B607B68002372
:101E00003B60094B1B6C084A43F080531364064B3C
:101E10001B6C03F080533B603B68072000F070FDB3
:101E200000BF0837BD4680BD0038024080B58AB08B
:101E300000AF786007F1140300221A605A609A60BC
:101E4000DA601A617B681B68174A934227D1002326
:101E50003B61164B1B6C154A43F000531364134B44
:101E60001B6C03F000533B613B690023FB600F4B8D
:101E70001B6B0E4A43F0010313630C4B1B6B03F007
:101E80000103FB60FB6830237B610323BB610023FC
:101E9000FB6107F114031946054801F09DF800BFE6
:101EA0002837BD4680BD00BF0074004000380240A6
:101EB0000000024080B58AB000AF786007F11403DB
:101EC00000221A605A609A60DA601A617B681B68A7
:101ED000194A93422CD100233B61184B1B6C174AC3
:101EE00043F480431364154B1B6C03F480433B6144
:101EF0003B690023FB60114B1B6B104A43F002034C
:101F000013630E4B1B6B03F00203FB60FB684FF483
:101F100020437B610223BB610123FB6103233B62FE
:101F200005237B6207F114031946054801F054F8B4
:101F300000BF2837BD4680BD003800400038024051
:101F40000004024080B586B000AF78607B681B68F3
:101F5000224A93420ED100237B61214B5B6C204AC5
:101F600043F0010353641E4B5B6C03F001037B6180
:101F70007B692EE07B681B681A4A934216D10023C6
:101F80003B61174B1B6C164A43F002031364144B5E
:101F90001B6C03F002033B613B69002200211D2002
:101FA00000F0B9FC1D2000F0D2FC12E07B681B6839
:101FB0000D4A93420DD10023FB60094B1B6C084A6C
:101FC00043F008031364064B1B6C03F00803FB602B
:101FD000FB6800BF1837BD4680BD00BF0000014050
:101FE0000038024000040040000C004080B58AB078
:101FF00000AF786007F1140300221A605A609A60FB
:10200000DA601A617B681B68B3F1804F33D100231B
:102010003B611B4B1B6C1A4A43F001031364184BC2
:102020001B6C03F001033B613B690023FB60144B15
:102030001B6B134A43F001031363114B1B6B03F03B
:102040000103FB60FB6803237B610223BB61012367
:10205000FB6103233B6201237B6207F114031946F2
:10206000084800F0B9FF002200211C2000F053FCBA
:102070001C2000F06CFC00BF2837BD4680BD00BFAF
:10208000003802400000024080B588B000AF7860A0
:1020900007F10C0300221A605A609A60DA601A6134
:1020A0007B681B68174A934227D10023BB60164BFD
:1020B0001B6B154A43F010031363134B1B6B03F0A8
:1020C0001003BB60BB6800F04BFA0346022B03D140
:1020D0004FF40073FB6002E04FF42063FB600223C7
:1020E0003B6100237B610323BB610123FB6107F19B
:1020F0000C031946054800F06FFF00BF2037BD46AE
:1021000080BD00BF000001400038024000100240C6
:1021100080B58CB000AF786007F11C0300221A6014
:102120005A609A60DA601A617B681B68364A93428B
:102130002DD10023BB61354B5B6C344A43F0100357
:102140005364324B5B6C03F01003BB61BB6900232B
:102150007B612E4B1B6B2D4A43F0010313632B4B0A
:102160001B6B03F001037B617B694FF4C063FB6170
:1021700002233B6200237B620323BB620723FB62D3
:1021800007F11C031946224800F026FF38E07B685F
:102190001B68204A934233D100233B611B4B1B6CCD
:1021A0001A4A43F400331364184B1B6C03F40033D6
:1021B0003B613B690023FB60144B1B6B134A43F0EC
:1021C00008031363114B1B6B03F00803FB60FB68F0
:1021D0006023FB6102233B6200237B620323BB621B
:1021E0000723FB6207F11C0319460B4800F0F4FEBD
:1021F00000220021262000F08EFB262000F0A7FB05
:1022000000BF3037BD4680BD00100140003802409D
:102210000000024000440040000C024080B400AFC7
:1022200000BFBD465DF8047B704780B400AF04205A
:102230005FEA0E01084202D0EFF3098001E0EFF3FC
:102240000880416900F058B800BE00BFFDE780B4C7
:1022500000AFFEE780B400AFFEE780B400AFFEE75A
:1022600080B400AF00BFBD465DF8047B704780B40A
:1022700000AF00BFBD465DF8047B704780B400AF7F
:1022800000BFBD465DF8047B704780B500AF00F02D
:10229000EFF900BF80BD80B500AF00F049F9042020
:1022A00001F04EF800BF80BD80B500AF024803F0DA
:1022B0006AF800BF80BD00BFD807002080B500AF1E
:1022C000024803F060F800BF80BD00BF180800207E
:1022D00080B500AF024803F045FF00BF80BD00BFDE
:1022E000D808002080B500AF024801F09CF900BF7B
:1022F00080BD00BF9014002080B491B000AF786022
:102300007B681B68FB637B685B68BB637B689B685F
:102310007B637B68DB683B637B681B69FB627B6874
:102320005B69BB627B689B697B627B68DB693B6244
:102330000C4B1B68FB610C4B1B68BB610B4B1B6898
:102340007B610B4B1B683B610A4B1B68BB600A4BF4
:102350001B68FB6000BE00BF4437BD465DF8047BD0
:10236000704700BF28ED00E02CED00E030ED00E00C
:102370003CED00E034ED00E038ED00E080B400AF6B
:1023800001231846BD465DF8047B704780B582B0D6
:1023900000AF7860396011F00BFF0246162313601E
:1023A0004FF0FF3318460837BD4680BD80B582B078
:1023B00000AF78604FF0FF317868FFF7E7FFFEE786
:1023C00080B586B000AF7860144A154BD31A7B6194
:1023D0007B693B61134B1B68002B02D1114B124AE6
:1023E0001A60104B1A687B6813443A699A4207D204
:1023F00011F0DEFE02460C2313604FF0FF3309E0BC
:10240000084B1B68FB60074B1A687B681344054A3E
:102410001360FB6818461837BD4680BD00000220D7
:1024200000040000880C0020A018002080B400AF39
:10243000084BD3F88830074A43F47003C2F8883059
:10244000044B4FF000629A6000BFBD465DF8047B0C
:10245000704700BF00ED00E0B0B584B000AFF86099
:10246000B9607A603B60FA68BB68D31A1846FEF719
:1024700051F804460D463A6A3B68D31A1846FEF7EF
:1024800049F802460B4620462946FEF7ADF80346BA
:102490000C4625461C467A68BB68D31A1846FEF7D8
:1024A00039F802460B4620462946FEF7C7F903468F
:1024B0000C4625461C463868FEF72CF802460B46AB
:1024C00020462946FDF7DAFE03460C46184621460B
:1024D000FEF73AFB034618461037BD46B0BD80B440
:1024E00085B000AF87ED030AC7ED020A87ED011A38
:1024F00097ED037AD7ED017AB4EEE77AF1EE10FAB0
:1025000001DD7B680BE097ED037AD7ED027AB4EE3C
:10251000E77AF1EE10FA01D5BB6800E0FB6807EE40
:10252000903AB0EE670A1437BD465DF8047B7047F9
:1025300080B500AF024808F03BFE00BF80BD00BF81
:102540002009002080B582B000AF78607968034828
:1025500006F0CBF900BF0837BD4680BD000B002058
:1025600080B400AF034B1B781846BD465DF8047B72
:10257000704700BF000B0020DFF834D0002103E0DB
:102580000C4B5B58435004310B480C4B42189A4299
:10259000F6D30B4A02E0002342F8043B094B9A426F
:1025A000F9D3FFF743FF11F009FEFEF7F3FC704784
:1025B00000000220FC4D0108000000201007002050
:1025C000100700209C180020FEE7000080B500AF37
:1025D0000E4B1B680D4A43F4007313600B4B1B68D2
:1025E0000A4A43F480631360084B1B68074A43F4AC
:1025F00080731360032000F083F9002000F008F8D6
:10260000FFF7ECFB0023184680BD00BF003C0240F2
:1026100080B582B000AF7860124B1A68124B1B78FD
:1026200019464FF47A73B3FBF1F3B2FBF3F3184698
:1026300000F0ADF90346002B01D001230EE07B68CA
:102640000F2B0AD8002279684FF0FF3000F063F9B1
:10265000064A7B681360002300E001231846083710
:10266000BD4680BD000000200800002004000020BE
:1026700080B400AF064B1B781A46064B1B68134408
:10268000044A136000BFBD465DF8047B704700BF7D
:1026900008000020B80C002080B400AF034B1B687A
:1026A0001846BD465DF8047B704700BFB80C00209B
:1026B00080B584B000AF7860FFF7EEFFB8607B684C
:1026C000FB60FB68B3F1FF3F05D0094B1B781A464E
:1026D000FB681344FB6000BFFFF7DEFF0246BB68E8
:1026E000D31AFA689A42F7D800BF1037BD4680BDAA
:1026F0000800002080B485B000AF78607B6803F0EC
:102700000703FB600C4BDB68BB60BA684FF6FF0346
:102710001340BB60FB681A02BB68134343F0BF63FE
:1027200043F40033BB60044ABB68D36000BF143776
:10273000BD465DF8047B704700ED00E080B400AF5B
:10274000044BDB681B0A03F007031846BD465DF81F
:10275000047B704700ED00E080B483B000AF034617
:10276000FB7197F90730002B0BDBFB7903F01F029D
:10277000074997F907305B09012000FA02F241F896
:10278000232000BF0C37BD465DF8047B704700BFB7
:1027900000E100E080B483B000AF0346FB7197F91D
:1027A0000730002B10DBFB7903F01F02094997F972
:1027B00007305B09012000FA02F2203341F82320A0
:1027C000BFF34F8FBFF36F8F00BF0C37BD465DF86F
:1027D000047B704700E100E080B483B000AF0346A3
:1027E0003960FB7197F90730002B0ADB3B68DAB2DE
:1027F0000C4997F907301201D2B20B4483F8002339
:102800000AE03B68DAB20849FB7903F00F03043BA6
:102810001201D2B20B441A7600BF0C37BD465DF8E8
:10282000047B704700E100E000ED00E080B489B077
:1028300000AFF860B9607A60FB6803F00703FB61E2
:10284000FB69C3F10703042B28BF0423BB61FB69A9
:102850000433062B02D9FB69033B00E000237B61B4
:102860004FF0FF32BB6902FA03F3DA43BB681A4048
:102870007B699A404FF0FF317B6901FA03F3D9433A
:102880007B680B40134318462437BD465DF8047B34
:102890007047000080B400AFBFF34F8F054BDB687B
:1028A00003F4E0620349044B1343CB60BFF34F8F43
:1028B00000BFFDE700ED00E00400FA0580B582B03E
:1028C00000AF78607B68013BB3F1807F01D30123C7
:1028D0000FE00A4A7B68013B53600F214FF0FF3045
:1028E000FFF77AFF054B00229A60044B07221A601B
:1028F000002318460837BD4680BD00BF10E000E049
:1029000080B582B000AF78607868FFF7F3FE00BF53
:102910000837BD4680BD80B586B000AF0346B960BC
:102920007A60FB7300237B61FFF708FF78617A68A8
:10293000B9687869FFF77AFF024697F90F301146B8
:102940001846FFF749FF00BF1837BD4680BD80B568
:1029500082B000AF0346FB7197F907301846FFF7C6
:10296000FBFE00BF0837BD4680BD80B582B000AF1A
:102970000346FB7197F907301846FFF70BFF00BFBE
:102980000837BD4680BD80B500AFFFF783FF80B537
:1029900082B000AF78607868FFF790FF0346184672
:1029A0000837BD4680BD80B582B000AF78607B68D7
:1029B000002B01D1012314E07B681B79DBB2002BD3
:1029C00005D17B6800225A717868FFF72FFA7B687F
:1029D00002221A717B6800221A617B6801221A7137
:1029E000002318460837BD4680BD80B485B000AFCF
:1029F000786039600023FB600023BB607B685B79F3
:102A0000012B01D1022350E07B6801225A717B68BF
:102A100002221A717B681B68196801223B689A4080
:102A20007B681B680A431A603B68002B1AD17B68DD
:102A30001B681B6803F00403FB607B681B681B6852
:102A400003F03803BB60FB68042B27D1BB68382B2D
:102A500024D17B681B685A687B681B6842F00102BE
:102A60005A601BE07B681B681B6803F48023FB60D3
:102A70007B681B681B6803F46013BB60FB68B3F5DD
:102A8000802F0BD1BB68B3F5601F07D17B681B6833
:102A90005A687B681B6842F002025A607B68012218
:102AA0001A717B6800225A71002318461437BD46FC
:102AB0005DF8047B704780B487B000AFF860B96000
:102AC0007A6000237B6100233B61FB685B79012B0B
:102AD00001D1022336E0FB6801225A71FB68022211
:102AE0001A71FB681B681B687B6140F6FE727B688D
:102AF00002FA03F3DB437A6913407B61BB681A680F
:102B0000BB685B6813433B613A697B6802FA03F375
:102B10007A6913437B61FB681B687A691A60FB68FA
:102B20001B681968C0227B6802FA03F3DA43FB686A
:102B30001B680A401A60FB6801221A71FB680022B8
:102B40005A71002318461C37BD465DF8047B704758
:102B500080B487B000AFF860B9607A603B60002352
:102B60007B61FB681B687B61BB68002B05D17A69C0
:102B70007B68134408337B6104E07A697B68134403
:102B800014337B617B691A463B6813600023184647
:102B90001C37BD465DF8047B704780B483B000AF3E
:102BA00078607B6893F83530DBB2022B04D07B6809
:102BB00080225A6501230CE07B68052283F83520CA
:102BC0007B681B681A687B681B6822F001021A6028
:102BD000002318460C37BD465DF8047B70470000A3
:102BE00080B586B000AFF860B960C7E90023012363
:102BF000FB75234B1B7E012B01D102233BE0204BB5
:102C000001221A764CF2503000F070F80346FB7542
:102C1000FB7D002B2BD1FB68002B05D13B7819469F
:102C2000B86800F019F916E0FB68012B05D13B8864
:102C30001946B86800F0ECF80DE0FB68022B05D1EE
:102C40003B681946B86800F0C1F804E0D7E90023F2
:102C5000B86800F08BF84CF2503000F047F80346AB
:102C6000FB75084B1B69074A23F001031361044BF2
:102C700000221A76FB7D18461837BD4680BD00BF7E
:102C8000BC0C0020003C024080B483B000AF0023A5
:102C9000FB710B4B1B69002B0BDA094B094A5A607D
:102CA000074B094A5A60064B1B69002B01DA0123C6
:102CB000FB71FB7918460C37BD465DF8047B704705
:102CC000003C024023016745AB89EFCD80B400AFE3
:102CD000054B1B69044A43F0004313610023184667
:102CE000BD465DF8047B7047003C024080B584B06F
:102CF00000AF78600023FB601A4B0022DA61FFF717
:102D0000CBFCF86010E07B68B3F1FF3F0CD07B6830
:102D1000002B07D0FFF7C0FC0246FB68D31A7A6885
:102D20009A4201D2032319E00F4BDB6803F480338E
:102D3000002BE8D10C4BDB6803F00103002B02D021
:102D4000094B0122DA60084BDB6803F0F203002B29
:102D500003D000F0A3F8012300E000231846103749
:102D6000BD4680BDBC0C0020003C024090B484B045
:102D700000AFF860C7E90023134B1B69124A23F424
:102D800040731361104B1B690F4A43F44073136186
:102D90000D4B1B690C4A43F001031361FB683A6851
:102DA0001A60BFF36F8FD7E900124FF000034FF0A6
:102DB000000413000024FA680432136000BF1037C7
:102DC000BD4690BC704700BF003C024080B483B059
:102DD00000AF786039600D4B1B690C4A23F44073D7
:102DE00013610A4B1B69094A43F400731361074BD3
:102DF0001B69064A43F0010313617B683A681A6055
:102E000000BF0C37BD465DF8047B7047003C0240B4
:102E100080B483B000AF78600B467B800D4B1B699C
:102E20000C4A23F4407313610A4B1B69094A43F4AB
:102E300080731361074B1B69064A43F0010313615A
:102E40007B687A881A8000BF0C37BD465DF8047B2A
:102E5000704700BF003C024080B483B000AF786090
:102E60000B46FB700C4B1B690B4A23F44073136138
:102E7000094B094A1B691361074B1B69064A43F05A
:102E8000010313617B68FA781A7000BF0C37BD46E6
:102E90005DF8047B704700BF003C024080B400AF87
:102EA000274BDB6803F01003002B08D0254BDB69B0
:102EB00043F01003234AD361214B1022DA60204BE8
:102EC000DB6803F02003002B08D01E4BDB6943F0C6
:102ED00008031C4AD3611A4B2022DA60184BDB68C6
:102EE00003F04003002B08D0164BDB6943F00403CA
:102EF000144AD361124B4022DA60114BDB6803F0B5
:102F00008003002B08D00F4BDB6943F002030D4A0E
:102F1000D3610B4B8022DA60094BDB6803F00203BC
:102F2000002B08D0074BDB6943F02003054AD3612F
:102F3000034B0222DA6000BFBD465DF8047B704798
:102F4000003C0240BC0C002080B485B000AF78602B
:102F50000B46FB700023FB60FB78002B02D10023A3
:102F6000FB6010E0FB78012B03D14FF48073FB6012
:102F700009E0FB78022B03D14FF40073FB6002E001
:102F80004FF44073FB60134B1B69124A23F44073E8
:102F90001361104B1A690F49FB6813430B610D4B0A
:102FA0001B690C4A23F0F80313610A4B1A697B680A
:102FB000DB001343074A43F002031361054B1B690F
:102FC000044A43F48033136100BF1437BD465DF8F3
:102FD000047B7047003C024080B489B000AF786049
:102FE000396000237B6100233B610023BB61002328
:102FF000FB616BE10122FB6902FA03F37B613B6831
:103000001B687A6913403B613A697B699A4240F0D8
:103010005A813B685B68012B0BD03B685B68022BD5
:1030200007D03B685B68112B03D03B685B68122BB1
:1030300030D17B689B68BB61FB695B00032202FAAD
:1030400003F3DB43BA691340BB613B68DA68FB6991
:103050005B0002FA03F3BA691343BB617B68BA6988
:103060009A607B685B68BB610122FB6902FA03F32B
:10307000DB43BA691340BB613B685B681B0903F023
:103080000102FB6902FA03F3BA691343BB617B686F
:10309000BA695A607B68DB68BB61FB695B0003222D
:1030A00002FA03F3DB43BA691340BB613B689A68D9
:1030B000FB695B0002FA03F3BA691343BB617B68E7
:1030C000BA69DA603B685B68022B03D03B685B68D7
:1030D000122B23D1FB69DA087B68083253F82230BF
:1030E000BB61FB6903F007039B000F2202FA03F3A5
:1030F000DB43BA691340BB613B681A69FB6903F0A3
:1031000007039B0002FA03F3BA691343BB61FB692F
:10311000DA087B680832B96943F822107B681B68BB
:10312000BB61FB695B00032202FA03F3DB43BA696C
:103130001340BB613B685B6803F00302FB695B0003
:1031400002FA03F3BA691343BB617B68BA691A6078
:103150003B685B6803F08053002B00F0B4800023D1
:10316000FB605F4B5B6C5E4A43F4804353645C4B93
:103170005B6C03F48043FB60FB685A4AFB699B0865
:10318000023352F82330BB61FB6903F003039B0059
:103190000F2202FA03F3DB43BA691340BB617B6879
:1031A000514A93422BD07B68504A934225D07B688A
:1031B0004F4A93421FD07B684E4A934219D07B6896
:1031C0004D4A934213D07B684C4A93420DD07B68A2
:1031D0004B4A934207D07B684A4A934201D1072366
:1031E0000EE008230CE006230AE0052308E0042390
:1031F00006E0032304E0022302E0012300E00023B1
:10320000FA6902F0030292009340BA691343BB616A
:103210003449FB699B080233BA6941F823203A4BD1
:103220001B68BB613B69DB43BA691340BB613B6808
:103230005B6803F48033002B03D0BA693B69134306
:10324000BB61314ABB6913602F4B5B68BB613B6953
:10325000DB43BA691340BB613B685B6803F400332E
:10326000002B03D0BA693B691343BB61264ABB6993
:103270005360254B9B68BB613B69DB43BA691340D4
:10328000BB613B685B6803F48013002B03D0BA6911
:103290003B691343BB611C4ABB6993601A4BDB68F3
:1032A000BB613B69DB43BA691340BB613B685B6848
:1032B00003F40013002B03D0BA693B691343BB61CD
:1032C000114ABB69D360FB690133FB61FB690F2BBA
:1032D0007FF690AE00BF2437BD465DF8047B704793
:1032E0000038024000380140000002400004024063
:1032F00000080240000C024000100240001402408E
:1033000000180240001C0240003C014080B483B021
:1033100000AF78600B467B8013467B707B78002B78
:1033200003D07A887B689A6103E07B881A047B6803
:103330009A6100BF0C37BD465DF8047B7047000002
:1033400080B582B000AF0346FB80084B5A69FB880A
:103350001340002B06D0054AFB885361FB881846B2
:1033600000F006F800BF0837BD4680BD003C0140B4
:1033700080B483B000AF0346FB8000BF0C37BD466E
:103380005DF8047B7047F0B58FB00AAF78607B685A
:10339000002B01D101230FE17B681B68BB607B68B8
:1033A00093F8BD33DBB2002B06D17B68002283F893
:1033B000BC2378680EF00EF87B68032283F8BD23E7
:1033C000BB68DB6B03F48073002B02D17B680022A7
:1033D0001A617B681B68184603F095FD7B681B68C3
:1033E0003B607E686D4606F110040FCC0FC50FCC14
:1033F0000FC594E8030085E80300331D0ECB386841
:1034000003F06CFC0346002B05D07B68022283F896
:10341000BD230123D0E07B681B680021184603F020
:1034200083FD0023FB734AE0FA7B79681346DB00D7
:103430009B1A9B000B443D3301221A70FA7B79687A
:103440001346DB009B1A9B000B443C33FA7B1A703B
:10345000FA7BFB7B98B279681346DB009B1A9B00D2
:103460000B44423302461A80FA7B79681346DB002C
:103470009B1A9B000B443F3300221A70FA7B796839
:103480001346DB009B1A9B000B44443300221A6056
:10349000FA7B79681346DB009B1A9B000B44483388
:1034A00000221A60FA7B79681346DB009B1A9B00A6
:1034B0000B44503300221A60FB7B0133FB73FA7B11
:1034C0007B685B689A42AFD30023FB7344E0FA7BCE
:1034D00079681346DB009B1A9B000B4403F2FD1333
:1034E00000221A70FA7B79681346DB009B1A9B0056
:1034F0000B4403F5FE73FA7B1A70FA7B7968134666
:10350000DB009B1A9B000B4403F2FF1300221A708E
:10351000FA7B79681346DB009B1A9B000B4403F58A
:10352000017300221A60FA7B79681346DB009B1A4C
:103530009B000B4403F5027300221A60FA7B796842
:103540001346DB009B1A9B000B4403F50473002217
:103550001A60FB7B0133FB73FA7B7B685B689A42E2
:10356000B5D37B681B683B607E686D4606F110042E
:103570000FCC0FC50FCC0FC594E8030085E80300FE
:10358000331D0ECB386803F0F9FC0346002B05D041
:103590007B68022283F8BD2301230DE07B680022B3
:1035A00083F838207B68012283F8BD237B681B6881
:1035B000184604F038FD002318461437BD46F0BD08
:1035C00080B584B000AF78607B681B68FB607B6867
:1035D00093F8BC33012B01D1022320E07B68012248
:1035E00083F8BC237B689B6A012B09D17B689B69AC
:1035F000012B05D0FB689B6B43F48032FB689A6318
:103600007B681B68184604F0F6FC7B681B6818464C
:1036100003F068FC7B68002283F8BC230023184673
:103620001037BD4680BD90B58DB000AF78607B6827
:103630001B683B623B6AFB617B681B68184604F0B1
:103640009DFD0346002B40F09D837B681B68184658
:1036500004F001FD0346002B00F093837B681B6898
:10366000184604F0F8FC034603F00203022B07D1CE
:103670007B681B685A697B681B6802F002025A610A
:103680007B681B68184604F0E6FC034603F0100351
:10369000102B61D17B681B689A697B681B6822F0DC
:1036A00010029A613B6A1B6ABB61BB6903F00F029F
:1036B0001346DB009B1A9B0003F5FC737A681344E6
:1036C00004337B61BB695B0C03F00F03022B24D135
:1036D000BA6947F6F0731340002B35D07B69D9687F
:1036E000BB691B099BB2C3F30A039BB21A46386A33
:1036F00004F05EFB7B69DA68BB691B09C3F30A034C
:103700001A447B69DA607B699A69BB691B09C3F358
:103710000A031A447B699A6116E0BB695B0C03F0EB
:103720000F03062B10D17B6803F57173082219462D
:10373000386A04F03DFB7B699A69BB691B09C3F3D6
:103740000A031A447B699A617B681B689A697B68E3
:103750001B6842F010029A617B681B68184604F0EF
:103760007AFC034603F40023B3F5002F6ED1002347
:103770007B627B681B68184604F080FCB86262E0DC
:10378000BB6A03F00103002B57D07B681B687A6A81
:10379000D2B21146184604F0A5FC38613B6903F02B
:1037A0000103002B0CD07B6A5A01FB69134403F51B
:1037B00030631A4601239360796A786800F098FDB7
:1037C0003B6903F00803002B0CD07B6A5A01FB69AC
:1037D000134403F530631A4608239360796A7868C6
:1037E00000F092FE3B6903F01003002B08D07B6AC7
:1037F0005A01FB69134403F530631A4610239360A2
:103800003B6903F02003002B08D07B6A5A01FB6957
:10381000134403F530631A46202393603B6903F495
:103820000053002B09D07B6A5A01FB69134403F54E
:1038300030631A464FF4005393607B6A01337B6216
:10384000BB6A5B08BB62BB6A002B99D17B681B68B3
:10385000184604F000FC034603F48023B3F5802FE0
:1038600040F0C0807B681B68184604F021FCB862F9
:1038700000237B62B2E0BB6A03F00103002B00F07F
:10388000A7807B681B687A6AD2B21146184604F09A
:1038900047FC38613B6903F00103002B57D07B6A7A
:1038A00003F00F03012202FA03F3FB60FB6903F547
:1038B00000635A6BFB68DB43F96901F50061134053
:1038C0004B637B6A5A01FB69134403F510631A4684
:1038D000012393607B681B69012B32D179687A6A76
:1038E0001346DB009B1A9B000B4448331968786829
:1038F0007A6A1346DB009B1A9B00034444331B681F
:10390000194478687A6A1346DB009B1A9B000344CB
:10391000483319607B6A002B13D179687A6A1346A1
:10392000DB009B1A9B000B4450331B68002B08D113
:103930007B6818687B6803F571731A46012104F0EF
:103940004FFC7B6ADBB2194678680DF0C4FD3B6919
:1039500003F00803002B08D07B6A5A01FB6913446B
:1039600003F510631A46082393603B6903F01003C4
:10397000002B08D07B6A5A01FB69134403F51063DE
:103980001A46102393603B6903F04003002B08D0D4
:103990007B6A5A01FB69134403F510631A464023FE
:1039A00093603B6903F00203002B08D07B6A5A0145
:1039B000FB69134403F510631A46022393603B69C5
:1039C00003F08003002B03D0796A786800F003FCD1
:1039D0007B6A01337B62BB6A5B08BB62BB6A002BFC
:1039E0007FF449AF7B681B68184604F034FB03463C
:1039F00003F00043B3F1004F22D1FB6903F50063EC
:103A00005B68FA6902F5006223F0010353607B688A
:103A100093F8F433012B08D17B68002283F8F42358
:103A20000021786800F00EFE02E078680DF0CAFD13
:103A30007B681B685A697B681B6802F000425A6108
:103A40007B681B68184604F006FB034603F400631A
:103A5000B3F5006F12D1FB6903F500639B6803F0B7
:103A60000103012B02D178680DF086FD7B681B688D
:103A70005A697B681B6802F400625A617B681B68A4
:103A8000184604F0E8FA034603F48053B3F5805F68
:103A900040F0C780FB6903F500635B68FA6902F5D3
:103AA000006223F0010353607B681B6810211846F5
:103AB00003F0C8FB0023FB6256E0FB6A5A01FB6976
:103AC000134403F510631A464FF67F339360FB6A85
:103AD0005A01FB69134403F510631B68FA6A51012C
:103AE000FA690A4402F5106223F400131360FB6ABA
:103AF0005A01FB69134403F510631B68FA6A51010C
:103B0000FA690A4402F5106243F000631360FB6A2D
:103B10005A01FB69134403F530631A464FF67F33AD
:103B20009360FB6A5A01FB69134403F530631B6819
:103B3000FA6A5101FA690A4402F5306223F400136B
:103B40001360FB6A5A01FB69134403F530631B6879
:103B5000FA6A5101FA690A4402F5306243F00063DF
:103B60001360FB6A0133FB627B685B68FA6A9A4206
:103B7000A3D3FB6903F50063DB69FA6902F5006210
:103B800043F00113D3617B681B6B002B16D0FB69DC
:103B900003F50063D3F88430FA6902F5006243F05C
:103BA0000B03C2F88430FB6903F500635B6CFA69B0
:103BB00002F5006243F00B03536415E0FB6903F563
:103BC00000635B69FA6902F5006243F4005343F055
:103BD0002B035361FB6903F500631B69FA6902F566
:103BE000006243F00B031361FB6903F500631B687C
:103BF000FA6902F5006223F4FE6313607B681868BB
:103C00007B681B69D9B27B6803F571731A4604F0AF
:103C1000E7FA7B681B685A697B681B6802F480526C
:103C20005A617B681B68184604F015FA034603F4D2
:103C30000053B3F5005F24D17B681B68184604F07D
:103C4000ABFA7B681B68184603F05DFB03461A4617
:103C50007B68DA607B681C6801F02EF901467B689E
:103C6000DB68DBB21A46204603F09AF878680DF05C
:103C70005AFC7B681B685A697B681B6802F4005217
:103C80005A617B681B68184604F0E5F9034603F0A7
:103C90000803082B0AD178680DF037FC7B681B6895
:103CA0005A697B681B6802F008025A617B681B68CE
:103CB000184604F0D0F9034603F48013B3F5801FCF
:103CC0000FD100237B627B6ADBB2194678680DF066
:103CD00099FC7B681B685A697B681B6802F4801238
:103CE0005A617B681B68184604F0B5F9034603F473
:103CF0000013B3F5001F0FD100237B627B6ADBB298
:103D0000194678680DF06CFC7B681B685A697B6803
:103D10001B6802F400125A617B681B68184604F0A5
:103D20009AF9034603F08043B3F1804F0AD17868D3
:103D30000DF07AFC7B681B685A697B681B6802F08F
:103D400080425A617B681B68184604F084F9034678
:103D500003F00403042B15D17B681B685B68BB610F
:103D6000BB6903F00403002B02D078680DF06AFCF5
:103D70007B681B6859687B681B68BA690A435A608C
:103D800000E000BF3437BD4690BD80B582B000AFC3
:103D900078600B46FB707B6893F8BC33012B01D134
:103DA000022313E07B68012283F8BC237B68FA7846
:103DB00083F838207B681B68FA781146184604F0AF
:103DC000F4F87B68002283F8BC23002318460837E8
:103DD000BD4680BD80B584B000AF7860084611460E
:103DE0001A460346FB700B463B801346BB7000230C
:103DF000FB7297F90330002B0FDAFB7803F00F0208
:103E00001346DB009B1A9B0038337A681344043353
:103E1000FB60FB6801225A700FE0FB7803F00F0291
:103E20001346DB009B1A9B0003F5FC737A6813446E
:103E30000433FB60FB6800225A70FB7803F00F0329
:103E4000DAB2FB681A703A88FB689A60FB68BA7845
:103E5000DA70FB685B78002B04D0FB681B789AB2A1
:103E6000FB68DA80BB78022B02D1FB6800221A7152
:103E70007B6893F8BC33012B01D102230EE07B68F1
:103E8000012283F8BC237B681B68F968184603F09D
:103E90005FFA7B68002283F8BC23FB7A1846103750
:103EA000BD4680BD80B584B000AF78600B46FB7026
:103EB00097F90330002B0FDAFB7803F00F0213465B
:103EC000DB009B1A9B0038337A6813440433FB6091
:103ED000FB6801225A700FE0FB7803F00F021346D3
:103EE000DB009B1A9B0003F5FC737A6813440433D0
:103EF000FB60FB6800225A70FB7803F00F03DAB214
:103F0000FB681A707B6893F8BC33012B01D1022344
:103F10000EE07B68012283F8BC237B681B68F9688C
:103F2000184603F09DFA7B68002283F8BC23002327
:103F300018461037BD4680BD80B586B000AFF8602A
:103F40007A603B600B46FB72FB7A03F00F0213466C
:103F5000DB009B1A9B0003F5FC73FA6813440433DF
:103F60007B617B697A68DA607B693A685A617B6950
:103F700000229A617B6900225A70FB7A03F00F03DA
:103F8000DAB27B691A70FB681B69012B02D17A686F
:103F90007B691A61FB7A03F00F03002B09D1FB68E0
:103FA0001868FB681B69DBB21A46796903F078FD73
:103FB00008E0FB681868FB681B69DBB21A46796980
:103FC00003F02AFB002318461837BD4680BD80B594
:103FD00086B000AFF8607A603B600B46FB72FB7AFC
:103FE00003F00F021346DB009B1A9B003833FA687C
:103FF000134404337B617B697A68DA607B693A68D1
:104000005A617B6900229A617B6901225A70FB7AAE
:1040100003F00F03DAB27B691A70FB681B69012B8E
:1040200002D17A687B691A61FB7A03F00F03002BD7
:1040300009D1FB681868FB681B69DBB21A4679690D
:1040400003F02EFD08E0FB681868FB681B69DBB213
:104050001A46796903F0E0FA002318461837BD467E
:1040600080BD80B584B000AF78600B46FB70FB78F4
:1040700003F00F027B685B689A4201D9012350E08C
:1040800097F90330002B0FDAFB7803F00F02134689
:10409000DB009B1A9B0038337A6813440433FB60BF
:1040A000FB6801225A700DE0FA781346DB009B1A78
:1040B0009B0003F5FC737A6813440433FB60FB68D0
:1040C00000225A70FB6801229A70FB7803F00F03FC
:1040D000DAB2FB681A707B6893F8BC33012B01D10C
:1040E00002231EE07B68012283F8BC237B681B68E7
:1040F000F968184603F085FEFB7803F00F03002BE8
:104100000AD17B6818687B681B69D9B27B6803F5A4
:1041100071731A4604F064F87B68002283F8BC23AC
:10412000002318461037BD4680BD80B584B000AF6F
:1041300078600B46FB70FB7803F00F027B685B68CE
:104140009A4201D9012342E097F90330002B0FDA9C
:10415000FB7803F00F021346DB009B1A9B003833F9
:104160007A6813440433FB60FB6801225A700FE045
:10417000FB7803F00F021346DB009B1A9B0003F54C
:10418000FC737A6813440433FB60FB6800225A70A6
:10419000FB6800229A70FB7803F00F03DAB2FB6829
:1041A0001A707B6893F8BC33012B01D102230EE017
:1041B0007B68012283F8BC237B681B68F96818467A
:1041C00003F08DFE7B68002283F8BC230023184691
:1041D0001037BD4680BD80B58AB002AF78603960C7
:1041E0007B681B687B617B693B613A681346DB0037
:1041F0009B1A9B0038337A6813440433FB60FB68D6
:104200009A69FB685B699A4201D901236CE0FB68FB
:104210005A69FB689B69D31AFB61FB689B68FA6962
:104220009A4202D9FB689B68FB61FB6903339B08D8
:10423000BB612BE0FB685A69FB689B69D31AFB6181
:10424000FB689B68FA699A4202D9FB689B68FB612C
:10425000FB6903339B08BB61FB68D9683B68DAB232
:10426000FB6998B27B681B69DBB2009303467869EF
:1042700003F069FDFB68DA68FB691A44FB68DA60E1
:10428000FB689A69FB691A44FB689A613B685A01AA
:104290003B69134403F510639B699BB2BA699A4268
:1042A00009D8FB689A69FB685B699A4203D2FB688C
:1042B0005B69002BBED1FB685A69FB689B699A4217
:1042C00011D83B6803F00F03012202FA03F3BB602D
:1042D0003B6903F500635A6BBB68DB43396901F541
:1042E000006113404B63002318462037BD4680BD54
:1042F00080B586B000AF786039607B681B687B61F1
:104300007B693B617B693C3304331B68FB603B6822
:104310005A013B69134403F530639B68BB607B68BB
:104320001B69012B40F0A080BB6803F00803002B41
:1043300015D0FB68724A934240F2DD80BB6803F4FB
:104340000043002B00F0D7803B685A013B691344BF
:1043500003F530631A464FF400439360CBE0BB682B
:1043600003F02003002B09D03B685A013B6913443A
:1043700003F530631A4620239360BCE0BB6803F06A
:104380002803002B40F0B780FB685D4A93420FD9A9
:10439000BB6803F40043002B0AD03B685A013B6919
:1043A000134403F530631A464FF400439360A2E0D0
:1043B00079683A681346DB009B1A9B000B4403F5AF
:1043C00001731A683B6859013B690B4403F530637C
:1043D0001B69C3F31203D11A78683A681346DB00ED
:1043E0009B1A9B00034403F50573196079683A68CA
:1043F0001346DB009B1A9B000B4403F502731968FC
:1044000078683A681346DB009B1A9B00034403F567
:1044100001731B68194478683A681346DB009B1ADD
:104420009B00034403F5027319603B68002B14D111
:1044300079683A681346DB009B1A9B000B4403F52E
:1044400004731B68002B08D17B6818687B6803F530
:1044500071731A46012103F0C3FE3B68DBB21946B3
:1044600078680DF01DF846E0FB68264A934224D197
:10447000BB6803F40043002B0AD03B685A013B6938
:10448000134403F530631A464FF40043936032E05F
:10449000BB6803F02003002B08D03B685A013B693E
:1044A000134403F530631A46202393603B68DBB264
:1044B000194678680CF0F4FF1DE03B68002B14D11E
:1044C00079683A681346DB009B1A9B000B4403F59E
:1044D00004731B68002B08D17B6818687B6803F5A0
:1044E00071731A46002103F07BFE3B68DBB219466C
:1044F00078680CF0D5FF002318461837BD4680BDFC
:104500000A30544F0A31544F80B586B000AF7860FE
:1045100039607B681B687B617B693B617B693C33ED
:1045200004331B68FB603B685A013B69134403F585
:1045300030639B68BB60FB68154A93420ED9BB6829
:1045400003F40043002B09D03B685A013B69134434
:1045500003F530631A464FF40043936078680CF01B
:104560008DFFFB680A4A93420CD97B681B69012BBB
:1045700008D17B6818687B6803F571731A460121BE
:1045800003F02EFE002318461837BD4680BD00BF3D
:104590000A30544F80B485B000AF78600B46FB7092
:1045A00013463B807B681B685B6ABB60FB78002B13
:1045B00007D13B8819047B681B68BA680A439A6272
:1045C00028E07B681B689B6A1B0CBA681344BB60BD
:1045D0000023FB730DE07B681A68FB7B40339B0074
:1045E00013445B681B0CBA681344BB60FB7B01334C
:1045F000FB73FA7BFB78013B9A42ECD33B881804AF
:104600007B681968FB78013BBA68024340339B0022
:104610000B445A60002318461437BD465DF8047BEE
:10462000704780B483B000AF78600B467B807B68B6
:104630001B687A885A62002318460C37BD465DF81D
:10464000047B704780B483B000AF78600B46FB708A
:1046500000BF0C37BD465DF8047B704780B586B05F
:1046600000AF78607B68002B01D101235BE27B689F
:104670001B6803F00103002B75D0A34B9B6803F06C
:104680000C03042B0CD0A04B9B6803F00C03082BED
:1046900012D19D4B5B6803F48003B3F5800F0BD1FF
:1046A000994B1B6803F40033002B5BD07B685B687D
:1046B000002B57D1012336E27B685B68B3F5803F5E
:1046C00006D1914B1B68904A43F4803313601DE080
:1046D0007B685B68B3F5A02F0CD18B4B1B688A4AB3
:1046E00043F480231360884B1B68874A43F480336C
:1046F00013600BE0844B1B68834A23F48033136000
:10470000814B1B68804A23F4802313607B685B68BD
:10471000002B13D0FDF7C0FF386108E0FDF7BCFFA8
:1047200002463B69D31A642B01D90323FBE1764B84
:104730001B6803F40033002BF0D014E0FDF7ACFF4E
:10474000386108E0FDF7A8FF02463B69D31A642BE5
:1047500001D90323E7E16C4B1B6803F40033002B02
:10476000F0D100E000BF7B681B6803F00203002B60
:1047700063D0654B9B6803F00C03002B0BD0624B9E
:104780009B6803F00C03082B1CD15F4B5B6803F4A0
:104790008003002B16D15C4B1B6803F00203002B37
:1047A00005D07B68DB68012B01D00123BBE1564BB0
:1047B0001B6823F0F8027B681B69DB005249134336
:1047C0000B603AE07B68DB68002B20D04F4B012266
:1047D0001A60FDF761FF386108E0FDF75DFF0246F2
:1047E0003B69D31A022B01D903239CE1464B1B687A
:1047F00003F00203002BF0D0434B1B6823F0F802B8
:104800007B681B69DB00404913430B6015E03F4B9D
:1048100000221A60FDF740FF386108E0FDF73CFF19
:1048200002463B69D31A022B01D903237BE1364BA5
:104830001B6803F00203002BF0D17B681B6803F0B8
:104840000803002B30D07B685B69002B16D0304BFF
:1048500001221A60FDF720FF386108E0FDF71CFF18
:1048600002463B69D31A022B01D903235BE1264B95
:104870005B6F03F00203002BF0D015E0244B002205
:104880001A60FDF709FF386108E0FDF705FF0246F1
:104890003B69D31A022B01D9032344E11A4B5B6F06
:1048A00003F00203002BF0D17B681B6803F00403C4
:1048B000002B00F0A0800023FB75134B1B6C03F052
:1048C0008053002B0FD10023BB600F4B1B6C0E4A93
:1048D00043F0805313640C4B1B6C03F08053BB609C
:1048E000BB680123FB750B4B1B6803F48073002B23
:1048F00021D1084B1B68074A43F480731360FDF70E
:10490000CBFE386111E000BF003802400000474292
:10491000800E474200700040FDF7BEFE02463B6934
:10492000D31A022B01D90323FDE0814B1B6803F44A
:104930008073002BF0D07B689B68012B06D17D4BE8
:104940001B6F7C4A43F0010313671CE07B689B6884
:10495000052B0CD1774B1B6F764A43F0040313678A
:10496000744B1B6F734A43F0010313670BE0714BE9
:104970001B6F704A23F0010313676E4B1B6F6D4A68
:1049800023F0040313677B689B68002B15D0FDF7A9
:1049900083FE38610AE0FDF77FFE02463B69D31AC9
:1049A00041F28832934201D90323BCE0614B1B6F73
:1049B00003F00203002BEED014E0FDF76DFE38612A
:1049C0000AE0FDF769FE02463B69D31A41F28832DC
:1049D000934201D90323A6E0564B1B6F03F0020359
:1049E000002BEED1FB7D012B05D1524B1B6C514AA4
:1049F00023F0805313647B689B69002B00F0928046
:104A00004C4B9B6803F00C03082B5CD07B689B69C4
:104A1000022B41D1484B00221A60FDF73DFE386160
:104A200008E0FDF739FE02463B69D31A022B01D993
:104A3000032378E03F4B1B6803F00073002BF0D199
:104A40007B68DA697B681B6A1A437B685B6A9B0137
:104A50001A437B689B6A5B08013B1B041A437B6813
:104A6000DB6A1B06334913434B60334B01221A6048
:104A7000FDF712FE386108E0FDF70EFE02463B69C5
:104A8000D31A022B01D903234DE02A4B1B6803F0F4
:104A90000073002BF0D045E0274B00221A60FDF791
:104AA000FBFD386108E0FDF7F7FD02463B69D31ACC
:104AB000022B01D9032336E01E4B1B6803F0007361
:104AC000002BF0D12EE07B689B69012B01D10123E3
:104AD00029E0184B5B68FB60FB6803F480027B688D
:104AE000DB699A421CD1FB6803F03F027B681B6ABA
:104AF0009A4215D1FA6847F6C07313407A68526A31
:104B000093420DD1FB6803F440327B689B6A9A4262
:104B100006D1FB6803F070627B68DB6A9A4201D0C1
:104B2000012300E0002318461837BD4680BD00BFB2
:104B300000700040003802406000474280B584B0F9
:104B400000AF786039607B68002B01D10123CCE095
:104B5000684B1B6803F00F033A689A420CD9654B07
:104B60003A68D2B21A70634B1B6803F00F033A68BD
:104B70009A4201D00123B8E07B681B6803F002036E
:104B8000002B20D07B681B6803F00403002B05D0AA
:104B9000594B9B68584A43F4E05393607B681B6809
:104BA00003F00803002B05D0534B9B68524A43F493
:104BB00060439360504B9B6823F0F0027B689B68D6
:104BC0004D4913438B607B681B6803F00103002B86
:104BD00044D07B685B68012B07D1474B1B6803F40B
:104BE0000033002B19D101237FE07B685B68022B27
:104BF00003D07B685B68032B07D13F4B1B6803F036
:104C00000073002B09D101236FE03B4B1B6803F0BD
:104C10000203002B01D1012367E0374B9B6823F08F
:104C200003027B685B68344913438B60FDF734FDF6
:104C3000F8600AE0FDF730FD0246FB68D31A41F246
:104C40008832934201D903234FE02B4B9B6803F03A
:104C50000C027B685B689B009A42EBD1254B1B687A
:104C600003F00F033A689A420CD2224B3A68D2B250
:104C70001A70204B1B6803F00F033A689A4201D068
:104C8000012332E07B681B6803F00403002B08D08B
:104C9000194B9B6823F4E0527B68DB681649134389
:104CA0008B607B681B6803F00803002B09D0124B54
:104CB0009B6823F460427B681B69DB000E49134349
:104CC0008B6000F021F801460B4B9B681B0903F039
:104CD0000F030A4AD35C21FA03F3094A1360094B14
:104CE0001B681846FDF794FC002318461037BD4694
:104CF00080BD00BF003C024000380240704B0108FC
:104D00000000002004000020F0B585B000AF0023B3
:104D10007B600023FB6000233B600023BB60634B90
:104D20009B6803F00C03042B07D0082B08D0002B42
:104D300040F0B4805E4BBB60B3E05E4BBB60B0E064
:104D40005A4B5B6803F03F037B60584B5B6803F48E
:104D50008003002B4AD0554B5B689B094FF0000441
:104D600040F2FF114FF0000203EA010504EA0206D7
:104D7000294632464FF000034FF00004540144EA44
:104D8000D1644B0119462246491B62EB06024FF0E3
:104D900000034FF00004940144EA91648B015B1A14
:104DA00064EB02044FF000014FF00002E20042EA1F
:104DB0005372D9000B4614465B1944EB06044FF0BE
:104DC00000014FF00002620242EAD35259020B4640
:104DD0001446184621467B684FF000041A462346C5
:104DE000FBF72AFF03460C46FB6049E02F4B5B684C
:104DF0009B094FF0000440F2FF114FF0000203EA5C
:104E0000010504EA0206294632464FF000034FF03E
:104E10000004540144EAD1644B0119462246491B5F
:104E200062EB06024FF000034FF00004940144EAE5
:104E300091648B015B1A64EB02044FF000014FF0A8
:104E40000002E20042EA5372D9000B4614465B1995
:104E500044EB06044FF000014FF00002A20242EAC8
:104E6000935299020B461446184621467B684FF030
:104E700000041A462346FBF7DFFE03460C46FB60A0
:104E80000A4B5B681B0C03F0030301335B003B60C0
:104E9000FA683B68B2FBF3F3BB6002E0044BBB6013
:104EA00000BFBB6818461437BD46F0BD003802404D
:104EB0000024F40000127A0080B400AF034B1B689A
:104EC0001846BD465DF8047B704700BF0000002017
:104ED00080B500AFFFF7F0FF0146054B9B689B0ACA
:104EE00003F00703034AD35C21FA03F3184680BD9D
:104EF00000380240804B010880B500AFFFF7DCFFAF
:104F00000146054B9B685B0B03F00703034AD35C28
:104F100021FA03F3184680BD00380240804B010897
:104F200080B582B000AF78607B68002B01D101238F
:104F300056E07B6800229A627B6893F85130DBB2BE
:104F4000002B06D17B68002283F850207868FCF79C
:104F5000B1FF7B68022283F851207B681B681A68C6
:104F60007B681B6822F040021A607B685A687B6885
:104F70009B681A437B68DB681A437B681B691A438A
:104F80007B685B691A437B689B6903F400731A436F
:104F90007B68DB691A437B681B6A42EA03017B6812
:104FA0009A6A7B681B680A431A607B689B691B0CC2
:104FB00003F004017B685A6A7B681B680A435A60E5
:104FC0007B681B68DA697B681B6822F40062DA611F
:104FD0007B6800225A657B68012283F851200023F8
:104FE00018460837BD4680BD80B582B000AF7860F6
:104FF0007B68002B01D101231DE07B6893F83D30D5
:10500000DBB2002B06D17B68002283F83C20786855
:10501000FCF798FF7B68022283F83D207B681A68C2
:105020007B6804331946104600F05CFC7B68012263
:1050300083F83D20002318460837BD4680BD80B464
:1050400085B000AF78607B68022283F83D207B68E2
:105050001B689B6803F00703FB60FB68062B07D007
:105060007B681B681A687B681B6842F001021A6043
:105070007B68012283F83D20002318461437BD4683
:105080005DF8047B704780B485B000AF78607B68C2
:105090001B68DA687B681B6842F00102DA607B6893
:1050A0001B689B6803F00703FB60FB68062B07D0B7
:1050B0007B681B681A687B681B6842F001021A60F3
:1050C000002318461437BD465DF8047B704780B551
:1050D00082B000AF78607B68002B01D101231DE016
:1050E0007B6893F83D30DBB2002B06D17B68002251
:1050F00083F83C20786800F015F87B68022283F87A
:105100003D207B681A687B6804331946104600F01E
:10511000E9FB7B68012283F83D200023184608370D
:10512000BD4680BD80B483B000AF786000BF0C374F
:10513000BD465DF8047B704780B584B000AF7860F1
:1051400039607B681B6801223968184600F0B4FE9C
:105150007B681B68154A934204D07B681B68144A1D
:10516000934201D1012300E00023002B07D07B688C
:105170001B685A6C7B681B6842F400425A647B6867
:105180001B689B6803F00703FB60FB68062B07D0D6
:105190007B681B681A687B681B6842F001021A6012
:1051A000002318461037BD4680BD00BF00000140F7
:1051B0000004014080B586B000AF786039607B683C
:1051C000002B01D1012383E07B6893F83D30DBB2F3
:1051D000002B06D17B68002283F83C207868FCF71E
:1051E00005FF7B68022283F83D207B681B689B6873
:1051F0007A68126823F4804323F0070393607B6886
:105200001A687B6804331946104600F06BFB7B6814
:105210001B689B687B617B681B689B693B617B6843
:105220001B681B6AFB603B681B687A6913437B61E0
:105230003B6923F4407323F003033B613B689A68A6
:105240003B689B691B0213433A6913433B613B690B
:1052500023F4406323F00C033B613B6923F4704368
:1052600023F0F0033B613B68DA683B68DB691B02B3
:1052700013433A6913433B613B681B691A013B685E
:105280001B6A1B0313433A6913433B61FB6823F01A
:105290002203FB60FB6823F08803FB603B685A68CD
:1052A0003B685B691B011343FA681343FB607B682F
:1052B0001B687A699A607B681B683A699A617B68A7
:1052C0001B68FA681A627B68012283F83D2000237C
:1052D00018461837BD4680BD80B582B000AF7860F3
:1052E00039603B68002B02D0042B10D01FE07B6894
:1052F0001B6801220021184600F0DEFD7B681B6858
:10530000DA687B681B6842F00202DA602EE07B6894
:105310001B6801220421184600F0CEFD7B681B6843
:10532000DA687B681B6842F00402DA601EE07B6882
:105330001B6801220021184600F0BEFD7B681B6837
:1053400001220421184600F0B7FD7B681B68DA686B
:105350007B681B6842F00202DA607B681B68DA68CF
:105360007B681B6842F00402DA6000BF7B681B6840
:105370001A687B681B6842F001021A600023184615
:105380000837BD4680BD80B582B000AF78607B68CD
:105390001B681B6903F00203022B22D17B681B6888
:1053A000DB6803F00203022B1BD17B681B686FF0E4
:1053B00002021A617B6801221A777B681B689B696D
:1053C00003F00303002B03D0786800F06CFA05E0CB
:1053D000786800F05EFA786800F06FFA7B68002267
:1053E0001A777B681B681B6903F00403042B22D126
:1053F0007B681B68DB6803F00403042B1BD17B680C
:105400001B686FF004021A617B6802221A777B68BE
:105410001B689B6903F44073002B03D0786800F08D
:1054200042FA05E0786800F034FA786800F045FA4E
:105430007B6800221A777B681B681B6903F00803EE
:10544000082B22D17B681B68DB6803F00803082B5C
:105450001BD17B681B686FF008021A617B6804220D
:105460001A777B681B68DB6903F00303002B03D00A
:10547000786800F018FA05E0786800F00AFA7868B1
:1054800000F01BFA7B6800221A777B681B681B6997
:1054900003F01003102B22D17B681B68DB6803F03C
:1054A0001003102B1BD17B681B686FF010021A6170
:1054B0007B6808221A777B681B68DB6903F44073FA
:1054C000002B03D0786800F0EEF905E0786800F072
:1054D000E0F9786800F0F1F97B6800221A777B68C0
:1054E0001B681B6903F00103012B0ED17B681B684D
:1054F000DB6803F00103012B07D17B681B686FF0A9
:1055000001021A617868FCF7DFFB7B681B681B6986
:1055100003F08003802B0ED17B681B68DB6803F0EF
:105520008003802B07D17B681B686FF080021A61B3
:10553000786800F0BFFD7B681B681B6903F04003BF
:10554000402B0ED17B681B68DB6803F04003402BC7
:1055500007D17B681B686FF040021A61786800F021
:10556000B6F97B681B681B6903F02003202B0ED162
:105570007B681B68DB6803F02003202B07D17B6866
:105580001B686FF020021A61786800F089FD00BF87
:105590000837BD4680BD000080B584B000AFF8601C
:1055A000B9607A60FB6893F83C30012B01D102238B
:1055B000B4E0FB68012283F83C20FB68022283F8F8
:1055C0003D207B680C2B00F29F8001A252F823F053
:1055D0000556000809570008095700080957000830
:1055E00045560008095700080957000809570008E0
:1055F000875600080957000809570008095700088E
:10560000C7560008FB681B68B968184600F00AFA1C
:10561000FB681B689A69FB681B6842F008029A6184
:10562000FB681B689A69FB681B6822F004029A6198
:10563000FB681B689969BB681A69FB681B680A43A9
:105640009A6162E0FB681B68B968184600F05AFA74
:10565000FB681B689A69FB681B6842F400629A61E8
:10566000FB681B689A69FB681B6822F480629A6178
:10567000FB681B689969BB681B691A02FB681B6899
:105680000A439A6141E0FB681B68B968184600F05C
:10569000AFFAFB681B68DA69FB681B6842F0080216
:1056A000DA61FB681B68DA69FB681B6822F0040298
:1056B000DA61FB681B68D969BB681A69FB681B68FB
:1056C0000A43DA6121E0FB681B68B968184600F0FC
:1056D00003FBFB681B68DA69FB681B6842F4006225
:1056E000DA61FB681B68DA69FB681B6822F4806278
:1056F000DA61FB681B68D969BB681B691A02FB6821
:105700001B680A43DA6100E000BFFB68012283F8EE
:105710003D20FB68002283F83C2000231846103708
:10572000BD4680BD80B584B000AF786039607B68CD
:1057300093F83C30012B01D10223A6E07B680122C3
:1057400083F83C207B68022283F83D207B681B683D
:105750009B68FB60FB6823F07703FB60FB6823F426
:105760007F43FB607B681B68FA689A603B681B6834
:10577000402B67D0402B0BD8102B73D0102B02D8A6
:10578000002B6FD078E0202B6CD0302B6AD073E0E8
:10579000702B0DD0702B04D8502B33D0602B41D000
:1057A0006AE0B3F5805F66D0B3F5005F17D063E0C1
:1057B0007B6818683B6899683B685A683B68DB6897
:1057C00000F05AFB7B681B689B68FB60FB6843F03A
:1057D0007703FB607B681B68FA689A604CE07B6823
:1057E00018683B6899683B685A683B68DB6800F05A
:1057F00043FB7B681B689A687B681B6842F48042A5
:105800009A6039E07B6818683B6859683B68DB68D8
:105810001A4600F0B7FA7B681B685021184600F062
:1058200010FB29E07B6818683B6859683B68DB68B7
:105830001A4600F0D6FA7B681B686021184600F013
:1058400000FB19E07B6818683B6859683B68DB68B7
:105850001A4600F097FA7B681B684021184600F052
:10586000F0FA09E07B681A683B681B681946104625
:1058700000F0E7FA00E000BF7B68012283F83D20DA
:105880007B68002283F83C20002318461037BD4671
:1058900080BD80B483B000AF786000BF0C37BD46D8
:1058A0005DF8047B704780B483B000AF786000BFC0
:1058B0000C37BD465DF8047B704780B483B000AF01
:1058C000786000BF0C37BD465DF8047B704780B43C
:1058D00083B000AF786000BF0C37BD465DF8047B35
:1058E0007047000080B485B000AF786039607B6895
:1058F0001B68FB607B68404A934213D07B68B3F11E
:10590000804F0FD07B683D4A93420BD07B683C4A66
:10591000934207D07B683B4A934203D07B683A4A64
:10592000934208D1FB6823F07003FB603B685B681F
:10593000FA681343FB607B682F4A93422BD07B6845
:10594000B3F1804F27D07B682C4A934223D07B68E9
:105950002B4A93421FD07B682A4A93421BD07B6814
:10596000294A934217D07B68284A934213D07B6818
:10597000274A93420FD07B68264A93420BD07B681C
:10598000254A934207D07B68244A934203D07B6820
:10599000234A934208D1FB6823F44073FB603B68C1
:1059A000DB68FA681343FB60FB6823F080023B6806
:1059B0005B691343FB607B68FA681A603B689A680E
:1059C0007B68DA623B681A687B689A627B680A4A7D
:1059D000934203D07B680C4A934203D13B681A6917
:1059E0007B681A637B6801225A6100BF1437BD4689
:1059F0005DF8047B704700BF0000014000040040D8
:105A000000080040000C004000040140004001403C
:105A1000004401400048014000180040001C0040C4
:105A20000020004080B487B000AF786039607B68A8
:105A30001B6A23F001027B681A627B681B6A7B6128
:105A40007B685B683B617B689B69FB60FB6823F05C
:105A50007003FB60FB6823F00303FB603B681B687B
:105A6000FA681343FB607B6923F002037B613B68A8
:105A70009B687A6913437B617B68204A934203D019
:105A80007B681F4A93420CD17B6923F008037B613A
:105A90003B68DB687A6913437B617B6923F004030D
:105AA0007B617B68154A934203D07B68144A93421A
:105AB00011D13B6923F480733B613B6923F400738C
:105AC0003B613B685B693A6913433B613B689B6997
:105AD0003A6913433B617B683A695A607B68FA68AC
