:020000040800F2
:100000000000012069410008213500082D35000855
:1000100033350008393500083F350008000000007E
:10002000000000000000000000000000453500084E
:1000300051350008000000005D35000869350008F2
:10004000B1410008B1410008B1410008B1410008C8
:10005000B1410008B1410008B1410008B1410008B8
:10006000B1410008B1410008B141000875350008F0
:10007000B1410008B1410008B141000889350008CC
:10008000B1410008B1410008B1410008B141000888
:100090009D350008B1410008B1410008B141000898
:1000A000B1410008B1410008B1410008B141000868
:1000B000B1410008B1350008C5350008B14100085C
:1000C000B1410008B1410008B1410008B141000848
:1000D000B1410008B1410008B1410008B141000838
:1000E000B1410008B1410008B1410008B141000828
:1000F000B1410008B1410008B1410008B141000818
:10010000B1410008B1410008B1410008B141000807
:10011000B1410008B1410008B1410008B1410008F7
:10012000B1410008B1410008B1410008B1410008E7
:1001300000000000000000000000000000000000BF
:1001400000000000000000000000000000000000AF
:10015000000000000000000000000000000000009F
:10016000000000000000000000000000000000008F
:10017000000000000000000000000000000000007F
:10018000000000000000000000000000000000006F
:10019000000000000000000000000000000000005F
:1001A000000000000000000000000000000000004F
:1001B000000000000000000000000000000000003F
:1001C000000000000000000000000000000000002F
:1001D000000000000000000000000000000000001F
:0401E0005FF8E0F1F3
:1001E40010B5054C237833B9044B13B10448AFF36D
:1001F40000800123237010BDE801002000000000EE
:1002040048E2000808B5034B1BB103490348AFF3A8
:10021400008008BD00000000EC01002048E2000856
:1002240081F0004102E000BF83F0004330B54FEAA3
:1002340041044FEA430594EA050F08BF90EA020F10
:100244001FBF54EA000C55EA020C7FEA645C7FEAA3
:10025400655C00F0E2804FEA5454D4EB5555B8BFC6
:100264006D420CDD2C4480EA020281EA030382EA37
:10027400000083EA010180EA020281EA0303362DC9
:1002840088BF30BD11F0004F4FEA01314FF4801C9C
:100294004CEA113102D0404261EB410113F0004FAE
:1002A4004FEA03334CEA133302D0524263EB430365
:1002B40094EA050F00F0A780A4F10104D5F1200E03
:1002C4000DDB02FA0EFC22FA05F2801841F100015E
:1002D40003FA0EF2801843FA05F359410EE0A5F132
:1002E40020050EF1200E012A03FA0EFC28BF4CF063
:1002F400020C43FA05F3C01851EBE37101F0004519
:1003040007D54FF0000EDCF1000C7EEB00006EEB25
:100314000101B1F5801F1BD3B1F5001F0CD34908AF
:100324005FEA30004FEA3C0C04F101044FEA445206
:1003340012F5800F80F09A80BCF1004F08BF5FEA8D
:10034400500C50F1000041EB045141EA050130BD6D
:100354005FEA4C0C404141EB010111F4801FA4F110
:100364000104E9D191F0000F04BF01460020B1FA65
:1003740081F308BF2033A3F10B03B3F120020CDA9D
:100384000C3208DD02F1140CC2F10C0201FA0CF07B
:1003940021FA02F10CE002F11402D8BFC2F1200CE0
:1003A40001FA02F120FA0CFCDCBF41EA0C01904096
:1003B400E41AA2BF01EB0451294330BD6FEA0404DF
:1003C4001F3C1CDA0C340EDC04F11404C4F12002CA
:1003D40020FA04F001FA02F340EA030021FA04F3DC
:1003E40045EA030130BDC4F10C04C4F1200220FA33
:1003F40002F001FA04F340EA0300294630BD21FA71
:1004040004F0294630BD94F0000F83F4801306BF36
:1004140081F480110134013D4EE77FEA645C18BF2A
:100424007FEA655C29D094EA050F08BF90EA020FC1
:1004340005D054EA000C04BF1946104630BD91EAB9
:10044400030F1EBF0021002030BD5FEA545C05D1BC
:100454004000494128BF41F0004130BD14F58004FB
:100464003CBF01F5801130BD01F0004545F0FE416F
:1004740041F470014FF0000030BD7FEA645C1ABFA4
:10048400194610467FEA655C1CBF0B46024650EADB
:10049400013406BF52EA033591EA030F41F4002107
:1004A40030BD00BF90F0000F04BF0021704730B58D
:1004B4004FF4806404F132044FF000054FF0000162
:1004C40050E700BF90F0000F04BF0021704730B523
:1004D4004FF4806404F1320410F0004548BF4042F8
:1004E4004FF000013EE700BF42004FEAE2014FEA4D
:1004F40031014FEA02701FBF12F07F4393F07F4F28
:1005040081F06051704732F07F4208BF704793F02A
:100514007F4F04BF41F40021704730B54FF460743D
:1005240001F0004521F000411CE700BF50EA010240
:1005340008BF704730B54FF000050AE050EA0102E9
:1005440008BF704730B511F0004502D5404261EB59
:1005540041014FF4806404F132045FEA915C3FF49A
:10056400D8AE4FF003025FEADC0C18BF03325FEA37
:10057400DC0C18BF033202EBDC02C2F1200300FAE8
:1005840003FC20FA02F001FA03FE40EA0E0021FA0D
:1005940002F11444BDE600BF70B54FF0FF0C4CF4FB
:1005A400E06C1CEA11541DBF1CEA135594EA0C0FAD
:1005B40095EA0C0F00F0DEF82C4481EA030621EAE8
:1005C4004C5123EA4C5350EA013518BF52EA033523
:1005D40041F4801143F4801338D0A0FB02CE4FF0D5
:1005E4000005E1FB02E506F00042E0FB03E54FF005
:1005F4000006E1FB03569CF0000F18BF4EF0010EFD
:10060400A4F1FF04B6F5007F64F5407404D25FEAF8
:100614004E0E6D4146EB060642EAC62141EA5551AB
:100624004FEAC52040EA5E504FEACE2EB4F1FD0CED
:1006340088BFBCF5E06F1ED8BEF1004F08BF5FEA6B
:10064400500E50F1000041EB045170BD06F000461D
:1006540046EA010140EA020081EA0301B4EB5C04CA
:10066400C2BFD4EB0C0541EA045170BD41F48011C2
:100674004FF0000E013C00F3AB8014F1360FDEBFE7
:10068400002001F0004170BDC4F10004203C35DAC3
:100694000C341BDC04F11404C4F1200500FA05F346
:1006A40020FA04F001FA05F240EA020001F00042E7
:1006B40021F0004110EBD37021FA04F642EB06015D
:1006C4005EEA430E08BF20EAD37070BDC4F10C0487
:1006D400C4F1200500FA04F320FA05F001FA04F24B
:1006E40040EA020001F0004110EBD37041F1000137
:1006F4005EEA430E08BF20EAD37070BDC4F1200542
:1007040000FA05F24EEA020E20FA04F301FA05F2A9
:1007140043EA020321FA04F001F0004121FA04F251
:1007240020EA020000EBD3705EEA430E08BF20EA21
:10073400D37070BD94F0000F0FD101F0004640005B
:1007440041EB010111F4801F08BF013CF7D041EADD
:10075400060195F0000F18BF704703F000465200E1
:1007640043EB030313F4801F08BF013DF7D043EAB2
:100774000603704794EA0C0F0CEA135518BF95EA68
:100784000C0F0CD050EA410618BF52EA4306D1D1EF
:1007940081EA030101F000414FF0000070BD50EA0E
:1007A400410606BF1046194652EA430619D094EA98
:1007B4000C0F02D150EA013613D195EA0C0F05D182
:1007C40052EA03361CBF104619460AD181EA0301D6
:1007D40001F0004141F0FE4141F470014FF000008E
:1007E40070BD41F0FE4141F4780170BD70B54FF029
:1007F400FF0C4CF4E06C1CEA11541DBF1CEA1355A9
:1008040094EA0C0F95EA0C0F00F0A7F8A4EB05048A
:1008140081EA030E52EA03354FEA013100F0888081
:100824004FEA03334FF0805545EA131343EA12634A
:100834004FEA022245EA111545EA10654FEA0026FF
:100844000EF000419D4208BF964244F1FD0404F5B8
:10085400407402D25B084FEA3202B61A65EB030514
:100864005B084FEA32024FF480104FF4002CB6EBD1
:10087400020E75EB030E22BFB61A754640EA0C0051
:100884005B084FEA3202B6EB020E75EB030E22BF91
:10089400B61A754640EA5C005B084FEA3202B6EBD2
:1008A400020E75EB030E22BFB61A754640EA9C0091
:1008B4005B084FEA3202B6EB020E75EB030E22BF61
:1008C400B61A754640EADC0055EA060E18D04FEA1F
:1008D400051545EA16754FEA06164FEAC30343EABF
:1008E40052734FEAC2025FEA1C1CC0D111F4801F8C
:1008F4000BD141EA00014FF000004FF0004CB6E785
:1009040011F4801F04BF01430020B4F1FD0C88BF23
:10091400BCF5E06F3FF6AFAEB5EB030C04BFB6EB2E
:10092400020C5FEA500C50F1000041EB045170BD21
:100934000EF0004E4EEA113114EB5C04C2BFD4EB4E
:100944000C0541EA045170BD41F480114FF0000ED2
:10095400013C90E645EA060E8DE60CEA135594EA4E
:100964000C0F08BF95EA0C0F3FF43BAF94EA0C0F51
:100974000AD150EA01347FF434AF95EA0C0F7FF4C6
:1009840025AF104619462CE795EA0C0F06D152EA1A
:1009940003353FF4FDAE1046194622E750EA4106FE
:1009A40018BF52EA43067FF4C5AE50EA41047FF40F
:1009B4000DAF52EA43057FF4EBAE12E74A0011D2C1
:1009C40012F5001211D20DD56FF47873B3EB6252A5
:1009D4000ED44FEAC12343F0004343EA505323FAB1
:1009E40002F070474FF00000704750EA013002D126
:1009F4004FF0FF3070474FF00000704780F0004028
:100A040002E000BF81F0004142001FBF5FEA4103E2
:100A140092EA030F7FEA226C7FEA236C6AD04FEAE2
:100A24001262D2EB1363C1BFD21841404840414027
:100A3400B8BF5B42192B88BF704710F0004F40F4D9
:100A4400000020F07F4018BF404211F0004F41F4F5
:100A5400000121F07F4118BF494292EA030F3FD0C1
:100A6400A2F1010241FA03FC10EB0C00C3F12003D4
:100A740001FA03F100F0004302D5494260EB400063
:100A8400B0F5000F13D3B0F1807F06D340084FEACE
:100A9400310102F10102FE2A51D2B1F1004F40EBC3
:100AA400C25008BF20F0010040EA0300704749002B
:100AB40040EB000010F4000FA2F10102EDD1B0FAF6
:100AC40080FCACF1080CB2EB0C0200FA0CF0AABFEB
:100AD40000EBC25052421843BCBFD0401843704789
:100AE40092F0000F81F4000106BF80F4000001328F
:100AF400013BB5E74FEA41037FEA226C18BF7FEA66
:100B0400236C21D092EA030F04D092F0000F08BFA7
:100B14000846704790EA010F1CBF0020704712F08E
:100B24007F4F04D1400028BF40F00040704712F1CD
:100B340000723CBF00F50000704700F0004343F032
:100B4400FE4040F4000070477FEA226216BF084668
:100B54007FEA23630146420206BF5FEA412390EA2B
:100B6400010F40F4800070474FF0000304E000BF21
:100B740010F0004348BF40425FEA000C08BF7047D2
:100B840043F0964301464FF000001CE050EA010296
:100B940008BF70474FF000030AE000BF50EA0102AB
:100BA40008BF704711F0004302D5404261EB410198
:100BB4005FEA010C02BF84460146002043F0B643BD
:100BC40008BFA3F18053A3F50003BCFA8CF2083AE2
:100BD400A3EBC25310DB01FA02FC634400FA02FCEB
:100BE400C2F12002BCF1004F20FA02F243EB0200F2
:100BF40008BF20F00100704702F1200201FA02FC54
:100C0400C2F1200250EA4C0021FA02F243EB020046
:100C140008BF20EADC70704742000ED2B2F1FE4FEA
:100C24000BD34FF09E03B3EB126209D44FEA0023B7
:100C340043F0004323FA02F070474FF0000070477E
:100C440012F1610F01D1420202D14FF0FF3070471F
:100C54004FF00000704700BF80B483B000AF7860ED
:100C64007B6818460C37BD4680BC704780B483B09F
:100C740000AF78607B6818460C37BD4680BC70476F
:100C840084B080B582B000AF786007F1140080E8CA
:100C94000E007B6807F11401542218460DF016FA71
:100CA40000BF0837BD46BDE8804004B0704780B53A
:100CB40088B004AF78600B46FB700023FB73786840
:100CC400FB789AB2642302930123019307F10F0383
:100CD400009301236C2105F005FA03461A467B684C
:100CE40083F85420FB7B18461037BD4680BD90B571
:100CF40083B000AF78600D217868FFF7D8FF034612
:100D04009CB20C217868FFF7D2FF03469BB21B020A
:100D14009BB223449BB218460C37BD4690BD80B4A9
:100D240085B000AF78600023FB6017E0FB6803F137
:100D34000113DB021A467B6893420CD2FB6803F56D
:100D44008033DB021A467B68934204D3FB6803F5C5
:100D54008033DB0207E0FB680133FB60FB68FF2B99
:100D6400E4DD4FF0FF3318461437BD4680BC7047AE
:100D740090B58BB000AFF860B9607A607B689B086F
:100D84007A6802F00302002A14BF01220022D2B2C0
:100D940013443B6204F03CFCF868FFF7C0FFF861C1
:100DA4003B6A9B001A46FB681344BB61B869FFF7B2
:100DB400B6FF78611D4B00221A601C4AFB699360E0
:100DC4007A69FB69D31ADB0A0133184AD36007F145
:100DD40010031946154804F00DFD0346002B03D0FB
:100DE40004F04CFC03461CE000237B6212E07B6AA7
:100DF4009A00FB68D118BA687B6A13441B78DBB28B
:100E04004FF000041A462346022004F091FB7B6A4B
:100E140001337B627A6A7B689A42E8D304F01EFC51
:100E2400002318462C37BD4690BD00BF04020020A5
:100E340080B586B000AFF860B9607A6000237B614A
:100E440010E07B699B001A46FB681344184600F0C7
:100E540011F801467B69BA681344CAB21A707B69F7
:100E640001337B617B697A689A42EAD800BF1837FC
:100E7400BD4680BD80B485B000AF78607B68FB6000
:100E8400FB681B6818461437BD4680BC70470000D9
:100E940090B593B012AF03F08BF900F097F83E4B86
:100EA40093F89C32042B03D1642003F0E3F9F6E7B2
:100EB40000F0CEFA00F0A6FA00F0F6F800F050F9CF
:100EC4000CF0EEFC00F080F900F0E4F900F03EFADA
:100ED400324B00221A60324801F014FE4FF47A704B
:100EE40003F0C8F92E4B9B7C002B05D002222D4920
:100EF4002D4803F0CBFA39E02C4C684604F10C037E
:100F0400482219460DF0E2F894E80E00284802F051
:100F1400B5FB0A2003F0AEF9244C684604F10C0337
:100F2400482219460DF0D2F894E80E002148FFF744
:100F3400A7FE0A2003F09EF91C4C684604F10C033A
:100F4400482219460DF0C2F894E80E001A48FFF73B
:100F540097FE0A2003F08EF9184B1B78002B02D061
:100F6400164B00221A70164807F0DEFE642003F0C8
:100F740081F9144807F0D8FE03F072F90246124BC7
:100F84001A60074B5B7B002BFBD0054BD3F80E306C
:100F9400184601F038FAF4E710070020A4050020F1
:100FA40000040020F803002014020020880200201E
:100FB4008C040020E40400203C050020940500205B
:100FC4006C03002024030020A805002080B596B0FF
:100FD40000AF07F130032822002118460DF081F8F4
:100FE40007F11C0300221A605A609A60DA601A61E1
:100FF4003B1D00221A605A609A60DA601A615A61D5
:1010040001233B634FF480337B630023BB630123E1
:101014003B640223FB644FF480333B654FF4E013DD
:101024007B6507F13003184607F070F90346002B7F
:1010340014BF01230023DBB2002B01D000F00CFC11
:101044000F23FB6102233B6200237B624FF4806326
:10105400BB620023FB6207F11C030221184607F060
:10106400D5FB0346002B14BF01230023DBB2002B66
:1010740001D000F0F1FB12237B604FF40043FB60CE
:101084000023BB613B1D184607F048FD0346002BB7
:1010940014BF01230023DBB2002B01D000F0DCFBE2
:1010A40000BF5837BD4680BD80B584B000AF3B1D3E
:1010B40000221A605A609A60274B284A1A60264B0D
:1010C4004FF480729A60244B01221A73224B00223F
:1010D4001A75214B4FF46022DA611F4B00225A60CB
:1010E4001D4B02221A611C4803F0E6F80346002B4C
:1010F40014BF01230023DBB2002B01D000F0ACFBB2
:1011040001237B600123BB600723FB603B1D194661
:10111400114803F0B5FA0346002B14BF0123002342
:10112400DBB2002B01D000F097FB02237B6002238B
:10113400BB603B1D1946084803F0A2FA0346002B86
:1011440014BF01230023DBB2002B01D000F084FB89
:1011540000BF1037BD4680BD1402002000240140AA
:1011640080B500AF154B164A1A60144B154A5A60E5
:10117400124B00229A60114B0022DA600F4B4FF49D
:1011840080421A610D4B00225A610C4B00229A6175
:101194000A4B0022DA61094B00221A62074804F064
:1011A4006BFD0346002B14BF01230023DBB2002B8D
:1011B40001D000F051FB00BF80BD00BF88020020B9
:1011C40000540040801A060080B58AB000AF07F1D1
:1011D400200300221A605A603B1D00221A605A60E4
:1011E4009A60DA601A615A619A61294B4FF0804221
:1011F4001A60274B00225A60254B00229A60244B28
:101204005922DA60224B00221A61214B00229A6192
:101214001F4807F017FE0346002B14BF01230023C9
:10122400DBB2002B01D000F017FB00233B6200234C
:101234007B6207F120031946154808F021FF034695
:10124400002B14BF01230023DBB2002B01D000F0DC
:1012540003FB60237B600023BB600023FB6000234F
:101264007B613B1D00221946094808F0BFF903467B
:10127400002B14BF01230023DBB2002B01D000F0AC
:10128400EBFA034802F01AF900BF2837BD4680BDC7
:10129400DC02002080B586B000AF07F1080300220D
:1012A4001A605A609A60DA603B4600221A605A60FB
:1012B400244B254A1A60234B47225A60214B0022B3
:1012C4009A60204B40F2F312DA601E4B00221A613E
:1012D4001C4B00229A611B4807F0D6FC0346002BE6
:1012E40014BF01230023DBB2002B01D000F0B4FAB9
:1012F4004FF48053BB6007F108031946114808F006
:1013040033FA0346002B14BF01230023DBB2002B66
:1013140001D000F0A1FA00233B6000237B603B4630
:101324001946084808F0ACFE0346002B14BF0123FD
:101334000023DBB2002B01D000F08EFA00BF183777
:10134400BD4680BD240300200004004080B586B063
:1013540000AF07F1080300221A605A609A60DA604D
:101364003B4600221A605A60244B254A1A60234BDC
:1013740047225A60214B00229A60204B40F2E73208
:10138400DA601E4B00221A611C4B00229A611B4832
:1013940007F07AFC0346002B14BF01230023DBB2C1
:1013A400002B01D000F058FA4FF48053BB6007F1D2
:1013B40008031946114808F0D7F90346002B14BF57
:1013C40001230023DBB2002B01D000F045FA0023F7
:1013D4003B6000237B603B461946084808F050FEFA
:1013E4000346002B14BF01230023DBB2002B01D0E2
:1013F40000F032FA00BF1837BD4680BD6C030020F0
:101404000008004080B582B000AF104B5B690F4A02
:1014140043F0010353610D4B5B6903F001037B60EF
:101424007B68002200210B2003F0FFFB0B2003F05C
:1014340018FC002200210F2003F0F7FB0F2003F01B
:1014440010FC00BF0837BD4680BD00BF001002403D
:1014540080B586B000AF07F1080300221A605A6015
:101464009A60DA60134B9B69124A43F00403936158
:10147400104B9B6903F004037B607B680D4B9B69F5
:101484000C4A43F0080393610A4B9B6903F0080379
:101494003B603B683823BB600023FB6002233B6155
:1014A40007F108031946044804F04CFA00BF183742
:1014B400BD4680BD00100240000C0140B0B584B0B0
:1014C40000AF0446084611461A462346FB800346ED
:1014D400BB800B467B8013463B807A88BB88D31A3B
:1014E400FB81FB89002B01D13B883AE0FA88BB8859
:1014F4009A4201D23B8834E0FA887B889A4201D927
:101504003B8C2EE0FA88BB88D31A398C3A888A1A25
:1015140002FB03F31846FEF7D5FF04460D467A880E
:10152400BB88D31A1846FEF7CDFF02460B46204669
:101534002946FFF75BF903460C4625461C463B88C3
:101544001846FEF7BFFF02460B4620462946FEF723
:101554006DFE03460C4618462146FFF72FFA034654
:101564009BB218461037BD46B0BD000080B584B0AC
:1015740002AF78607B681A68A14B1B689A4229D134
:101584000121A04802F095F89F48FFF7B0FB0346FD
:101594001A469E4B1A8002219A4802F08AF89C4807
:1015A400FFF7A5FB03461A46984B5A8002F058FEF3
:1015B4000246984B1B68D31A40F2E732934294BF19
:1015C40001230023DBB2002B04D0934B1B680133AF
:1015D400914A13607B681A68904B1B689A4240F0EA
:1015E40032818F4B93F88A30002B3FD08C4BB3F869
:1015F40013309BB2002B05D1844B1B889AB2884BC5
:10160400A3F81320864BB3F815309BB2012B05D1F8
:101614007E4B1B889AB2824BA3F815207B4B1B8808
:101624009AB27F4BB3F815309BB29A428CBF012318
:101634000023DBB2002B05D0744B1B889AB2784B85
:10164400A3F81520714B1B889AB2754BB3F813306D
:101654009BB29A4234BF01230023DBB2002B05D096
:101664006A4B1B889AB26E4BA3F81320674B1B88F6
:1016740098B26B4BB3F8133099B2694BB3F8153089
:101684009AB240F6FF7300930023FFF717FF034657
:101694001A46644B1A80634B1B8899B240F6FF7359
:1016A40000225F4801F084FD03461A465D4B1A8010
:1016B4005B4B93F88A30002B3FD0594BB3F817306B
:1016C4009BB2002B05D1514B5B889AB2544BA3F8C3
:1016D4001720534BB3F819309BB2012B05D14B4B58
:1016E4005B889AB24E4BA3F81920484B5B889AB298
:1016F4004B4BB3F819309BB29A428CBF01230023A1
:10170400DBB2002B05D0414B5B889AB2444BA3F863
:1017140019203E4B5B889AB2414BB3F817309BB209
:101724009A4234BF01230023DBB2002B05D0374B90
:101734005B889AB23A4BA3F81720344B5B8898B273
:10174400374BB3F8173099B2354BB3F819309AB216
:1017540040F6FF7300930023FFF7B0FE03461A46DA
:10176400304B5A802F492E4801F034FB2C4B93F810
:101774008830002B02D0012B1ED064E0284B93F854
:101784002130002B14D0284B1B681D2B08D824486B
:1017940002F072F9244B1B680133234A136052E0B0
:1017A400214B00221A601E4B002283F821204AE0BC
:1017B4001B4802F0E7F846E0194B93F88930012BF7
:1017C40008D0022B0AD0002B00D03AE0144802F0D3
:1017D40009F937E0124802F04FF933E0104B93F85F
:1017E4002130002B2AD0104B1B681D2B1ED80C480F
:1017F40002F042F90C4B1B6801330B4A136020E0E2
:101804006C0300208C040020E4040020F803002072
:101814003C050020A8050020AC050020240300207E
:1018240000040020FC030020A4050020084B002233
:101834001A60084B002283F8212002E0054802F0D8
:1018440097FA00BF00BF00BF0837BD4680BD00BF88
:10185400A40500200004002080B400AF00BFBD46F2
:1018640080BC704780B582B000AF786039607B6817
:10187400012B10D13B684FF6FF7293420BD11248F3
:1018840002F05AF8114801F0E1FE1148FFF7E4F9BB
:101894001048FFF7E1F97B68002B10D13B684FF645
:1018A400FF7293420BD10B48FFF7E0F90848FFF7AA
:1018B400DDF9064801F0D8FE034802F055F800BFF0
:1018C4000837BD4680BD00BF000400208C04002002
:1018D400E40400203C05002080B500AF4FF6FF7102
:1018E4000120FFF7BFFF80BD80B500AF4FF6FF7149
:1018F4000020FFF7B7FF80BD80B483B000AF7860ED
:101904000B46FB70FB78542B13D8FB781A46520015
:101914001344DAB27B681A70FB781A469B00D31A18
:10192400DBB2013BDAB27B685A707B6800229A70A2
:101934002CE0FB78A92B12D8FB78553BFB70FB7885
:10194400DB43DAB27B681A707B6800225A70FB783A
:101954001A4652001344DAB27B689A7016E0FB7898
:101964005633FB707B6800221A70FB781A465200CB
:101974001344DAB27B685A70FB781A469B00D31A78
:10198400DBB2013BDAB27B689A7000BF0C37BD460C
:1019940080BC704780B582B000AF786039600CF0CD
:1019A400A9FB024639687B68CB1A013392FBF3F139
:1019B40003FB01F3D21A7B68134418460837BD466B
:1019C40080BDF0B58BB000AF3B600346FB710B46A6
:1019D400BB7113467B713B685B00C3F107023B6C30
:1019E400D31A19460020FFF7D5FFF861FA693B685E
:1019F40013443A6C1344BB6100237B627A6A3B68EC
:101A04009A4215DAFA697B6A134418467B79BA79E3
:101A1400F97900F0F1FEBA697B6A134418467B79C0
:101A2400BA79F97900F0E8FE7B6A01337B62E5E775
:101A3400012000F08FFF97F84430002B6DD0BB6C71
:101A44003B623B6A002B68DBFA79BB6C92FBF3F3D5
:101A54003A6A02FB03F31846FFF78AF803467B61F0
:101A6400BA79BB6C92FBF3F33A6A02FB03F31846B0
:101A7400FFF77EF803463B617A79BB6C92FBF3F384
:101A84003A6A02FB03F31846FFF772F80346FB6059
:101A940000237B627A6A3B689A4233DAFA697B6A8A
:101AA40013441E467869FFF7B7F80346DCB2386979
:101AB400FFF7B2F80346DDB2F868FFF7ADF8034666
:101AC400DBB22A462146304600F096FEBA697B6AAC
:101AD40013441E467869FFF79FF80346DCB2386961
:101AE400FFF79AF80346DDB2F868FFF795F8034666
:101AF400DBB22A462146304600F07EFE7B6A013383
:101B04007B62C7E7012000F025FFFB6C184602F05A
:101B1400B1FB3B6A013B3B6293E7002200210020BA
:101B240000F09CFE3B6D184602F0A4FB00BF2C376E
:101B3400BD46F0BD80B588B000AF0346FB71FB79AC
:101B4400002B00F09C800023FB61FB69022B00F357
:101B540013810023BB618A4B1B781A46BB699342ED
:101B64003DDAFB69012B12D0022B1FD0002B2CD1A4
:101B7400BA6913461B029A1A824B1B6892FBF3F351
:101B8400DBB200220021184600F068FE1DE0BA69AD
:101B940013461B029A1A7B4B1B6892FBF3F3DBB2CE
:101BA40000221946002000F059FE0EE0BA691346DF
:101BB4001B029A1A734B1B6892FBF3F3DBB21A46AF
:101BC4000021002000F04AFE00BF012000F0C2FE08
:101BD4003C2002F04FFBBB690133BB61BBE74FF410
:101BE400C87002F047FB664B1B78013B7B617B6945
:101BF400002B3DDBFB69012B12D0022B1FD0002BE5
:101C04002CD17A6913461B029A1A5E4B1B6892FB0D
:101C1400F3F3DBB200220021184600F01FFE1DE0A2
:101C24007A6913461B029A1A564B1B6892FBF3F30C
:101C3400DBB200221946002000F010FE0EE07A69A3
:101C440013461B029A1A4F4B1B6892FBF3F3DBB249
:101C54001A460021002000F001FE00BF012000F020
:101C640079FE3C2002F006FB7B69013B7B61BEE709
:101C7400C82002F0FFFAFB690133FB6165E7424BC0
:101C84001B68FB72404B1B681B12BB723E4B1B68EC
:101C94001B147B7200233B61394B1B781A463B694A
:101CA40093422DDAFB7A3A6902FB03F2354B1B6847
:101CB40092FBF3F3D8B2BB7A3A6902FB03F2314BDD
:101CC4001B6892FBF3F3D9B27B7A3A6902FB03F205
:101CD4002C4B1B6892FBF3F3DBB21A4600F0BEFDFB
:101CE400012000F037FE3B693E2B02DC642002F049
:101CF400C1FA0A2002F0BEFA3B6901333B61CBE72B
:101D0400C82002F0B7FA1E4B1B78013BFB60FB684E
:101D1400002B2DDBFB7AFA6802FB03F2194B1B68DC
:101D240092FBF3F3D8B2BB7AFA6802FB03F2154BC9
:101D34001B6892FBF3F3D9B27B7AFA6802FB03F2D5
:101D4400104B1B6892FBF3F3DBB21A4600F086FDDE
:101D5400012000F0FFFDFB683E2B02DC3C2002F07A
:101D640089FA0A2002F086FAFB68013BFB60CEE7A1
:101D740040F2262002F07EFA00BF2037BD4680BD27
:101D8400A00500209C0500209805002090B587B090
:101D940000AF0446084611461A462346FB71034623
:101DA400BB710B467B7113463B710022002100205E
:101DB40000F054FD3B795A1E3A71002B14BF0123E5
:101DC4000023DBB2002B3BD000237B617B69092B12
:101DD400F0DC00233B613B69012B2DDC0023FB601D
:101DE400FB68062B0CDCFA683B69134418467B79C4
:101DF400BA79F97900F000FDFB680233FB60EFE784
:101E0400012000F0A7FD962002F034FA0023BB6005
:101E1400BB68062B0CDCBA683B69134418460023E4
:101E24000022002100F0E8FCBB680233BB60EFE74E
:101E34003B6901333B61CEE77B6901337B61C5E7D5
:101E440000BF1C37BD4690BD90B583B000AF0023E2
:101E5400BB80BB88FF2B3FD80023FB80FB88062B6D
:101E640030D8FB88DAB2BB88DBB21344DAB23B4623
:101E740011461846FFF740FDF8883B781A4613468A
:101E84001B029A1A164B1B6892FBF3F3D9B27B78A8
:101E94001A4613461B029A1A114B1B6892FBF3F362
:101EA400DCB2BB781A4613461B029A1A0C4B1B6809
:101EB40092FBF3F3DBB2224600F09EFCFB88013375
:101EC400FB80CBE7012000F045FD082002F0D2F9A9
:101ED400BB880133BB80BCE700BF0C37BD4690BD57
:101EE4009C05002090B585B000AF0346FB71FB79DB
:101EF4005A1EFA71002B14BF01230023DBB2002BFE
:101F04004ED00023BB81BB89B3F5A06FEFD2002371
:101F1400FB81FB89062B39D8FB891B02224A82FBF1
:101F240003121A449210DB17D31ADAB2BB89DBB25C
:101F34001344DAB207F1080311461846FFF7DCFC34
:101F4400F8893B7A1A4613461B029A1A174B1B68E8
:101F540092FBF3F3D9B27B7A1A4613461B029A1A00
:101F6400124B1B6892FBF3F3DCB2BB7A1A4613469E
:101F74001B029A1A0D4B1B6892FBF3F3DBB2224649
:101F840000F03AFCFB890133FB81C2E7012000F039
:101F9400E1FC022002F06EF9BB890133BB81B2E798
:101FA40000BF1437BD4690BD932449929C05002080
:101FB40090B585B000AF0446084611461A4623463C
:101FC400FB710346BB710B467B7113463B713B7936
:101FD400002B04D100220021002000F03FFC00234C
:101FE400FB81FB89062B0FD8F8897B79BA79F979BB
:101FF40000F002FC012000F0ADFC502002F03AF9A0
:10200400FB890133FB81ECE700BF1437BD4690BD6B
:1020140080B584B000AF0346FB71FB795A1EFA7198
:10202400002B14BF01230023DBB2002B3AD0002382
:10203400FB73FB7B062B11D8F87B00230022FF21C6
:1020440000F0DAFBFB7B0133184600230022002159
:1020540000F0D2FBFB7B0233FB73EAE7012000F0C4
:1020640079FCB42002F006F90023BB73BB7B062B7A
:1020740011D8B87B00230022002100F0BDFBBB7BFC
:102084000133184680238022802100F0B5FBBB7BFE
:102094000233BB73EAE7012000F05CFCB42002F0D9
:1020A400E9F8BAE700BF1037BD4680BD80B584B0FB
:1020B40000AF0346FB71FB795A1EFA71002B14BF63
:1020C40001230023DBB2002B00F04B810023FB73C0
:1020D400FB7B062BEFD8FA7BA44B83FB0213134440
:1020E4009910D317C91A0B46DB005B1AD11A08469C
:1020F400002300221F2100F07FFBFB7B5A1C9B4B1B
:1021040083FB021313449910D317C91A0B46DB003F
:102114005B1AD11A0846002300221F2100F06CFB31
:10212400FB7B9A1C914B83FB021313449910D31726
:10213400C91A0B46DB005B1AD11A084600231F227A
:10214400002100F059FBFB7BDA1C884B83FB021354
:1021540013449910D317C91A0B46DB005B1AD11A22
:10216400084600231F22002100F046FBFB7B1A1DBA
:102174007E4B83FB021313449910D317C91A0B46E1
:10218400DB005B1AD11A08461F230022002100F04D
:1021940033FBFB7B5A1D754B83FB021313449910CD
:1021A400D317C91A0B46DB005B1AD11A08461F2342
:1021B4000022002100F020FBFB7B9A1D6B4B83FB6C
:1021C400021313449910D317C91A0B46DB005B1A88
:1021D400D11A084600231F22002100F00DFBFB7BCF
:1021E400DA1D624B83FB021313449910D317C91AE7
:1021F4000B46DB005B1AD11A084600231F2200217C
:1022040000F0FAFAFB7B03F10802584B83FB02133C
:1022140013449910D317C91A0B46DB005B1AD11A61
:102224000846002300221F2100F0E6FAFB7B03F19D
:1022340009024E4B83FB021313449910D317C91A96
:102244000B46DB005B1AD11A0846002300221F212B
:1022540000F0D2FAFB7B03F10A02444B83FB021326
:1022640013449910D317C91A0B46DB005B1AD11A11
:10227400084600231F22002100F0BEFAFB7B03F175
:102284000B023A4B83FB021313449910D317C91A58
:102294000B46DB005B1AD11A084600231F220021DB
:1022A40000F0AAFAFB7B03F10C02304B83FB021310
:1022B40013449910D317C91A0B46DB005B1AD11AC1
:1022C40008461F230022002100F096FAFB7B03F14D
:1022D4000D02264B83FB021313449910D317C91A1A
:1022E4000B46DB005B1AD11A08461F23002200218B
:1022F40000F082FAFB7B03F10E021C4B83FB0213FA
:1023040013449910D317C91A0B46DB005B1AD11A70
:10231400084600231F22002100F06EFAFB7B03F124
:102324000F02124B83FB021313449910D317C91ADB
:102334000B46DB005B1AD11A084600231F2200213A
:1023440000F05AFA012000F005FB002200210020D1
:1023540000F084FA502001F08DFFFB7B0133FB7306
:10236400B6E600BF1037BD4680BD00BF9324499236
:1023740080B584B000AF3B600346FB710B46BB7174
:1023840013467B710023FB60FA683B689A421CDAAF
:102394007A79B979FB79184600F060FA012000F0E7
:1023A400D9FABB69184601F065FF0022002100201C
:1023B40000F054FA012000F0CDFABB69184601F090
:1023C40059FFFB680133FB60DEE7FB69184601F047
:1023D40051FF00BF1037BD4680BD80B483B000AF4D
:1023E4007860396001223B6802FA03F31A467B687D
:1023F4001340002B14BF01230023DBB218460C3713
:10240400BD4680BC7047B0B588B006AF78601F2168
:102414007868FFF7E2FF0346002B1DD03221052028
:10242400FFF7B8FA044696213220FFF7B3FA0546BF
:1024340042F210714FF47A70FFF7ACFA034604933A
:1024440003950294012301930423009301230022A2
:102454000021FF20FFF7B5FA1E217868FFF7BDFFC2
:102464000346002B02D00120FFF764FB1D2178688E
:10247400FFF7B3FF0346002B1DD0002300220021E9
:102484001F20FFF795FD012300221F210020FFF7E5
:102494008FFD01231F2200210020FFF789FD012366
:1024A4001F221F211F20FFF783FD0123002200218B
:1024B4000020FFF77DFD1C217868FFF78EFF03469F
:1024C400002B01D0FFF7C0FC1B217868FFF785FFC4
:1024D4000346002B02D00220FFF704FD1A2178687E
:1024E400FFF77BFF0346002B05D003230B220021BB
:1024F4001F20FFF74BFC19217868FFF76EFF034696
:10250400002B02D01420FFF783FD18217868FFF711
:1025140064FF0346002B02D01420FFF7C7FD1721E8
:102524007868FFF75AFF0346002B02D00020FFF71C
:1025340001FB16217868FFF750FF0346002B0AD0F1
:102544004FF47A730193322300930A23FF22FF216D
:10255400FF20FFF70DFF00BF0837BD46B0BD80B5B3
:1025640082B000AF78607B681B7F012B02D1012011
:1025740000F0A8F800BF0837BD4680BD80B582B022
:1025840000AF78607B681B7F012B02D1002000F034
:1025940099F800BF0837BD4680BD000080B485B0FF
:1025A40000AF786039607B68062B00F281800023DD
:1025B400FB60FB68072B79D87A6813465B001344E9
:1025C40001333E4AD35C1A46FB68C3F1070342FA5F
:1025D40003F303F00103002B09D04FF08043DB6ABF
:1025E4005B00374AA2FB03235B08DBB207E04FF032
:1025F4008043DB6A324AA2FB03235B08DBB23968FF
:10260400FA680A4413707A6813465B0013442B4A31
:10261400D35C1A46FB68C3F1070342FA03F303F0E1
:102624000103002B09D04FF08043DB6A5B00244A8E
:10263400A2FB03235B08DBB207E04FF08043DB6AB5
:102644001F4AA2FB03235B08DBB2FA68083239682D
:102654000A4413707A6813465B0013440233174A22
:10266400D35C1A46FB68C3F1070342FA03F303F091
:102674000103002B09D04FF08043DB6A5B00104A52
:10268400A2FB03235B08DBB207E04FF08043DB6A65
:102694000B4AA2FB03235B08DBB2FA6810323968E9
:1026A4000A441370FB680133FB6082E7012300E0F6
:1026B400002318461437BD4680BC7047B00500207F
:1026C400ABAAAAAA80B582B000AF0346FB71FB791E
:1026D400002B14BF01230023DBB2FB713F4B1B789B
:1026E400022B07D100213E4806F0AEFD3D4B0022EF
:1026F4001A706FE0394B1B78012B0DD1FB79002B3D
:1027040067D00021364806F09FFD344B00221A7032
:10271400354B00221A6004E0334B1B680133324A04
:102724001360314B1B68062B94BF01230023DBB2DB
:10273400002B43D02C4B1B68002B02D0FB79002BC1
:1027440001D1012300E00023002B06D0264B1B6897
:1027540026491846FFF722FF05E0234B1B6824494E
:102764001846FFF71BFF204B1B68002B0CBF0123EF
:102774000023DBB2002B2DD01B4B1B6801331A4AFC
:102784001360194B1B681A491846FFF707FF194BCA
:1027940020229A61174802F083FA0346002B14BFE3
:1027A40001230023DBB2002B01D0FFF755F83023BF
:1027B4000E4A00210A4806F095FB0BE0FB79002B3A
:1027C40008D10021064806F03FFD022000F078F809
:1027D40000E000BF0837BD4680BD00BFF8050020FB
:1027E400DC020020F9050020FC050020C8050020BB
:1027F400E0050020B403002080B483B000AF78600B
:10280400084611461A460346FB700B46BB70134636
:102814007B707B68062B18D87A6813465B001344D8
:102824000D49FA78CA547A6813465B00134401339D
:102834000949BA78CA547A6813465B0013440233D0
:1028440005497A78CA54012300E0002318460C375E
:10285400BD4680BC704700BFB005002080B485B081
:1028640000AF0346FB710B46BB7113467B7100231B
:10287400FB60FB68062B1AD8FA6813465B00134406
:102884000E49FA79CA54FA6813465B0013440133BB
:102894000A49BA79CA54FA6813465B0013440233EE
:1028A40006497A79CA54FB680133FB60E1E70123E6
:1028B40018461437BD4680BC704700BFB0050020E1
:1028C40080B582B000AF0346FB71164AFB791370E2
:1028D4003022002114480BF004FCFB79012B06D1B3
:1028E4004FF08043DB6A5B08DAB20F4B1A700F4B70
:1028F40000229A610D4802F0D3F90346002B14BF5D
:1029040001230023DBB2002B01D0FEF7A5FF28230F
:10291400054A0021064806F0E5FA0123184608375F
:10292400BD4680BDF8050020C8050020B403002082
:10293400DC02002080B400AF054B1B78DBB2002B17
:102944000CBF01230023DBB21846BD4680BC704790
:10295400F905002080B582B000AF0346FB71124B2D
:102964001B78DBB2002B14BF01230023DBB2002B46
:1029740001D0002314E00C4B01221A700120FFF750
:102984009FFFFB79002B0AD0FFF7D4FF0346002BEF
:102994000CBF01230023DBB2002B00D0F4E701239A
:1029A40018460837BD4680BDF905002080B485B0BF
:1029B40000AFF860B9607A60FA687B689A4201DD1A
:1029C4007B6806E0FA68BB689A4201DABB6800E0FB
:1029D400FB6818461437BD4680BC704780B483B08A
:1029E40000AF78607B6800221A807B6818460C3739
:1029F400BD4680BC704780B582B000AF78607B680C
:102A04001846FFF7EBFF7B680022A3F864207B687D
:102A140018460837BD4680BD80B483B000AF7860E7
:102A24007B6818460C37BD4680BC704780B483B0C1
:102A340000AF78600B46FB70FB7883F00103DBB2D8
:102A4400002B11D07B680022DA667B6800221A67AB
:102A54007B6801225A737B6801229A747B68002286
:102A6400DA767B6820221A777B68002262F02302E0
:102A7400DA70002242F005021A717B68002262F0CB
:102A84003B025A71002242F009029A717B680022CB
:102A940062F05302DA71002242F00D021A727B686E
:102AA400002242F008025A72002242F007029A728F
:102AB4007B68002242F01002DA72002242F00E0219
:102AC4001A737B680022DA7400221A757B6800226C
:102AD40042F001025A7500229A757B680022DA7569
:102AE40000221A767B68002242F001025A76002204
:102AF4009A767B680022A3F8642000BF0C37BD4699
:102B040080BC704780B584B000AF786000217868DD
:102B1400FFF78CFF0821624803F07EF803461A464B
:102B24007B6883F867200023FB737B6893F8673026
:102B3400012B1AD107F10F03012219465948FEF758
:102B440077F9FB7BCC2B06D17B6802332222194612
:102B54005548FEF76DF97B6800229A707B6893F8FC
:102B640067207B6883F866203AE07B680022DA708D
:102B740000221A717B6800225A7100229A717B68C4
:102B84000022DA7100221A727B68002242F060028D
:102B94005A72002242F009029A727B68002242F0C3
:102BA4004802DA72002242F00D021A7307F10F0391
:102BB400012219463D48FEF73BF9FB7BCC2B06D19D
:102BC4007B680233222219463948FEF731F97B68C3
:102BD40001229A707B6893F867207B6883F86620EB
:102BE4007B68B3F813309BB241F28832934204D924
:102BF4007B680022DA7400221A757B68B3F81530FA
:102C04009BB241F28832934206D97B68002242F09B
:102C140001025A7500229A757B68B3F817309BB28B
:102C240041F28832934204D97B680022DA7500228B
:102C34001A767B68B3F819309BB241F2883293421A
:102C440006D97B68002242F001025A7600229A7665
:102C54007B68D3F81D30174A13607B6893F82230E1
:102C640099B24FF4FF730022786800F0A1FA03468A
:102C74001A46114B1A607B6893F82330FF22012116
:102C84001846FFF793FE0346DAB20C4B1A707B68C2
:102C9400002283F8212000BF1037BD4680BD00BF4D
:102CA400000C014000F0070800F8070800E00708DE
:102CB40000E80708980500209C050020A0050020D6
:102CC40080B584B000AF78600B46FB7001F0C8FAA1
:102CD400B860FB787A680A339B0013445B68BA686F
:102CE400D31A0A2B09D9FB780A2B06D8FB789BB296
:102CF4001946786800F022F805E0FB789BB2194683
:102D0400786800F01BF80023FB60FB680C2B11DCD7
:102D1400FB78FA689A4209D0FB780A2B06D87A68BD
:102D2400FB680A339B001344BA685A60FB6801339A
:102D3400FB60EAE700BF1037BD4680BD80B483B0B6
:102D440000AF78600B467B807B681B881AB27B8857
:102D5400013B012101FA03F31BB213431BB29AB2E4
:102D64007B681A8000BF0C37BD4680BC704780B4B6
:102D740083B000AF78600B467B807B681B881AB2F7
:102D84007B88013B012101FA03F31BB2DB431BB235
:102D940013401BB29AB27B681A8000BF0C37BD4641
:102DA40080BC704780B584B000AF78600123FB60BD
:102DB400FB680A2B09DCFB689BB219467868FFF7AD
:102DC400D6FFFB680133FB60F2E700BF1037BD4656
:102DD40080BD000080B582B000AF7860396078684B
:102DE400FFF7E0FF08215A4802F016FF03461A468F
:102DF4007B6883F867207B6893F866207B6893F888
:102E040067309A4206D07868FFF77CFE7B6801221F
:102E140083F821207B68DB7E012B03D07B68DB7E7B
:102E2400032B08D13B681B889BB2C3F57F630F3328
:102E34009AB23B681A807B68DB7E022B03D07B68E6
:102E4400DB7E032B0AD13B6802331B889BB23A68B2
:102E54000232C3F57F630F339BB2138010213C48C9
:102E640002F0DAFE03461A467B6883F868202021C4
:102E7400374802F0D1FE03461A467B6883F869207E
:102E84007B6893F86830012B04D10B217868FFF735
:102E940017FF03E00B217868FFF769FF7B6893F85D
:102EA4006930012B04D10C217868FFF709FF03E096
:102EB4000C217868FFF75BFF7B689B8C1A467B6864
:102EC4001B7F03FB02F33A68128892B21A447B68B0
:102ED4001B7F013392FBF3F39AB27B689A847B687D
:102EE400DB8C1A467B681B7F03FB02F33A680232D1
:102EF400128892B21A447B681B7F013392FBF3F36E
:102F04009AB27B68DA847B689B8CB3F5805F03D3C9
:102F14007B6840F6FF729A847B68DB8CB3F5805F34
:102F240003D37B6840F6FF72DA847B6893F86730DA
:102F3400002B03D17B684FF400629A84786800F018
:102F4400B3F8786800F006F800BF0837BD4680BDC6
:102F5400000C014080B582B000AF78607B689B783C
:102F6400002B02D0012B7DD09AE07B6893F86A3065
:102F7400002B09D17B6893F86B30002B04D101211D
:102F84007868FFF79DFE6CE07B6893F86A30002B4D
:102F940009D17B6893F86B30022B04D10221786845
:102FA400FFF78EFE5DE07B6893F86A30012B09D150
:102FB4007B6893F86B30002B04D103217868FFF70A
:102FC4007FFE4EE07B6893F86A30012B09D17B6861
:102FD40093F86B30022B04D104217868FFF770FE5C
:102FE4003FE07B6893F86A30022B09D17B6893F841
:102FF4006B30002B04D105217868FFF761FE30E0C7
:103004007B6893F86A30022B09D17B6893F86B30A4
:10301400022B04D106217868FFF752FE21E07B6879
:1030240093F86A30032B09D17B6893F86B30002B3B
:1030340004D107217868FFF743FE12E07B6893F818
:103044006A30032B09D17B6893F86B30022B04D1CF
:1030540008217868FFF734FE03E07868FFF7A2FEE2
:103064001EE01DE07B68DA8C7B68B3F809309BB204
:103074009A4204D809217868FFF722FE0FE07B68A2
:10308400DA8C7B68B3F80B309BB29A4204D30A21E2
:103094007868FFF715FE02E07868FFF783FE00BF4B
:1030A40000BF0837BD4680BD80B483B000AF7860F0
:1030B4007B689A8C7B68B3F803309BB29A4204D83D
:1030C4007B68002283F86A203AE07B689A8C7B68EC
:1030D400B3F803309BB29A420CD97B689A8C7B6814
:1030E400B3F805309BB29A4204D87B68012283F876
:1030F4006A2025E07B689A8C7B68B3F805309BB224
:103104009A420CD97B689A8C7B68B3F807309BB2DF
:103114009A4204D87B68022283F86A2010E07B6814
:103124009A8C7B68B3F807309BB29A4204D97B68C7
:10313400032283F86A2003E07B68042283F86A2070
:103144007B68DA8C7B68B3F809309BB29A4204D26C
:103154007B68002283F86B2025E07B68DA8C7B682F
:10316400B3F809309BB29A420CD97B68DA8C7B683D
:10317400B3F80B309BB29A4204D27B68012283F8E5
:103184006B2010E07B68DA8C7B68B3F80B309BB261
:103194009A4204D97B68022283F86B2003E07B689F
:1031A400032283F86B2000BF0C37BD4680BC7047F8
:1031B40080B485B000AFF860084611461A4603464D
:1031C4007B810B463B811346FB807A89FB889A42BC
:1031D40001D9FB887B817A893B899A4201D23B8958
:1031E4007B81FA883B8913449AB27B89D31A9BB2B8
:1031F40018461437BD4680BC7047000080B485B0C3
:1032040000AF154B9B69144A43F001039361124BC1
:103214009B6903F00103BB60BB680F4BDB690E4A7B
:1032240043F08053D3610C4BDB6903F080537B6024
:103234007B680A4B5B68FB60FB6823F0E063FB6020
:10324400FB6843F00073FB60044AFB68536000BFF3
:103254001437BD4680BC7047001002400000014096
:1032640080B588B000AF786007F1100300221A60BF
:103274005A609A60DA607B681B68284A934249D195
:10328400274B9B69264A43F400739361244B9B6943
:1032940003F40073FB60FB68214B9B69204A43F0F5
:1032A400040393611E4B9B6903F00403BB60BB687A
:1032B40006233B6103237B6107F110031946194878
:1032C40002F040FB184B194A1A60174B00225A604F
:1032D400154B00229A60144B8022DA60124B4FF493
:1032E40080721A61104B4FF480625A610E4B202297
:1032F4009A610D4B0022DA610B4801F0D1FC0346C0
:10330400002B01D0FEF7A8FA7B68074A1A62064A26
:103314007B68536200BF2037BD4680BD0024014056
:10332400001002400008014044020020080002404E
:1033340080B588B000AF786007F1100300221A60EE
:103344005A609A60DA607B681B68154A934223D1FD
:10335400144B9B69134A43F008039361114B9B6917
:1033640003F00803FB60FB68C0233B6112237B610D
:103374000323FB6107F1100319460B4802F0E2FA3C
:10338400084BDB69074A43F40013D361054BDB693F
:1033940003F40013BB60BB6800BF2037BD4680BD8B
:1033A4000054004000100240000C014080B584B07D
:1033B40000AF78607B681B68B3F1804F32D11B4B40
:1033C400DB691A4A43F00103D361184BDB6903F04C
:1033D4000103FB60FB68164B164A1A60144B10225B
:1033E4005A60134B00229A60114B8022DA60104B12
:1033F4004FF480721A610E4B00225A610C4B20224A
:103404009A610B4B0022DA61094801F049FC03463A
:10341400002B01D0FEF720FA7B68054A5A62044A61
:103424007B68536200BF1037BD4680BD0010024068
:10343400B40300205800024080B584B000AF786027
:103444007B681B681A4A934214D11A4BDB69194AE8
:1034540043F00203D361174BDB6903F00203FB6003
:10346400FB68002200211D2001F0DFFB1D2001F07C
:10347400F8FB18E07B681B680F4A934213D10D4B8D
:10348400DB690C4A43F00403D3610A4BDB6903F0A4
:103494000403BB60BB68002200211E2001F0C5FBB1
:1034A4001E2001F0DEFB00BF1037BD4680BD00BF0B
:1034B40000040040001002400008004080B588B0BD
:1034C40000AF786007F1100300221A605A609A6016
:1034D400DA607B681B68B3F1804F17D10D4B9B6991
:1034E4000C4A43F0040393610A4B9B6903F0040301
:1034F400FB60FB6801233B6112237B610323FB61B7
:1035040007F110031946044802F01CFA00BF2037E3
:10351400BD4680BD001002400008014080B400AFE9
:1035240000BFBD4680BC704780B400AFFEE780B4E6
:1035340000AFFEE780B400AFFEE780B400AFFEE763
:1035440080B400AF00BFBD4680BC704780B400AFFC
:1035540000BFBD4680BC704780B400AF00BFBD460D
:1035640080BC704780B500AF00F068FE00BF80BD2E
:1035740080B500AF024801F071FD00BF80BD00BFFF
:103584004402002080B500AF024801F067FD00BF8F
:1035940080BD00BFB403002080B500AF024803F033
:1035A4007AFC00BF80BD00BFD40B002080B500AF03
:1035B400024805F013FF00BF80BD00BF24030020B4
:1035C40080B500AF024805F009FF00BF80BD00BF11
:1035D4006C03002080B586B000AF7860144A154BA8
:1035E400D31A7B617B693B61134B1B68002B02D1AF
:1035F400114B124A1A60104B1A687B6813443A69DB
:103604009A4207D20AF038FD02460C2313604FF0A9
:10361400FF3309E0084B1B68FB60074B1A687B68A3
:103624001344054A1360FB6818461837BD4680BD2D
:10363400000001200004000000060020C80E002045
:1036440080B400AF00BFBD4680BC704780B483B077
:1036540000AF78607B68002283F854207B681846AA
:103664000C37BD4680BC704780B483B000AF78602F
:103674007B6818460C37BD4680BC704784B080B563
:1036840082B000AF786007F1140080E80E007B6818
:1036940007F11401542218460AF018FD0021786835
:1036A40000F007F800BF0837BD46BDE8804004B00D
:1036B400704780B584B002AF78600B46FB707868C1
:1036C400FA1CC82300930123E02102F00DFC0346F9
:1036D4001A467B6883F854207B6893F85430002B97
:1036E40002D0786800F004F800BF0837BD4680BDFA
:1036F40080B588B000AF78608C4805F075FB8C48C5
:1037040005F072FB6423BB610023FB617B681B68CB
:103714001A687B681B6822F001021A601123FB609F
:1037240001233B6103237B614023BB6007F1080352
:103734001946804802F006F9012240217D4802F032
:1037440082FA8023BB6007F108031946794802F026
:10375400F9F801228021774802F075FA4021754872
:1037640002F05AFA0346012B14BF01230023DBB2F3
:10377400002B08D0FB690133FB61FA69BB699A42EB
:1037840000F3C580EAE780216A4802F045FA03465F
:10379400012B14BF01230023DBB2002B13D0002222
:1037A4004021644802F04FFA00BF012240216148E1
:1037B40002F049FAFB690133FB61FA69BB699A4279
:1037C40000F3A780DFE7002280215A4802F03BFA89
:1037D4008021584802F020FA0346002B14BF01232D
:1037E4000023DBB2002B08D0FB690133FB61FA69CB
:1037F400BB699A4200F38F80EAE7002240214D48DA
:1038040002F021FA40214B4802F006FA0346002B4D
:1038140014BF01230023DBB2002B07D0FB69013363
:10382400FB61FA69BB699A4277DCEBE7012240212C
:10383400404802F008FA40213E4802F0EDF9034600
:10384400012B14BF01230023DBB2002B07D0FB693B
:103854000133FB61FA69BB699A4260DCEBE7012240
:103864008021344802F0EFF98021324802F0D4F983
:103874000346012B14BF01230023DBB2002B07D026
:10388400FB690133FB61FA69BB699A4249DCEBE7E6
:103894001223FB6001233B6103237B614023BB6054
:1038A40007F108031946234802F04CF88023BB6053
:1038B40007F1080319461F4802F044F80122402189
:1038C4001C4802F0C0F9012280211A4802F0BBF919
:1038D4007B681B681A687B681B6842F400421A60A4
:1038E40000BF7B681B681A687B681B6822F400426F
:1038F4001A6000BF7B681B681A687B681B6842F00B
:1039040001021A607B68184602F0B6F90AE000BFAB
:1039140008E000BF06E000BF04E000BF02E000BF13
:1039240000E000BF2037BD4680BD00BF2403002057
:103934006C030020000C014080B582B000AF7860B9
:103944007B681846FFF757F87B68064A1268C3F885
:1039540084207B68002283F888207B681846083717
:10396400BD4680BD60E2000880B582B000AF7860DB
:103974007B681846FFF750F87B6818460837BD4641
:1039840080BD000080B584B000AF7860134B002286
:1039940083F840200023FB60FB685A1CFA600F4A3E
:1039A4000121D1547B681988FB685A1CFA60C9B29A
:1039B4000A4AD1547B681B881B0A99B2FB685A1CBB
:1039C400FA60C9B2054AD15440220449044808F0B7
:1039D400F9FD00BF1037BD4680BD00BF440600207E
:1039E4001007002080B584B000AF7860204B00221F
:1039F40083F840200023FB60FB685A1CFA601C4AD1
:103A04004121D154FB685A1CFA60194A1921D15436
:103A1400FB685A1CFA60164AFF21D154FB685A1CF1
:103A2400FA607A6892F88410114AD154FB685A1CDF
:103A3400FA607A6892F885100D4AD154FB685A1CD2
:103A4400FA607A6892F88610094AD154FB685A1CC5
:103A5400FA607A6892F88710054AD15440220449E2
:103A6400044808F0AFFD00BF1037BD4680BD00BF5D
:103A7400040600201007002080B584B000AF7860F1
:103A8400A14B002283F840200023FB60FB685A1CF2
:103A9400FA609D4A4121D154FB685A1CFA609A4A43
:103AA4001621D154FB685A1CFA60974AFF21D1545D
:103AB400FB685A1CFA607A689178934AD1547B68FF
:103AC400B3F8033099B2FB685A1CFA60C9B28E4A43
:103AD400D1547B68B3F803309BB21B0A99B2FB68DC
:103AE4005A1CFA60C9B2884AD1547B68B3F80530CD
:103AF40099B2FB685A1CFA60C9B2834AD1547B68F4
:103B0400B3F805309BB21B0A99B2FB685A1CFA60E1
:103B1400C9B27D4AD1547B68B3F8073099B2FB68C7
:103B24005A1CFA60C9B2784AD1547B68B3F807309A
:103B34009BB21B0A99B2FB685A1CFA60C9B2724A5A
:103B4400D1547B68B3F8093099B2FB685A1CFA6007
:103B5400C9B26D4AD1547B68B3F809309BB21B0AD1
:103B640099B2FB685A1CFA60C9B2674AD1547B689F
:103B7400B3F80B3099B2FB685A1CFA60C9B2624AB6
:103B8400D1547B68B3F80B309BB21B0A99B2FB6823
:103B94005A1CFA60C9B25C4AD1547B68597BFB68F1
:103BA4005A1CFA60584AD1547B68D3F80E10FB684B
:103BB4005A1CFA60C9B2544AD1547B68D3F80E3007
:103BC400190AFB685A1CFA60C9B24F4AD1547B687F
:103BD400D3F80E30190CFB685A1CFA60C9B24A4A71
:103BE400D1547B68D3F80E30190EFB685A1CFA6066
:103BF400C9B2454AD1547B68997CFB685A1CFA6067
:103C0400414AD1547B68B3F8133099B2FB685A1C0B
:103C1400FA60C9B23C4AD1547B68B3F813309BB202
:103C24001B0A99B2FB685A1CFA60C9B2364AD154CD
:103C34007B68B3F8153099B2FB685A1CFA60C9B2B4
:103C4400314AD1547B68B3F815309BB21B0A99B240
:103C5400FB685A1CFA60C9B22B4AD1547B68B3F88A
:103C6400173099B2FB685A1CFA60C9B2264AD1547B
:103C74007B68B3F817309BB21B0A99B2FB685A1CD5
:103C8400FA60C9B2204AD1547B68B3F8193099B2AA
:103C9400FB685A1CFA60C9B21B4AD1547B68B3F85A
:103CA40019309BB21B0A99B2FB685A1CFA60C9B25C
:103CB400154AD154FB685A1CFA607A68D17E124ABC
:103CC400D154FB685A1CFA607A68117F0E4AD154A9
:103CD4007B68D3F81D10FB685A1CFA60C9B20A4A03
:103CE400D1547B68D3F81D301912FB685A1CFA6052
:103CF400C9B2054AD1547B68D3F81D301914FB6846
:103D04005A1CFA6002E000BF04060020C9B2164A39
:103D1400D1547B68D3F81D30190EFB685A1CFA6025
:103D2400C9B2114AD1547B6893F82110FB685A1C1C
:103D3400FA600D4AD154FB685A1CFA607A6892F80A
:103D44002210094AD154FB685A1CFA607A6892F826
:103D54002310054AD15440220349044808F032FC98
:103D640000BF1037BD4680BD0406002010070020A8
:103D740080B584B000AF78604E4B002283F84020B9
:103D84000023FB60FB685A1CFA604A4A4121D15463
:103D9400FB685A1CFA60474A1521D154FB685A1C27
:103DA400FA60444AFF21D1547B68998CFB685A1C01
:103DB400FA60C9B23F4AD1547B689B8C1B0A99B202
:103DC400FB685A1CFA60C9B23A4AD1547B68D98C50
:103DD400FB685A1CFA60C9B2364AD1547B68DB8C42
:103DE4001B0A99B2FB685A1CFA60C9B2314AD15411
:103DF4007B68B3F8133099B2FB685A1CFA60C9B2F5
:103E04002C4AD1547B68B3F813309BB21B0A99B285
:103E1400FB685A1CFA60C9B2264AD1547B68B3F8CD
:103E2400153099B2FB685A1CFA60C9B2214AD154C0
:103E34007B68B3F815309BB21B0A99B2FB685A1C15
:103E4400FA60C9B21B4AD1547B68B3F8173099B2EF
:103E5400FB685A1CFA60C9B2164AD1547B68B3F89D
:103E640017309BB21B0A99B2FB685A1CFA60C9B29C
:103E7400104AD1547B68B3F8193099B2FB685A1CC4
:103E8400FA60C9B20B4AD1547B68B3F819309BB2BB
:103E94001B0A99B2FB685A1CFA60C9B2054AD1548C
:103EA40040220449044808F08DFB00BF1037BD468A
:103EB40080BD00BF040600201007002080B582B03A
:103EC40000AF786039603B681B78172B64D01A2BDD
:103ED4005DD0142B00D060E03B6803331B78062BC5
:103EE4001BD0062B06DC012B12D0042B24D0002B74
:103EF40009D052E0082B38D0082B18DB902B3CD08B
:103F0400FF2B37D049E03968786800F051F83DE07C
:103F14003968786800F05FF838E07B68012118465A
:103F2400FEF784FD7B68012283F88A202EE07B68FB
:103F3400002283F88A2029E01A4BFF221A707B683A
:103F44009B78002B02D0012B06D00BE001221549EF
:103F54001548FCF70DFF05E0012212491348FCF750
:103F640007FF00BF00F08BFE10E07B681846FEF7E9
:103F7400C9FD0BE000F083FE08E07B68002283F8B3
:103F840021207B68002283F8882000BF05E039687F
:103F9400786800F0CFF800E000BF00BF0837BD46E6
:103FA40080BD00BF8406002000F0070800E0070879
:103FB40080B483B000AF786039607B68012283F8F5
:103FC40088203B681A797B6883F8892000BF0C3706
:103FD400BD4680BC704780B582B000AF7860396060
:103FE4003B6808331946786800F004F800BF0837C6
:103FF400BD4680BD80B582B000AF786039603B6853
:10400400B3F801309AB27B68A3F803203B68B3F895
:1040140003309AB27B68A3F805203B68B3F80530F7
:104024009AB27B68A3F807203B68B3F807309AB2CA
:104034007B68A3F809203B68B3F809309AB27B681F
:10404400A3F80B203B68DA7A7B685A733B68DA681A
:104054007B68C3F80E203B681A7C7B689A743B68C3
:104064005A7E7B68DA763B689A7E7B681A773B686F
:10407400D3F81B207B68C3F81D203B6893F82020ED
:104084007B6883F822203B6893F821207B6883F8BF
:1040940023207B68D3F81D301E4A136078687B6840
:1040A40093F8223099B24FF4FF730022FFF780F89F
:1040B40003461A46184B1A607B6893F82320174B63
:1040C4001A70174BCC221A707B689B78002B02D095
:1040D400012B0DD019E0012211491248FCF748FECA
:1040E4007B680233222219460F48FCF741FE0CE09C
:1040F40001220B490D48FCF73BFE7B680233222268
:1041040019460B48FCF734FE00BF00BF0837BD4614
:1041140080BD00BF980500209C050020A00500205C
:104124008406002000F0070800F8070800E00708EC
:1041340000E8070880B483B000AF7860396000BF3E
:104144000C37BD4680BC704780B582B000AF786044
:1041540079680348FFF7B2FE00BF0837BD4680BD4B
:1041640000040020002103E00B4B5B584350043152
:104174000A480B4B42189A42F6D30A4A02E000233B
:1041840042F8043B084B9A42F9D3FFF759FA09F075
:1041940079FFFCF77DFE7047ECE200080000002088
:1041A400E4010020E8010020C40E0020FEE7000026
:1041B40080B500AF084B1B68074A43F01003136037
:1041C400032000F027FD002000F008F8FFF716F8A0
:1041D4000023184680BD00BF0020024080B582B095
:1041E40000AF7860124B1A68124B1B7819464FF4D3
:1041F4007A73B3FBF1F3B2FBF3F3184600F043FD1B
:104204000346002B01D001230EE07B680F2B0AD854
:10421400002279684FF0FF3000F007FD064A7B6802
:104224001360002300E0012318460837BD4680BD13
:1042340000000020080000200400002080B400AF2B
:10424400054B1B781A46054B1B681344034A13603D
:1042540000BFBD4680BC704708000020E80600206F
:1042640080B400AF024B1B681846BD4680BC704743
:10427400E806002080B584B000AF7860FFF7F0FF57
:10428400B8607B68FB60FB68B3F1FF3F05D0094B66
:104294001B781A46FB681344FB6000BFFFF7E0FF7E
:1042A4000246BB68D31AFA689A42F7D800BF10379F
:1042B400BD4680BD0800002080B586B000AF7860A0
:1042C4000023FB7500233B610023BB600023FB60DC
:1042D4007B68002B01D10123CEE07B689B68002B17
:1042E4007B689B6A002B09D17B680022DA627B68B9
:1042F400002283F824207868FEF7B2FF786800F083
:1043040009FB0346FB757B689B6A03F01003002BD3
:1043140040F0A980FB7D002B40F0A5807B689B6A60
:1043240023F4885323F0020343F002027B689A6269
:104334007B685A687B681B6851498B420AD17B6849
:10434400DB69B3F5402F02D07B68DB6904E04FF4EE
:10435400002301E07B68DB691A437B681B7B5B00FD
:104364001343BA681343BB607B689B68B3F5807FD3
:1043740003D07B689B68012B02D14FF4807300E06B
:1043840000233A6913433B617B681B7D012B19D1E0
:104394007B681B7B002B09D17B689B69013B5A031B
:1043A4003B69134343F400633B610BE07B689B6A06
:1043B40043F020027B689A627B68DB6A43F0010267
:1043C4007B68DA627B681B685B6823F469417B68FD
:1043D4001B683A690A435A607B681B689A68294BD0
:1043E40013407A681268B9680B4393607B689B68D2
:1043F400B3F5807F03D07B689B68012B04D17B6875
:104404001B69013B1B05FB607B681B68DB6A23F4AB
:1044140070017B681B68FA680A43DA627B681B6870
:104424009A68194B1340BA689A420BD17B680022F0
:10443400DA627B689B6A23F0030343F001027B6822
:104444009A6218E07B689B6A23F0120343F010021F
:104454007B689A627B68DB6A43F001027B68DA62FC
:104464000123FB7507E07B689B6A43F010027B68BD
:104474009A620123FB75FB7D18461837BD4680BD43
:10448400003C0140FDF7E1FFFE0E1FFF80B586B042
:1044940000AFF860B9607A600023FB75FB681B68A5
:1044A400644A934204D0FB681B68634A934206D172
:1044B400604B5B6803F47023002B40F0B380FB680F
:1044C40093F82430012B01D10223AEE0FB680122D2
:1044D40083F82420F86800F0CBF90346FB75FB7DD4
:1044E400002B40F09A80FB689B6A23F4706323F0EE
:1044F400010343F48072FB689A62FB681B684E4AAE
:10450400934205D14B4B5B6803F47023002B15D108
:10451400FB689B6A23F48012FB689A62FB681B6841
:104524005B6803F48063002B26D0FB689B6A23F44A
:10453400405343F48052FB689A621DE0FB689B6A17
:1045440043F48012FB689A62FB681B68394A934201
:1045540004D0FB681B68384A93420DD1354B5B6825
:1045640003F48063002B07D0FB689B6A23F4405359
:1045740043F48052FB689A62FB689B6A03F480539D
:10458400002B06D0FB68DB6A23F00602FB68DA62C4
:1045940002E0FB680022DA62FB68002283F8242030
:1045A400FB681B6A254A9A62FB681B6A244ADA6222
:1045B400FB681B6A234A1A63FB681B686FF00202DC
:1045C4001A60FB681B689A68FB681B6842F4807277
:1045D4009A60FB68186AFB681B684C331946BA6812
:1045E4007B6800F0D3FBFB681B689B6803F46023C3
:1045F400B3F5602F08D1FB681B689A68FB681B68D9
:1046040042F4A0029A600FE0FB681B689A68FB689A
:104614001B6842F480129A6006E0FB68002283F86B
:10462400242001E00123FB75FB7D18461837BD46A5
:1046340080BD00BF00240140002801408D490008CE
:10464400094A0008254A000880B483B000AF7860A6
:1046540000BF0C37BD4680BC704780B483B000AF48
:10466400786000BF0C37BD4680BC704780B483B00F
:1046740000AF786000BF0C37BD4680BC70470000B7
:1046840080B485B000AF786039600023FB730023E9
:10469400BB607B6893F82430012B01D10223DCE05A
:1046A4007B68012283F824203B685B68062B1CD8B6
:1046B4007B681B68596B3B685A6813469B0013441C
:1046C400053B1F2202FA03F3DB4319403B681868D9
:1046D4003B685A6813469B001344053B00FA03F2F7
:1046E4007B681B680A435A633CE03B685B680C2B9D
:1046F4001CD87B681B68196B3B685A6813469B007F
:104704001344233B1F2202FA03F3DB4319403B68A3
:1047140018683B685A6813469B001344233B00FA0D
:1047240003F27B681B680A431A631BE07B681B68FF
:10473400D96A3B685A6813469B001344413B1F22C5
:1047440002FA03F3DB4319403B6818683B685A6874
:1047540013469B001344413B00FA03F27B681B6839
:104764000A43DA623B681B68092B1CD97B681B6807
:10477400D9683B681A6813465B0013441E3B072242
:1047840002FA03F3DB4319403B6898683B681A68F4
:1047940013465B0013441E3B00FA03F27B681B685C
:1047A4000A43DA6019E07B681B6819693B681A6878
:1047B40013465B001344072202FA03F3DB43194058
:1047C4003B6898683B681A6813465B00134400FA18
:1047D40003F27B681B680A431A613B681B68102B51
:1047E40003D03B681B68112B32D17B681B681D4AC0
:1047F400934225D17B681B689B6803F40003002B5C
:1048040026D17B681B689A687B681B6842F40002A7
:104814009A603B681B68102B1AD1134B1B68134A10
:10482400A2FB03239A0C13469B0013445B00BB605A
:1048340002E0BB68013BBB60BB68002BF9D107E019
:104844007B689B6A43F020027B689A620123FB73B6
:104854007B68002283F82420FB7B18461437BD466E
:1048640080BC7047002401400000002083DE1B430D
:1048740080B584B000AF78600023FB600023BB6088
:104884007B681B689B6803F00103012B39D07B68AC
:104894001B689A687B681B6842F001029A601B4B94
:1048A4001B681B4AA2FB03239B0CBB6002E0BB6892
:1048B400013BBB60BB68002BF9D1FFF7D1FCF8606A
:1048C40018E0FFF7CDFC0246FB68D31A022B11D97E
:1048D4007B689B6A43F010027B689A627B68DB6AA0
:1048E40043F001027B68DA627B68002283F82420AB
:1048F400012307E07B681B689B6803F00103012B1D
:10490400DFD1002318461037BD4680BD00000020CB
:1049140083DE1B4380B584B000AF78600023FB6066
:104924007B681B689B6803F00103012B27D17B681C
:104934001B689A687B681B6822F001029A60FFF783
:104944008FFCF86014E0FFF78BFC0246FB68D31A77
:10495400022B0DD97B689B6A43F010027B689A6234
:104964007B68DB6A43F001027B68DA62012307E0BB
:104974007B681B689B6803F00103012BE3D00023D1
:1049840018461037BD4680BD80B584B000AF78604E
:104994007B685B6AFB60FB689B6A03F05003002B37
:1049A40027D1FB689B6A43F40072FB689A62FB6838
:1049B4001B689B6803F46023B3F5602F15D1FB6873
:1049C4001B7B002B11D1FB689B6A23F48072FB686C
:1049D4009A62FB689B6A03F48053002B05D1FB6841
:1049E4009B6A43F00102FB689A62F868FFF72CFEA9
:1049F40004E0FB681B6A1B6B7868984700BF10379C
:104A0400BD4680BD80B584B000AF78607B685B6ACA
:104A1400FB60F868FFF721FE00BF1037BD4680BD7C
:104A240080B584B000AF78607B685B6AFB60FB682C
:104A34009B6A43F04002FB689A62FB68DB6A43F0BE
:104A44000402FB68DA62F868FFF710FE00BF103753
:104A5400BD4680BD80B485B000AF78607B6803F04C
:104A64000703FB600C4BDB68BB60BA684FF6FF03BF
:104A74001340BB60FB681A02BB68134343F0BF6377
:104A840043F40033BB60044ABB68D36000BF1437EF
:104A9400BD4680BC704700BF00ED00E080B400AFAD
:104AA400044BDB681B0A03F007031846BD4680BCB1
:104AB400704700BF00ED00E080B483B000AF034650
:104AC400FB7197F90730002B0BDBFB7903F01F0216
:104AD400064997F907305B09012000FA02F241F810
:104AE400232000BF0C37BD4680BC704700E100E0C6
:104AF40080B483B000AF03463960FB7197F9073087
:104B0400002B0ADB3B68DAB20C4997F90730120133
:104B1400D2B20B4483F800230AE03B68DAB20849B6
:104B2400FB7903F00F03043B1201D2B20B441A7653
:104B340000BF0C37BD4680BC704700BF00E100E0F9
:104B440000ED00E080B489B000AFF860B9607A602D
:104B5400FB6803F00703FB61FB69C3F10703042B44
:104B640028BF0423BB61FB690433062B02D9FB690C
:104B7400033B00E000237B614FF0FF32BB6902FA84
:104B840003F3DA43BB681A407B699A404FF0FF3164
:104B94007B6901FA03F3D9437B680B40134318463E
:104BA4002437BD4680BC704780B400AFBFF34F8F3D
:104BB400054BDB6803F4E0620349044B1343CB6009
:104BC400BFF34F8F00BFFDE700ED00E00400FA05DE
:104BD40080B582B000AF78607B68013BB3F1807F21
:104BE40001D301230FE00A4A7B68013B53600F2184
:104BF4004FF0FF30FFF77CFF054B00229A60044B17
:104C040007221A60002318460837BD4680BD00BF3E
:104C140010E000E080B582B000AF78607868FFF7FC
:104C240019FF00BF0837BD4680BD80B586B000AF10
:104C34000346B9607A60FB7300237B61FFF72EFFA4
:104C440078617A68B9687869FFF77CFF024697F95A
:104C54000F3011461846FFF74BFF00BF1837BD460B
:104C640080BD80B582B000AF0346FB7197F9073071
:104C74001846FFF721FF00BF0837BD4680BD80B549
:104C840000AFFFF791FF80B582B000AF786078681D
:104C9400FFF79EFF034618460837BD4680BD000057
:104CA40080B485B000AF78600023FB607B68002B84
:104CB40001D1012359E07B681B681A462D4B9A42A7
:104CC4000FD87B681B681A462B4B13442B4AA2FB54
:104CD40003231B099A007B681A647B68284ADA63F9
:104CE4000EE07B681B681A46264B1344234AA2FB3A
:104CF40003231B099A007B681A647B68224ADA63DF
:104D04007B68022283F821207B681B681B68FB6098
:104D1400FB6823F47F5323F03003FB607B685A68FD
:104D24007B689B681A437B68DB681A437B681B6952
:104D34001A437B685B691A437B689B691A437B68E7
:104D4400DB691343FA681343FB607B681B68FA68EA
:104D54001A607B6800229A637B68012283F8212011
:104D64007B68002283F82020002318461437BD46B0
:104D740080BC704707040240F8FFFDBFCDCCCCCC0B
:104D840000000240F8FBFDBF0004024080B586B07D
:104D940000AFF860B9607A603B600023FB75FB6884
:104DA40093F82030012B01D102234AE0FB68012251
:104DB40083F82020FB6893F82130012B3AD1FB685B
:104DC400022283F82120FB6800229A63FB681B6897
:104DD4001A68FB681B6822F001021A603B687A6853
:104DE400B968F86800F076FBFB68DB6A002B08D032
:104DF400FB681B681A68FB681B6842F00E021A60A5
:104E04000FE0FB681B681A68FB681B6822F0040249
:104E14001A60FB681B681A68FB681B6842F00A0288
:104E24001A60FB681B681A68FB681B6842F0010281
:104E34001A6005E0FB68002283F820200223FB753A
:104E4400FB7D18461837BD4680BD000080B584B090
:104E540000AF78600023FB737B6893F82130022B4A
:104E640005D07B6804229A630123FB73D6E07B6838
:104E74001B681A687B681B6822F00E021A607B6844
:104E84001B681A687B681B6822F001021A607B6841
:104E94001B681A46644B9A4258D97B681B68634A5C
:104EA40093424FD07B681B68614A934248D07B6829
:104EB4001B68604A934240D07B681B685E4A9342F9
:104EC40038D07B681B685D4A934230D07B681B688E
:104ED4005B4A934228D07B681B68534A934220D094
:104EE4007B681B68574A934219D07B681B68564AF3
:104EF400934212D07B681B68544A93420AD07B6861
:104F04001B68534A934202D14FF480531BE04FF481
:104F1400803318E04FF4807315E0102313E001236D
:104F240011E04FF080730EE04FF480130BE04FF468
:104F3400803308E04FF4805305E04FF4807302E0BF
:104F4400102300E00123434A536057E07B681B6849
:104F5400364A93424FD07B681B68354A934248D007
:104F64007B681B68334A934240D07B681B68324A93
:104F7400934238D07B681B68304A934230D07B68B8
:104F84001B682F4A934228D07B681B68264A9342A9
:104F940020D07B681B682B4A934219D07B681B681E
:104FA400294A934212D07B681B68284A93420AD04C
:104FB4007B681B68264A934202D14FF480531BE05E
:104FC4004FF4803318E04FF4807315E0102313E09E
:104FD400012311E04FF080730EE04FF480130BE0D7
:104FE4004FF4803308E04FF4805305E04FF48073AE
:104FF40002E0102300E00123174A53607B6801227A
:1050040083F821207B68002283F820207B685B6B77
:10501400002B03D07B685B6B78689847FB7B184652
:105024001037BD4680BD00BF80000240080002402A
:105034001C0002403000024044000240580002407C
:105044006C000240080402401C0402403004024088
:1050540044040240000402400000024080B584B0D1
:1050640000AF78607B68DB6B1B68FB607B681B6848
:105074001B68BB607B681B6C04229A40FB6813406E
:10508400002B00F0D680BB6803F00403002B00F073
:10509400D0807B681B681B6803F02003002B07D1BA
:1050A4007B681B681A687B681B6822F004021A601C
:1050B4007B681B681A469B4B9A4258D97B681B68CD
:1050C400994A93424FD07B681B68984A934248D0D0
:1050D4007B681B68964A934240D07B681B68954A5C
:1050E400934238D07B681B68934A934230D07B68E4
:1050F4001B68924A934228D07B681B68894A934272
:1051040020D07B681B688E4A934219D07B681B6849
:105114008C4A934212D07B681B688B4A93420AD014
:105124007B681B68894A934202D14FF480431BE099
:105134004FF4802318E04FF4806315E0402313E01C
:10514400042311E04FF080630EE04FF480030BE082
:105154004FF4802308E04FF4804305E04FF480636C
:1051640002E0402300E00423794A536057E07B685F
:105174001B686D4A93424FD07B681B686B4A93420D
:1051840048D07B681B686A4A934240D07B681B689E
:10519400684A934238D07B681B68674A934230D090
:1051A4007B681B68654A934228D07B681B685D4A0C
:1051B400934220D07B681B68614A934219D07B6874
:1051C4001B68604A934212D07B681B685E4A934214
:1051D4000AD07B681B685D4A934202D14FF4804336
:1051E4001BE04FF4802318E04FF4806315E0402364
:1051F40013E0042311E04FF080630EE04FF48003CA
:105204000BE04FF4802308E04FF4804305E04FF4B3
:10521400806302E0402300E004234E4A53607B682D
:10522400DB6A002B00F036817B68DB6A786898477C
:1052340030E17B681B6C02229A40FB681340002B10
:1052440000F0F880BB6803F00203002B00F0F2804A
:105254007B681B681B6803F02003002B0BD17B6861
:105264001B681A687B681B6822F00A021A607B6854
:10527400012283F821207B681B681A46294B9A4235
:1052840073D97B681B68284A93426AD07B681B6881
:10529400264A934263D07B681B68254A93425BD0BD
:1052A4007B681B68234A934238D07B681B68224A78
:1052B400934230D07B681B68204A934228D07B6895
:1052C4001B68184A934220D07B681B681C4A93428F
:1052D40019D07B681B681B4A934212D07B681B68F9
:1052E400194A93420AD07B681B68184A934202D138
:1052F4004FF4005336E04FF4003333E04FF40073BF
:1053040030E020232EE002232CE04FF0007329E04C
:105314004FF4001326E04FF4003323E04FF400531E
:1053240020E000BF80000240080002401C00024050
:105334003000024044000240580002406C00024029
:10534400080402401C0402403004024044040240A9
:1053540000040240000002404FF4007302E02023E6
:1053640000E002234E4A536057E07B681B684D4AB5
:1053740093424FD07B681B684B4A934248D07B686A
:105384001B684A4A934240D07B681B68484A934250
:1053940038D07B681B68474A934230D07B681B68CF
:1053A400454A934228D07B681B68444A934220D0E4
:1053B4007B681B68424A934219D07B681B68414A48
:1053C400934212D07B681B683F4A93420AD07B68A1
:1053D4001B683E4A934202D14FF400531BE04FF442
:1053E400003318E04FF4007315E0202313E0022388
:1053F40011E04FF000730EE04FF400130BE04FF494
:10540400003308E04FF4005305E04FF4007302E06A
:10541400202300E002232E4A53607B68002283F895
:1054240020207B689B6A002B34D07B689B6A786859
:1054340098472FE07B681B6C08229A40FB68134056
:10544400002B28D0BB6803F00803002B23D07B6813
:105454001B681A687B681B6822F00E021A607B685E
:105464001A6C7B68DB6B012101FA02F25A607B68DB
:1054740001229A637B68012283F821207B68002241
:1054840083F820207B681B6B002B04D07B681B6B8C
:105494007868984700BF00BF1037BD4680BD00BF85
:1054A40000040240080002401C0002403000024098
:1054B40044000240580002406C0002408000024058
:1054C400080402401C040240300402404404024028
:1054D4000000024080B485B000AFF860B9607A6023
:1054E4003B60FB681A6CFB68DB6B012101FA02F27A
:1054F4005A60FB681B683A685A60FB685B68102B4B
:1055040008D1FB681B687A689A60FB681B68BA68F4
:10551400DA6007E0FB681B68BA689A60FB681B687E
:105524007A68DA6000BF1437BD4680BC704700005B
:10553400F0B587B000AFF860B960C7E90023012374
:10554400FB750023BB7500237B752F4B1B7E012B42
:1055540001D1022354E02C4B01221A764CF2503034
:1055640000F0B2F80346FB75FB7D002B44D1FB68C9
:10557400012B02D101237B7507E0FB68022B02D1CA
:1055840002237B7501E004237B750023BB752DE0AA
:10559400BB7D5A00BB6802EB030CBB7D1901D7E944
:1055A4000023C1F12006A1F1200022FA01F403FA3C
:1055B40006F6344323FA00F0044323FA01F5A3B2B8
:1055C4001946604600F064F84CF2503000F07CF864
:1055D4000346FB750D4B1B690C4A23F00103136151
:1055E400FB7D002B07D1BB7D0133BB75BA7D7B7D71
:1055F4009A42CDD300E000BF034B00221A76FB7D14
:1056040018461C37BD46F0BDF006002000200240BD
:1056140080B483B000AF0023FB710D4B1B6903F012
:105624008003002B0DD00A4B0A4A5A60084B0A4AE1
:105634005A60074B1B6903F08003002B01D0012340
:10564400FB71FB7918460C37BD4680BC704700BF20
:105654000020024023016745AB89EFCD80B400AF41
:10566400054B1B69044A43F0800313610023184669
:10567400BD4680BC704700BF0020024080B400AF2C
:10568400024BDB691846BD4680BC7047F00600201B
:1056940080B483B000AF78600B467B80084B002257
:1056A400DA61084B1B69074A43F0010313617B6805
:1056B4007A881A8000BF0C37BD4680BC704700BF93
:1056C400F00600200020024080B584B000AF78606E
:1056D400FEF7C6FDF86010E07B68B3F1FF3F0CD025
:1056E4007B68002B07D0FEF7BBFD0246FB68D31A8C
:1056F4007A689A4201D2032325E0154BDB6803F054
:105704000103002BE8D1124BDB6803F02003002BCC
:1057140002D00F4B2022DA600D4BDB6803F010033C
:10572400002B0BD10A4BDB6903F00103002B05D1DD
:10573400074BDB6803F00403002B03D000F00AF8E6
:10574400012300E0002318461037BD4680BD00BF8A
:105754000020024080B483B000AF00237B60234B61
:10576400DB6803F01003002B09D0214BDB6943F005
:1057740002031F4AD3617B6843F010037B601B4B19
:10578400DB6803F00403002B09D0194BDB6943F0F9
:105794000103174AD3617B6843F004037B60134B16
:1057A400DB6903F00103002B0BD0114BDB6943F0E1
:1057B40004030F4AD3610D4BDB690C4A23F0010348
:1057C400D3617B6840F20112934206D1074BDB6937
:1057D400064A23F00103D36102E0044A7B68D360E4
:1057E40000BF0C37BD4680BC704700BF002002409C
:1057F400F006002080B584B000AF786039600123E2
:10580400FB730023BB602F4B1B7E012B01D10223B2
:1058140053E02C4B01221A767B681B68022B16D1AD
:105824004CF25030FFF750FF0346002B41D10120CA
:1058340000F04CF84CF25030FFF746FF0346FB7380
:10584400214B1B69204A23F00403136131E04CF21D
:105854005030FFF739FF0346002B2AD13B684FF045
:10586400FF321A607B689B68BB6019E0B86800F07F
:1058740049F84CF25030FFF727FF0346FB73124BF5
:105884001B69114A23F002031361FB7B002B03D035
:105894003B68BA681A600CE0BB6803F50063BB6040
:1058A4007B68DB68DA027B689B681344BA689A42B7
:1058B400DCD3044B00221A76FB7B18461037BD4616
:1058C40080BD00BFF00600200020024080B483B0F9
:1058D40000AF7860094B0022DA61094B1B69084A62
:1058E40043F004031361064B1B69054A43F040036C
:1058F400136100BF0C37BD4680BC7047F006002022
:105904000020024080B483B000AF78600B4B0022CB
:10591400DA610B4B1B690A4A43F002031361084A1C
:105924007B685361064B1B69054A43F040031361CE
:1059340000BF0C37BD4680BC704700BFF006002096
:105944000020024080B48BB000AF7860396000233F
:105954007B6200233B6233E101227B6A02FA03F398
:10596400FB613B681B68FA691340BB61BA69FB6958
:105974009A4240F022813B685B68122B34D0122B90
:105984000DD8022B2BD0022B04D8002B31D0012BA5
:105994001CD048E0032B43D0112B1BD043E08F4A8B
:1059A400934226D08D4A934206D88D4A934220D002
:1059B4008C4A93421DD036E08B4A934219D08B4ACD
:1059C400934216D08A4A934213D02CE03B68DB689A
:1059D4003B6228E03B68DB6804333B6223E03B68BE
:1059E400DB6808333B621EE03B68DB680C333B62D8
:1059F40019E03B689B68002B02D104233B6212E050
:105A04003B689B68012B05D108233B627B68FA69DC
:105A14001A6108E008233B627B68FA695A6102E074
:105A240000233B6200BFBB69FF2B01D87B6801E008
:105A34007B6804337B61BB69FF2B02D87B6A9B00C4
:105A440002E07B6A083B9B003B617B691A680F217B
:105A54003B6901FA03F3DB431A40396A3B6901FAF3
:105A640003F31A437B691A603B685B6803F0805355
:105A7400002B00F0A2805F4B9B695E4A43F0010358
:105A840093615C4B9B6903F00103BB60BB685A4A9A
:105A94007B6A9B08023352F82330FB607B6A03F075
:105AA40003039B000F2202FA03F3DB43FA6813405B
:105AB400FB607B68514A93421FD07B68504A9342F3
:105AC40019D07B684F4A934213D07B684E4A934265
