:020000040800F2
:1000000000000220812F0008DD2C0008EB2C0008E6
:100010000F2D0008152D00081B2D00080000000002
:10002000000000000000000000000000212D00087A
:100030002F2D0008000000003D2D00084B2D00086A
:10004000D12F0008D12F0008D12F0008D12F000890
:10005000D12F0008D12F0008572D0008652D00086A
:10006000732D0008D12F0008D12F0008D12F0008D0
:10007000D12F0008812D0008D12F0008D12F0008B2
:10008000D12F0008D12F0008952D0008D12F00088E
:10009000D12F0008D12F0008D12F0008D12F000840
:1000A000D12F0008D12F0008D12F0008D12F000830
:1000B000A92D0008D12F0008BD2D0008D12F000860
:1000C000D12F0008D12F0008D12F0008D12F000810
:1000D000D12F0008D12D0008E52D0008D12F0008F0
:1000E000D12F0008D12F0008D12F0008D12F0008F0
:1000F000D12F0008D12F0008D12F0008D12F0008E0
:10010000D12F0008D12F0008D12F0008D12F0008CF
:10011000D12F0008D12F0008D12F0008D12F0008BF
:10012000F92D0008D12F0008D12F0008D12F000889
:10013000D12F0008D12F0008D12F0008D12F00089F
:10014000D12F0008D12F0008D12F00080D2E000854
:10015000D12F0008D12F0008D12F0008D12F00087F
:10016000D12F0008D12F0008D12F0008D12F00086F
:10017000D12F0008D12F0008D12F00080000000067
:08018000D12F0008D12F000867
:1001900010B5054C237833B9044B13B10448AFF3C1
:1001A00000800123237010BD900700200000000094
:1001B0002065010808B5034B1BB103490348AFF3A1
:1001C000008008BD000000009407002020650108A1
:1001D00001F0FF01102A2BDB10F0070F08D010F8F8
:1001E000013B013A8B422DD010F0070F42B3F6D1FC
:1001F000F0B441EA012141EA014122F007047FF015
:1002000000070023F0E80256083C85EA010586EA6B
:10021000010685FA47F5A3FA87F586FA47F6A5FAA7
:1002200087F68EB9EED1F0BC01F0FF0102F00702B3
:1002300032B110F8013B013A83EA010313B1F8D15E
:100240000020704701387047002D06BF354603383F
:10025000073815F0010F07D1013015F4807F02BF78
:10026000013015F4C03F0130F0BC0138704700BFC9
:1002700081F0004102E000BF83F0004330B54FEA57
:1002800041044FEA430594EA050F08BF90EA020FC4
:100290001FBF54EA000C55EA020C7FEA645C7FEA57
:1002A000655C00F0E2804FEA5454D4EB5555B8BF7A
:1002B0006D420CDD2C4480EA020281EA030382EAEB
:1002C000000083EA010180EA020281EA0303362D7D
:1002D00088BF30BD11F0004F4FEA01314FF4801C50
:1002E0004CEA113102D0404261EB410113F0004F62
:1002F0004FEA03334CEA133302D0524263EB430319
:1003000094EA050F00F0A780A4F10104D5F1200EB6
:100310000DDB02FA0EFC22FA05F2801841F1000111
:1003200003FA0EF2801843FA05F359410EE0A5F1E5
:1003300020050EF1200E012A03FA0EFC28BF4CF016
:10034000020C43FA05F3C01851EBE37101F00045CC
:1003500007D54FF0000EDCF1000C7EEB00006EEBD9
:100360000101B1F5801F1BD3B1F5001F0CD3490863
:100370005FEA30004FEA3C0C04F101044FEA4452BA
:1003800012F5800F80F09A80BCF1004F08BF5FEA41
:10039000500C50F1000041EB045141EA050130BD21
:1003A0005FEA4C0C404141EB010111F4801FA4F1C4
:1003B0000104E9D191F0000F04BF01460020B1FA19
:1003C00081F308BF2033A3F10B03B3F120020CDA51
:1003D0000C3208DD02F1140CC2F10C0201FA0CF02F
:1003E00021FA02F10CE002F11402D8BFC2F1200C94
:1003F00001FA02F120FA0CFCDCBF41EA0C0190404A
:10040000E41AA2BF01EB0451294330BD6FEA040492
:100410001F3C1CDA0C340EDC04F11404C4F120027D
:1004200020FA04F001FA02F340EA030021FA04F38F
:1004300045EA030130BDC4F10C04C4F1200220FAE6
:1004400002F001FA04F340EA0300294630BD21FA24
:1004500004F0294630BD94F0000F83F4801306BFEA
:1004600081F480110134013D4EE77FEA645C18BFDE
:100470007FEA655C29D094EA050F08BF90EA020F75
:1004800005D054EA000C04BF1946104630BD91EA6D
:10049000030F1EBF0021002030BD5FEA545C05D170
:1004A0004000494128BF41F0004130BD14F58004AF
:1004B0003CBF01F5801130BD01F0004545F0FE4123
:1004C00041F470014FF0000030BD7FEA645C1ABF58
:1004D000194610467FEA655C1CBF0B46024650EA8F
:1004E000013406BF52EA033591EA030F41F40021BB
:1004F00030BD00BF90F0000F04BF0021704730B541
:100500004FF4806404F132044FF000054FF0000115
:1005100050E700BF90F0000F04BF0021704730B5D6
:100520004FF4806404F1320410F0004548BF4042AB
:100530004FF000013EE700BF42004FEAE2014FEA00
:1005400031014FEA02701FBF12F07F4393F07F4FDB
:1005500081F06051704732F07F4208BF704793F0DE
:100560007F4F04BF41F40021704730B54FF46074F1
:1005700001F0004521F000411CE700BF50EA0102F4
:1005800008BF704730B54FF000050AE050EA01029D
:1005900008BF704730B511F0004502D5404261EB0D
:1005A00041014FF4806404F132045FEA915C3FF44E
:1005B000D8AE4FF003025FEADC0C18BF03325FEAEB
:1005C000DC0C18BF033202EBDC02C2F1200300FA9C
:1005D00003FC20FA02F001FA03FE40EA0E0021FAC1
:1005E00002F11444BDE600BF70B54FF0FF0C4CF4AF
:1005F000E06C1CEA11541DBF1CEA135594EA0C0F61
:1006000095EA0C0F00F0DEF82C4481EA030621EA9B
:100610004C5123EA4C5350EA013518BF52EA0335D6
:1006200041F4801143F4801338D0A0FB02CE4FF088
:100630000005E1FB02E506F00042E0FB03E54FF0B8
:100640000006E1FB03569CF0000F18BF4EF0010EB0
:10065000A4F1FF04B6F5007F64F5407404D25FEAAC
:100660004E0E6D4146EB060642EAC62141EA55515F
:100670004FEAC52040EA5E504FEACE2EB4F1FD0CA1
:1006800088BFBCF5E06F1ED8BEF1004F08BF5FEA1F
:10069000500E50F1000041EB045170BD06F00046D1
:1006A00046EA010140EA020081EA0301B4EB5C047E
:1006B000C2BFD4EB0C0541EA045170BD41F4801176
:1006C0004FF0000E013C00F3AB8014F1360FDEBF9B
:1006D000002001F0004170BDC4F10004203C35DA77
:1006E0000C341BDC04F11404C4F1200500FA05F3FA
:1006F00020FA04F001FA05F240EA020001F000429B
:1007000021F0004110EBD37021FA04F642EB060110
:100710005EEA430E08BF20EAD37070BDC4F10C043A
:10072000C4F1200500FA04F320FA05F001FA04F2FE
:1007300040EA020001F0004110EBD37041F10001EA
:100740005EEA430E08BF20EAD37070BDC4F12005F5
:1007500000FA05F24EEA020E20FA04F301FA05F25D
:1007600043EA020321FA04F001F0004121FA04F205
:1007700020EA020000EBD3705EEA430E08BF20EAD5
:10078000D37070BD94F0000F0FD101F0004640000F
:1007900041EB010111F4801F08BF013CF7D041EA91
:1007A000060195F0000F18BF704703F00046520095
:1007B00043EB030313F4801F08BF013DF7D043EA66
:1007C0000603704794EA0C0F0CEA135518BF95EA1C
:1007D0000C0F0CD050EA410618BF52EA4306D1D1A3
:1007E00081EA030101F000414FF0000070BD50EAC2
:1007F000410606BF1046194652EA430619D094EA4C
:100800000C0F02D150EA013613D195EA0C0F05D135
:1008100052EA03361CBF104619460AD181EA030189
:1008200001F0004141F0FE4141F470014FF0000041
:1008300070BD41F0FE4141F4780170BD70B54FF0DC
:10084000FF0C4CF4E06C1CEA11541DBF1CEA13555C
:1008500094EA0C0F95EA0C0F00F0A7F8A4EB05043E
:1008600081EA030E52EA03354FEA013100F0888035
:100870004FEA03334FF0805545EA131343EA1263FE
:100880004FEA022245EA111545EA10654FEA0026B3
:100890000EF000419D4208BF964244F1FD0404F56C
:1008A000407402D25B084FEA3202B61A65EB0305C8
:1008B0005B084FEA32024FF480104FF4002CB6EB85
:1008C000020E75EB030E22BFB61A754640EA0C0005
:1008D0005B084FEA3202B6EB020E75EB030E22BF45
:1008E000B61A754640EA5C005B084FEA3202B6EB86
:1008F000020E75EB030E22BFB61A754640EA9C0045
:100900005B084FEA3202B6EB020E75EB030E22BF14
:10091000B61A754640EADC0055EA060E18D04FEAD2
:10092000051545EA16754FEA06164FEAC30343EA72
:1009300052734FEAC2025FEA1C1CC0D111F4801F3F
:100940000BD141EA00014FF000004FF0004CB6E738
:1009500011F4801F04BF01430020B4F1FD0C88BFD7
:10096000BCF5E06F3FF6AFAEB5EB030C04BFB6EBE2
:10097000020C5FEA500C50F1000041EB045170BDD5
:100980000EF0004E4EEA113114EB5C04C2BFD4EB02
:100990000C0541EA045170BD41F480114FF0000E86
:1009A000013C90E645EA060E8DE60CEA135594EA02
:1009B0000C0F08BF95EA0C0F3FF43BAF94EA0C0F05
:1009C0000AD150EA01347FF434AF95EA0C0F7FF47A
:1009D00025AF104619462CE795EA0C0F06D152EACE
:1009E00003353FF4FDAE1046194622E750EA4106B2
:1009F00018BF52EA43067FF4C5AE50EA41047FF4C3
:100A00000DAF52EA43057FF4EBAE12E74FF0FF3C27
:100A100006E000BF4FF0010C02E000BF4FF0010CF8
:100A20004DF804CD4FEA410C7FEA6C5C4FEA430C71
:100A300018BF7FEA6C5C1BD001B050EA410C0CBFC0
:100A400052EA430C91EA030F02BF90EA020F002022
:100A5000704710F1000F91EA030F58BF994208BF89
:100A600090422CBFD8176FEAE37040F00100704746
:100A70004FEA410C7FEA6C5C02D150EA013C07D19D
:100A80004FEA430C7FEA6C5CD6D152EA033CD3D0E8
:100A90005DF8040B704700BF8446104662468C46E2
:100AA0001946634600E000BF01B5FFF7B7FF002815
:100AB00048BF10F1000F01BD4DF808EDFFF7F4FF3E
:100AC0000CBF012000205DF808FB00BF4DF808EDC9
:100AD000FFF7EAFF34BF012000205DF808FB00BFEC
:100AE0004DF808EDFFF7E0FF94BF012000205DF80E
:100AF00008FB00BF4DF808EDFFF7CEFF94BF0120C3
:100B000000205DF808FB00BF4DF808EDFFF7C4FFBB
:100B100034BF012000205DF808FB00BF4FEA41020E
:100B200012F5001215D211D56FF47873B3EB62523F
:100B300012D94FEAC12343F0004343EA505311F066
:100B4000004F23FA02F018BF404270474FF00000F8
:100B5000704750EA013005D111F0004008BF6FF036
:100B6000004070474FF00000704700BF4A0011D2AC
:100B700012F5001211D20DD56FF47873B3EB6252F7
:100B80000ED44FEAC12343F0004343EA505323FA03
:100B900002F070474FF00000704750EA013002D178
:100BA0004FF0FF3070474FF0000070474FEA4102AE
:100BB000B2F1E04324BFB3F5001CDCF1FE5C0DD9BB
:100BC00001F0004C4FEAC0024CEA5070B2F1004F05
:100BD00040EB830008BF20F00100704711F0804F08
:100BE00021D113F13872BCBF01F00040704741F4CD
:100BF00080114FEA5252C2F11802C2F1200C10FAD1
:100C00000CF320FA02F018BF40F001004FEAC123B4
:100C10004FEAD32303FA0CFC40EA0C0023FA02F358
:100C20004FEA4303CCE77FEA625307D150EA01332E
:100C30001EBF4FF0FE4040F44000704701F00040FE
:100C400040F0FE4040F40000704700BF53B94AB97D
:100C5000002908BF00281CBF4FF0FF314FF0FF30C4
:100C600000F072B9ADF1080C6DE904CE00F006F8A1
:100C7000DDF804E0DDE9022304B070472DE9F04718
:100C8000089E04468846002B4BD18A42154667D9F8
:100C9000B2FA82F24AB1C2F1200701FA02F320FA55
:100CA00007F7954047EA030894404FEA154E230C96
:100CB000B8FBFEF71FFA85FC0EFB178843EA0843D2
:100CC00007FB0CF1994209D9EB1807F1FF3080F0CE
:100CD0001B81994240F21881023F2B445B1AA4B257
:100CE000B3FBFEF00EFB103344EA034400FB0CFCA4
:100CF000A44509D92C1900F1FF3380F00781A445E0
:100D000040F2048102382C4440EA0740A4EB0C0472
:100D100000271EB1D4400023C6E900433946BDE890
:100D2000F0878B4209D9002E00F0EB800027C6E93E
:100D3000000138463946BDE8F087B3FA83F7002F43
:100D400047D18B4202D3824200F2FA80841A61EBCF
:100D5000030301209846002EE0D0C6E90048DDE7F5
:100D600002B9FFDEB2FA82F2002A40F08F80491BFE
:100D70004FEA154E1FFA85F80127B1FBFEFC230C44
:100D80000EFB1C1143EA014308FB0CF1994207D901
:100D9000EB180CF1FF3002D2994200F2CD8084466C
:100DA000591AA3B2B1FBFEF00EFB101443EA04443F
:100DB00008FB00F8A04507D92C1900F1FF3302D237
:100DC000A04500F2B6801846A4EB080440EA0C40A7
:100DD0009FE7C7F1200CBB4022FA0CFE4EEA030E3F
:100DE00001FA07F420FA0CF521FA0CF34FEA1E4839
:100DF0002543B3FBF8F92C0C08FB19331FFA8EFAC4
:100E000044EA034309FB0AF49C4202FA07F200FA9F
:100E100007F10BD91EEB030309F1FF3080F0878047
:100E20009C4240F28480A9F1020973441B1BADB2BD
:100E3000B3FBF8F008FB103345EA034400FB0AFA61
:100E4000A24508D91EEB040400F1FF336BD2A24582
:100E500069D90238744440EA0940A0FB0289A4EB36
:100E60000A044C45C2464B4654D351D0002E69D09B
:100E7000B1EB0A0564EB030404FA0CFCFD40FC40F2
:100E80004CEA0505C6E90054002747E7C2F12003F4
:100E900020FA03F7954001FA02F021FA03F34FEA32
:100EA000154E3843010CB3FBFEF71FFA85F80EFB15
:100EB000173341EA034107FB08F38B4204FA02F4BB
:100EC00007D9691807F1FF3C2FD28B422DD9023F79
:100ED0002944CB1A81B2B3FBFEF00EFB103341EA7A
:100EE000034100FB08F38B4207D9691800F1FF3C6E
:100EF00017D28B4215D902382944C91A40EA07474C
:100F00003BE73746304609E70746E7E61846FBE683
:100F10004145ABD2B8EB020A69EB0E020138134629
:100F2000A4E76046E9E7184695E76746D1E78146BA
:100F30007CE702382C4447E7ACF1020C2B442FE746
:100F4000384608E73746E9E6704700BF80B483B00B
:100F500000AF78607B68002BB8BF5B4218460C3747
:100F6000BD465DF8047B704780B483B000AF87ED69
:100F7000010AD7ED017AF0EEE77AB0EE670A0C3796
:100F8000BD465DF8047B704780B582B000AF7860E5
:100F90007B6803333D220021184614F078FE7B68FD
:100FA00018460837BD4680BDF0B5AFB002AF02F0BD
:100FB00011F800F06BFC544809F0DCFB534952482F
:100FC00009F0BAFB5249504809F0C5FB0B214E48C5
:100FD0000AF024FB4C4B93F9AE30DBB219464A4879
:100FE0000AF01CFB4B4B00934B4B494A47494B487B
:100FF0000FF046FA01F062F901F02AF900F076FDEF
:1010000000F0B8FD00F0F2FD00F0D6FE01F0C2F8ED
:1010100001F0EEF812F038FA00F02CFF00F0B8FF03
:1010200001F01CF800F0A6FC01F074F807F1700361
:101030001846FFF7A9FF3A4805F09FFF394805F029
:10104000C0FF32480BF022FF304B002283F83C20D7
:101050002D4B1B78022B02D1334B00221A70324BDE
:101060001B781A4631492C480FF0CCF84FF48053C6
:1010700001932F4B00934FF400632D4A2D492548CF
:101080000FF020F9284B1B781A462B4920480FF007
:1010900063FF1D49294810F049F800211F480FF04F
:1010A000B5FA06222649274802F0ACF9022300933C
:1010B000254B01222449254810F0C1F924480EF09F
:1010C00060FF01F0EDFF0246224B1A6001F0E8FFDD
:1010D0000246214B1A600D4B93F83F3083F0010319
:1010E000DBB2002B3AD1084B1B7983F00103DBB252
:1010F000002B33D105480BF0DBFE4FF47A71074823
:101100000FF084FAE7E700BF740B0020A00D002069
:10111000880D0020900D00208C0D0020C00C0020B8
:10112000C009002080090020000000205408002091
:101130000004024068080020C0080020740C002051
:1011400034180020AC070020001002400C180020CA
:1011500054180020FC1800200818002001F0A0FFFF
:101160000246C94B1B68D31A142B8CBF01230023E2
:10117000DBB2002B07D0C5480EF048FC01F090FF11
:101180000246C14B1A60C2480EF058FF0246C14BDE
:101190001A60C1480FF0D8FFC04B93F8A930002B5C
:1011A00000F05481BE480FF024FA034687F86830F7
:1011B000BA4BB3F801309BB2A7F86930B8480FF0CA
:1011C000EBF90346A7F86B30412387F87030FF2313
:1011D00087F87230A12387F8713007F1730307F1A4
:1011E00068021068186012791A7107F170031946C5
:1011F000AC4810F0DBF9FE2387F87130AA4B03F5F9
:10120000387407F1730C04F1300E654626460FCE94
:1012100028606960AA60EB6010340CF1100C744512
:10122000F3D107F1700319469E4810F0BFF99F4BA8
:101230001B687B649D4BDB68BB649C4B9B6AFB64B7
:101240009A4BDB6A3B65994B5B6B7B65974B1B6AE3
:101250007B66964BDB693B66944B9B69FB65934BC6
:101260005B69BB65412387F87030FF2387F87230D4
:10127000A02387F8713007F1440407F1730C04F1DF
:10128000200E654626460FCE28606960AA60EB6096
:1012900010340CF1100C7445F3D1634622461068EB
:1012A000186007F1700319467E4810F07FF97B4BF8
:1012B000D3F8B830BB63794BD3F8B4307B63774B4A
:1012C000D3F8B030FB63754BD3F8BC303B6441239B
:1012D00087F87030AF2387F87130FF2387F87230BA
:1012E00007F1730407F134050FCD20606160A2603F
:1012F000E36007F1700319466A4810F057F9B0230C
:1013000087F8713000233B71674BD3F820233B1DD6
:10131000194661480FF0DCFF3C1D07F1730C04F126
:10132000200E654626460FCE28606960AA60EB60F5
:1013300010340CF1100C7445F3D16546234607CBED
:1013400028606960AA601B782B7307F17003194647
:10135000544810F02BF901233B71534BD3F814235D
:101360003B1D19464C480FF0B3FF3C1D07F1730CB1
:1013700004F1200E654626460FCE28606960AA60FB
:10138000EB6010340CF1100C7445F3D16546234624
:1013900007CB28606960AA601B782B7307F1700384
:1013A0001946404810F002F902233B713E4BD3F836
:1013B00018233B1D194638480FF08AFF3C1D07F1E2
:1013C000730C04F1200E654626460FCE2860696036
:1013D000AA60EB6010340CF1100C7445F3D1654633
:1013E000234607CB28606960AA601B782B7307F13E
:1013F000700319462B4810F0D9F803233B712A4B90
:10140000D3F81C233B1D194623480FF061FF3C1DF8
:1014100007F1730C04F1200E654626460FCE2860B6
:101420006960AA60EB6010340CF1100C7445F3D1C4
:101430006546234607CB28606960AA601B782B733A
:1014400007F170031946174810F0B0F8184B1B78D5
:10145000002B3FF483AE15480BF02AFD134B1B689D
:101460001846FFF773FD0246104B1B699A42ACBF4A
:1014700001230023DBB2002B26D00C4B1A690B4B47
:101480001B68002B16E000BF081800201011002078
:101490005418002050180020740C0020740B0020F9
:1014A000C00C0020200B0020EC0D0020A00D00201F
:1014B0002818002002DA4FF0FF3300E0012302FB7E
:1014C00003F3BC4A136003E0BB4B1B68B94A1360CB
:1014D000B84B1868B84B1B695942B74B1A69B74BE0
:1014E000D3F82140B54BD3F825300093234610F0B4
:1014F0008BF80246B24B1A60B14B1B681946B148D3
:1015000010F02DF9B04B1B681846AC4BD3F83120C6
:10151000AA4BD3F835300093134640F6FF720021F2
:1015200010F072F803461946A64810F026F9A74BAA
:101530001B681846A14BD3F83920A04BD3F83D3097
:101540000093134640F6FF72002110F05DF8034649
:1015500019469C4810F040F99D4B1B681846974B64
:10156000D3F84120954BD3F845300093134640F60D
:10157000FF72002110F048F803461946914810F018
:101580005AF9944B1B6818468C4BD3F849208B4B67
:10159000D3F84D300093134640F6FF72002110F04F
:1015A00033F803461946874810F074F98A4B1B68D4
:1015B0001946844810F09DF982480FF0E3FF7F4BF5
:1015C00093F8C830002B13D084480FF0A1F90346DC
:1015D000002B00F03481794B002283F8C8200B21C6
:1015E00076480AF039F90B21744809F045FF26E1E5
:1015F00071497B480CF036F9034607EE903AF8EE55
:10160000E77A6E4BC3ED2D7A6C4BD3ED2D7AB0EEAD
:10161000670AFFF7A9FCF0EE407AF5EEC07AF1EE2A
:1016200010FA17DD654BD3ED2D7AB0EE670AFFF7A0
:101630009BFCB0EE407A614BB3F85D309BB207EE95
:10164000903AF8EEE77AB4EEE77AF1EE10FA01D8C4
:10165000012300E00023002B19D0584BB3F85D3074
:101660009BB21A46554BD3ED2D7AF5EEC07AF1EECA
:1016700010FA02D54FF0FF3300E0012302FB03F321
:1016800007EE903AF8EEE77A4C4BC3ED2D7A4B4BD0
:1016900093F88230002B07D0484BD3ED2D7AF1EE32
:1016A000677A464BC3ED2D7A444B93ED2D7A434B2D
:1016B000D3ED2C7A67EE277A404BC3ED2D7A3F4B62
:1016C000D3ED2D7A3D4BB3F880305B4207EE103AF4
:1016D000B8EEC77A394BB3F8803006EE903AF8EEA0
:1016E000666AB0EE661AF0EE470AB0EE670A0FF0CF
:1016F000CEFFF0EE407A314BC3ED2D7A2E4B1B68B6
:101700001846FFF723FC02462B4B1B699A42CCBFBD
:1017100001230023DBB2002B36D0284BB3F85B301B
:101720009BB21C46244B1B681846FFF70FFC024671
:10173000214B1B69D31A03FB04F21F4BDB692949B8
:1017400081FB03014910DB17CB1A92FBF3F307EE81
:10175000903AF8EEE77A194BC3ED2E7A174BD3ED9A
:101760002E7A154B1B68002B02DABFEE007A01E0DF
:10177000B7EE007A27EE277A104BD3ED2D7A77EE6D
:10178000277A0E4BC3ED2D7A0C4BB3F9A230002B08
:10179000B8BF5B4242F20F72934234DD074BB3F89D
:1017A0005B309BB21A46044B1B68002B1CDA4FF0CF
:1017B000FF331AE02C180020A00D0020740B00202D
:1017C00030180020200B0020401800204418002072
:1017D000481800204C18002050180020C00C002091
:1017E000EC0D0020398EE338012302FB03F2204B7D
:1017F00093ED2D7A07EE902AF8EEE77A77EE277AC6
:101800001B4BC3ED2D7A1A4BD3ED2D7A9FED191A90
:10181000DFED190AB0EE670A0FF039FFF0EE407AFB
:10182000134BC3ED2D7A124BD3ED2D7AFDEEE77AF3
:1018300017EE903A1BB2194610480EF0E7FE01F081
:101840002FFC02460E4B1B68D31A42F20F729342D2
:1018500094BF01230023DBB2002B04D0094B1B688B
:101860000133084A1360084B00221A7076E400BF67
:10187000740B002000401C4600401CC6C00C002019
:10188000FC180020001900202818002080B594B012
:1018900000AF07F1200330220021184614F0F7F9B9
:1018A00007F10C0300221A605A609A60DA601A612C
:1018B0000023BB602D4B1B6C2C4A43F080531364F8
:1018C0002A4B1B6C03F08053BB60BB6800237B601A
:1018D000274B1B68264A43F480431360244B1B6844
:1018E00003F480437B607B6801233B624FF48033C9
:1018F0007B620223BB634FF48003FB6308233B64DA
:101900004FF4A8737B640223BB640723FB6407F1D5
:101910002003184604F060FC0346002B14BF01238B
:101920000023DBB2002B01D000F010FE0F23FB6080
:1019300002233B6100237B614FF4A053BB614FF452
:101940008053FB6107F10C030521184604F0B4FE37
:101950000346002B14BF01230023DBB2002B01D070
:1019600000F0F4FD00BF5037BD4680BD0038024096
:101970000070004080B584B000AF3B4600221A6082
:101980005A609A60DA60564B564A1A60544B4FF4CC
:1019900080325A60524B00229A60514B01221A61E8
:1019A0004F4B01221A764E4B002283F820204C4BDD
:1019B0000022DA624A4B4C4A9A62494B0022DA60B2
:1019C000474B0622DA61464B012283F83020444B14
:1019D00001225A61424801F091FB0346002B14BFDB
:1019E00001230023DBB2002B01D000F0AFFD0A235E
:1019F0003B6001237B600723BB603B4619463848A8
:101A000001F010FE0346002B14BF01230023DBB2BC
:101A1000002B01D000F09AFD0B233B6002237B607A
:101A20003B4619462E4801F0FDFD0346002B14BF2E
:101A300001230023DBB2002B01D000F087FD0C2333
:101A40003B6003237B603B461946254801F0EAFDD5
:101A50000346002B14BF01230023DBB2002B01D06F
:101A600000F074FD0D233B6004237B603B46194668
:101A70001B4801F0D7FD0346002B14BF01230023B0
:101A8000DBB2002B01D000F061FD0E233B6005238B
:101A90007B603B461946124801F0C4FD0346002B0B
:101AA00014BF01230023DBB2002B01D000F04EFD58
:101AB0000F233B6006237B603B461946084801F034
:101AC000B1FD0346002B14BF01230023DBB2002B22
:101AD00001D000F03BFD00BF1037BD4680BD00BF08
:101AE000AC070020002001400100000F80B582B04B
:101AF00000AF3B4600221A605A601C4B1C4A1A6019
:101B00001A4802F092F90346002B14BF0123002368
:101B1000DBB2002B01D000F019FD00233B60002355
:101B20007B603B4600221946104802F006FA034645
:101B3000002B14BF01230023DBB2002B01D000F0E7
:101B400005FD3B4610221946084802F0F6F9034607
:101B5000002B14BF01230023DBB2002B01D000F0C7
:101B6000F5FC00BF0837BD4680BD00BF540800200B
:101B70000074004080B500AF1A4B1B4A1A60194B25
:101B80004FF482725A60174B00229A60154B002264
:101B9000DA60144B00221A61124B00225A61114B79
:101BA0004FF400729A610F4B0022DA610D4B002254
:101BB0001A620C4B00225A620A4B00229A62094BAD
:101BC0000A22DA62074804F069FF0346002B14BFBB
:101BD00001230023DBB2002B01D000F0B7FC00BFD3
:101BE00080BD00BF680800200038004080B596B076
:101BF00000AF07F1480300221A605A609A60DA6069
:101C000007F1400300221A605A6007F12403002202
:101C10001A605A609A60DA601A615A619A613B1DD3
:101C200020220021184614F032F85F4B5F4A1A60F8
:101C30005F4B1B685F4AB2F8012092B211465D4AC1
:101C4000B2F81F2092B2013202FB01F2B3FBF2F3B1
:101C5000013B554A5360544B00229A60554BB3F8F0
:101C60001F309BB21A46504BDA604F4B00221A616C
:101C70004D4B00225A614C4B00229A614A4805F0B4
:101C800051F90346002B14BF01230023DBB2002BC4
:101C900001D000F05BFC4FF48053BB6407F14803B4
:101CA0001946414805F0EEFD0346002B14BF012301
:101CB0000023DBB2002B01D000F048FC3A4805F0CD
:101CC000A4F90346002B14BF01230023DBB2002B31
:101CD00001D000F03BFC00233B6400237B6407F150
:101CE00040031946304806F053FA0346002B14BF50
:101CF00001230023DBB2002B01D000F027FC60237E
:101D00007B620023BB620023FB6200233B63002352
:101D10007B630023BB630023FB6307F124030022E2
:101D20001946214805F0E8FC0346002B14BF0123A7
:101D30000023DBB2002B01D000F008FC07F12403E4
:101D400004221946184805F0D7FC0346002B14BF9F
:101D500001230023DBB2002B01D000F0F7FB0023AE
:101D60007B600023BB600023FB6000233B610023FA
:101D70007B614FF40053BB6100233B623B1D19465E
:101D8000094806F081FA0346002B14BF0123002303
:101D9000DBB2002B01D000F0D9FB034800F0A4FE19
:101DA00000BF5837BD4680BDC0080020000001407C
:101DB00004000020740B002080B58CB000AF07F148
:101DC0000C0324220021184613F061FF3B1D002262
:101DD0001A605A60264B4FF080421A60244B002252
:101DE0005A60234B00229A60214B4FF0FF32DA6099
:101DF0001F4B00221A611E4B00229A610323FB60D5
:101E000000233B6101237B610023BB610F23FB6146
:101E100000233B6201237B620023BB620F23FB6232
:101E200007F10C031946124805F074FA0346002B1B
:101E300014BF01230023DBB2002B01D000F086FB8E
:101E400000237B600023BB603B1D1946084806F059
:101E50009FF90346002B14BF01230023DBB2002BA4
:101E600001D000F073FB00BF3037BD4680BD00BF1E
:101E70000009002080B58EB000AF07F128030022D2
:101E80001A605A609A60DA6007F1200300221A6033
:101E90005A603B1D00221A605A609A60DA601A612B
:101EA0005A619A61384B394A1A60374B00225A609E
:101EB000354B00229A60344B7122DA60324B00229B
:101EC0001A61314B00229A612F4805F02BF8034626
:101ED000002B14BF01230023DBB2002B01D000F044
:101EE00035FB4FF48053BB6207F12803194626489F
:101EF00005F0C8FC0346002B14BF01230023DBB20E
:101F0000002B01D000F022FB1F4805F07EF80346AD
:101F1000002B14BF01230023DBB2002B01D000F003
:101F200015FB00233B6200237B6207F12003194667
:101F3000154806F02DF90346002B14BF012300239A
:101F4000DBB2002B01D000F001FB60237B6000239B
:101F5000BB600023FB6000237B613B1D0C22194604
:101F6000094805F0C9FB0346002B14BF01230023D9
:101F7000DBB2002B01D000F0E9FA034800F0B4FD19
:101F800000BF3837BD4680BD400900200004004036
:101F900080B586B000AF07F1080300221A605A60CE
:101FA0009A60DA603B4600221A605A60274B284A42
:101FB0001A60264B53225A60244B00229A60254B0C
:101FC0009B8B1A46244B93FBF2F3013B1A461F4BA3
:101FD000DA601E4B00221A611C4B00229A611B48DA
:101FE00004F0A0FF0346002B14BF01230023DBB243
:101FF000002B01D000F0AAFA4FF48053BB6007F128
:1020000008031946114805F03DFC0346002B14BF98
:1020100001230023DBB2002B01D000F097FA00234C
:102020003B6000237B603B461946084806F0B0F849
:102030000346002B14BF01230023DBB2002B01D089
:1020400000F084FA00BF1837BD4680BD800900202B
:1020500000080040740B002040420F0080B586B09D
:1020600000AF07F1080300221A605A609A60DA6034
:102070003B4600221A605A60244B254A1A60234BC3
:1020800053225A60214B00229A60204B4FF0FF32BE
:10209000DA601E4B00221A611C4B00229A611B4819
:1020A00004F040FF0346002B14BF01230023DBB2E2
:1020B000002B01D000F04AFA4FF48053BB6007F1C7
:1020C00008031946114805F0DDFB0346002B14BF39
:1020D00001230023DBB2002B01D000F037FA0023EC
:1020E0003B6000237B603B461946084806F050F8E9
:1020F0000346002B14BF01230023DBB2002B01D0C9
:1021000000F024FA00BF1837BD4680BDC00900208A
:10211000000C004080B582B000AF3B4600221A6040
:102120005A601A4B1A4A1A60184B53225A60174BBE
:1021300000229A60154B4FF6FF72DA60134B0022B3
:102140009A61124804F0EEFE0346002B14BF0123EF
:102150000023DBB2002B01D000F0F8F900233B6034
:1021600000237B603B461946084806F011F80346F9
:10217000002B14BF01230023DBB2002B01D000F0A1
:10218000E5F900BF0837BD4680BD00BF000A00204A
:102190000010004080B500AF134B144A1A60124B78
:1021A0004FF4E1325A60104B00229A600E4B00222D
:1021B000DA600D4B00221A610B4B0C225A610A4B5C
:1021C00000229A61084B0022DA61074806F0C2F843
:1021D0000346002B14BF01230023DBB2002B01D0E8
:1021E00000F0B4F900BF80BDA00A0020001001403B
:1021F00080B500AF144B154A1A60134B4FF496424A
:102200005A60114B00229A600F4B0022DA600E4B8D
:102210004FF4C0621A610C4B0C225A610A4B002227
:102220009A61094B0022DA61074806F093F80346E9
:10223000002B14BF01230023DBB2002B01D000F0E0
:1022400085F900BF80BD00BFE00A002000440040C7
:1022500080B582B000AF00237B60174B1B6B164A22
:1022600043F480031363144B1B6B03F480037B6004
:102270007B6800233B60104B1B6B0F4A43F4001339
:1022800013630D4B1B6B03F400133B603B68002290
:1022900000210D2001F081FD0D2001F09AFD0022AA
:1022A0000021382001F079FD382001F092FD00BFB7
:1022B0000837BD4680BD00BF0038024080B58CB0F5
:1022C00000AF07F11C0300221A605A609A60DA60BE
:1022D0001A610023BB61674B1B6B664A43F0100316
:1022E0001363644B1B6B03F01003BB61BB690023DA
:1022F0007B61604B1B6B5F4A43F0800313635D4B54
:102300001B6B03F080037B617B6900233B61594BAE
:102310001B6B584A43F004031363564B1B6B03F0CB
:1023200004033B613B690023FB60524B1B6B514A2A
:1023300043F0010313634F4B1B6B03F00103FB607E
:10234000FB680023BB604B4B1B6B4A4A43F0020304
:102350001363484B1B6B03F00203BB60BB68002395
:102360007B60444B1B6B434A43F008031363414BB0
:102370001B6B03F008037B607B6801224FF4C051A4
:102380003D4802F08BFD0423FB613C4B3B62002384
:102390007B6207F11C031946394802F0CDFB032389
:1023A000FB61384B3B6200237B6207F11C0319463B
:1023B000314802F0C1FB344B1B78022B15D10022AF
:1023C0004FF4C051314802F069FD4FF4C053FB6136
:1023D00001233B6202237B620323BB6207F11C03E0
:1023E00019462A4802F0A8FB14E000224FF480515D
:1023F000264802F053FD4FF48053FB6101233B62FA
:1024000002237B620323BB6207F11C0319461F48AA
:1024100002F092FB4FF4C053FB6101233B620123A6
:102420007B620323BB6207F11C031946124802F0CA
:1024300083FB00220021062001F0AFFC062001F002
:10244000C8FC00220021072001F0A7FC072001F0B2
:10245000C0FC0F4B93F83D30002B07D00022002129
:10246000082001F09AFC082001F0B3FC00BF3037CF
:10247000BD4680BD0038024000040240000021102B
:102480000000024000001110740B002000100240F8
:10249000A00D002080B483B000AF78607B681A681C
:1024A000064B1B689A4202D1054B01221A7000BFED
:1024B0000C37BD465DF8047B704700BF80090020E3
:1024C0002818002080B582B000AF0346FB80FB884F
:1024D000012B02D0FB88022B02D106480EF0D2FF5E
:1024E000FB88042B02D104480AF00EFE00BF083717
:1024F000BD4680BD0C180020A00D002080B483B024
:1025000000AF78600C4B1B881A460C4B1A600A4BC4
:102510005B881A460A4B1A60074B9B881A46094B80
:102520001A60054BDB881A46074B1A6000BF0C3750
:10253000BD465DF8047B7047341800204018002029
:1025400044180020481800204C18002080B400AF28
:1025500000BFBD465DF8047B7047000080B582B0C7
:1025600000AF786039607B68012B28D13B684FF65B
:10257000FF72934223D12A480EF0EAFF294808F05F
:10258000A9F829480EF0B5FD28480DF03DFF284870
:102590000EF0CCFC27480DF01FFE27480DF07CFE06
:1025A00026480AF0F5FB26480BF0A8F825480DF060
:1025B000FCF925480EF02DFF24480DF09BFC7B68AC
:1025C000002B28D13B684FF6FF72934223D11F485E
:1025D0000DF0CCFC1C480EF027FF1A480DF00AFA4B
:1025E00017480BF0E3F815480AF0FEFB12480DF00F
:1025F0005EFE10480DF0FBFD0D480EF0A2FC0B48EE
:102600000DF030FF08480EF086FD064808F086F809
:1026100003480EF0AAFF00BF0837BD4680BD00BFCB
:10262000200B0020740B0020740C0020C00C002034
:10263000880D00208C0D0020900D0020A00D0020A2
:10264000EC0D0020101100200C1800205418002060
:1026500080B500AF4FF6FF710120FFF77FFF80BD0F
:1026600080B500AF4FF6FF710020FFF777FF80BD08
:1026700080B582B000AF00237B60104B5B6C0F4ACB
:1026800043F4804353640D4B5B6C03F480437B60E5
:102690007B6800233B60094B1B6C084A43F0805366
:1026A0001364064B1B6C03F080533B603B680720B0
:1026B00001F068FB00BF0837BD4680BD003802400E
:1026C00080B58AB000AF786007F1140300221A6069
:1026D0005A609A60DA601A617B681B68334A9342D9
:1026E0005FD100233B61324B5B6C314A43F4807312
:1026F00053642F4B5B6C03F480733B613B69002395
:10270000FB602B4B1B6B2A4A43F004031363284BDB
:102710001B6B03F00403FB60FB683F237B61032317
:10272000BB610023FB6107F114031946214802F045
:1027300003FA214B214A1A601F4B00225A601E4B9C
:1027400000229A601C4B0022DA601B4B4FF480621F
:102750001A61194B4FF400625A61174B4FF4005243
:102760009A61154B4FF48072DA61134B00221A62A2
:10277000114B00225A62104801F052FC0346002B14
:1027800001D0FFF7E3FE7B680B4A9A630A4A7B6835
:10279000936300220021122001F0FFFA122001F0C1
:1027A00018FB00BF2837BD4680BD00BF0020014098
:1027B0000038024000080240F40700201064024084
:1027C00080B58AB000AF786007F1140300221A6068
:1027D0005A609A60DA601A617B681B68174A9342F4
:1027E00027D100233B61164B1B6C154A43F0005365
:1027F0001364134B1B6C03F000533B613B690023D4
:10280000FB600F4B1B6B0E4A43F0010313630C4B31
:102810001B6B03F00103FB60FB6830237B61032328
:10282000BB610023FB6107F114031946054802F060
:1028300083F900BF2837BD4680BD00BF007400404B
:10284000003802400000024080B58AB000AF7860D6
:1028500007F1140300221A605A609A60DA601A6164
:102860007B681B68194A93422CD100233B61184BAB
:102870001B6C174A43F480431364154B1B6C03F421
:1028800080433B613B690023FB60114B1B6B104A8B
:1028900043F0020313630E4B1B6B03F00203FB6058
:1028A000FB684FF420437B610223BB610123FB6182
:1028B00003233B6205237B6207F114031946054895
:1028C00002F03AF900BF2837BD4680BD003800400D
:1028D000003802400004024080B588B000AF786044
:1028E0007B681B68514A93420ED10023FB61504B19
:1028F0005B6C4F4A43F0010353644D4B5B6C03F038
:102900000103FB61FB698CE07B681B68494A9342C9
:1029100044D10023BB61464B1B6C454A43F0020384
:102920001364434B1B6C03F00203BB61BB69424B56
:10293000424A1A60404B4FF020625A603E4B4022A0
:102940009A603D4B0022DA603B4B4FF480621A6183
:10295000394B4FF400625A61374B4FF400529A6181
:10296000354B0022DA61344B00221A62324B0022CE
:102970005A62314801F054FB0346002B01D0FFF7A7
:10298000E5FD7B682C4A1A632B4A7B6893637B685E
:10299000294A1A62284A7B68936342E07B681B6875
:1029A000274A934216D100237B61214B1B6C204A9E
:1029B00043F0040313641E4B1B6C03F004037B61A0
:1029C0007B69002200211E2001F0E7F91E2001F0A2
:1029D00000FA26E07B681B681A4A93420ED1002356
:1029E0003B61134B1B6C124A43F008031364104BFA
:1029F0001B6C03F008033B613B6912E07B681B68BA
:102A0000114A93420DD10023FB60094B1B6C084A0D
:102A100043F010031364064B1B6C03F01003FB60C0
:102A2000FB6800BF2037BD4680BD00BF00000140ED
:102A30000038024000040040400A0020406002408C
:102A400000080040000C00400010004080B58AB033
:102A500000AF786007F1140300221A605A609A6090
:102A6000DA601A617B681B68B3F1804F33D10023B1
:102A70003B611B4B1B6C1A4A43F001031364184B58
:102A80001B6C03F001033B613B690023FB60144BAB
:102A90001B6B134A43F001031363114B1B6B03F0D1
:102AA0000103FB60FB6803237B610223BB610123FD
:102AB000FB6103233B6201237B6207F11403194688
:102AC000084802F039F8002200211C2001F065F9C5
:102AD0001C2001F07EF900BF2837BD4680BD00BF35
:102AE000003802400000024080B58AB000AF786034
:102AF00007F1140300221A605A609A60DA601A61C2
:102B00007B681B68294A934228D100233B61284BEC
:102B10001B6B274A43F010031363254B1B6B03F019
:102B200010033B613B690EF0F9FF0346022B03D112
:102B30004FF400737B6102E04FF420637B6102235A
:102B4000BB610223FB6103233B6201237B6207F12C
:102B500014031946174801F0EFFF23E07B681B6858
:102B6000154A93421ED10023FB60114B1B6B104A88
:102B700043F0040313630E4B1B6B03F00403FB6071
:102B8000FB684FF400737B610223BB610023FB6190
:102B900000233B6202237B6207F1140319460748B6
:102BA00001F0CAFF00BF2837BD4680BD00000140CC
:102BB00000380240001002400004004000080240BB
:102BC00080B58CB000AF786007F11C0300221A605A
:102BD0005A609A60DA601A617B681B683A4A9342CD
:102BE00035D10023BB61394B5B6C384A43F010038D
:102BF0005364364B5B6C03F01003BB61BB6900236D
:102C00007B61324B1B6B314A43F0010313632F4B43
:102C10001B6B03F001037B617B694FF4C063FB61B5
:102C200002233B6200237B620323BB620723FB6218
:102C300007F11C031946264801F07EFF00220021FF
:102C4000252001F0AAF8252001F0C3F838E07B68C0
:102C50001B68204A934233D100233B611B4B1B6C02
:102C60001A4A43F400331364184B1B6C03F400330B
:102C70003B613B690023FB60144B1B6B134A43F021
:102C800008031363114B1B6B03F00803FB60FB6825
:102C90006023FB6102233B6200237B620323BB6250
:102CA0000723FB6207F11C0319460B4801F044FFA0
:102CB00000220021262001F070F8262001F089F87A
:102CC00000BF3037BD4680BD0010014000380240D3
:102CD0000000024000440040000C024080B400AFFD
:102CE00000BFBD465DF8047B704780B400AF042090
:102CF0005FEA0E01084202D0EFF3098001E0EFF332
:102D00000880416900F08CB800BE00BFFDE780B4C8
:102D100000AFFEE780B400AFFEE780B400AFFEE78F
:102D200080B400AF00BFBD465DF8047B704780B43F
:102D300000AF00BFBD465DF8047B704780B400AFB4
:102D400000BFBD465DF8047B704780B500AF00F062
:102D500093F900BF80BD80B500AF012002F0B8F844
:102D600000BF80BD80B500AF022002F0B1F800BF07
:102D700080BD80B500AF042002F0AAF800BF80BD7E
:102D800080B500AF024801F073FA00BF80BD00BFFC
:102D9000400A002080B500AF024800F0F2F900BF01
:102DA00080BD00BFAC07002080B500AF024804F032
:102DB0009AFB00BF80BD00BF0009002080B500AFB6
:102DC000024804F090FB00BF80BD00BF80090020D6
:102DD00080B500AF024805F00BFB00BF80BD00BF0F
:102DE000A00A002080B500AF024805F001FB00BF3B
:102DF00080BD00BFE00A002080B500AF024801F0AE
:102E000037FA00BF80BD00BFF407002080B500AFD7
:102E1000024802F0C5F900BF80BD00BF101E0020AF
:102E200080B491B000AF78607B681B68FB637B68FF
:102E30005B68BB637B689B687B637B68DB683B6329
:102E40007B681B69FB627B685B69BB627B689B6913
:102E50007B627B68DB693B620C4B1B68FB610C4B44
:102E60001B68BB610B4B1B687B610B4B1B683B6199
:102E70000A4B1B68BB600A4B1B68FB6000BE00BFAF
:102E80004437BD465DF8047B704700BF28ED00E085
:102E90002CED00E030ED00E03CED00E034ED00E032
:102EA00038ED00E080B400AF01231846BD465DF860
:102EB000047B704780B582B000AF7860396012F053
:102EC000A1FE0246162313604FF0FF331846083761
:102ED000BD4680BD80B582B000AF78604FF0FF3155
:102EE0007868FFF7E7FFFEE780B586B000AF78604F
:102EF000144A154BD31A7B617B693B61134B1B68EA
:102F0000002B02D1114B124A1A60104B1A687B68D1
:102F100013443A699A4207D212F074FE02460C2317
:102F200013604FF0FF3309E0084B1B68FB60074B51
:102F30001A687B681344054A1360FB681846183703
:102F4000BD4680BD000002200004000004190020DE
:102F50002022002080B400AF084BD3F88830074A05
:102F600043F47003C2F88830044B4FF000629A605B
:102F700000BFBD465DF8047B704700BF00ED00E078
:102F8000DFF834D0002103E00C4B5B584350043190
:102F90000B480C4B42189A42F6D30B4A02E000232E
:102FA00042F8043B094B9A42F9D3FFF7D3FF12F0E2
:102FB0002FFEFDF7F9FF7047000002202C6C01087E
:102FC0000000002090070020900700201C22002015
:102FD000FEE7000080B500AF0E4B1B680D4A43F4BE
:102FE000007313600B4B1B680A4A43F48063136041
:102FF000084B1B68074A43F480731360032000F0FA
:10300000C1FE002000F008F8FFF732FB002318464D
:1030100080BD00BF003C024080B582B000AF786048
:10302000124B1A68124B1B7819464FF47A73B3FB94
:10303000F1F3B2FBF3F3184600F0EBFE0346002B6E
:1030400001D001230EE07B680F2B0AD8002279689B
:103050004FF0FF3000F0A1FE064A7B6813600023AA
:1030600000E0012318460837BD4680BD040000205B
:103070000C0000200800002080B400AF064B1B7835
:103080001A46064B1B681344044A136000BFBD4632
:103090005DF8047B704700BF0C0000201819002069
:1030A00080B400AF034B1B681846BD465DF8047B37
:1030B000704700BF1819002080B584B000AF786059
:1030C000FFF7EEFFB8607B68FB60FB68B3F1FF3F82
:1030D00005D0094B1B781A46FB681344FB6000BF00
:1030E000FFF7DEFF0246BB68D31AFA689A42F7D8A8
:1030F00000BF1037BD4680BD0C00002080B584B0F5
:1031000000AF78600023FB737B68002B01D10123A3
:1031100033E07B681B6C002B09D17868FFF7D0FA8D
:103120007B6800225A647B68002283F83C207B681D
:103130001B6C03F01003002B18D17B681B6C23F46D
:10314000885323F0020343F002027B681A64786814
:1031500000F08AFB7B6800225A647B681B6C23F0BA
:10316000030343F001027B681A6401E00123FB734F
:103170007B68002283F83C20FB7B18461037BD4655
:1031800080BD80B584B000AF78600023FB60002371
:10319000BB607B681B681B6803F00203022B0CBF3B
:1031A00001230023DBB2FB607B681B685B6803F0D4
:1031B0002003202B0CBF01230023DBB2BB60FB6884
:1031C000002B49D0BB68002B46D07B681B6C03F0FA
:1031D0001003002B05D17B681B6C43F400727B68E5
:1031E0001A647B681B689B6803F04053002B2BD14B
:1031F0007B681B7E002B27D17B681B68DB6A03F48E
:103200007003002B06D07B681B689B6803F4806307
:10321000002B19D17B681B685A687B681B6822F0F9
:1032200020025A607B681B6C23F480727B681A64EE
:103230007B681B6C03F48053002B05D17B681B6CEF
:1032400043F001027B681A647868FFF757F97B68DE
:103250001B686FF012021A607B681B681B6803F022
:103260000403042B0CBF01230023DBB2FB607B684B
:103270001B685B6803F08003802B0CBF01230023D5
:10328000DBB2BB60FB68002B57D0BB68002B54D06F
:103290007B681B6C03F01003002B05D17B681B6C53
:1032A00043F400527B681A647B681B689B6803F4D4
:1032B0004013002B39D17B681B689B6B03F44013D0
:1032C000002B06D07B681B689B6803F48063002B8F
:1032D0002BD17B681B685B6803F48063002B24D1CF
:1032E0007B681B689B6803F04053002B1DD17B68F3
:1032F0001B7E002B19D17B681B685A687B681B6892
:1033000022F080025A607B681B6C23F480527B6839
:103310001A647B681B6C03F48073002B05D17B68F7
:103320001B6C43F001027B681A64786800F01AFC99
:103330007B681B686FF00C021A607B681B681B6857
:1033400003F00103012B0CBF01230023DBB2FB6060
:103350007B681B685B6803F04003402B0CBF0123B4
:103360000023DBB2BB60FB68002B17D0BB68002BCF
:1033700014D07B681B681B6803F00103012B0DD17F
:103380007B681B6C43F480327B681A64786800F0B9
:1033900035F97B681B686FF001021A607B681B6857
:1033A0001B6803F02003202B0CBF01230023DBB29A
:1033B000FB607B681B685B6803F08063B3F1806F20
:1033C0000CBF01230023DBB2BB60FB68002B15D0D0
:1033D000BB68002B12D07B685B6C43F002027B68F9
:1033E0005A647B681B686FF020021A60786800F0EE
:1033F0000FF97B681B686FF020021A6000BF10375E
:10340000BD4680BD80B586B000AFF860B9607A6017
:1034100000233B61FB6893F83C30012B01D1022370
:10342000CCE0FB68012283F83C20FB681B689B68AA
:1034300003F00103012B18D0FB681B689A68FB6836
:103440001B6842F001029A605E4B1B685E4AA2FB59
:1034500003239A0C13465B0013443B6102E03B6973
:10346000013B3B613B69002BF9D1FB681B689B6802
:1034700003F00103012B40F0A080FB681B6C23F4D8
:10348000E06323F0010343F48072FB681A64FB6875
:103490001B685B6803F48063002B07D0FB681B6C20
:1034A00023F4405343F48052FB681A64FB681B6C9E
:1034B00003F48053B3F5805F06D1FB685B6C23F0A7
:1034C0000602FB685A6402E0FB6800225A64FB684B
:1034D000002283F83C203D4B7B61FB689B6B3C4AA0
:1034E000DA63FB689B6B3B4A1A64FB689B6B3A4A46
:1034F000DA64FB681B686FF022021A60FB681B68C5
:103500005A68FB681B6842F080625A60FB681B685F
:103510009A68FB681B6842F480729A60FB68986B3B
:10352000FB681B684C331946BA687B6800F026FEBE
:103530007B695B6803F01F03002B2AD1FB681B68C3
:10354000264A934215D0FB681B68254A934205D151
:103550001E4B5B6803F01F03002B0AD0FB681B683F
:10356000204A934229D1194B5B6803F01F030F2BAC
:1035700023D8FB681B689B6803F04053002B1CD1C9
:10358000FB681B689A68FB681B6842F080429A607F
:1035900013E0FB681B68114A93420ED1FB681B685D
:1035A0009B6803F04053002B07D1FB681B689A68A7
:1035B000FB681B6842F080429A6000231846183767
:1035C000BD4680BD0400002083DE1B430023014074
:1035D000613A00081B3B0008373B0008002001400F
:1035E000002101400022014080B483B000AF786028
:1035F00000BF0C37BD465DF8047B704780B483B0D4
:1036000000AF786000BF0C37BD465DF8047B7047A3
:1036100080B483B000AF786000BF0C37BD465DF862
:10362000047B704780B485B000AF786039600023B8
:10363000BB607B6893F83C30012B01D1022305E18C
:103640007B68012283F83C203B681B68092B25D945
:103650007B681B68D9683B681B689BB21A46134697
:103660005B0013441E3B072202FA03F3DA437B6834
:103670001B680A40DA607B681B68D9683B689A68F7
:103680003B681B689BB2184603465B0003441E3B25
:103690009A407B681B680A43DA6022E07B681B68FB
:1036A00019693B681B689BB21A4613465B001344BA
:1036B000072202FA03F3DA437B681B680A401A61A7
:1036C0007B681B6819693B689A683B681B689BB2FA
:1036D000184603465B0003449A407B681B680A4314
:1036E0001A613B685B68062B24D87B681B68596BA2
:1036F0003B685A6813469B001344053B1F2202FA9D
:1037000003F3DA437B681B680A405A637B681B68D3
:10371000596B3B681B689BB218463B685A68134656
:103720009B001344053B00FA03F27B681B680A43C5
:103730005A634CE03B685B680C2B24D87B681B68A1
:10374000196B3B685A6813469B001344233B1F22A6
:1037500002FA03F3DA437B681B680A401A637B684A
:103760001B68196B3B681B689BB218463B685A681C
:1037700013469B001344233B00FA03F27B681B684B
:103780000A431A6323E07B681B68D96A3B685A685E
:1037900013469B001344413B1F2202FA03F3DA4312
:1037A0007B681B680A40DA627B681B68D96A3B68E1
:1037B0001B689BB218463B685A6813469B0013442B
:1037C000413B00FA03F27B681B680A43DA62224B32
:1037D000FB607B681B68214A934209D13B681B68E8
:1037E000122B05D1FB685B6843F48002FB685A60CA
:1037F0007B681B68194A934223D13B681B68102BD6
:1038000003D03B681B68112B1BD1FB685B6843F43A
:103810000002FB685A603B681B68102B11D1104BEB
:103820001B68104AA2FB03239A0C13469B00134407
:103830005B00BB6002E0BB68013BBB60BB68002B68
:10384000F9D17B68002283F83C2000231846143706
:10385000BD465DF8047B7047002301400020014015
:103860000400002083DE1B4380B485B000AF786085
:10387000794BFB60FB685B6823F44032FB685A605D
:10388000FB685A687B685B681A43FB685A607B6810
:103890001B685A687B681B6822F480725A607B68D8
:1038A0001B6859687B681B691A027B681B680A439E
:1038B0005A607B681B685A687B681B6822F04072FC
:1038C0005A607B681B6859687B689A687B681B68CC
:1038D0000A435A607B681B689A687B681B6822F4FD
:1038E00000629A607B681B6899687B68DA687B680D
:1038F0001B680A439A607B689B6A584A934222D0AD
:103900007B681B689A687B681B6822F070629A600B
:103910007B681B6899687B689A6A7B681B680A43A6
:103920009A607B681B689A687B681B6822F040522B
:103930009A607B681B6899687B68DA6A7B681B6899
:103940000A439A600FE07B681B689A687B681B6873
:1039500022F070629A607B681B689A687B681B68BB
:1039600022F040529A607B681B689A687B681B68EB
:1039700022F002029A607B681B6899687B681B7E54
:103980005A007B681B680A439A607B6893F8203072
:10399000002B1BD07B681B685A687B681B6842F44D
:1039A00000625A607B681B685A687B681B6822F457
:1039B00060425A607B681B6859687B685B6A013BA0
:1039C0005A037B681B680A435A6007E07B681B68E0
:1039D0005A687B681B6822F400625A607B681B6827
:1039E000DA6A7B681B6822F47002DA627B681B6803
:1039F000D96A7B68DB69013B1A057B681B680A434F
:103A0000DA627B681B689A687B681B6822F4007224
:103A10009A607B681B6899687B6893F830305A021B
:103A20007B681B680A439A607B681B689A687B689E
:103A30001B6822F480629A607B681B6899687B68C7
:103A40005B699A027B681B680A439A6000BF14375F
:103A5000BD465DF8047B7047002301400100000F64
:103A600080B584B000AF78607B689B6BFB60FB68BF
:103A70001B6C03F05003002B3CD1FB681B6C43F420
:103A80000072FB681A64FB681B689B6803F0405374
:103A9000002B2BD1FB681B7E002B27D1FB681B68FA
:103AA000DB6A03F47003002B06D0FB681B689B687D
:103AB00003F48063002B19D1FB681B685A68FB680C
:103AC0001B6822F020025A60FB681B6C23F4807292
:103AD000FB681A64FB681B6C03F48053002B05D150
:103AE000FB681B6C43F00102FB681A64F868FEF780
:103AF00005FD0EE0FB681B6C03F01003002B03D0E8
:103B0000F868FFF785FD04E0FB689B6BDB6C786869
:103B1000984700BF1037BD4680BD80B584B000AF68
:103B200078607B689B6BFB60F868FFF75DFD00BF0A
:103B30001037BD4680BD80B584B000AF78607B682B
:103B40009B6BFB60FB6840221A64FB685B6C43F074
:103B50000402FB685A64F868FFF75AFD00BF10378B
:103B6000BD4680BD80B483B000AF786000BF0C3725
:103B7000BD465DF8047B704780B485B000AF7860C7
:103B80007B6803F00703FB600C4BDB68BB60BA6823
:103B90004FF6FF031340BB60FB681A02BB68134378
:103BA00043F0BF6343F40033BB60044ABB68D36097
:103BB00000BF1437BD465DF8047B704700ED00E0A0
:103BC00080B400AF044BDB681B0A03F00703184600
:103BD000BD465DF8047B704700ED00E080B483B023
:103BE00000AF0346FB7197F90730002B0BDBFB7925
:103BF00003F01F02074997F907305B09012000FA1B
:103C000002F241F8232000BF0C37BD465DF8047B6B
:103C1000704700BF00E100E080B483B000AF03460E
:103C2000FB7197F90730002B10DBFB7903F01F02C3
:103C3000094997F907305B09012000FA02F22033A5
:103C400041F82320BFF34F8FBFF36F8F00BF0C37B6
:103C5000BD465DF8047B704700E100E080B483B0AE
:103C600000AF03463960FB7197F90730002B0ADB80
:103C70003B68DAB20C4997F907301201D2B20B4413
:103C800083F800230AE03B68DAB20849FB7903F0C5
:103C90000F03043B1201D2B20B441A7600BF0C375B
:103CA000BD465DF8047B704700E100E000ED00E0F8
:103CB00080B489B000AFF860B9607A60FB6803F047
:103CC0000703FB61FB69C3F10703042B28BF04232F
:103CD000BB61FB690433062B02D9FB69033B00E09F
:103CE00000237B614FF0FF32BB6902FA03F3DA4332
:103CF000BB681A407B699A404FF0FF317B6901FA3B
:103D000003F3D9437B680B40134318462437BD4661
:103D10005DF8047B7047000080B400AFBFF34F8FA5
:103D2000054BDB6803F4E0620349044B1343CB60AB
:103D3000BFF34F8F00BFFDE700ED00E00400FA0580
:103D400080B582B000AF78607B68013BB3F1807FC3
:103D500001D301230FE00A4A7B68013B53600F2126
:103D60004FF0FF30FFF77AFF054B00229A60044BBB
:103D700007221A60002318460837BD4680BD00BFE1
:103D800010E000E080B582B000AF78607868FFF79F
:103D9000F3FE00BF0837BD4680BD80B586B000AFDA
:103DA0000346B9607A60FB7300237B61FFF708FF6D
:103DB00078617A68B9687869FFF77AFF024697F9FF
:103DC0000F3011461846FFF749FF00BF1837BD46B0
:103DD00080BD80B582B000AF0346FB7197F9073014
:103DE0001846FFF7FBFE00BF0837BD4680BD80B513
:103DF00082B000AF0346FB7197F907301846FFF712
:103E00000BFF00BF0837BD4680BD80B500AFFFF790
:103E100083FF80B582B000AF78607868FFF790FFCD
:103E2000034618460837BD4680BD80B582B000AF56
:103E300078607B68002B01D1012314E07B681B793B
:103E4000DBB2002B05D17B6800225A717868FEF73F
:103E5000B7FC7B6802221A717B6800221A617B68BA
:103E600001221A71002318460837BD4680BD80B470
:103E700085B000AF786039600023FB600023BB6031
:103E80007B685B79012B01D1022350E07B68012222
:103E90005A717B6802221A717B681B6819680122BB
:103EA0003B689A407B681B680A431A603B68002B9A
:103EB0001AD17B681B681B6803F00403FB607B68F6
:103EC0001B681B6803F03803BB60FB68042B27D119
:103ED000BB68382B24D17B681B685A687B681B68D9
:103EE00042F001025A601BE07B681B681B6803F408
:103EF0008023FB607B681B681B6803F46013BB6056
:103F0000FB68B3F5802F0BD1BB68B3F5601F07D1F9
:103F10007B681B685A687B681B6842F002025A6023
:103F20007B6801221A717B6800225A7100231846AF
:103F30001437BD465DF8047B704780B487B000AF8E
:103F4000F860B9607A6000237B6100233B61FB6805
:103F50005B79012B01D1022336E0FB6801225A7103
:103F6000FB6802221A71FB681B681B687B6140F6C4
:103F7000FE727B6802FA03F3DB437A6913407B61CC
:103F8000BB681A68BB685B6813433B613A697B682E
:103F900002FA03F37A6913437B61FB681B687A6951
:103FA0001A60FB681B681968C0227B6802FA03F379
:103FB000DA43FB681B680A401A60FB6801221A7129
:103FC000FB6800225A71002318461C37BD465DF875
:103FD000047B704780B487B000AFF860B9607A6046
:103FE0003B6000237B61FB681B687B61BB68002B27
:103FF00005D17A697B68134408337B6104E07A69F0
:104000007B68134414337B617B691A463B681360F9
:10401000002318461C37BD465DF8047B704700003E
:1040200080B586B000AF786000237B61FFF738F879
:1040300038617B68002B01D1012399E07B68002265
:1040400083F834207B68022283F835207B681B6864
:104050001A687B681B6822F001021A600FE0FFF704
:104060001FF802463B69D31A052B08D97B6820222A
:104070005A657B68032283F83520032378E07B6848
:104080001B681B6803F00103002BE8D17B681B68E9
:104090001B687B617A69384B13407B617B685A6887
:1040A0007B689B681A437B68DB681A437B681B69E3
:1040B0001A437B685B691A437B689B691A437B6878
:1040C000DB691A437B681B6A13437A6913437B617C
:1040D0007B685B6A042B07D17B68DA6A7B681B6BA1
:1040E00013437A6913437B617B681B687A691A60A2
:1040F0007B681B685B697B617B6923F007037B61DD
:104100007B685B6A7A6913437B617B685B6A042B1B
:1041100017D17B689B6A7A6913437B617B68DB6A92
:10412000002B0ED0786800F091FA0346002B08D0DF
:104130007B6840225A657B68012283F83520012381
:1041400016E07B681B687A695A61786800F048FA63
:104150000346FB607B68DB6D3F229A40FB689A60F8
:104160007B6800225A657B68012283F83520002392
:1041700018461837BD4680BD3F8010F080B586B028
:1041800000AFF860B9607A603B600023FB75FB68A4
:104190009B6D3B61FB6893F83430012B01D1022306
:1041A00040E0FB68012283F83420FB6893F8353047
:1041B000DBB2012B2FD1FB68022283F83520FB688C
:1041C00000225A653B687A68B968F86800F0DAF945
:1041D000FB68DB6D3F229A403B699A60FB681B6875
:1041E0001A68FB681B6842F016021A60FB681B6CB9
:1041F000002B07D0FB681B681A68FB681B6842F03D
:1042000008021A60FB681B681A68FB681B6842F0AA
:1042100001021A6005E0FB68002283F834200223C3
:10422000FB75FB7D18461837BD4680BD80B483B052
:1042300000AF78607B6893F83530DBB2022B04D096
:104240007B6880225A6501230CE07B68052283F895
:1042500035207B681B681A687B681B6822F00102A6
:104260001A60002318460C37BD465DF8047B704782
:1042700080B586B000AF78600023BB60924B1B68AE
:10428000924AA2FB03239B0A7B617B689B6D3B6187
:104290003B691B68FB607B68DB6D08229A40FB680A
:1042A0001340002B1AD07B681B681B6803F00403C3
:1042B000002B13D07B681B681A687B681B6822F090
:1042C00004021A607B68DB6D08229A403B699A60A1
:1042D0007B685B6D43F001027B685A657B68DB6D30
:1042E00001229A40FB681340002B12D07B681B68A8
:1042F0005B6903F08003002B0BD07B68DB6D012230
:104300009A403B699A607B685B6D43F002027B6870
:104310005A657B68DB6D04229A40FB681340002BD2
:1043200012D07B681B681B6803F00203002B0BD0C4
:104330007B68DB6D04229A403B699A607B685B6D09
:1043400043F004027B685A657B68DB6D10229A405B
:10435000FB681340002B43D07B681B681B6803F08D
:104360000803002B3CD07B68DB6D10229A403B6930
:104370009A607B681B681B6803F48023002B18D0AD
:104380007B681B681B6803F40023002B08D17B6843
:104390001B6C002B24D07B681B6C786898471FE04F
:1043A0007B689B6C002B1BD07B689B6C7868984764
:1043B00016E07B681B681B6803F48073002B07D131
:1043C0007B681B681A687B681B6822F008021A6009
:1043D0007B681B6C002B03D07B681B6C786898474C
:1043E0007B68DB6D20229A40FB681340002B00F0B5
:1043F0008E807B681B681B6803F01003002B00F0A5
:1044000086807B68DB6D20229A403B699A607B68DE
:1044100093F83530DBB2052B36D17B681B681A6800
:104420007B681B6822F016021A607B681B685A6959
:104430007B681B6822F080025A617B681B6C002B32
:1044400003D17B689B6C002B07D07B681B681A68C4
:104450007B681B6822F008021A607B68DB6D3F22D4
:104460009A403B699A607B68002283F834207B681D
:10447000012283F835207B681B6D002B7DD07B6883
:104480001B6D7868984778E07B681B681B6803F4AD
:104490008023002B1CD07B681B681B6803F400235F
:1044A000002B08D17B685B6C002B30D07B685B6C89
:1044B000786898472BE07B68DB6B002B27D07B6804
:1044C000DB6B7868984722E004000020B5814E1B22
:1044D0007B681B681B6803F48073002B0FD17B681B
:1044E0001B681A687B681B6822F010021A607B68E0
:1044F000002283F834207B68012283F835207B6812
:10450000DB6B002B03D07B68DB6B786898477B689C
:104510005B6D002B32D07B685B6D03F00103002BD9
:1045200022D07B68052283F835207B681B681A68D7
:104530007B681B6822F001021A60BB680133BB6014
:104540007A699A4207D37B681B681B6803F00103F2
:10455000002BF2D100E000BF7B68002283F83420FA
:104560007B68012283F835207B68DB6C002B05D04B
:104570007B68DB6C7868984700E000BF1837BD4661
:1045800080BD00BF80B485B000AFF860B9607A60CC
:104590003B60FB681B681A68FB681B6822F480227A
:1045A0001A60FB681B683A685A60FB689B68402B7E
:1045B00008D1FB681B687A689A60FB681B68BA6858
:1045C000DA6007E0FB681B68BA689A60FB681B68E2
:1045D0007A68DA6000BF1437BD465DF8047B704727
:1045E00080B485B000AF78607B681B68DBB2103B9D
:1045F000144AA2FB03231B09FB60134AFB68134404
:104600001B781A467B68DA65FB68032B09D97B683F
:104610001B6823F47F7323F003031A1D7B689A65DC
:1046200007E07B681B6823F47F7323F003037A6839
:1046300093657B689B6D18461437BD465DF8047B17
:10464000704700BFABAAAAAA0C66010880B485B067
:1046500000AF78600023FB737B689B6ABB607B685C
:104660009B69002B1FD1BB68032B55D801A252F8C0
:1046700023F000BF854600089746000885460008DD
:10468000194700087B68DB6A03F08073002B45D074
:104690000123FB7342E07B68DB6AB3F1C07F3FD14B
:1046A0000123FB733CE07B689B69B3F5005F21D17C
:1046B000BB68032B36D801A252F823F0CD46000880
:1046C000D3460008CD460008E54600080123FB73E9
:1046D0002FE07B68DB6A03F08073002B24D001237A
:1046E000FB7321E07B68DB6AB3F1C07F1ED101233D
:1046F000FB731BE0BB68022B02D9032B03D018E02D
:104700000123FB7315E07B68DB6A03F08073002BE9
:104710000ED00123FB730BE000BF0AE000BF08E0EE
:1047200000BF06E000BF04E000BF02E000BF00E001
:1047300000BFFB7B18461437BD465DF8047B70470D
:1047400080B586B000AFF860B960C7E900230123E7
:10475000FB75234B1B7E012B01D102233BE0204B39
:1047600001221A764CF2503000F070F80346FB75C7
:10477000FB7D002B2BD1FB68002B05D13B78194624
:10478000B86800F019F916E0FB68012B05D13B88E9
:104790001946B86800F0ECF80DE0FB68022B05D173
:1047A0003B681946B86800F0C1F804E0D7E9002377
:1047B000B86800F08BF84CF2503000F047F8034630
:1047C000FB75084B1B69074A23F001031361044B77
:1047D00000221A76FB7D18461837BD4680BD00BF03
:1047E0001C190020003C024080B483B000AF0023BD
:1047F000FB710B4B1B69002B0BDA094B094A5A6002
:10480000074B094A5A60064B1B69002B01DA01234A
:10481000FB71FB7918460C37BD465DF8047B704789
:10482000003C024023016745AB89EFCD80B400AF67
:10483000054B1B69044A43F00043136100231846EB
:10484000BD465DF8047B7047003C024080B584B0F3
:1048500000AF78600023FB601A4B0022DA61FEF79C
:104860001FFCF86010E07B68B3F1FF3F0CD07B6861
:10487000002B07D0FEF714FC0246FB68D31A7A68B7
:104880009A4201D2032319E00F4BDB6803F4803313
:10489000002BE8D10C4BDB6803F00103002B02D0A6
:1048A000094B0122DA60084BDB6803F0F203002BAE
:1048B00003D000F0A3F8012300E0002318461037CE
:1048C000BD4680BD1C190020003C024090B484B05D
:1048D00000AFF860C7E90023134B1B69124A23F4A9
:1048E00040731361104B1B690F4A43F4407313610B
:1048F0000D4B1B690C4A43F001031361FB683A68D6
:104900001A60BFF36F8FD7E900124FF000034FF02A
:10491000000413000024FA680432136000BF10374B
:10492000BD4690BC704700BF003C024080B483B0DD
:1049300000AF786039600D4B1B690C4A23F440735B
:1049400013610A4B1B69094A43F400731361074B57
:104950001B69064A43F0010313617B683A681A60D9
:1049600000BF0C37BD465DF8047B7047003C024039
:1049700080B483B000AF78600B467B800D4B1B6921
:104980000C4A23F4407313610A4B1B69094A43F430
:1049900080731361074B1B69064A43F001031361DF
:1049A0007B687A881A8000BF0C37BD465DF8047BAF
:1049B000704700BF003C024080B483B000AF786015
:1049C0000B46FB700C4B1B690B4A23F440731361BD
:1049D000094B094A1B691361074B1B69064A43F0DF
:1049E000010313617B68FA781A7000BF0C37BD466B
:1049F0005DF8047B704700BF003C024080B400AF0C
:104A0000274BDB6803F01003002B08D0254BDB6934
:104A100043F01003234AD361214B1022DA60204B6C
:104A2000DB6803F02003002B08D01E4BDB6943F04A
:104A300008031C4AD3611A4B2022DA60184BDB684A
:104A400003F04003002B08D0164BDB6943F004034E
:104A5000144AD361124B4022DA60114BDB6803F039
:104A60008003002B08D00F4BDB6943F002030D4A93
:104A7000D3610B4B8022DA60094BDB6803F0020341
:104A8000002B08D0074BDB6943F02003054AD361B4
:104A9000034B0222DA6000BFBD465DF8047B70471D
:104AA000003C02401C19002080B485B000AF786043
:104AB0000B46FB700023FB60FB78002B02D1002328
:104AC000FB6010E0FB78012B03D14FF48073FB6097
:104AD00009E0FB78022B03D14FF40073FB6002E086
:104AE0004FF44073FB60134B1B69124A23F440736D
:104AF0001361104B1A690F49FB6813430B610D4B8F
:104B00001B690C4A23F0F80313610A4B1A697B688E
:104B1000DB001343074A43F002031361054B1B6993
:104B2000044A43F48033136100BF1437BD465DF877
:104B3000047B7047003C024080B489B000AF7860CD
:104B4000396000237B6100233B610023BB610023AC
:104B5000FB616BE10122FB6902FA03F37B613B68B5
:104B60001B687A6913403B613A697B699A4240F05D
:104B70005A813B685B68012B0BD03B685B68022B5A
:104B800007D03B685B68112B03D03B685B68122B36
:104B900030D17B689B68BB61FB695B00032202FA32
:104BA00003F3DB43BA691340BB613B68DA68FB6916
:104BB0005B0002FA03F3BA691343BB617B68BA690D
:104BC0009A607B685B68BB610122FB6902FA03F3B0
:104BD000DB43BA691340BB613B685B681B0903F0A8
:104BE0000102FB6902FA03F3BA691343BB617B68F4
:104BF000BA695A607B68DB68BB61FB695B000322B2
:104C000002FA03F3DB43BA691340BB613B689A685D
:104C1000FB695B0002FA03F3BA691343BB617B686B
:104C2000BA69DA603B685B68022B03D03B685B685B
:104C3000122B23D1FB69DA087B68083253F8223043
:104C4000BB61FB6903F007039B000F2202FA03F329
:104C5000DB43BA691340BB613B681A69FB6903F027
:104C600007039B0002FA03F3BA691343BB61FB69B4
:104C7000DA087B680832B96943F822107B681B6840
:104C8000BB61FB695B00032202FA03F3DB43BA69F1
:104C90001340BB613B685B6803F00302FB695B0088
:104CA00002FA03F3BA691343BB617B68BA691A60FD
:104CB0003B685B6803F08053002B00F0B480002356
:104CC000FB605F4B5B6C5E4A43F4804353645C4B18
:104CD0005B6C03F48043FB60FB685A4AFB699B08EA
:104CE000023352F82330BB61FB6903F003039B00DE
:104CF0000F2202FA03F3DB43BA691340BB617B68FE
:104D0000514A93422BD07B68504A934225D07B680E
:104D10004F4A93421FD07B684E4A934219D07B681A
:104D20004D4A934213D07B684C4A93420DD07B6826
:104D30004B4A934207D07B684A4A934201D10723EA
:104D40000EE008230CE006230AE0052308E0042314
:104D500006E0032304E0022302E0012300E0002335
:104D6000FA6902F0030292009340BA691343BB61EF
:104D70003449FB699B080233BA6941F823203A4B56
:104D80001B68BB613B69DB43BA691340BB613B688D
:104D90005B6803F48033002B03D0BA693B6913438B
:104DA000BB61314ABB6913602F4B5B68BB613B69D8
:104DB000DB43BA691340BB613B685B6803F40033B3
:104DC000002B03D0BA693B691343BB61264ABB6918
:104DD0005360254B9B68BB613B69DB43BA69134059
:104DE000BB613B685B6803F48013002B03D0BA6996
:104DF0003B691343BB611C4ABB6993601A4BDB6878
:104E0000BB613B69DB43BA691340BB613B685B68CC
:104E100003F40013002B03D0BA693B691343BB6151
:104E2000114ABB69D360FB690133FB61FB690F2B3E
:104E30007FF690AE00BF2437BD465DF8047B704717
:104E400000380240003801400000024000040240E7
:104E500000080240000C0240001002400014024012
:104E600000180240001C0240003C014080B485B0A4
:104E700000AF78600B467B807B681A697B881340A3
:104E8000002B02D00123FB7301E00023FB73FB7BAB
:104E900018461437BD465DF8047B704780B483B074
:104EA00000AF78600B467B8013467B707B78002BCD
:104EB00003D07A887B689A6103E07B881A047B6858
:104EC0009A6100BF0C37BD465DF8047B7047000057
:104ED00080B582B000AF0346FB80084B5A69FB885F
:104EE0001340002B06D0054AFB885361FB88184607
:104EF000FDF7E8FA00BF0837BD4680BD003C014021
:104F0000F0B58FB00AAF78607B68002B01D1012328
:104F10000FE17B681B68BB607B6893F8BD33DBB235
:104F2000002B06D17B68002283F8BC2378680EF042
:104F30000BFC7B68032283F8BD23BB68DB6B03F4A7
:104F40008073002B02D17B6800221A617B681B688A
:104F5000184604F01EF97B681B683B607E686D464E
:104F600006F110040FCC0FC50FCC0FC594E8030059
:104F700085E80300331D0ECB386803F0F5FF0346C8
:104F8000002B05D07B68022283F8BD230123D0E0EB
:104F90007B681B680021184604F00CF90023FB73A2
:104FA0004AE0FA7B79681346DB009B1A9B000B44AE
:104FB0003D3301221A70FA7B79681346DB009B1A95
:104FC0009B000B443C33FA7B1A70FA7BFB7B98B254
:104FD00079681346DB009B1A9B000B444233024660
:104FE0001A80FA7B79681346DB009B1A9B000B44FE
:104FF0003F3300221A70FA7B79681346DB009B1A54
:105000009B000B44443300221A60FA7B79681346F4
:10501000DB009B1A9B000B44483300221A60FA7B8A
:1050200079681346DB009B1A9B000B445033002227
:105030001A60FB7B0133FB73FA7B7B685B689A42E7
:10504000AFD30023FB7344E0FA7B79681346DB009F
:105050009B1A9B000B4403F2FD1300221A70FA7B8B
:1050600079681346DB009B1A9B000B4403F5FE7323
:10507000FA7B1A70FA7B79681346DB009B1A9B0057
:105080000B4403F2FF1300221A70FA7B796813466F
:10509000DB009B1A9B000B4403F5017300221A608E
:1050A000FA7B79681346DB009B1A9B000B4403F5DF
:1050B000027300221A60FA7B79681346DB009B1AA0
:1050C0009B000B4403F5047300221A60FB7B013341
:1050D000FB73FA7B7B685B689A42B5D37B681B687D
:1050E0003B607E686D4606F110040FCC0FC50FCCF7
:1050F0000FC594E8030085E80300331D0ECB386824
:1051000004F082F80346002B05D07B68022283F866
:10511000BD2301230DE07B68002283F838207B68E3
:10512000012283F8BD237B681B68184605F0CAF886
:10513000002318461437BD46F0BD80B584B000AFDB
:1051400078607B681B68FB607B6893F8BC33012B3D
:1051500001D1022320E07B68012283F8BC237B6815
:105160009B6A012B09D17B689B69012B05D0FB68E9
:105170009B6B43F48032FB689A637B681B6818461C
:1051800003F0F6FF7B681B68184605F07AF87B6829
:10519000002283F8BC23002318461037BD4680BD8B
:1051A00090B58DB000AF78607B681B683B623B6A4E
:1051B000FB617B681B68184605F038F90346002B35
:1051C00040F09D837B681B68184605F09CF80346F9
:1051D000002B00F093837B681B68184605F093F85A
:1051E000034603F00203022B07D17B681B685A6950
:1051F0007B681B6802F002025A617B681B681846D4
:1052000005F081F8034603F01003102B61D17B6891
:105210001B689A697B681B6822F010029A613B6ADE
:105220001B6ABB61BB6903F00F021346DB009B1ACC
:105230009B0003F5FC737A68134404337B61BB69FC
:105240005B0C03F00F03022B24D1BA6947F6F0730D
:105250001340002B35D07B69D968BB691B099BB211
:10526000C3F30A039BB21A46386A04F0E7FE7B696F
:10527000DA68BB691B09C3F30A031A447B69DA6065
:105280007B699A69BB691B09C3F30A031A447B69EA
:105290009A6116E0BB695B0C03F00F03062B10D17B
:1052A0007B6803F5717308221946386A04F0C6FE5C
:1052B0007B699A69BB691B09C3F30A031A447B69BA
:1052C0009A617B681B689A697B681B6842F01002D0
:1052D0009A617B681B68184605F015F8034603F4CD
:1052E0000023B3F5002F6ED100237B627B681B681F
:1052F000184605F01BF8B86262E0BB6A03F00103D0
:10530000002B57D07B681B687A6AD2B211461846C8
:1053100005F040F838613B6903F00103002B0CD025
:105320007B6A5A01FB69134403F530631A46012373
:105330009360796A786800F099FD3B6903F008038F
:10534000002B0CD07B6A5A01FB69134403F53063D0
:105350001A4608239360796A786800F093FE3B69E7
:1053600003F01003002B08D07B6A5A01FB69134439
:1053700003F530631A46102393603B6903F0200362
:10538000002B08D07B6A5A01FB69134403F5306394
:105390001A46202393603B6903F40053002B09D085
:1053A0007B6A5A01FB69134403F530631A464FF4D4
:1053B000005393607B6A01337B62BB6A5B08BB620C
:1053C000BB6A002B99D17B681B68184604F09BFFD1
:1053D000034603F48023B3F5802F40F0C0807B6840
:1053E0001B68184604F0BCFFB86200237B62B2E081
:1053F000BB6A03F00103002B00F0A7807B681B68E9
:105400007A6AD2B21146184604F0E2FF38613B696D
:1054100003F00103002B57D07B6A03F00F03012236
:1054200002FA03F3FB60FB6903F500635A6BFB6848
:10543000DB43F96901F5006113404B637B6A5A0154
:10544000FB69134403F510631A46012393607B68DC
:105450001B69012B32D179687A6A1346DB009B1AEB
:105460009B000B444833196878687A6A1346DB005E
:105470009B1A9B00034444331B68194478687A6A7A
:105480001346DB009B1A9B000344483319607B6A78
:10549000002B13D179687A6A1346DB009B1A9B00B4
:1054A0000B4450331B68002B08D17B6818687B685D
:1054B00003F571731A46012104F0EAFF7B6ADBB23F
:1054C000194678680EF0C1F93B6903F00803002B18
:1054D00008D07B6A5A01FB69134403F510631A462E
:1054E000082393603B6903F01003002B08D07B6A0C
:1054F0005A01FB69134403F510631A4610239360A5
:105500003B6903F04003002B08D07B6A5A01FB691A
:10551000134403F510631A46402393603B6903F07C
:105520000203002B08D07B6A5A01FB69134403F580
:1055300010631A46022393603B6903F08003002B3B
:1055400003D0796A786800F003FC7B6A01337B62E0
:10555000BB6A5B08BB62BB6A002B7FF449AF7B6808
:105560001B68184604F0CFFE034603F00043B3F176
:10557000004F22D1FB6903F500635B68FA6902F50D
:10558000006223F0010353607B6893F8F433012B2E
:1055900008D17B68002283F8F4230021786800F0AA
:1055A0000FFE02E078680EF0C7F97B681B685A6945
:1055B0007B681B6802F000425A617B681B681846D2
:1055C00004F0A1FE034603F40063B3F5006F12D1AB
:1055D000FB6903F500639B6803F00103012B02D113
:1055E00078680EF083F97B681B685A697B681B68D2
:1055F00002F400625A617B681B68184604F083FE5F
:10560000034603F48053B3F5805F40F0C780FB6925
:1056100003F500635B68FA6902F5006223F0010399
:1056200053607B681B681021184603F051FF00236C
:10563000FB6256E0FB6A5A01FB69134403F51063F1
:105640001A464FF67F339360FB6A5A01FB69134495
:1056500003F510631B68FA6A5101FA690A4402F5FE
:10566000106223F400131360FB6A5A01FB691344B0
:1056700003F510631B68FA6A5101FA690A4402F5DE
:10568000106243F000631360FB6A5A01FB69134424
:1056900003F530631A464FF67F339360FB6A5A0175
:1056A000FB69134403F530631B68FA6A5101FA6918
:1056B0000A4402F5306223F400131360FB6A5A01B6
:1056C000FB69134403F530631B68FA6A5101FA69F8
:1056D0000A4402F5306243F000631360FB6A013351
:1056E000FB627B685B68FA6A9A42A3D3FB6903F5A5
:1056F0000063DB69FA6902F5006243F00113D361CC
:105700007B681B6B002B16D0FB6903F50063D3F895
:105710008430FA6902F5006243F00B03C2F884306A
:10572000FB6903F500635B6CFA6902F5006243F004
:105730000B03536415E0FB6903F500635B69FA69C9
:1057400002F5006243F4005343F02B035361FB69FD
:1057500003F500631B69FA6902F5006243F00B036D
:105760001361FB6903F500631B68FA6902F50062C7
:1057700023F4FE6313607B6818687B681B69D9B2E9
:105780007B6803F571731A4604F082FE7B681B6820
:105790005A697B681B6802F480525A617B681B68F7
:1057A000184604F0B0FD034603F40053B3F5005F60
:1057B00024D17B681B68184604F046FE7B681B6892
:1057C000184603F0E6FE03461A467B68DA607B68FB
:1057D0001C6801F02FF901467B68DB68DBB21A46D2
:1057E000204603F023FC78680EF057F87B681B68AE
:1057F0005A697B681B6802F400525A617B681B6817
:10580000184604F080FD034603F00803082B0AD174
:1058100078680EF034F87B681B685A697B681B68EF
:1058200002F008025A617B681B68184604F06BFDA1
:10583000034603F48013B3F5801F0FD100237B626E
:105840007B6ADBB2194678680EF096F87B681B68B5
:105850005A697B681B6802F480125A617B681B6876
:10586000184604F050FD034603F40013B3F5001F7F
:105870000FD100237B627B6ADBB2194678680EF099
:1058800069F87B681B685A697B681B6802F4001220
:105890005A617B681B68184604F035FD034603F027
:1058A0008043B3F1804F0AD178680EF077F87B68B7
:1058B0001B685A697B681B6802F080425A617B68EA
:1058C0001B68184604F01FFD034603F00403042B75
:1058D00015D17B681B685B68BB61BB6903F004037F
:1058E000002B02D078680EF067F87B681B68596857
:1058F0007B681B68BA690A435A6000E000BF34370E
:10590000BD4690BD80B582B000AF78600B46FB709D
:105910007B6893F8BC33012B01D1022313E07B6831
:10592000012283F8BC237B68FA7883F838207B68EF
:105930001B68FA781146184604F07DFC7B6800224B
:1059400083F8BC23002318460837BD4680BD80B5C8
:1059500084B000AF7860084611461A460346FB70D3
:105960000B463B801346BB700023FB7297F9033054
:10597000002B0FDAFB7803F00F021346DB009B1AB3
:105980009B0038337A6813440433FB60FB680122C0
:105990005A700FE0FB7803F00F021346DB009B1AEE
:1059A0009B0003F5FC737A6813440433FB60FB68C7
:1059B00000225A70FB7803F00F03DAB2FB681A700A
:1059C0003A88FB689A60FB68BA78DA70FB685B78A3
:1059D000002B04D0FB681B789AB2FB68DA80BB7896
:1059E000022B02D1FB6800221A717B6893F8BC334A
:1059F000012B01D102230EE07B68012283F8BC2336
:105A00007B681B68F968184603F0E8FD7B68002294
:105A100083F8BC23FB7A18461037BD4680BD80B59D
:105A200084B000AF78600B46FB7097F90330002B11
:105A30000FDAFB7803F00F021346DB009B1A9B0082
:105A400038337A6813440433FB60FB6801225A70D0
:105A50000FE0FB7803F00F021346DB009B1A9B005C
:105A600003F5FC737A6813440433FB60FB6800227F
:105A70005A70FB7803F00F03DAB2FB681A707B6888
:105A800093F8BC33012B01D102230EE07B68012285
:105A900083F8BC237B681B68F968184603F026FE70
:105AA0007B68002283F8BC23002318461037BD46CC
:105AB00080BD80B586B000AFF8607A603B600B4671
:105AC000FB72FB7A03F00F021346DB009B1A9B006C
:105AD00003F5FC73FA68134404337B617B697A68CD
