:020000040800F2
:10000000008000205D1900086112000867120008D6
:100010006D12000873120008791200080000000039
:100020000000000000000000000000007F12000837
:100030008D120008000000009B120008A9120008A1
:10004000AD190008AD190008AD190008AD19000878
:10005000AD190008AD190008AD190008AD19000868
:10006000AD190008AD190008AD190008AD19000858
:10007000AD190008AD190008AD190008AD19000848
:10008000AD190008AD190008AD190008AD19000838
:10009000AD190008AD190008AD190008AD19000828
:1000A000AD190008AD190008AD190008AD19000818
:1000B000AD190008AD190008AD190008AD19000808
:1000C000AD190008AD190008AD190008AD190008F8
:1000D000AD190008AD190008AD190008AD190008E8
:1000E000AD190008AD190008AD190008AD190008D8
:1000F000AD190008AD190008000000000000000064
:100100000000000000000000AD190008AD19000853
:100110000000000000000000AD190008AD19000843
:10012000AD190008AD190008B5120008AD19000896
:10013000AD190008C9120008AD190008AD19000872
:10014000AD190008000000000000000000000000E1
:10015000000000000000000000000000000000009F
:100160000000000000000000AD190008DD120008CA
:10017000AD19000800000000AD19000800000000E3
:0801800000000000AD190008A9
:1001880010B5054C237833B9044B13B10448AFF3C9
:1001980000800123237010BDF00100200000000042
:1001A800F49B000808B5034B1BB103490348AFF3A0
:1001B800008008BD00000000F4010020F49B000846
:1001C80081F0004102E000BF83F0004330B54FEA00
:1001D80041044FEA430594EA050F08BF90EA020F6D
:1001E8001FBF54EA000C55EA020C7FEA645C7FEA00
:1001F800655C00F0E2804FEA5454D4EB5555B8BF23
:100208006D420CDD2C4480EA020281EA030382EA93
:10021800000083EA010180EA020281EA0303362D25
:1002280088BF30BD11F0004F4FEA01314FF4801CF8
:100238004CEA113102D0404261EB410113F0004F0A
:100248004FEA03334CEA133302D0524263EB4303C1
:1002580094EA050F00F0A780A4F10104D5F1200E5F
:100268000DDB02FA0EFC22FA05F2801841F10001BA
:1002780003FA0EF2801843FA05F359410EE0A5F18E
:1002880020050EF1200E012A03FA0EFC28BF4CF0BF
:10029800020C43FA05F3C01851EBE37101F0004575
:1002A80007D54FF0000EDCF1000C7EEB00006EEB82
:1002B8000101B1F5801F1BD3B1F5001F0CD349080C
:1002C8005FEA30004FEA3C0C04F101044FEA445263
:1002D80012F5800F80F09A80BCF1004F08BF5FEAEA
:1002E800500C50F1000041EB045141EA050130BDCA
:1002F8005FEA4C0C404141EB010111F4801FA4F16D
:100308000104E9D191F0000F04BF01460020B1FAC1
:1003180081F308BF2033A3F10B03B3F120020CDAF9
:100328000C3208DD02F1140CC2F10C0201FA0CF0D7
:1003380021FA02F10CE002F11402D8BFC2F1200C3C
:1003480001FA02F120FA0CFCDCBF41EA0C019040F2
:10035800E41AA2BF01EB0451294330BD6FEA04043B
:100368001F3C1CDA0C340EDC04F11404C4F1200226
:1003780020FA04F001FA02F340EA030021FA04F338
:1003880045EA030130BDC4F10C04C4F1200220FA8F
:1003980002F001FA04F340EA0300294630BD21FACD
:1003A80004F0294630BD94F0000F83F4801306BF93
:1003B80081F480110134013D4EE77FEA645C18BF87
:1003C8007FEA655C29D094EA050F08BF90EA020F1E
:1003D80005D054EA000C04BF1946104630BD91EA16
:1003E800030F1EBF0021002030BD5FEA545C05D119
:1003F8004000494128BF41F0004130BD14F5800458
:100408003CBF01F5801130BD01F0004545F0FE41CB
:1004180041F470014FF0000030BD7FEA645C1ABF00
:10042800194610467FEA655C1CBF0B46024650EA37
:10043800013406BF52EA033591EA030F41F4002163
:1004480030BD00BF90F0000F04BF0021704730B5E9
:100458004FF4806404F132044FF000054FF00001BE
:1004680050E700BF90F0000F04BF0021704730B57F
:100478004FF4806404F1320410F0004548BF404254
:100488004FF000013EE700BF42004FEAE2014FEAA9
:1004980031014FEA02701FBF12F07F4393F07F4F84
:1004A80081F06051704732F07F4208BF704793F087
:1004B8007F4F04BF41F40021704730B54FF460749A
:1004C80001F0004521F000411CE700BF50EA01029D
:1004D80008BF704730B54FF000050AE050EA010246
:1004E80008BF704730B511F0004502D5404261EBB6
:1004F80041014FF4806404F132045FEA915C3FF4F7
:10050800D8AE4FF003025FEADC0C18BF03325FEA93
:10051800DC0C18BF033202EBDC02C2F1200300FA44
:1005280003FC20FA02F001FA03FE40EA0E0021FA69
:1005380002F11444BDE600BF70B54FF0FF0C4CF457
:10054800E06C1CEA11541DBF1CEA135594EA0C0F09
:1005580095EA0C0F00F0DEF82C4481EA030621EA44
:100568004C5123EA4C5350EA013518BF52EA03357F
:1005780041F4801143F4801338D0A0FB02CE4FF031
:100588000005E1FB02E506F00042E0FB03E54FF061
:100598000006E1FB03569CF0000F18BF4EF0010E59
:1005A800A4F1FF04B6F5007F64F5407404D25FEA55
:1005B8004E0E6D4146EB060642EAC62141EA555108
:1005C8004FEAC52040EA5E504FEACE2EB4F1FD0C4A
:1005D80088BFBCF5E06F1ED8BEF1004F08BF5FEAC8
:1005E800500E50F1000041EB045170BD06F000467A
:1005F80046EA010140EA020081EA0301B4EB5C0427
:10060800C2BFD4EB0C0541EA045170BD41F480111E
:100618004FF0000E013C00F3AB8014F1360FDEBF43
:10062800002001F0004170BDC4F10004203C35DA1F
:100638000C341BDC04F11404C4F1200500FA05F3A2
:1006480020FA04F001FA05F240EA020001F0004243
:1006580021F0004110EBD37021FA04F642EB0601B9
:100668005EEA430E08BF20EAD37070BDC4F10C04E3
:10067800C4F1200500FA04F320FA05F001FA04F2A7
:1006880040EA020001F0004110EBD37041F1000193
:100698005EEA430E08BF20EAD37070BDC4F120059E
:1006A80000FA05F24EEA020E20FA04F301FA05F206
:1006B80043EA020321FA04F001F0004121FA04F2AE
:1006C80020EA020000EBD3705EEA430E08BF20EA7E
:1006D800D37070BD94F0000F0FD101F000464000B8
:1006E80041EB010111F4801F08BF013CF7D041EA3A
:1006F800060195F0000F18BF704703F0004652003E
:1007080043EB030313F4801F08BF013DF7D043EA0E
:100718000603704794EA0C0F0CEA135518BF95EAC4
:100728000C0F0CD050EA410618BF52EA4306D1D14B
:1007380081EA030101F000414FF0000070BD50EA6A
:10074800410606BF1046194652EA430619D094EAF4
:100758000C0F02D150EA013613D195EA0C0F05D1DE
:1007680052EA03361CBF104619460AD181EA030132
:1007780001F0004141F0FE4141F470014FF00000EA
:1007880070BD41F0FE4141F4780170BD70B54FF085
:10079800FF0C4CF4E06C1CEA11541DBF1CEA135505
:1007A80094EA0C0F95EA0C0F00F0A7F8A4EB0504E7
:1007B80081EA030E52EA03354FEA013100F08880DE
:1007C8004FEA03334FF0805545EA131343EA1263A7
:1007D8004FEA022245EA111545EA10654FEA00265C
:1007E8000EF000419D4208BF964244F1FD0404F515
:1007F800407402D25B084FEA3202B61A65EB030571
:100808005B084FEA32024FF480104FF4002CB6EB2D
:10081800020E75EB030E22BFB61A754640EA0C00AD
:100828005B084FEA3202B6EB020E75EB030E22BFED
:10083800B61A754640EA5C005B084FEA3202B6EB2E
:10084800020E75EB030E22BFB61A754640EA9C00ED
:100858005B084FEA3202B6EB020E75EB030E22BFBD
:10086800B61A754640EADC0055EA060E18D04FEA7B
:10087800051545EA16754FEA06164FEAC30343EA1B
:1008880052734FEAC2025FEA1C1CC0D111F4801FE8
:100898000BD141EA00014FF000004FF0004CB6E7E1
:1008A80011F4801F04BF01430020B4F1FD0C88BF80
:1008B800BCF5E06F3FF6AFAEB5EB030C04BFB6EB8B
:1008C800020C5FEA500C50F1000041EB045170BD7E
:1008D8000EF0004E4EEA113114EB5C04C2BFD4EBAB
:1008E8000C0541EA045170BD41F480114FF0000E2F
:1008F800013C90E645EA060E8DE60CEA135594EAAB
:100908000C0F08BF95EA0C0F3FF43BAF94EA0C0FAD
:100918000AD150EA01347FF434AF95EA0C0F7FF422
:1009280025AF104619462CE795EA0C0F06D152EA76
:1009380003353FF4FDAE1046194622E750EA41065A
:1009480018BF52EA43067FF4C5AE50EA41047FF46B
:100958000DAF52EA43057FF4EBAE12E74FEA4102CE
:1009680012F5001215D211D56FF47873B3EB6252F9
:1009780012D94FEAC12343F0004343EA505311F020
:10098800004F23FA02F018BF404270474FF00000B2
:10099800704750EA013005D111F0004008BF6FF0F0
:1009A800004070474FF00000704700BF80B485B02A
:1009B80000AF78600023FB6017E0FB6803F10113C8
:1009C800DB021A467B6893420CD2FB6803F580333E
:1009D800DB021A467B68934204D3FB6803F5803335
:1009E800DB0207E0FB680133FB60FB68FF2BE4DDFB
:1009F8004FF0FF3318461437BD465DF8047B704747
:100A080090B58BB000AFF860B9607A607B689B08DE
:100A18007A6802F00302002A14BF01220022D2B22F
:100A280013443B6201F07CFBF868FFF7BFFFF861F5
:100A38003B6A9B001A46FB681344BB61B869FFF721
:100A4800B5FF78611D4B00221A601C4AFB69536090
:100A58007A69FB69D31ADB0A0133184A936007F1F4
:100A680010031946154801F02BFC0346002B03D050
:100A780001F08CFB03461CE000237B6212E07B6ADA
:100A88009A00FB68D118BA687B6A13441B78DBB2FA
:100A98004FF000041A462346022001F0D1FA7B6A7F
:100AA80001337B627A6A7B689A42E8D301F05EFB85
:100AB800002318462C37BD4690BD00BF0C0200200D
:100AC80080B586B000AFF860B9607A6000237B61BA
:100AD80010E07B699B001A46FB681344184600F037
:100AE80011F801467B69BA681344CAB21A707B6967
:100AF80001337B617B697A689A42EAD800BF18376C
:100B0800BD4680BD80B485B000AF78607B68FB606F
:100B1800FB681B6818461437BD465DF8047B7047B0
:100B280080B500AF064B00221A60064B00221A60FF
:100B3800054BDB8D9BB2184600F07CF800BF80BDEA
:100B4800C402002000030020C802002080B483B043
:100B580000AF274B00221A7000225A70244B4FF026
:100B6800FF329A704FF0FF32DA70214B002262F0A8
:100B7800010283F83020002242F07F0283F83120FE
:100B88001B4B002262F0010283F83220002242F05F
:100B98007F0283F83320164B002283F82E20002290
:100BA80042F0010283F82F201523BB710023FB714B
:100BB80014E0FB799BB2FA79194649001944890077
:100BC8000B4419468901CB1A9B0098B20849530077
:100BD8000B4402469A80FB790133FB71FA79BB79A1
:100BE8009A42E6D300BF0C37BD465DF8047B7047D8
:100BF800C802002080B483B000AF0346FB800C4BD2
:100C08001B889BB2FA889A4202D2094BFA881A804A
:100C1800074B5B889BB2FA889A4202D9044BFA8840
:100C28005A8000BF0C37BD465DF8047B704700BF93
:100C3800C802002080B582B000AF0346FB800C4B91
:100C48001B68184608F0EEFEFB880221184608F0DB
:100C5800B7FE03461A46064B1A60064B00221A6076
:100C6800054B00221A6000BF0837BD4680BD00BF93
:100C780008030020C402002004030020B0B586B099
:100C880002AF0346FB804D4B1B684D4A11684D4A25
:100C9800127852000A4412889B1A484A1360484B3B
:100CA8001A68484B1B785B001344FA881A80444B37
:100CB8001A68444B1B785B0013441B881A463F4B49
:100CC8001B6813443D4A13603E4B1B780133DAB26C
:100CD8003C4B1A703B4B1B789AB23B4BDB8D9BB25B
:100CE8009A4202D3374B00221A70344B1B68364A9B
:100CF800D28D92B2B3FBF2F3344A1360334B1B68C4
:100D08001846314B1B889BB219462F4B5B889BB208
:100D18001A464FF6FF730093002300F0CCFD0346FC
:100D28009AB22B4B1A801523BB730023FB733CE04C
:100D3800274B1B881946FB7B40F6CC4202FB03F38A
:100D480099422FDD224B1B881946FB7B013340F665
:100D5800CC4202FB03F3994224DC1D4B1B881C4642
:100D6800FB7B40F6CC4202FB03F1FB7B013340F6F0
:100D7800CC4202FB03F0FB7B134A5B0013449B88C5
:100D88009BB21D46FB7B01330F4A5B0013449B88D3
:100D98009BB200932B460246204600F08CFD02468B
:100DA8000C4B1A60FB7B0133FB73FA7BBB7B9A42CB
:100DB800BED300BF1037BD46B0BD00BF040300203E
:100DC8000803002018020020C8020020C4020020E6
:100DD800FC0200200003002080B500AF00F0E4FD15
:100DE80000F050F800F054F900F034F900F0ACF8D5
:100DF80008F0CEF900F0C0FA00F030FE02461D4BB4
:100E08001A6000F02BFE02461A4B1B68D31AB3F582
:100E18007A7F04D2184B1B680133174A1360174BAB
:100E28009B78002B07D0164B1B881846FFF7E2FE6D
:100E380000F026FBE5E7124B1B881846FFF71EFF5C
:100E48000E4B1B78002B02D0012B03D00FE000F0D3
:100E580015FC0DE0094B5B78002B02D0012B03D069
:100E680005E000F0CBFA02E000F058FB00BF00BF3D
:100E7800C7E700BFA4030020580300205003002048
:100E88005403002080B59AB000AF07F14003282230
:100E98000021184608F0D9FD07F12C0300221A603A
:100EA8005A609A60DA601A613B462C220021184683
:100EB80008F0CBFD01233B644FF480337B640023AF
:100EC800BB6401233B650223FB654FF480333B661B
:100ED8004FF4E0137B6607F14003184602F002FF67
:100EE8000346002B01D000F01BF90F23FB620223FD
:100EF8003B6300237B634FF48063BB630023FB6386
:100F080007F12C030221184603F0F4FD0346002BD9
:100F180001D000F005F94FF402333B600023BB62B7
:100F28004FF028433B623B46184603F0C9FF03468F
:100F3800002B01D000F0F4F84FF4007002F0B2FE7C
:100F480000BF6837BD4680BD80B584B000AF3B4662
:100F580000221A605A609A60DA603A4B3A4A1A607C
:100F6800384B00225A60374B00229A60354B0022DA
:100F7800DA60344B00221A61324B0022DA623148BF
:100F880004F012F90346002B01D000F0C9F8002143
:100F98002C4804F085FA0346002B01D000F0C0F875
:100FA8000021284804F04CFA0346002B01D000F039
:100FB800B7F801222549234804F006FA0346002B16
:100FC80001D000F0ADF84FF040633B6000237B6038
:100FD8000023BB600023FB603B461A4600211948EA
:100FE80004F066F90346002B01D000F099F80022BE
:100FF8001649144804F098F90346002B01D000F074
:101008008FF800210F4804F07FFA0346002B01D027
:1010180000F086F84FF0FF310A4804F0B5FA0346AD
:10102800002B01D000F07CF803220949054804F0A0
:10103800E5FA0346002B01D000F072F800BF103724
:10104800BD4680BD600300200060014040000600EE
:10105800A803002080B582B000AF0C4B5B690B4A37
:1010680043F002035361094B5B6903F002037B60A1
:101078007B68002200213A2000F0F9FD3A2000F0B8
:1010880012FE00BF0837BD4680BD00BF00100240F9
:1010980080B485B000AF154B5B69144A43F48003F4
:1010A8005361124B5B6903F48003FB60FB680F4BD1
:1010B8005B690E4A43F4802353610C4B5B6903F46C
:1010C8008023BB60BB68094B5B69084A43F4003363
:1010D8005361064B5B6903F400337B607B6800BF98
:1010E8001437BD465DF8047B704700BF001002400E
:1010F80080B483B000AF7860074B1B881BB29BB2EB
:10110800A3F500439AB2054B1A8000BF0C37BD46C1
:101118005DF8047B704700BFA8030020540300203B
:1011280080B400AF72B6FEE780B483B000AF0F4B57
:101138009B690E4A43F0010393610C4B9B6903F0D2
:1011480001037B607B68094BDB69084A43F08053E5
:10115800D361064BDB6903F080533B603B6800BFFB
:101168000C37BD465DF8047B704700BF0010024095
:1011780080B58AB000AF786007F1140300221A60C6
:101188005A609A60DA601A617B681B682D4A93423C
:1011980053D12D4B9B692C4A43F0807393612A4BA2
:1011A8009B6903F080733B613B69274B5B69264A67
:1011B80043F480235361244B5B6903F48023FB6071
:1011C800FB6801237B610323BB610023FB6107F1FB
:1011D800140319461D4801F017F91D4B1D4A1A60E2
:1011E8001B4B00225A601A4B00229A60184B80222F
:1011F800DA60174B4FF480721A61154B4FF4806216
:101208005A61134B20229A61114B0022DA6110486F
:1012180000F063FD0346002B01D0FFF781FF7B68D8
:101228000B4A5A610A4A7B685362002200213D201A
:1012380000F01DFD3D2000F036FD00BF2837BD46FB
:1012480080BD00BF0060014000100240000400485B
:101258000C0300203004024080B400AFFEE780B4E5
:1012680000AFFEE780B400AFFEE780B400AFFEE752
:1012780080B400AFFEE780B400AF00BFBD465DF8A4
:10128800047B704780B400AF00BFBD465DF8047BA7
:10129800704780B400AF00BFBD465DF8047B70475F
:1012A80080B500AF00F0C6FB00BF80BD80B500AFC1
:1012B800024800F0B8FD00BF80BD00BF0C0300204D
:1012C80080B500AF024804F019FA00BF80BD00BF26
:1012D8006003002080B500AF024801F013FB00BF97
:1012E80080BD00BFDC08002080B586B000AF786004
:1012F800144A154BD31A7B617B693B61134B1B68FE
:10130800002B02D1114B124A1A60104B1A687B68E5
:1013180013443A699A4207D208F05AFB02460C2352
:1013280013604FF0FF3309E0084B1B68FB60074B65
:101338001A687B681344054A1360FB681846183717
:10134800BD4680BD00800020000400001C02002073
:10135800D00B002080B400AF064BD3F88830054A84
:1013680043F47003C2F8883000BFBD465DF8047BC3
:10137800704700BF00ED00E080B500AF194B0122B7
:101388001A70184B01225A70164B00229A70154B8E
:101398000322DA70144B00221A70144B00221A70C0
:1013A800012212491248FFF78BFB104B1B78CC2BFC
:1013B80005D134220F491048FFF782FB01E0FFF7FF
:1013C800C5FB0C4BDB8D9BB24FF400620121184624
:1013D80000F046FA03469AB2064BDA85FFF7A0FBFF
:1013E80000BF80BD5C03002050030020EC030020F8
:1013F80000F00208C802002000F8020880B582B098
:1014080000AF00237B607B685A1C7A60194A41212F
:10141800D1547B685A1C7A60164A1921D1547B68CA
:101428005A1C7A60134AFF21D1547B685A1C7A608F
:10143800114A11780F4AD1547B685A1C7A600E4AB7
:1014480051780C4AD1547B685A1C7A600A4A9178C0
:10145800084AD1547B685A1C7A60074AD178054AF1
:10146800D15440220349054806F01CFD00BF083747
:10147800BD4680BDAC0300205C030020180400209A
:1014880080B582B000AF00237B607B685A1C7A600D
:101498001F4A4121D1547B685A1C7A601C4A1E217C
:1014A800D1547B685A1C7A60194AFF21D154194BD0
:1014B8001B8899B27B685A1C7A60C9B2144AD15405
:1014C800144B1B889BB21B0A99B27B685A1C7A6022
:1014D800C9B20F4AD1540F4B5B8899B27B685A1C2A
:1014E8007A60C9B20A4AD1540A4B5B889BB21B0A7C
:1014F80099B27B685A1C7A60C9B2054AD154402215
:101508000349054806F0CEFC00BF0837BD4680BD3C
:10151800AC030020C80200201804002080B584B065
:1015280000AF0023FB60FB685A1CFA60504A412157
:10153800D154FB685A1CFA604D4A1621D154FB68F5
:101548005A1CFA604A4AFF21D15415237B60494B43
:101558001B8899B2FB685A1CFA60C9B2444AD15434
:10156800444B1B889BB21B0A99B2FB685A1CFA6051
:10157800C9B23F4AD1543F4B5B8899B2FB685A1CA9
:10158800FA60C9B23A4AD1543A4B5B889BB21B0AFB
:1015980099B2FB685A1CFA60C9B2354AD154002383
:1015A800BB601CE0334ABB685B0013449B8899B25C
:1015B800FB685A1CFA60C9B22D4AD1542D4ABB683F
:1015C8005B0013449B889BB21B0A99B2FB685A1CA8
:1015D800FA60C9B2264AD154BB680133BB60BA6805
:1015E8007B689A42DEDB234BDB8D99B2FB685A1C81
:1015F800FA60C9B21E4AD1541E4BDB8D9BB21B0A3E
:1016080099B2FB685A1CFA60C9B2194AD154194BED
:101618001B8E99B2FB685A1CFA60C9B2144AD1549D
:10162800144B1B8E9BB21B0A99B2FB685A1CFA60BA
:10163800C9B20F4AD1540F4B5B8E99B2FB685A1C42
:10164800FA60C9B20A4AD1540A4B5B8E9BB21B0A94
:1016580099B2FB685A1CFA60C9B2054AD1544022B3
:101668000349054806F01EFC00BF1037BD4680BD83
:10167800AC030020C80200201804002080B582B006
:1016880000AF00237B607B685A1C7A60174A0121EF
:10169800D154174B19687B685A1C7A60C9B2134A2F
:1016A800D154134B1B6819127B685A1C7A60C9B253
:1016B8000E4AD1540E4B1B6819147B685A1C7A6069
:1016C800C9B20A4AD1540A4B1B68190E7B685A1CC6
:1016D8007A60C9B2054AD15440220449054806F047
:1016E800E1FB00BF0837BD4680BD00BF20020020D7
:1016F800000300201804002080B582B000AF786095
:101708007B681B78142B00D031E07B6803331B788F
:10171800062B13D0062B04DC002B07D0012B09D095
:1017280024E0072B18D0902B1CD01FE0786800F01D
:1017380027F81BE0786800F037F817E00E4B012215
:101748009A700E4B1B8E9AB20C4B1A800B4B5B8E09
:101758009AB20A4B5A8009E0074B00229A7000F0AF
:1017680065F803E0044B00221A7000BF00BF00BFF9
:101778000837BD4680BD00BF50030020C8020020C6
:1017880080B483B000AF7860064B01221A707B6882
:101798001A79044B5A7000BF0C37BD465DF8047BBC
:1017A800704700BF5003002080B584B000AF786058
:1017B8007B680833FB607B6804331B78F92B17D1EF
:1017C800FB68DB8D9AB20E4BDA85FB681B8E9AB2EA
:1017D8000B4B1A86FB685B8E9AB2094B5A8600F04F
:1017E80025F8074BDB8D9BB21846FFF723FA02E07A
:1017F800F86800F007F800BF1037BD4680BD00BF8D
:10180800C802002080B582B000AF78607B680433DE
:101818002A221946044808F00DF900F007F800BF1D
:101828000837BD4680BD00BFCC02002080B500AFA0
:10183800074BCC221A70012205490648FFF7E0F849
:10184800342205490548FFF7DBF800BF80BD00BF1B
:10185800EC03002000F00208C802002000F802088B
:1018680080B485B000AFF860B9607A60BA687B6808
:101878009A420DDAFA687B689A4201DD7B6814E0C7
:10188800FA68BB689A4201DABB680EE0FB680CE0B4
:10189800FA68BB689A4201DDBB6806E0FA687B68B3
:1018A8009A4201DA7B6800E0FB6818461437BD46A7
:1018B8005DF8047B7047B0B584B000AFF860B960DC
:1018C8007A603B607A68BB689A4201D1BB683DE0A8
:1018D800FA68BB68D31A1846FEF7C4FD04460D46DD
:1018E8003A6A3B68D31A1846FEF7BCFD02460B4617
:1018F80020462946FEF720FE03460C4625461C4690
:101908007A68BB68D31A1846FEF7ACFD02460B4648
:1019180020462946FEF73AFF03460C4625461C4654
:101928003868FEF79FFD02460B4620462946FEF71B
:101938004DFC03460C4618462146FFF70FF80346B0
:101948003A6A39681846FFF78BFF0346184610377E
:10195800BD46B0BDDFF834D00D480E490E4A00230D
:1019680002E0D458C4500433C4188C42F9D30B4A4B
:101978000B4C002301E013600432A242FBD3FFF7B3
:10198800E9FC08F02BF8FFF727FAFEE700800020B3
:1019980000000020EC010020949C0008F0010020C9
:1019A800CC0B0020FEE7000080B500AF084B1B6899
:1019B800074A43F010031360032000F04DF900209C
:1019C80000F008F8FFF7B0FB0023184680BD00BF01
:1019D8000020024080B582B000AF7860124B1A68D0
:1019E800124B1B7819464FF47A73B3FBF1F3B2FB31
:1019F800F3F3184600F065F90346002B01D00123E4
:101A08000EE07B680F2B0AD8002279684FF0FF3070
:101A180000F02DF9064A7B681360002300E00123DB
:101A280018460837BD4680BD000000200800002089
:101A38000400002080B400AF064B1B781A46064B02
:101A48001B681344044A136000BFBD465DF8047B5D
:101A5800704700BF08000020F003002080B400AFEA
:101A6800034B1B681846BD465DF8047B704700BFF2
:101A7800F003002080B584B000AF7860FFF7EEFF78
:101A8800B8607B68FB60FB68B3F1FF3F05D0094B8A
:101A98001B781A46FB681344FB6000BFFFF7DEFFA4
:101AA8000246BB68D31AFA689A42F7D800BF1037C3
:101AB800BD4680BD0800002080B485B000AF7860C6
:101AC8007B6803F00703FB600C4BDB68BB60BA68FC
:101AD8004FF6FF031340BB60FB681A02BB68134351
:101AE80043F0BF6343F40033BB60044ABB68D36070
:101AF80000BF1437BD465DF8047B704700ED00E079
:101B080080B400AF044BDB681B0A03F007031846D8
:101B1800BD465DF8047B704700ED00E080B483B0FB
:101B280000AF0346FB7197F90730002B0BDBFB79FD
:101B380003F01F02074997F907305B09012000FAF3
:101B480002F241F8232000BF0C37BD465DF8047B44
:101B5800704700BF00E100E080B483B000AF0346E7
:101B68003960FB7197F90730002B0ADB3B68DAB262
:101B78000C4997F907301201D2B20B4483F80023BD
:101B88000AE03B68DAB20849FB7903F00F03043B2B
:101B98001201D2B20B441A7600BF0C37BD465DF86D
:101BA800047B704700E100E000ED00E080B489B0FC
:101BB80000AFF860B9607A60FB6803F00703FB6167
:101BC800FB69C3F10703042B28BF0423BB61FB692E
:101BD8000433062B02D9FB69033B00E000237B6139
:101BE8004FF0FF32BB6902FA03F3DA43BB681A40CD
:101BF8007B699A404FF0FF317B6901FA03F3D943BF
:101C08007B680B40134318462437BD465DF8047BB8
:101C18007047000080B582B000AF78607B68013BF8
:101C2800B3F1807F01D301230FE00A4A7B68013BAF
:101C380053600F214FF0FF30FFF78EFF054B002256
:101C48009A60044B07221A60002318460837BD46DD
:101C580080BD00BF10E000E080B582B000AF7860C2
:101C68007868FFF729FF00BF0837BD4680BD80B5FB
:101C780086B000AF0346B9607A60FB7300237B61CE
:101C8800FFF73EFF78617A68B9687869FFF78EFFD9
:101C9800024697F90F3011461846FFF75DFF00BF5F
:101CA8001837BD4680BD80B582B000AF0346FB71D2
:101CB80097F907301846FFF731FF00BF0837BD46D0
:101CC80080BD80B582B000AF78607868FFF7A2FF6A
:101CD800034618460837BD4680BD80B584B000AFBE
:101CE80078600023FB607B68002B01D1012337E07B
:101CF8007B68022283F821207B681B681B68FB60D5
:101D0800FB6823F47F5323F03003FB607B685A6839
:101D18007B689B681A437B68DB681A437B681B698E
:101D28001A437B685B691A437B689B691A437B6823
:101D3800DB691343FA681343FB607B681B68FA6826
:101D48001A60786800F040F97B6800229A637B6823
:101D5800012283F821207B68002283F820200023B9
:101D680018461037BD4680BD80B586B000AFF86014
:101D7800B9607A603B600023FB75FB6893F82030FC
:101D8800012B01D102234AE0FB68012283F82020BD
:101D9800FB6893F82130012B3AD1FB68022283F8C3
:101DA8002120FB6800229A63FB681B681A68FB689D
:101DB8001B6822F001021A603B687A68B968F86803
:101DC80000F0D4F8FB68DB6A002B08D0FB681B68BE
:101DD8001A68FB681B6842F00E021A600FE0FB6885
:101DE8001B681A68FB681B6842F00A021A60FB68E5
:101DF8001B681A68FB681B6822F004021A60FB68FB
:101E08001B681A68FB681B6842F001021A6005E04B
:101E1800FB68002283F820200223FB75FB7D18460F
:101E28001837BD4680BD80B584B000AF78607B6848
:101E3800DB6B1B68FB607B681B681B68BB607B688F
:101E48001B6C04229A40FB681340002B24D0BB680B
:101E580003F00403002B1FD07B681B681B6803F08A
:101E68002003002B07D17B681B681A687B681B68F6
:101E780022F004021A607B681A6C7B68DB6B042111
:101E880001FA02F25A607B68DB6A002B6AD07B6831
:101E9800DB6A7868984765E07B681B6C02229A4089
:101EA800FB681340002B2CD0BB6803F00203002B07
:101EB80027D07B681B681B6803F02003002B0BD11D
:101EC8007B681B681A687B681B6822F00A021A6024
:101ED8007B68012283F821207B681A6C7B68DB6BA6
:101EE800022101FA02F25A607B68002283F820205E
:101EF8007B689B6A002B35D07B689B6A786898471B
:101F080030E07B681B6C08229A40FB681340002B6A
:101F180028D0BB6803F00803002B23D07B681B681C
:101F28001A687B681B6822F00E021A607B681A6CBC
:101F38007B68DB6B012101FA02F25A607B6801229F
:101F48009A637B68012283F821207B68002283F84A
:101F580020207B681B6B002B04D07B681B6B786888
:101F68009847FFE700BF1037BD4680BD80B485B0F5
:101F780000AFF860B9607A603B60FB681A6CFB6878
:101F8800DB6B012101FA02F25A60FB681B683A68B0
:101F98005A60FB685B68102B08D1FB681B687A687D
:101FA8009A60FB681B68BA68DA6007E0FB681B6820
:101FB800BA689A60FB681B687A68DA6000BF1437F1
:101FC800BD465DF8047B704780B483B000AF78608D
:101FD8007B681B681A46144B9A420FD87B681B68AB
:101FE8001A46124B1344124AA2FB03231B099A00F8
:101FF8007B681A647B680F4ADA630EE07B681B68AB
:102008001A460D4B13440A4AA2FB03231B099A00E4
:102018007B681A647B68094ADA6300BF0C37BD46DF
:102028005DF8047B704700BF07040240F8FFFDBF5E
:10203800CDCCCCCC00000240F8FBFDBF0004024030
:10204800F0B587B000AFF860B960C7E90023012395
:10205800FB750023BB7500237B752F4B1B7E012B63
:1020680001D1022354E02C4B01221A764CF2503055
:1020780000F0B4F80346FB75FB7D002B44D1FB68E8
:10208800012B02D101237B7507E0FB68022B02D1EB
:1020980002237B7501E004237B750023BB752DE0CB
:1020A800BB7D5A00BB6802EB030CBB7D1901D7E965
:1020B8000023C1F12006A1F1200022FA01F403FA5D
:1020C80006F6344323FA00F0044323FA01F5A3B2D9
:1020D8001946604600F066F84CF2503000F07EF881
:1020E8000346FB750D4B1B690C4A23F00103136172
:1020F800FB7D002B07D1BB7D0133BB75BA7D7B7D92
:102108009A42CDD300E000BF034B00221A76FB7D34
:1021180018461C37BD46F0BDF803002000200240D9
:1021280080B483B000AF0023FB710D4B1B6903F033
:102138008003002B0DD00A4B0A4A5A60084B0A4A02
:102148005A60074B1B6903F08003002B01D0012361
:10215800FB71FB7918460C37BD465DF8047B704768
:102168000020024023016745AB89EFCD80B400AF62
:10217800054B1B69044A43F080031361002318468A
:10218800BD465DF8047B70470020024080B400AF74
:10219800034BDB691846BD465DF8047B704700BFFA
:1021A800F803002080B483B000AF78600B467B80D2
:1021B800084B0022DA61084B1B69074A43F0010308
:1021C80013617B687A881A8000BF0C37BD465DF8BA
:1021D800047B7047F80300200020024080B584B0DB
:1021E80000AF7860FFF73AFCF86010E07B68B3F165
:1021F800FF3F0CD07B68002B07D0FFF72FFC02466F
:10220800FB68D31A7A689A4201D203231FE0124B63
:10221800DB6803F00103012BE8D00F4BDB6803F008
:102228002003202B02D10C4B2022DA600A4BDB68FA
:1022380003F01003102B05D0074BDB6803F00403F1
:10224800042B03D100F00AF8012300E0002318460C
:102258001037BD4680BD00BF0020024080B483B067
:1022680000AF00237B60144BDB6803F01003102BD6
:1022780009D1124BDB6943F00203104AD3617B6832
:1022880043F010037B600C4BDB6803F00403042B62
:1022980009D10A4BDB6943F00103084AD3617B6823
:1022A80043F004037B60044A7B68D36000BF0C37AB
:1022B800BD465DF8047B704700200240F80300200B
:1022C80080B584B000AF786039600123FB730023C8
:1022D800BB602E4B1B7E012B01D1022352E02B4BFE
:1022E80001221A767B681B68012B15D14CF25030FD
:1022F800FFF774FF0346002B40D100F04BF84CF277
:102308005030FFF76BFF0346FB73214B1B69204AD4
:1023180023F00403136131E04CF25030FFF75EFF05
:102328000346002B2AD13B684FF0FF321A607B68C6
:102338005B68BB6019E0B86800F046F84CF25030B2
:10234800FFF74CFF0346FB73114B1B69104A23F040
:1023580002031361FB7B002B03D03B68BA681A6049
:102368000CE0BB6803F50063BB607B689B68DA021E
:102378007B685B681344BA689A42DCD3034B00223B
:102388001A76FB7B18461037BD4680BDF80300203F
:102398000020024080B400AF094B0022DA61094BEB
:1023A8001B69084A43F004031361064B1B69054A7D
:1023B80043F04003136100BFBD465DF8047B7047DE
:1023C800F80300200020024080B483B000AF78609A
:1023D8000B4B0022DA610B4B1B690A4A43F00203DC
:1023E8001361084A7B685361064B1B69054A43F031
:1023F8004003136100BF0C37BD465DF8047B70478E
:10240800F80300200020024080B487B000AF786055
:10241800396000237B6154E13B681A6801217B69BC
:1024280001FA03F31340FB60FB68002B00F04681C0
:102438003B685B68012B0BD03B685B68022B07D0BD
:102448003B685B68112B03D03B685B68122B30D16B
:102458007B689B683B617B695B00032202FA03F39C
:10246800DB433A6913403B613B68DA687B695B0090
:1024780002FA03F33A6913433B617B683A699A604D
:102488007B685B683B6101227B6902FA03F3DB43EB
:102498003A6913403B613B685B681B0903F0010222
:1024A8007B6902FA03F33A6913433B617B683A6933
:1024B8005A607B68DB683B617B695B00032202FA38
:1024C80003F3DB433A6913403B613B689A687B69D5
:1024D8005B0002FA03F33A6913433B617B683A698C
:1024E800DA603B685B68022B03D03B685B68122BA1
:1024F80023D17B69DA087B68083253F822303B61C4
:102508007B6903F007039B000F2202FA03F3DB4306
:102518003A6913403B613B681A697B6903F007031A
:102528009B0002FA03F33A6913433B617B69DA08BB
:102538007B680832396943F822107B681B683B6165
:102548007B695B00032202FA03F3DB433A69134019
:102558003B613B685B6803F003027B695B0002FA3E
:1025680003F33A6913433B617B683A691A603B6835
:102578005B6803F08053002B00F0A080584B9B69E8
:10258800574A43F001039361554B9B6903F00103DC
:10259800BB60BB68534A7B699B08023352F82330FF
:1025A8003B617B6903F003039B000F2202FA03F3EC
:1025B800DB433A6913403B617B68B3F1904F19D014
:1025C8007B68494A934213D07B68484A93420DD0AE
:1025D8007B68474A934207D07B68464A934201D1B9
:1025E800042308E0052306E0032304E0022302E0B5
:1025F800012300E000237A6902F00302920093406D
:102608003A6913433B6137497B699B0802333A694E
:1026180041F82320384B1B683B61FB68DB433A6970
:1026280013403B613B685B6803F48033002B03D0A5
:102638003A69FB6813433B612F4A3B6913602E4B91
:102648005B683B61FB68DB433A6913403B613B686D
:102658005B6803F40033002B03D03A69FB6813432B
:102668003B61254A3B695360234B9B683B61FB6890
:10267800DB433A6913403B613B685B6803F48013B2
:10268800002B03D03A69FB6813433B611A4A3B6944
:102698009360194BDB683B61FB68DB433A69134085
:1026A8003B613B685B6803F40013002B03D03A6975
:1026B800FB6813433B61104A3B69D3607B69013374
:1026C8007B613B681A687B6922FA03F3002B7FF46D
:1026D800A3AE00BF1C37BD465DF8047B704700BF42
:1026E80000100240000001400004004800080048B3
:1026F800000C00480010004800040140F0B58BB001
:1027080006AF78607B68002B01D10123D0E07B689D
:1027180093F8A932DBB2002B06D17B68002283F83C
:10272800A822786806F094FE7B68032283F8A92221
:102738007B681B68184603F0CBF90023FB734CE059
:10274800FB7B79685A1C13469B001344DB000B443F
:10275800013301221A70FB7B79685A1C13469B00CF
:102768001344DB000B44FA7B1A70FA7BFB7B98B2AC
:10277800796813469B001344DB000B44363302464A
:102788001A80FB7B79685A1C13469B001344DB00B4
:102798000B44033300221A70FA7B796813469B00B6
:1027A8001344DB000B44383300221A60FA7B796843
:1027B80013469B001344DB000B443C3300221A6091
:1027C800FA7B796813469B001344DB000B444033C3
:1027D80000221A60FB7B0133FB73FA7B7B685B6822
:1027E8009A42ADD30023FB7344E0FA7B7968134621
:1027F8009B001344DB000B4403F2691300221A7098
:10280800FA7B796813469B001344DB000B4403F5FD
:10281800B473FA7B1A70FA7B796813469B001344E9
:10282800DB000B4403F26B1300221A70FA7B796801
:1028380013469B001344DB000B4403F5BC730022D2
:102848001A60FA7B796813469B001344DB000B443B
:1028580003F5BE7300221A60FA7B796813469B0061
:102868001344DB000B4403F5C07300221A60FB7BA2
:102878000133FB73FA7B7B685B689A42B5D37B684C
:102888001B683B607E686D4606F110040FCC0FC5CF
:1028980023682B60331D0ECB386803F034F97B684E
:1028A800002283F824207B68012283F8A9220023D0
:1028B80018461437BD46F0BD80B582B000AF7860C9
:1028C8007B6893F8A832012B01D1022316E07B68BC
:1028D800012283F8A8227B681B68184603F0E1F8F8
:1028E8000121786807F034F87B681B68184605F002
:1028F800B9F87B68002283F8A82200231846083715
:10290800BD4680BD80B582B000AF78607B681B682B
:10291800184605F0B2F8034603F40043B3F5004F38
:1029280002D1786800F0DEFA7B681B68184605F06B
:10293800A4F8034603F48063B3F5806F12D17B6873
:102948001B68B3F844309AB27B681B6822F4806233
:1029580092B2A3F84420786806F01BFE002178683C
:1029680000F0C7F87B681B68184605F086F8034630
:1029780003F48043B3F5804F0BD17B681B68B3F831
:1029880044309AB27B681B6822F4804292B2A3F862
:1029980044207B681B68184605F06FF8034603F46B
:1029A8000053B3F5005F0BD17B681B68B3F8443064
:1029B8009AB27B681B6822F4005292B2A3F84420B2
:1029C8007B681B68184605F058F8034603F48053E3
:1029D800B3F5805F26D17B681B68B3F840309AB2A4
:1029E8007B681B6822F0040292B2A3F840207B683F
:1029F8001B68B3F840309AB27B681B6822F0080263
:102A080092B2A3F84020786806F0FCFD7B681B684A
:102A1800B3F844309AB27B681B6822F4805292B2B1
:102A2800A3F844207B681B68184605F026F803467F
:102A380003F40063B3F5006F26D17B681B68B3F815
:102A480040309AB27B681B6842F0080292B2A3F841
:102A580040207B681B68B3F844309AB27B681B68D7
:102A680022F4006292B2A3F844207B681B68B3F892
:102A780040309AB27B681B6842F0040292B2A3F815
:102A88004020786806F0A4FD7B681B68184604F0AF
:102A9800F4FF034603F40073B3F5007F0ED17B689F
:102AA8001B68B3F844309AB27B681B6822F4007242
:102AB80092B2A3F84420786806F05DFD7B681B6835
:102AC800184604F0DAFF034603F48073B3F5807FF9
:102AD8000BD17B681B68B3F844309AB27B681B68DB
:102AE80022F4807292B2A3F8442000BF0837BD4692
:102AF80080BD80B582B000AF78600B46FB707B6804
:102B080093F8A832012B01D1022313E07B6801223C
:102B180083F8A8227B68FA7883F824207B681B68EE
:102B2800FA781146184604F089FF7B68002283F87A
:102B3800A822002318460837BD4680BD80B584B05A
:102B480000AF7860084611461A460346FB700B46EC
:102B58003B801346BB700023FB7297F90330002BB0
:102B68000EDAFB7803F007035A1C13469B00134444
:102B7800DB007A681344FB60FB6801225A700EE0A0
:102B8800FB7803F0070213469B001344DB0003F5B0
:102B9800B4737A681344FB60FB6800225A70FB78B0
:102BA80003F00703DAB2FB681A703A88FB681A6107
:102BB800FB68BA78DA70FB685B78002B04D0FB6896
:102BC8001B789AB2FB68DA81BB78022B02D1FB68CA
:102BD80000221A717B6893F8A832012B01D10223D5
:102BE8000EE07B68012283F8A8227B681B68F968DD
:102BF800184602F0A9FF7B68002283F8A822FB7A16
:102C080018461037BD4680BD80B584B000AF7860E7
:102C18000B46FB7097F90330002B0EDAFB7803F0B4
:102C280007035A1C13469B001344DB007A681344BD
:102C3800FB60FB6801225A700EE0FB7803F0070284
:102C480013469B001344DB0003F5B4737A681344FE
:102C5800FB60FB6800225A70FB7803F00703DAB2C6
:102C6800FB681A707B6893F8A832012B01D1022304
:102C78000EE07B68012283F8A8227B681B68F9684C
:102C8800184603F0CFFA7B68002283F8A8220023B5
:102C980018461037BD4680BD80B586B000AFF860D5
:102CA8007A603B600B46FB72FB7A03F0070213461F
:102CB8009B001344DB0003F5B473FA6813447B618B
:102CC8007B697A685A617B693A689A617B690022F4
:102CD800DA617B6900225A70FB7A03F00703DAB2E3
:102CE8007B691A70FB7A03F00703002B06D1FB6897
:102CF8001B687969184603F082FC05E0FB681B68CD
:102D08007969184603F07BFC002318461837BD463E
:102D180080BD80B586B000AFF8607A603B600B4636
:102D2800FB72FB7A03F007035A1C13469B001344FB
:102D3800DB00FA6813447B617B697A685A617B69B6
:102D48003A689A617B69012283F824207B693A6892
:102D58001A627B690022DA617B6901225A70FB7A68
:102D680003F00703DAB27B691A70FB7A03F00703F2
:102D7800002B06D1FB681B687969184603F03FFCF5
:102D880005E0FB681B687969184603F038FC0023E6
:102D980018461837BD4680BD80B584B000AF78604E
:102DA8000B46FB70FB7803F007027B685B689A426E
:102DB80001D901233EE097F90330002B0EDAFB78A6
:102DC80003F007035A1C13469B001344DB007A6880
:102DD8001344FB60FB6801225A700CE0FA78134632
:102DE8009B001344DB0003F5B4737A681344FB605B
:102DF800FB6800225A70FB6801229A70FB7803F086
:102E08000703DAB2FB681A707B6893F8A832012BC3
:102E180001D102230EE07B68012283F8A8227B6897
:102E28001B68F968184604F00AFD7B68002283F8DD
:102E3800A822002318461037BD4680BD80B584B04F
:102E480000AF78600B46FB70FB7803F00F027B68DD
:102E58005B689A4201D9012340E097F90330002BBF
:102E68000EDAFB7803F007035A1C13469B00134441
:102E7800DB007A681344FB60FB6801225A700EE09D
:102E8800FB7803F0070213469B001344DB0003F5AD
:102E9800B4737A681344FB60FB6800225A70FB68BD
:102EA80000229A70FB7803F00703DAB2FB681A7005
:102EB8007B6893F8A832012B01D102230EE07B68CE
:102EC800012283F8A8227B681B68F968184604F079
:102ED80007FD7B68002283F8A822002318461037D4
:102EE800BD4680BD80B58EB000AF7860DFE27B68FC
:102EF8001B68B3F84430FB85FB8DDBB203F00F038E
:102F080087F82D3097F82D30002B40F05881FB8D35
:102F180003F01003002B52D17B681B681B889BB2FF
:102F280023F4E14323F07003FB817B681A68FB8973
:102F38006FEA43436FEA53439BB213807B6828339D
:102F48007B627B681B68B3F850309BB21A467B6A79
:102F58001B78DB00134402335B007A681268134461
:102F680003F580631B88C3F309027B6ADA617B6A15
:102F78005A697B6ADB691A447B6A5A61002178685E
:102F880006F0DFFA7B6893F82430DBB2002B00F000
:102F98008E827B6A9B69002B40F089827B6893F85C
:102FA8002430DBB263F07F03DAB27B681B6892B22D
:102FB800A3F84C207B68002283F8242077E27B6802
:102FC80003F5B4737B627B681B681B887B857B8DEC
:102FD80003F40063002B34D07B681B68B3F85030CF
:102FE8009BB21A467B6A1B78DB00134406335B00EE
:102FF8007A681268134403F580631B88C3F30902D7
:103008007B6ADA617B6818687B6803F52C717B6AD8
:10301800DA887B6ADB699BB204F084FD7B681B68F5
:103028001B889AB240F68F7313403B827B681B68FB
:103038003A8A42F0800292B21A80786806F054FA0E
:1030480035E2B7F92A30002B80F231827B681B68A1
:103058001B889AB240F68F731340BB837B681B684A
:10306800BA8B42F0800292B21A807B681B68B3F870
:1030780050309BB21A467B6A1B78DB001344063338
:103088005B007A681268134403F580631B88C3F3F6
:1030980009027B6ADA617B6ADB69002B19D07B6ADB
:1030A8005B69002B15D07B6818687B6A59697B6A55
:1030B800DA887B6ADB699BB204F034FD7B6A5A6963
:1030C8007B6ADB691A447B6A5A610021786806F0DA
:1030D8001DFA7B681B68BB617B681B68B3F85030BE
:1030E8009BB21A46BB691344BB61BB6903F20C432C
:1030F8007B617B6A1B69002B12D17B691B889BB2A1
:1031080023F4F8439AB27B691A807B691B889BB2C7
:103118006FEA43436FEA53439AB27B691A802FE000
:103128007B6A1B693E2B13D87B6A1B695B083B6370
:103138007B6A1B6903F00103002B02D03B6B013350
:103148003B633B6B9BB29B029AB27B691A8017E088
:103158007B6A1B695B093B637B6A1B6903F01F037E
:10316800002B02D13B6B013B3B633B6B9BB29B0249
:103178009BB26FEA43436FEA53439AB27B691A8062
:103188007B681B681B889BB223F4804323F0700381
:103198007B827B8A83F480537B827B8A83F400530F
:1031A8007B827B681A687B8A43F07F4343F47F0302
:1031B80043F4004343F080039BB2138077E17B68BC
:1031C8001B681A4697F82D309B0013441B887B8593
:1031D800B7F92A30002B80F2EA807B681B681A4610
:1031E80097F82D309B0013441B889AB240F68F73D2
:1031F80013403B857B681B681A4697F82D309B0067
:1032080013443A8D42F0800292B21A8097F82D202A
:1032180013469B001344DB0003F5B4737A68134428
:103228007B627B6A1B7B002B22D17B681B68B3F80F
:1032380050309BB21A467B6A1B78DB001344063376
:103248005B007A681268134403F580631B88C3F334
:103258000903FB86FB8E002B00F087807B681868CB
:103268007B6A59697B6ADA88FB8E04F05BFC7CE038
:103278007B6ADB78022B08D17B8D1A46796A7868DD
:1032880000F023F90346FB866FE07B681B681A464B
:103298007B6A1B789B0013441B889BB223F4E04392
:1032A80023F070037B847B681B681A467B6A1B7853
:1032B8009B001A447B8C43F07F4343F47F0343F421
:1032C800004343F0C0039BB213807B681B681A4617
:1032D8007B6A1B789B0013441B889BB203F48043D2
:1032E800002B21D07B681B68B3F850309BB21A467C
:1032F8007B6A1B78DB00134402335B007A68126830
:10330800134403F580631B88C3F30903FB86FB8E14
:10331800002B2AD07B6818687B6A59697B6A1A89EE
:10332800FB8E04F0FFFB20E07B681B68B3F850308D
:103338009BB21A467B6A1B78DB00134406335B009A
:103348007A681268134403F580631B88C3F3090382
:10335800FB86FB8E002B08D07B6818687B6A59694E
:103368007B6A5A89FB8E04F0DDFB7B6ADA69FB8E87
:103378001A447B6ADA617B6A5A69FB8E1A447B6A53
:103388005A617B6A9B69002B04D0FA8E7B6A1B69A1
:103398009A4206D27B6A1B781946786806F0B6F816
:1033A80005E07B681B68796A184603F028F97B8D6D
:1033B80003F08003002B7AD097F82D305A1C13465F
:1033C8009B001344DB007A6813447B627B681B68AC
:1033D8001A4697F82D309B0013441B889BB223F4A0
:1033E800E14323F070033B847B681B681A4697F817
:1033F8002D309B001A443B8C6FEA43436FEA5343DA
:103408009BB213807B6ADB78022B08D17B6ADB785E
:10341800022B46D17B8D03F48073002B41D17B684E
:103428001B68B3F850309BB21A467B6A1B78DB00E6
:10343800134402335B007A681268134403F580630F
:103448001B88C3F30903FB837B6A9A69FB8B9A4247
:1034580006D97B6A9A69FB8BD21A7B6A9A6102E069
:103468007B6A00229A617B6A9B69002B06D17B6A82
:103478001B781946786806F064F818E07B6A5A6980
:10348800FB8B1A447B6A5A617B6ADA69FB8B1A44A4
:103498007B6ADA617B681B68796A184603F0AFF8C3
:1034A80005E07B8D1A46796A786800F01BF97B681D
:1034B8001B68B3F844309BB21BB2002BFFF617AD64
:1034C800002318463837BD4680BD80B588B000AFA8
:1034D800F860B9601346FB80FB8803F48043002B37
:1034E8007ED0FB681B68B3F850309BB21A46BB68A5
:1034F8001B78DB00134402335B00FA68126813443C
:1035080003F580631B88C3F309037B83BB689A694F
:103518007B8B9A4206D3BB689A697B8BD21ABB68AD
:103528009A6102E0BB6800229A61BB689B69002B24
:1035380023D1FB681B681A46BB681B789B001344A1
:103548001B889BB223F4804323F070033B833B8B9F
:1035580083F400533B83FB681B681A46BB681B78DF
:103568009B001A443B8B43F07F4343F47F0343F4AF
:10357800004343F080039BB21380FB8803F04003B1
:10358800002B1FD0FB681B681A46BB681B789B0082
:1035980013441B889BB223F4E04323F07003FB829F
:1035A800FB681B681A46BB681B789B001A44FB8A99
:1035B80043F07F4343F47F0343F4004343F0C003E5
:1035C8009BB213807B8B002B00F08780FB68186808
:1035D800BB685969BB681A897B8B04F0A3FA7CE045
:1035E800FB681B68B3F850309BB21A46BB681B785F
:1035F800DB00134406335B00FA681268134403F5D2
:1036080080631B88C3F309037B83BB689A697B8B40
:103618009A4206D3BB689A697B8BD21ABB689A61B7
:1036280002E0BB6800229A61BB689B69002B23D12A
:10363800FB681B681A46BB681B789B0013441B88F1
:103648009BB223F4804323F07003FB83FB8B83F44A
:103658000053FB83FB681B681A46BB681B789B00FA
:103668001A44FB8B43F07F4343F47F0343F4004346
:1036780043F080039BB21380FB8803F04003002BC8
:103688001FD1FB681B681A46BB681B789B00134454
:103698001B889BB223F4E04323F07003BB83FB68D1
:1036A8001B681A46BB681B789B001A44BB8B43F007
:1036B8007F4343F47F0343F4004343F0C0039BB2CA
:1036C80013807B8B002B08D0FB681868BB6859698E
:1036D800BB685A897B8B04F025FA7B8B1846203708
:1036E800BD4680BD80B592B000AFF860B9601346A2
:1036F800FB80FB8803F04003002B00F03281FB685D
:103708001B68B3F850309BB21A46BB681B78DB00C5
:10371800134402335B00FA681268134403F58063AC
:103728001B88C3F30903FB85BB689A69FB8D9A4222
:1037380006D9BB689A69FB8DD21ABB689A6102E008
:10374800BB6800229A61BB689B69002B2CD1BB68BF
:103758001B781946F86805F0F4FEFB8803F48043EB
:10376800002B00F02F82FB681B681A46BB681B7889
:103778009B0013441B889BB223F4E04323F070039F
:103788007B82FB681B681A46BB681B789B001A443F
:103798007B8A43F07F4343F47F0343F4404343F081
:1037A80080039BB213800DE2FB8803F48043002B57
:1037B8001FD0FB681B681A46BB681B789B00134424
:1037C8001B889BB223F4E04323F07003BB84FB689F
:1037D8001B681A46BB681B789B001A44BB8C43F0D5
:1037E8007F4343F47F0343F4404343F080039BB299
:1037F8001380BB6893F82430012B40F0E381BB6849
:103808005A69FB8D1A44BB685A61BB68DA69FB8D3B
:103818001A44BB68DA61BB681A6ABB681B699A42BA
:1038280009D3BB681B69BB63BB681A6ABB6BD21A36
:10383800BB681A6214E0BB681B6A002B06D1FB8DBB
:10384800BB63BB68002283F8242009E0BB68002220
:1038580083F82420BB681B6ABB63BB6800221A621A
:10386800BB685B78002B55D1FB681B68BB61FB68A4
:103878001B68B3F850309BB21A46BB691344BB614E
:10388800BB681B781A01BB69134403F204437B61CC
:10389800BB6B002B12D17B691B889BB223F4F843C6
:1038A8009AB27B691A807B691B889BB26FEA434393
:1038B8006FEA53439AB27B691A8047E0BB6B3E2B91
:1038C80011D8BB6B5B08BB62BB6B03F00103002B19
:1038D80002D0BB6A0133BB62BB6A9BB29B029AB23D
:1038E8007B691A8032E0BB6B5B09BB62BB6B03F080
:1038F8001F03002B02D1BB6A013BBB62BB6A9BB2B0
:103908009B029BB26FEA43436FEA53439AB27B69C7
:103918001A801BE0BB685B78012B17D1FB681B681A
:103928003B62FB681B68B3F850309BB21A463B6A8F
:1039380013443B62BB681B781A013B6A134403F2C9
:103948000443FB61BB6B9AB2FB691A80FB68186879
:10395800BB685969BB681A89BB6B9BB204F09DF8B8
:1039680030E1FB681B68B3F850309BB21A46BB685D
:103978001B78DB00134406335B00FA6812681344B3
:1039880003F580631B88C3F30903FB85BB689A6949
:10399800FB8D9A4206D3BB689A69FB8DD21ABB6825
:1039A8009A6102E0BB6800229A61BB689B69002BA0
:1039B8002CD1BB681B781946F86805F0C2FDFB8856
:1039C80003F48043002B40F0FD80FB681B681A4617
:1039D800BB681B789B0013441B889BB223F4E0430D
:1039E80023F07003FB84FB681B681A46BB681B78CE
:1039F8009B001A44FB8C43F07F4343F47F0343F45A
:103A0800404343F080039BB21380DBE0FB8803F460
:103A18008043002B1FD1FB681B681A46BB681B78C4
:103A28009B0013441B889BB223F4E04323F07003EC
:103A3800BB85FB681B681A46BB681B789B001A4449
:103A4800BB8D43F07F4343F47F0343F4404343F08B
:103A580080039BB21380BB6893F82430012B40F09D
:103A6800B180BB685A69FB8D1A44BB685A61BB6850
:103A7800DA69FB8D1A44BB68DA61BB681A6ABB68ED
:103A88001B699A4209D3BB681B69BB63BB681A6A86
:103A9800BB6BD21ABB681A6214E0BB681B6A002BA6
:103AA80006D1FB8DBB63BB68002283F8242009E0A4
:103AB800BB681B6ABB63BB6800221A62BB68002232
:103AC80083F82420FB681B687B63BB685B78002B4A
:103AD80055D1FB681B687B64FB681B68B3F85030E2
:103AE8009BB21A467B6C13447B64BB681B781A0133
:103AF8007B6C134403F20C433B64BB6B002B12D169
:103B08003B6C1B889BB223F4F8439AB23B6C1A8037
:103B18003B6C1B889BB26FEA43436FEA53439AB2EC
:103B28003B6C1A8044E0BB6B3E2B11D8BB6B5B0827
:103B3800FB63BB6B03F00103002B02D0FB6B01336B
:103B4800FB63FB6B9BB29B029AB23B6C1A802FE023
:103B5800BB6B5B09FB63BB6B03F01F03002B02D13C
:103B6800FB6B013BFB63FB6B9BB29B029BB26FEA57
:103B780043436FEA53439AB23B6C1A8018E0BB6820
:103B88005B78012B14D1FB681B68B3F850309BB2EB
:103B98001A467B6B13447B63BB681B781A017B6BEB
:103BA800134403F20C433B63BB6B9AB23B6B1A8022
:103BB800FB681868BB685969BB685A89BB6B9BB2BC
:103BC80003F06BFFFB681B681A46BB681B789B00F9
:103BD80013441B889BB223F4E04323F040033B8249
:103BE8003B8A83F010033B823B8A83F020033B82AD
:103BF800FB681B681A46BB681B789B001A443B8A03
:103C080043F07F4343F47F0343F4004343F08003CE
:103C18009BB21380002318464837BD4680BD80B448
:103C280087B000AFF8607B600B467B8113463B8111
:103C38007B8903F080039BB2002B0BD07B8903F0B8
:103C480007035A1C13469B001344DB00FA6813440D
:103C58007B6109E07A8913469B001344DB0003F576
:103C6800B473FA6813447B613B89002B07D17B69E5
:103C780000221A737B689AB27B69DA800BE07B6951
:103C880001221A737B689AB27B691A817B681B0CC4
:103C98009AB27B695A81002318461C37BD465DF8E5
:103CA800047B704780B485B000AF78600B4BDB694C
:103CB8000A4A43F08053D361084BDB6903F0805311
:103CC800FB60FB68064B1A6805497B6813430B6069
:103CD80000BF1437BD465DF8047B704700100240F2
:103CE8000070004080B5ADF5007D00AF3B1D186049
:103CF8003B1D1B68002B02D1012300F0F4BE3B1DC5
:103D08001B681B6803F00103002B00F06A81B34BAA
:103D18005B6803F00C03042B0CD0B04B5B6803F01A
:103D28000C03082B59D1AD4B5B6803F48033B3F512
:103D3800803F52D14FF40033C7F8F031D7F8F03153
:103D480093FAA3F3C7F8EC31D7F8EC31B3FA83F35D
:103D5800DBB25B09DBB243F00103DBB2012B02D11A
:103D68009E4B1B6815E04FF40033C7F8E831D7F8CD
:103D7800E83193FAA3F3C7F8E4314FF40033C7F8F6
:103D8800E031D7F8E03193FAA3F3C7F8DC31934B6D
:103D98005B6A4FF40032C7F8D821D7F8D82192FAD5
:103DA800A2F2C7F8D421D7F8D421B2FA82F2D2B25B
:103DB80042F02002D2B202F01F02012101FA02F2FF
:103DC8001340002B00F00C813B1D1B685B68002B27
:103DD80040F00681012300F086BE3B1D1B685B682E
:103DE800B3F5803F06D17D4B1B687C4A43F4803392
:103DF800136030E03B1D1B685B68002B0CD1774BD0
:103E08001B68764A23F480331360744B1B68734A2B
:103E180023F4802313601EE03B1D1B685B68B3F529
:103E2800A02F0CD16D4B1B686C4A43F480231360A0
:103E38006A4B1B68694A43F4803313600BE0674B95
:103E48001B68664A23F480331360644B1B68634A1B
:103E580023F480231360614BDB6A23F00F023B1DC0
:103E68001B689B685D491343CB623B1D1B685B68FD
:103E7800002B59D0FDF7F2FDC7F8F8010AE0FDF76D
:103E8800EDFD0246D7F8F831D31A642B02D9032383
:103E980000F029BE4FF40033C7F8D031D7F8D0313D
:103EA80093FAA3F3C7F8CC31D7F8CC31B3FA83F33C
:103EB800DBB25B09DBB243F00103DBB2012B02D1B9
:103EC800464B1B6815E04FF40033C7F8C831D7F8E4
:103ED800C83193FAA3F3C7F8C4314FF40033C7F8D5
:103EE800C031D7F8C03193FAA3F3C7F8BC313B4BC4
:103EF8005B6A4FF40032C7F8B821D7F8B82192FAB4
:103F0800A2F2C7F8B421D7F8B421B2FA82F2D2B239
:103F180042F02002D2B202F01F02012101FA02F29D
:103F28001340002BABD05CE0FDF798FDC7F8F80113
:103F38000AE0FDF793FD0246D7F8F831D31A642B4F
:103F480002D9032300F0CFBD4FF40033C7F8B031D6
:103F5800D7F8B03193FAA3F3C7F8AC31D7F8AC313E
:103F6800B3FA83F3DBB25B09DBB243F00103DBB2E4
:103F7800012B02D1194B1B6815E04FF40033C7F829
:103F8800A831D7F8A83193FAA3F3C7F8A4314FF4AE
:103F98000033C7F8A031D7F8A03193FAA3F3C7F8D4
:103FA8009C310E4B5B6A4FF40032C7F89821D7F862
:103FB800982192FAA2F2C7F89421D7F89421B2FA7C
:103FC80082F2D2B242F02002D2B202F01F020121E4
:103FD80001FA02F21340002BABD102E000100240BC
:103FE80000BF3B1D1B681B6803F00203002B00F099
:103FF8006F81D04B5B6803F00C03002B0BD0CD4BCB
:104008005B6803F00C03082B6CD1CA4B5B6803F4A4
:104018008033002B66D10223C7F89031D7F890314E
:1040280093FAA3F3C7F88C31D7F88C31B3FA83F33A
:10403800DBB25B09DBB243F00103DBB2012B02D137
:10404800BC4B1B6813E00223C7F88831D7F88831C6
:1040580093FAA3F3C7F884310223C7F88031D7F85D
:10406800803193FAA3F3C7F87C31B24B5B6A022222
:10407800C7F87821D7F8782192FAA2F2C7F8742104
:10408800D7F87421B2FA82F2D2B242F02002D2B248
:1040980002F01F02012101FA02F21340002B07D09F
:1040A8003B1D1B681B69012B02D0012300F01BBDBF
:1040B800A04B1B6823F0F8023B1D1B685B69F821C5
:1040C800C7F87011D7F8701191FAA1F1C7F86C11FF
:1040D800D7F86C11B1FA81F1C9B28B4095491343F5
:1040E8000B60F5E03B1D1B681B69002B00F0858009
:1040F8000123C7F86831D7F8683193FAA3F3C7F8F2
:104108006431D7F86431B3FA83F3DBB203F1845333
:1041180003F584139B001A4601231360FDF79EFCE8
:10412800C7F8F8010AE0FDF799FC0246D7F8F8311C
:10413800D31A022B02D9032300F0D5BC0223C7F8F7
:104148006031D7F8603193FAA3F3C7F85C31D7F838
:104158005C31B3FA83F3DBB25B09DBB243F00103F2
:10416800DBB2012B02D1734B1B6813E00223C7F8A3
:104178005831D7F8583193FAA3F3C7F854310223CA
:10418800C7F85031D7F8503193FAA3F3C7F84C3138
:10419800684B5B6A0222C7F84821D7F8482192FA8F
:1041A800A2F2C7F84421D7F84421B2FA82F2D2B277
:1041B80042F02002D2B202F01F02012101FA02F2FB
:1041C8001340002BAFD05B4B1B6823F0F8023B1D5C
:1041D8001B685B69F821C7F84011D7F8401191FABC
:1041E800A1F1C7F83C11D7F83C11B1FA81F1C9B275
:1041F8008B40504913430B606AE00123C7F83831FC
:10420800D7F8383193FAA3F3C7F83431D7F83431F3
:10421800B3FA83F3DBB203F1845303F584139B00F1
:104228001A4600231360FDF719FCC7F8F8010AE0E5
:10423800FDF714FC0246D7F8F831D31A022B02D93D
:10424800032300F050BC0223C7F83031D7F83031CF
:1042580093FAA3F3C7F82C31D7F82C31B3FA83F3C8
:10426800DBB25B09DBB243F00103DBB2012B02D105
:10427800304B1B6813E00223C7F82831D7F82831E0
:1042880093FAA3F3C7F824310223C7F82031D7F8EB
:10429800203193FAA3F3C7F81C31264B5B6A02223C
:1042A800C7F81821D7F8182192FAA2F2C7F81421F2
:1042B800D7F81421B2FA82F2D2B242F02002D2B276
:1042C80002F01F02012101FA02F21340002BAFD1C4
:1042D8003B1D1B681B6803F00803002B00F0DA8005
:1042E8003B1D1B689B69002B69D00123C7F810315F
:1042F800D7F8103193FAA3F3C7F80C31D7F80C317B
:10430800B3FA83F3DBB21A460B4B13449B001A46ED
:1043180001231360FDF7A2FBC7F8F8010EE0FDF7D3
:104328009DFB0246D7F8F831D31A022B06D903238E
:10433800D9E300BF00100240208190100223C7F883
:104348000831D7F8083193FAA3F3C7F8043107F511
:10435800807302221A6007F580731B6893FAA3F230
:1043680007F1FC031A6007F1F80302221A6007F14B
:10437800F8031B6893FAA3F207F1F4031A60A54B3C
:104388005A6A07F1F0030221196007F1F0031B686C
:1043980093FAA3F107F1EC03196007F1EC031B682A
:1043A800B3FA83F3DBB243F06003DBB203F01F031D
:1043B800012101FA03F31340002BB0D06AE007F1A2
:1043C800E80301221A6007F1E8031B6893FAA3F2D5
:1043D80007F1E4031A6007F1E4031B68B3FA83F3F7
:1043E800DBB21A468C4B13449B001A460023136019
:1043F800FDF734FBC7F8F80109E0FDF72FFB02468B
:10440800D7F8F831D31A022B01D903236BE307F14C
:10441800E00302221A6007F1E0031B6893FAA3F293
:1044280007F1DC031A6007F1D80302221A6007F1CA
:10443800D8031B6893FAA3F207F1D4031A6007F1B3
:10444800D00302221A6007F1D0031B6893FAA3F283
:1044580007F1CC031A606F4B5A6A07F1C8030221AF
:10446800196007F1C8031B6893FAA3F107F1C403A5
:10447800196007F1C4031B68B3FA83F3DBB243F096
:104488006003DBB203F01F03012101FA03F31340B9
:10449800002BB2D13B1D1B681B6803F00403002BE3
:1044A80000F05881002387F8FF315A4BDB6903F08D
:1044B8008053002B12D1574BDB69564A43F0805387
:1044C800D361544BDB6903F0805207F108031A608B
:1044D80007F108031B68012387F8FF314F4B1B685E
:1044E80003F48073002B1AD14C4B1B684B4A43F4DE
:1044F80080731360FDF7B2FAC7F8F80109E0FDF719
:10450800ADFA0246D7F8F831D31A642B01D9032340
:10451800E9E2424B1B6803F48073002BEFD03B1D8C
:104528001B68DB68012B06D13A4B1B6A394A43F0FA
:10453800010313622FE03B1D1B68DB68002B0CD1C5
:10454800344B1B6A334A23F001031362314B1B6A55
:10455800304A23F0040313621DE03B1D1B68DB682F
:10456800052B0CD12B4B1B6A2A4A43F00403136218
:10457800284B1B6A274A43F0010313620BE0254BC3
:104588001B6A244A23F001031362224B1B6A214A47
:1045980023F0040313623B1D1B68DB68002B6BD000
:1045A800FDF75CFAC7F8F8010BE0FDF757FA024689
:1045B800D7F8F831D31A41F28832934201D903234C
:1045C80091E207F1C00302221A6007F1C0031B68D9
:1045D80093FAA3F207F1BC031A6007F1B8030222A9
:1045E8001A6007F1B8031B6893FAA3F207F1B40342
:1045F8001A6007F1B4031B68B3FA83F3DBB25B09F3
:10460800DBB243F00203DBB2022B09D1014B1B6A78
:1046180014E000BF0010024020819010007000409C
:1046280007F1B00302221A6007F1B0031B6893FA7E
:10463800A3F207F1AC031A60BB4B5B6A07F1A8024F
:104648000221116007F1A802126892FAA2F107F19B
:10465800A402116007F1A4021268B2FA82F2D2B27F
:1046680042F04002D2B202F01F02012101FA02F226
:104678001340002B99D063E0FDF7F0F9C7F8F80173
:104688000BE0FDF7EBF90246D7F8F831D31A41F2FF
:104698008832934201D9032325E207F1A0030222BD
:1046A8001A6007F1A0031B6893FAA3F207F19C03B1
:1046B8001A6007F1980302221A6007F198031B6831
:1046C80093FAA3F207F194031A6007F194031B68A5
:1046D800B3FA83F3DBB25B09DBB243F00203DBB26C
:1046E800022B02D1904B1B6A0DE007F190030222C6
:1046F8001A6007F190031B6893FAA3F207F18C0381
:104708001A60894B5B6A07F188020221116007F180
:104718008802126892FAA2F107F18402116007F187
:1047280084021268B2FA82F2D2B242F04002D2B2E5
:1047380002F01F02012101FA02F21340002BA0D15E
:1047480097F8FF31012B05D1774BDB69764A23F0C7
:104758008053D3613B1D1B68DB69002B00F0C281CD
:10476800714B5B6803F00C03082B00F09C813B1D28
:104778001B68DB69022B40F0148107F180034FF0BE
:1047880080721A6007F180031B6893FAA3F207F19D
:104798007C031A6007F17C031B68B3FA83F3DBB26E
:1047A80003F1845303F584139B001A460023136016
:1047B800FDF754F9C7F8F80109E0FDF74FF902468B
:1047C800D7F8F831D31A022B01D903238BE107F16B
:1047D80078034FF000721A6007F178031B6893FAA8
:1047E800A3F207F174031A6007F174031B68B3FAA4
:1047F80083F3DBB25B09DBB243F00103DBB2012BCD
:1048080002D1494B1B681BE007F170034FF000729F
:104818001A6007F170031B6893FAA3F207F16C039F
:104828001A6007F168034FF000721A6007F1680315
:104838001B6893FAA3F207F164031A603A4B5B6AA8
:1048480007F160024FF00071116007F16002126811
:1048580092FAA2F107F15C02116007F15C0212689A
:10486800B2FA82F2D2B242F02002D2B202F01F02B1
:10487800012101FA02F21340002B9ED12A4B5B68FA
:1048880023F474123B1D1B68596A3B1D1B681B6A85
:104898000B43254913434B6007F158034FF08072CF
:1048A8001A6007F158031B6893FAA3F207F154033F
:1048B8001A6007F154031B68B3FA83F3DBB203F100
:1048C800845303F584139B001A4601231360FDF7F4
:1048D800C5F8C7F8F80109E0FDF7C0F80246D7F8AF
:1048E800F831D31A022B01D90323FCE007F1500356
:1048F8004FF000721A6007F150031B6893FAA3F295
:1049080007F14C031A6007F14C031B68B3FA83F3F1
:10491800DBB25B09DBB243F00103DBB2012B05D14B
:10492800014B1B681EE000BF0010024007F148035E
:104938004FF000721A6007F148031B6893FAA3F25C
:1049480007F144031A6007F140034FF000721A6040
:1049580007F140031B6893FAA3F207F13C031A60BE
:10496800634B5B6A07F138024FF00071116007F181
:104978003802126892FAA2F107F13402116007F1C5
:1049880034021268B2FA82F2D2B242F02002D2B2F3
:1049980002F01F02012101FA02F21340002B9BD002
:1049A800A0E007F130034FF080721A6007F130037E
:1049B8001B6893FAA3F207F12C031A6007F12C0382
:1049C8001B68B3FA83F3DBB203F1845303F5841352
:1049D8009B001A4600231360FDF740F8C7F8F8015A
:1049E80009E0FDF73BF80246D7F8F831D31A022B55
:1049F80001D9032377E007F128034FF000721A600A
:104A080007F128031B6893FAA3F207F124031A603D
:104A180007F124031B68B3FA83F3DBB25B09DBB24B
:104A280043F00103DBB2012B02D1314B1B681BE0C1
:104A380007F120034FF000721A6007F120031B688A
:104A480093FAA3F207F11C031A6007F118034FF059
:104A580000721A6007F118031B6893FAA3F207F1B2
:104A680014031A60224B5B6A07F110024FF00071C1
:104A7800116007F11002126892FAA2F107F10C0214
:104A8800116007F10C021268B2FA82F2D2B242F057
:104A98002002D2B202F01F02012101FA02F21340F1
:104AA800002B9ED11EE03B1D1B68DB69012B01D149
:104AB800012318E00E4B5B68C7F8F431D7F8F431DE
:104AC80003F480323B1D1B681B6A9A4208D1D7F851
:104AD800F43103F470123B1D1B685B6A9A4201D0E3
:104AE800012300E00023184607F50077BD4680BD86
:104AF8000010024080B59EB000AF78603960002396
:104B08007B677B68002B01D1012362E1904B1B6816
:104B180003F007033A689A4210D98D4B1B6823F0BB
:104B280007028B493B6813430B60894B1B6803F0F2
:104B380007033A689A4201D001234AE17B681B685F
:104B480003F00203002B08D0824B5B6823F0F002CD
:104B58007B689B687F4913434B607B681B6803F045
:104B68000103002B00F0DC807B685B68012B3CD1E3
:104B78004FF400333B673B6F93FAA3F3FB66FB6E7E
:104B8800B3FA83F3DBB25B09DBB243F00103DBB2B8
:104B9800012B02D16F4B1B680FE04FF40033BB664B
:104BA800BB6E93FAA3F37B664FF400333B663B6E10
:104BB80093FAA3F3FB65674B5B6A4FF40032BA655F
:104BC800BA6D92FAA2F27A657A6DB2FA82F2D2B22C
:104BD80042F02002D2B202F01F02012101FA02F2D1
:104BE8001340002B7BD10123F3E07B685B68022B29
:104BF8003CD14FF000733B653B6D93FAA3F3FB6424
:104C0800FB6CB3FA83F3DBB25B09DBB243F001035D
:104C1800DBB2012B02D14F4B1B680FE04FF0007342
:104C2800BB64BB6C93FAA3F37B644FF000733B64E3
:104C38003B6C93FAA3F3FB63464B5B6A4FF000723D
:104C4800BA63BA6B92FAA2F27A637A6BB2FA82F218
:104C5800D2B242F02002D2B202F01F02012101FAC0
:104C680002F21340002B3AD10123B2E002233B6346
:104C78003B6B93FAA3F3FB62FB6AB3FA83F3DBB2F1
:104C88005B09DBB243F00103DBB2012B02D1314BEC
:104C98001B680DE00223BB62BB6A93FAA3F37B6235
:104CA80002233B623B6A93FAA3F3FB61294B5B6ADD
:104CB8000222BA61BA6992FAA2F27A617A69B2FA00
:104CC80082F2D2B242F02002D2B202F01F020121D7
:104CD80001FA02F21340002B01D1012379E01D4BA8
:104CE8005B6823F003027B685B681A4913434B60D7
:104CF800FCF7B4FE78670AE0FCF7B0FE02467B6F6B
:104D0800D31A41F28832934201D9032361E0114B4F
:104D18005B6803F00C027B685B689B009A42EBD1EE
:104D28000B4B1B6803F007033A689A4214D2084BEE
:104D38001B6823F0070206493B6813430B60044BCA
:104D48001B6803F007033A689A4205D0012340E044
:104D580000200240001002407B681B6803F0040337
:104D6800002B08D01D4B5B6823F4E0627B68DB688E
:104D78001A4913434B607B681B6803F00803002B38
:104D880009D0164B5B6823F460527B681B69DB0013
:104D9800124913434B6000F029F801460F4B5B683A
:104DA80003F0F003F0223A613A6992FAA2F2FA604B
:104DB800FA68B2FA82F2D2B2D340094AD35C21FA35
:104DC80003F3084A1360084B1B681846FCF702FEF9
:104DD800002318467837BD4680BD00BF001002404A
:104DE8005C9C0008000000200400002080B48BB008
:104DF80000AF0023FB610023BB6100237B6200231B
:104E08007B6100233B62294B5B68FB61FB6903F014
:104E18000C03042B02D0082B03D03CE0244B3B624C
:104E28003CE0FB6903F470134FF47012BA60BA687F
:104E380092FAA2F27A607A68B2FA82F2D2B2D340D7
:104E48001C4AD35C7B61194BDB6A03F00F030F220A
:104E58003A613A6992FAA2F2FA60FA68B2FA82F210
:104E6800D2B2D340144AD35CBB61FB6903F48033EC
:104E7800002B08D00E4ABB69B2FBF3F27B6902FB38
:104E880003F37B6204E07B690C4A02FB03F37B6259
:104E98007B6A3B6202E0064B3B6200BF3B6A1846F6
:104EA8002C37BD465DF8047B704700BF00100240F8
:104EB80000127A006C9C00087C9C000800093D00E8
:104EC80080B592B000AF786000233B640023FB6399
:104ED800002387F847307B681B6803F48033002B76
:104EE80000F0D4804E4BDB6903F08053002B0ED1C9
:104EF8004B4BDB694A4A43F08053D361484BDB692B
:104F080003F08053BB60BB68012387F84730454BEB
:104F18001B6803F48073002B18D1424B1B68414A6D
:104F280043F480731360FCF799FD386408E0FCF7DC
:104F380095FD02463B6CD31A642B01D903232DE15E
:104F4800384B1B6803F48073002BF0D0344B1B6A7A
:104F580003F44073FB63FB6B002B00F084807B68D9
:104F68005B6803F44073FA6B9A427CD02C4B1B6A43
:104F780023F44073FB634FF480333B633B6B93FA3A
:104F8800A3F3FB62FB6AB3FA83F3DBB21A46264B40
:104F980013449B001A46012313604FF48033BB630C
:104FA800BB6B93FAA3F37B637B6BB3FA83F3DBB23C
:104FB8001A461D4B13449B001A4600231360184AD7
:104FC800FB6B1362FB6B03F00103002B4BD0FCF768
:104FD80045FD38640AE0FCF741FD02463B6CD31AF4
:104FE80041F28832934201D90323D7E00223BB62FE
:104FF800BB6A93FAA3F37B6202233B623B6A93FA90
:10500800A3F3FB61FB69B3FA83F3DBB25B09DBB2A1
:1050180043F00203DBB2022B08D1014B1B6A0DE0FF
:105028000010024000700040008190100223BB6114
:10503800BB6993FAA3F37B615A4B5B6A02223A611C
:105048003A6992FAA2F2FA60FA68B2FA82F2D2B235
:1050580042F04002D2B202F01F02012101FA02F22C
:105068001340002BB7D04F4B1B6A23F440727B6868
:105078005B684C4913430B6297F84730012B05D105
:10508800484BDB69474A23F08053D3617B681B6830
:1050980003F00103002B08D0424B1B6B23F00302E3
:1050A8007B689B683F4913430B637B681B6803F06D
:1050B8000203002B08D03B4B1B6B23F440327B6868
:1050C800DB68384913430B637B681B6803F00403F0
:1050D800002B08D0334B1B6B23F440227B681B69E1
:1050E800304913430B637B681B6803F02003002BD4
:1050F80008D02C4B1B6B23F010027B685B69294995
:1051080013430B637B681B6803F40033002B08D040
:10511800244B5B6823F480027B689B6A2149134314
:105128004B607B681B6803F04003002B08D01D4BC5
:105138001B6B23F020027B689B691A4913430B639E
:105148007B681B6803F08003002B08D0154B5B6855
:1051580023F440427B68DB69124913434B607B6848
:105168001B6803F40063002B08D00E4B5B6823F028
:1051780078427B681B6A0B4913434B607B681B684A
:1051880003F48063002B08D0064B1B6B23F040020E
:105198007B685B6A034913430B630023184648374F
:1051A800BD4680BD0010024080B582B000AF786077
:1051B8007B68002B01D1012373E07B6800229A6190
:1051C8007B680022DA617B6801221A627B6801220F
:1051D8005A627B6800229A627B680022DA627B68E6
:1051E8004FF400521A637B6800225A637B680022DE
:1051F8009A637B6800221A647868FBF7B9FF7B68BA
:105208001B681A687B681B6822F4E0521A607B6886
:105218001B6819687B685A687B68DB681A437B6877
:105228001B680A431A607B681B685A687B681B689E
:1052380022F080725A607B681B6859687B689A689C
:105248007B681B680A435A60184B1B6803F440725A
:105258007B681B699A420FD0144B1B68134A23F4CE
:1052680040731360114B1A687B681B690F4913431D
:105278000B600220FCF7FEFB7B681B685A687B68A2
:105288001B6842F001025A6000BF7B681B689B687C
:1052980003F40043002BF8D17B68012283F83C20FB
:1052A800002318460837BD4680BD00BF0060014096
:1052B80080B586B000AFF860B9607A600023FB75EE
:1052C800FB6893F83C30012B02D00123FB7525E0E5
:1052D800F86800F03DFB0346002B06D0FB68FF2270
:1052E80083F83C200323FB7518E0FB681B681A460B
:1052F800BB689B00134420333B617B681A687B685A
:105308005B681A437B689B6842EA03017B68DA683A
:105318003B690A431A60F86800F03DFBFB7D1846BC
:105328001837BD4680BD000080B586B000AFF86074
:10533800B9607A600023FB75FB6893F83C30012B59
:1053480002D00123FB7537E0F86800F001FB034643
:10535800002B06D0FB68FF2283F83C200323FB7553
:105368002AE0BB68174A93421FD0BB681B0C3B61FD
:10537800FB681B68196C3B699B0003F01F03032241
:1053880002FA03F3DA43FB681B680A401A64FB68F5
:105398001B68196C3B699B0003F01F037A689A40ED
:1053A800FB681B680A431A6403E0FB681B687A6899
:1053B8005A64F86800F0EFFAFB7D18461837BD46C6
:1053C80080BD00BF0001080080B586B000AFF8605E
:1053D800B9607A600023FB75FB6893F83C30002BBA
:1053E80027D0FB6893F83C30FF2B22D0FB681B6862
:1053F800BA6892B25A617B68012B08D1FB681B68B6
:105408005A68FB681B6842F020025A6007E0FB6894
:105418001B685A68FB681B6822F020025A60FB6808
:105428007A68DA61B86800F0C8FA0246FB681A625E
:1054380001E00123FB75FB7D18461837BD4680BD8A
:1054480080B485B000AF786039600023FB737B6857
:105458001B68124A934205D13B68012B02D10123F4
:10546800FB7314E07B6893F83C30012B09D07B6810
:1054780093F83C30022B04D07B6893F83C30032B24
:1054880003D17B683A68DA6201E00123FB73FB7B96
:1054980018461437BD465DF8047B7047006001402C
:1054A80080B584B000AF786039600023FB737B68F7
:1054B80093F83C30012B20D1786800F049FA034674
:1054C800002B06D07B68FF2283F83C200323FB7364
:1054D80015E07B681B685A687B681B6822F04002ED
:1054E8005A607B681B6859687B681B683A680A437E
:1054F8005A60786800F04FFA01E00123FB73FB7BE8
:1055080018461037BD4680BD80B584B000AF7860BE
:1055180039600023FB737B6893F83C30012B2CD156
:10552800786800F015FA0346002B06D07B68FF2246
:1055380083F83C200323FB7321E07B681B685A68CF
:105548007B681B6822F006025A607B681B685968F2
:105558007B681B683A680A435A60786800F01BFA4F
:105568007B681B685A687B681B6842F010025A60A7
:105578007B68022283F83C2001E00123FB73FB7B5C
:1055880018461037BD4680BD80B584B000AF78603E
:1055980039607B6893F83C30022B01D0012328E066
:1055A800FCF75CFAF86010E03B68B3F1FF3F0CD001
:1055B800FCF754FA0246FB68D31A3A689A4202D3B7
:1055C8003B68002B01D1032313E07B681B689B68B1
:1055D80003F00103012BE7D17B681B68DA687B685D
:1055E8001B6842F00102DA607B68012283F83C20E4
:1055F800002318461037BD4680BD000080B586B030
:1056080000AFF860B9607A60FB681B681B6803F438
:105618000033B3F5003F02D10123FB7563E0FB685B
:10562800DB6A002B10D1FB68DB69002B0CD1FB680F
:105638005B699B69002B07D1FB681B6A7A689A42F1
:1056480002D90123FB754EE0FB68DB6A002B0BD106
:10565800FB68DB69002B07D1FB685B699B69202B22
:1056680002D10123FB753EE0FB6893F83C30012B27
:1056780004D0FB6893F83C30032B32D1FB685B699C
:105688001B4A9A62FB685B691A4A1A63FB685B6982
:105698009B69202B03D1FB685B69174ADA62FB68B8
:1056A8001B681A68FB681B6842F480321A60FB6842
:1056B8005869FB681B6860331946BA687B68FCF751
:1056C80053FB0346002B06D0FB68FF2283F83C20DF
:1056D8000123FB7507E0F86800F093F90346FB75B2
:1056E80001E00123FB75FB7D18461837BD4680BDD8
:1056F8001B59000837590008FF58000880B584B0C6
:1057080000AF78607B681B689B68FB607B681B68E0
:105718001B6803F00803082B25D1FB6803F0080376
:10572800002B20D0786800F0C8F87B689B69002BB4
:1057380040F0B1807B689B6A002B40F0AC807B68AE
:105748001B681A687B681B6822F018021A607B685D
:1057580093F83C30032B01D1012200E004227B683E
:1057680083F83C2097E07B681B681B6803F0020302
:10577800022B36D1FB6803F00203002B31D0786886
:10578800FBF7B6FC7B685B6A5A1E7B685A627B68CB
:105798005B6A002B03D17B681A6A7B685A627B6854
:1057A800DB69002B79D17B68DB6A002B75D17B68BC
:1057B8005A6A7B681B6A9A426FD17B681B681A68B1
:1057C8007B681B6822F006021A607B6893F83C30FD
:1057D800042B01D1012200E003227B6883F83C20DE
:1057E8005BE07B681B681B6803F00103012B1CD17D
:1057F800FB6803F00103002B17D07B681B681A684D
:105808007B681B6822F001021A607B681B68DA68F3
:105818007B681B6842F00102DA60786800F043F8A0
:105828007B68012283F83C2038E07B681B681B6892
:1058380003F01003102B13D1FB6803F01003002BA7
:105848000ED07B681B68DA687B681B6842F0100220
:10585800DA607B6801221A64786800F042F81DE07B
:105868007B681B681B6803F00403042B17D1FB68D3
:1058780003F00403002B12D07B681B68DA687B688E
:105888001B6842F00402DA607B6802221A647868B6
:1058980000F027F802E000BF00E000BF00BF00BF33
:1058A8001037BD4680BD80B483B000AF786000BFBC
:1058B8000C37BD465DF8047B704780B483B000AFF9
:1058C800786000BF0C37BD465DF8047B704780B434
:1058D80083B000AF786000BF0C37BD465DF8047B2D
:1058E800704780B483B000AF786000BF0C37BD4606
:1058F8005DF8047B704780B584B000AF78607B6842
:105908005B6AFB60F868FFF7E2FF00BF1037BD462F
:1059180080BD80B584B000AF78607B685B6AFB604F
:10592800F868FBF7E5FB00BF1037BD4680BD80B5C2
:1059380084B000AF78607B685B6AFB60FB68032219
:105948001A64F868FFF7CDFF00BF1037BD4680BD69
:1059580080B584B000AF78607B681B681A687B6884
:105968001B6842F000421A60FCF778F8F86008E01B
:10597800FCF774F80246FB68D31AC82B01D9032335
:1059880005E07B681B689B68002BF1DA002318464A
:105998001037BD4680BD80B483B000AF78607B68A7
:1059A8001B681A687B681B6822F000421A6000BFF7
:1059B8000C37BD465DF8047B704780B487B000AFF4
:1059C800786000237B617B689BB23B610023FB60AE
:1059D8000DE03B6903F00103002B02D07B69013322
:1059E8007B613B695B083B61FB680133FB60FB68DB
:1059F800082BEED97B6918461C37BD465DF8047B39
:105A0800704780B584B000AF78600023FB737B6873
:105A18001A6A7B685A627B68DB6A002B08D17B684C
:105A28001B685A687B681B6842F400425A6025E08C
:105A38007868FFF78DFF0346002B06D07B68FF22AE
:105A480083F83C200323FB7318E07B68DB6A012B97
:105A580008D17B681B681A687B681B6842F480421F
:105A68001A6008E07B681B6859687B681A6B7B685A
:105A78001B680A435A607868FFF78DFFFB7B002B91
:105A88000AD17B6893F83C30012B01D1042200E055
:105A980005227B6883F83C20FB7B18461037BD46FF
:105AA80080BD80B485B000AF78607B680022A3F821
:105AB80044204FF43F43FB60FB689AB27B68A3F82D
:105AC8004020002318461437BD465DF8047B704714
