:020000040800F2
:1000000000000220CD27000895250008A325000840
:10001000C7250008CD250008D325000800000000F2
:10002000000000000000000000000000D9250008CA
:10003000E725000800000000F52500080326000859
:100040001D2800081D2800081D2800081D2800087C
:100050001D2800081D2800081D2800081D2800086C
:100060000F2600081D2800081D2800081D2800086C
:100070001D2800081D2800081D2800081D2800084C
:100080001D2800081D2800081D2800081D2800083C
:100090001D2800081D2800081D2800081D2800082C
:1000A0001D2800081D2800081D2800081D2800081C
:1000B0001D260008312600081D2800081D280008FC
:1000C0001D2800081D2800081D2800081D280008FC
:1000D0001D2800081D280008452600081D280008C6
:1000E0001D2800081D2800081D2800081D280008DC
:1000F0001D2800081D2800081D2800081D280008CC
:100100001D2800081D2800081D2800081D280008BB
:100110001D2800081D2800081D2800081D280008AB
:100120001D2800081D2800081D2800081D2800089B
:100130001D2800081D2800081D2800081D2800088B
:100140001D2800081D2800081D2800085926000841
:100150001D2800081D2800081D2800081D2800086B
:100160001D2800081D2800081D2800081D2800085B
:100170001D2800081D2800081D2800080000000098
:080180001D2800081D280008DD
:1001900010B5054C237833B9044B13B10448AFF3C1
:1001A00000800123237010BD900700200000000094
:1001B0007038010808B5034B1BB103490348AFF37E
:1001C000008008BD0000000094070020703801087E
:1001D00001F0FF01102A2BDB10F0070F08D010F8F8
:1001E000013B013A8B422DD010F0070F42B3F6D1FC
:1001F000F0B441EA012141EA014122F007047FF015
:1002000000070023F0E80256083C85EA010586EA6B
:10021000010685FA47F5A3FA87F586FA47F6A5FAA7
:1002200087F68EB9EED1F0BC01F0FF0102F00702B3
:1002300032B110F8013B013A83EA010313B1F8D15E
:100240000020704701387047002D06BF354603383F
:10025000073815F0010F07D1013015F4807F02BF78
:10026000013015F4C03F0130F0BC0138704700BFC9
:1002700081F0004102E000BF83F0004330B54FEA57
:1002800041044FEA430594EA050F08BF90EA020FC4
:100290001FBF54EA000C55EA020C7FEA645C7FEA57
:1002A000655C00F0E2804FEA5454D4EB5555B8BF7A
:1002B0006D420CDD2C4480EA020281EA030382EAEB
:1002C000000083EA010180EA020281EA0303362D7D
:1002D00088BF30BD11F0004F4FEA01314FF4801C50
:1002E0004CEA113102D0404261EB410113F0004F62
:1002F0004FEA03334CEA133302D0524263EB430319
:1003000094EA050F00F0A780A4F10104D5F1200EB6
:100310000DDB02FA0EFC22FA05F2801841F1000111
:1003200003FA0EF2801843FA05F359410EE0A5F1E5
:1003300020050EF1200E012A03FA0EFC28BF4CF016
:10034000020C43FA05F3C01851EBE37101F00045CC
:1003500007D54FF0000EDCF1000C7EEB00006EEBD9
:100360000101B1F5801F1BD3B1F5001F0CD3490863
:100370005FEA30004FEA3C0C04F101044FEA4452BA
:1003800012F5800F80F09A80BCF1004F08BF5FEA41
:10039000500C50F1000041EB045141EA050130BD21
:1003A0005FEA4C0C404141EB010111F4801FA4F1C4
:1003B0000104E9D191F0000F04BF01460020B1FA19
:1003C00081F308BF2033A3F10B03B3F120020CDA51
:1003D0000C3208DD02F1140CC2F10C0201FA0CF02F
:1003E00021FA02F10CE002F11402D8BFC2F1200C94
:1003F00001FA02F120FA0CFCDCBF41EA0C0190404A
:10040000E41AA2BF01EB0451294330BD6FEA040492
:100410001F3C1CDA0C340EDC04F11404C4F120027D
:1004200020FA04F001FA02F340EA030021FA04F38F
:1004300045EA030130BDC4F10C04C4F1200220FAE6
:1004400002F001FA04F340EA0300294630BD21FA24
:1004500004F0294630BD94F0000F83F4801306BFEA
:1004600081F480110134013D4EE77FEA645C18BFDE
:100470007FEA655C29D094EA050F08BF90EA020F75
:1004800005D054EA000C04BF1946104630BD91EA6D
:10049000030F1EBF0021002030BD5FEA545C05D170
:1004A0004000494128BF41F0004130BD14F58004AF
:1004B0003CBF01F5801130BD01F0004545F0FE4123
:1004C00041F470014FF0000030BD7FEA645C1ABF58
:1004D000194610467FEA655C1CBF0B46024650EA8F
:1004E000013406BF52EA033591EA030F41F40021BB
:1004F00030BD00BF90F0000F04BF0021704730B541
:100500004FF4806404F132044FF000054FF0000115
:1005100050E700BF90F0000F04BF0021704730B5D6
:100520004FF4806404F1320410F0004548BF4042AB
:100530004FF000013EE700BF42004FEAE2014FEA00
:1005400031014FEA02701FBF12F07F4393F07F4FDB
:1005500081F06051704732F07F4208BF704793F0DE
:100560007F4F04BF41F40021704730B54FF46074F1
:1005700001F0004521F000411CE700BF50EA0102F4
:1005800008BF704730B54FF000050AE050EA01029D
:1005900008BF704730B511F0004502D5404261EB0D
:1005A00041014FF4806404F132045FEA915C3FF44E
:1005B000D8AE4FF003025FEADC0C18BF03325FEAEB
:1005C000DC0C18BF033202EBDC02C2F1200300FA9C
:1005D00003FC20FA02F001FA03FE40EA0E0021FAC1
:1005E00002F11444BDE600BF70B54FF0FF0C4CF4AF
:1005F000E06C1CEA11541DBF1CEA135594EA0C0F61
:1006000095EA0C0F00F0DEF82C4481EA030621EA9B
:100610004C5123EA4C5350EA013518BF52EA0335D6
:1006200041F4801143F4801338D0A0FB02CE4FF088
:100630000005E1FB02E506F00042E0FB03E54FF0B8
:100640000006E1FB03569CF0000F18BF4EF0010EB0
:10065000A4F1FF04B6F5007F64F5407404D25FEAAC
:100660004E0E6D4146EB060642EAC62141EA55515F
:100670004FEAC52040EA5E504FEACE2EB4F1FD0CA1
:1006800088BFBCF5E06F1ED8BEF1004F08BF5FEA1F
:10069000500E50F1000041EB045170BD06F00046D1
:1006A00046EA010140EA020081EA0301B4EB5C047E
:1006B000C2BFD4EB0C0541EA045170BD41F4801176
:1006C0004FF0000E013C00F3AB8014F1360FDEBF9B
:1006D000002001F0004170BDC4F10004203C35DA77
:1006E0000C341BDC04F11404C4F1200500FA05F3FA
:1006F00020FA04F001FA05F240EA020001F000429B
:1007000021F0004110EBD37021FA04F642EB060110
:100710005EEA430E08BF20EAD37070BDC4F10C043A
:10072000C4F1200500FA04F320FA05F001FA04F2FE
:1007300040EA020001F0004110EBD37041F10001EA
:100740005EEA430E08BF20EAD37070BDC4F12005F5
:1007500000FA05F24EEA020E20FA04F301FA05F25D
:1007600043EA020321FA04F001F0004121FA04F205
:1007700020EA020000EBD3705EEA430E08BF20EAD5
:10078000D37070BD94F0000F0FD101F0004640000F
:1007900041EB010111F4801F08BF013CF7D041EA91
:1007A000060195F0000F18BF704703F00046520095
:1007B00043EB030313F4801F08BF013DF7D043EA66
:1007C0000603704794EA0C0F0CEA135518BF95EA1C
:1007D0000C0F0CD050EA410618BF52EA4306D1D1A3
:1007E00081EA030101F000414FF0000070BD50EAC2
:1007F000410606BF1046194652EA430619D094EA4C
:100800000C0F02D150EA013613D195EA0C0F05D135
:1008100052EA03361CBF104619460AD181EA030189
:1008200001F0004141F0FE4141F470014FF0000041
:1008300070BD41F0FE4141F4780170BD70B54FF0DC
:10084000FF0C4CF4E06C1CEA11541DBF1CEA13555C
:1008500094EA0C0F95EA0C0F00F0A7F8A4EB05043E
:1008600081EA030E52EA03354FEA013100F0888035
:100870004FEA03334FF0805545EA131343EA1263FE
:100880004FEA022245EA111545EA10654FEA0026B3
:100890000EF000419D4208BF964244F1FD0404F56C
:1008A000407402D25B084FEA3202B61A65EB0305C8
:1008B0005B084FEA32024FF480104FF4002CB6EB85
:1008C000020E75EB030E22BFB61A754640EA0C0005
:1008D0005B084FEA3202B6EB020E75EB030E22BF45
:1008E000B61A754640EA5C005B084FEA3202B6EB86
:1008F000020E75EB030E22BFB61A754640EA9C0045
:100900005B084FEA3202B6EB020E75EB030E22BF14
:10091000B61A754640EADC0055EA060E18D04FEAD2
:10092000051545EA16754FEA06164FEAC30343EA72
:1009300052734FEAC2025FEA1C1CC0D111F4801F3F
:100940000BD141EA00014FF000004FF0004CB6E738
:1009500011F4801F04BF01430020B4F1FD0C88BFD7
:10096000BCF5E06F3FF6AFAEB5EB030C04BFB6EBE2
:10097000020C5FEA500C50F1000041EB045170BDD5
:100980000EF0004E4EEA113114EB5C04C2BFD4EB02
:100990000C0541EA045170BD41F480114FF0000E86
:1009A000013C90E645EA060E8DE60CEA135594EA02
:1009B0000C0F08BF95EA0C0F3FF43BAF94EA0C0F05
:1009C0000AD150EA01347FF434AF95EA0C0F7FF47A
:1009D00025AF104619462CE795EA0C0F06D152EACE
:1009E00003353FF4FDAE1046194622E750EA4106B2
:1009F00018BF52EA43067FF4C5AE50EA41047FF4C3
:100A00000DAF52EA43057FF4EBAE12E74FF0FF3C27
:100A100006E000BF4FF0010C02E000BF4FF0010CF8
:100A20004DF804CD4FEA410C7FEA6C5C4FEA430C71
:100A300018BF7FEA6C5C1BD001B050EA410C0CBFC0
:100A400052EA430C91EA030F02BF90EA020F002022
:100A5000704710F1000F91EA030F58BF994208BF89
:100A600090422CBFD8176FEAE37040F00100704746
:100A70004FEA410C7FEA6C5C02D150EA013C07D19D
:100A80004FEA430C7FEA6C5CD6D152EA033CD3D0E8
:100A90005DF8040B704700BF8446104662468C46E2
:100AA0001946634600E000BF01B5FFF7B7FF002815
:100AB00048BF10F1000F01BD4DF808EDFFF7F4FF3E
:100AC0000CBF012000205DF808FB00BF4DF808EDC9
:100AD000FFF7EAFF34BF012000205DF808FB00BFEC
:100AE0004DF808EDFFF7E0FF94BF012000205DF80E
:100AF00008FB00BF4DF808EDFFF7CEFF94BF0120C3
:100B000000205DF808FB00BF4DF808EDFFF7C4FFBB
:100B100034BF012000205DF808FB00BF4FEA41020E
:100B200012F5001215D211D56FF47873B3EB62523F
:100B300012D94FEAC12343F0004343EA505311F066
:100B4000004F23FA02F018BF404270474FF00000F8
:100B5000704750EA013005D111F0004008BF6FF036
:100B6000004070474FF00000704700BF4A0011D2AC
:100B700012F5001211D20DD56FF47873B3EB6252F7
:100B80000ED44FEAC12343F0004343EA505323FA03
:100B900002F070474FF00000704750EA013002D178
:100BA0004FF0FF3070474FF0000070474FEA4102AE
:100BB000B2F1E04324BFB3F5001CDCF1FE5C0DD9BB
:100BC00001F0004C4FEAC0024CEA5070B2F1004F05
:100BD00040EB830008BF20F00100704711F0804F08
:100BE00021D113F13872BCBF01F00040704741F4CD
:100BF00080114FEA5252C2F11802C2F1200C10FAD1
:100C00000CF320FA02F018BF40F001004FEAC123B4
:100C10004FEAD32303FA0CFC40EA0C0023FA02F358
:100C20004FEA4303CCE77FEA625307D150EA01332E
:100C30001EBF4FF0FE4040F44000704701F00040FE
:100C400040F0FE4040F40000704700BF53B94AB97D
:100C5000002908BF00281CBF4FF0FF314FF0FF30C4
:100C600000F072B9ADF1080C6DE904CE00F006F8A1
:100C7000DDF804E0DDE9022304B070472DE9F04718
:100C8000089E04468846002B4BD18A42154667D9F8
:100C9000B2FA82F24AB1C2F1200701FA02F320FA55
:100CA00007F7954047EA030894404FEA154E230C96
:100CB000B8FBFEF71FFA85FC0EFB178843EA0843D2
:100CC00007FB0CF1994209D9EB1807F1FF3080F0CE
:100CD0001B81994240F21881023F2B445B1AA4B257
:100CE000B3FBFEF00EFB103344EA034400FB0CFCA4
:100CF000A44509D92C1900F1FF3380F00781A445E0
:100D000040F2048102382C4440EA0740A4EB0C0472
:100D100000271EB1D4400023C6E900433946BDE890
:100D2000F0878B4209D9002E00F0EB800027C6E93E
:100D3000000138463946BDE8F087B3FA83F7002F43
:100D400047D18B4202D3824200F2FA80841A61EBCF
:100D5000030301209846002EE0D0C6E90048DDE7F5
:100D600002B9FFDEB2FA82F2002A40F08F80491BFE
:100D70004FEA154E1FFA85F80127B1FBFEFC230C44
:100D80000EFB1C1143EA014308FB0CF1994207D901
:100D9000EB180CF1FF3002D2994200F2CD8084466C
:100DA000591AA3B2B1FBFEF00EFB101443EA04443F
:100DB00008FB00F8A04507D92C1900F1FF3302D237
:100DC000A04500F2B6801846A4EB080440EA0C40A7
:100DD0009FE7C7F1200CBB4022FA0CFE4EEA030E3F
:100DE00001FA07F420FA0CF521FA0CF34FEA1E4839
:100DF0002543B3FBF8F92C0C08FB19331FFA8EFAC4
:100E000044EA034309FB0AF49C4202FA07F200FA9F
:100E100007F10BD91EEB030309F1FF3080F0878047
:100E20009C4240F28480A9F1020973441B1BADB2BD
:100E3000B3FBF8F008FB103345EA034400FB0AFA61
:100E4000A24508D91EEB040400F1FF336BD2A24582
:100E500069D90238744440EA0940A0FB0289A4EB36
:100E60000A044C45C2464B4654D351D0002E69D09B
:100E7000B1EB0A0564EB030404FA0CFCFD40FC40F2
:100E80004CEA0505C6E90054002747E7C2F12003F4
:100E900020FA03F7954001FA02F021FA03F34FEA32
:100EA000154E3843010CB3FBFEF71FFA85F80EFB15
:100EB000173341EA034107FB08F38B4204FA02F4BB
:100EC00007D9691807F1FF3C2FD28B422DD9023F79
:100ED0002944CB1A81B2B3FBFEF00EFB103341EA7A
:100EE000034100FB08F38B4207D9691800F1FF3C6E
:100EF00017D28B4215D902382944C91A40EA07474C
:100F00003BE73746304609E70746E7E61846FBE683
:100F10004145ABD2B8EB020A69EB0E020138134629
:100F2000A4E76046E9E7184695E76746D1E78146BA
:100F30007CE702382C4447E7ACF1020C2B442FE746
:100F4000384608E73746E9E6704700BF80B483B00B
:100F500000AF78607B68002BB8BF5B4218460C3747
:100F6000BD465DF8047B704780B483B000AF87ED69
:100F7000010AD7ED017AF0EEE77AB0EE670A0C3796
:100F8000BD465DF8047B704780B582B000AF7860E5
:100F90007B6803333D220021184612F020F87B685D
:100FA00018460837BD4680BDF0B5AFB002AF01F0BE
:100FB00037FC00F0A7FBC74807F096FDC649C548B7
:100FC00007F074FDC549C34807F07FFD0B21C148F8
:100FD00008F0DEFCBF4B93F9AE30DBB21946BD48DA
:100FE00008F0D6FCBE4B0093BE4BBC4ABA49BE4883
:100FF0000CF0BEFD00F03AFF00F0F8FB00F03AFC08
:1010000000F074FC00F058FD00F0D2FE00F0FEFE8F
:101010000FF0E2FB00F0AEFD00F012FE00F06CFEFF
:10102000B24804F00CFBB24804F02DFBAA480AF0C9
:10103000E3F8A94B002283F83C20A64B1B78022B37
:1010400002D1AC4B00221A70AA4B1B781A46AA494F
:10105000A4480CF04EFC4FF480530193A74B00932F
:101060004FF40063A54AA6499D480CF0A2FCA14B91
:101070001B781A46A34999480DF092FA9549A2485F
:101080000DF078FB07F170031846FFF77DFF01F0C4
:101090002DFC02469D4B1A60002193480CF02EFE59
:1010A00099480DF075FB8B4B93F8A930002B00F09D
:1010B0007E818D480CF015FE034687F86830854B1D
:1010C000B3F801309BB2A7F8693087480CF0DCFD1B
:1010D0000346A7F86B30412387F87030FF2387F869
:1010E0007230A12387F8713007F1730307F16802AA
:1010F0001068186012791A7107F170031946844854
:101100000DF0DAFCFE2387F87130824B03F538745A
:1011100007F1730C04F1300E654626460FCE2860A9
:101120006960AA60EB6010340CF1100C7445F3D1C7
:1011300007F17003194676480DF0BEFC664B1B683C
:101140007B64654BDB68BB64634B9B6AFB64624BEF
:10115000DB6A3B65604B5B6B7B655F4B1B6A7B6649
:101160005D4BDB693B665C4B9B69FB655A4B5B697E
:10117000BB65412387F87030FF2387F87230A023C6
:1011800087F8713007F1440407F1730C04F1200E65
:10119000654626460FCE28606960AA60EB60103471
:1011A0000CF1100C7445F3D16346224610681860A8
:1011B00007F17003194656480DF07EFC454BD3F8F5
:1011C000B830BB63434BD3F8B4307B63414BD3F8A7
:1011D000B030FB633F4BD3F8BC303B64412387F80E
:1011E0007030AF2387F87130FF2387F8723007F132
:1011F000730407F134050FCD20606160A260E360E5
:1012000007F170034022194643480EF0C9F8B02395
:1012100087F8713000233B713E4BD3F820233B1DF0
:10122000194639480DF078FB3C1D07F1730C04F1A9
:10123000200E654626460FCE28606960AA60EB60E6
:1012400010340CF1100C7445F3D16546234607CBDE
:1012500028606960AA601B782B7307F17003402235
:1012600019462D480EF09CF801233B71294BD3F809
:1012700014233B1D194624480DF04EFB3C1D07F17D
:10128000730C04F1200E654626460FCE2860696077
:10129000AA60EB6010340CF1100C7445F3D1654674
:1012A000234607CB28606960AA601B782B7307F17F
:1012B00070034022194618480EF072F802233B7161
:1012C000144BD3F818233B1D19460F480DF024FB8F
:1012D0003C1D23E0180A0020480C0020300C0020A0
:1012E000380C0020340C0020680B00201809002066
:1012F0009808002000000020AC07002000040240F5
:10130000C007002018080020180B0020C40F002080
:10131000D8090020940C00200810002007F1730C5D
:1013200004F1200E654626460FCE28606960AA604B
:10133000EB6010340CF1100C7445F3D16546234674
:1013400007CB28606960AA601B782B7307F17003D4
:1013500040221946B7480EF023F803233B71B64BE1
:10136000D3F81C233B1D1946B4480DF0D5FA3C1D9B
:1013700007F1730C04F1200E654626460FCE286057
:101380006960AA60EB6010340CF1100C7445F3D165
:101390006546234607CB28606960AA601B782B73DB
:1013A00007F1700340221946A2480DF0F9FFA44B43
:1013B0001B78002B3FF474AEA24809F031FFA14B1B
:1013C0001B681846FFF7C2FD02469E4B1B699A42F6
:1013D000ACBF01230023DBB2002B0ED0994B1A695E
:1013E000984B1B68002B02DA4FF0FF3300E001231B
:1013F00002FB03F3944A136003E0924B1B68924A8A
:101400001360914B18688F4B1B6959428D4B1A69B9
:101410008E4BD3F821408D4BD3F8253000932346D3
:101420000DF078FB02468A4B1A60894B1B681946FF
:1014300088480DF006FC87480DF02AFB834B93F893
:10144000C830002B13D084480CF0CEFD0346002B8F
:1014500000F031817D4B002283F8C8200B217B48AE
:1014600008F0B4FB0B21794808F0C0F923E1754975
:1014700071480AF009FD034607EE903AF8EEE77A64
:10148000724BC3ED2D7A714BD3ED2D7AB0EE670A16
:10149000FFF76AFDF0EE407AF5EEC07AF1EE10FA51
:1014A00017DD6A4BD3ED2D7AB0EE670AFFF75CFDCE
:1014B000B0EE407A654BB3F85D309BB207EE903AE0
:1014C000F8EEE77AB4EEE77AF1EE10FA01D80123EC
:1014D00000E00023002B19D05C4BB3F85D309BB2C9
:1014E0001A465A4BD3ED2D7AF5EEC07AF1EE10FA8A
:1014F00002D54FF0FF3300E0012302FB03F307EEB8
:10150000903AF8EEE77A514BC3ED2D7A4F4B93F8B2
:101510008230002B07D04D4BD3ED2D7AF1EE677A58
:101520004A4BC3ED2D7A494B93ED2D7A474BD3EDC2
:101530002C7A67EE277A454BC3ED2D7A434BD3EDDA
:101540002D7A424BB3F880305B4207EE103AB8EE8A
:10155000C77A3E4BB3F8803006EE903AF8EE666AF2
:10156000B0EE661AF0EE470AB0EE670A0DF015FB12
:10157000F0EE407A354BC3ED2D7A324B1B6818469E
:10158000FFF7E4FC02462F4B1B699A42CCBF0123B4
:101590000023DBB2002B36D02C4BB3F85B309BB270
:1015A0001C46284B1B681846FFF7D0FC0246254B0B
:1015B0001B69D31A03FB04F2224BDB69274981FB29
:1015C00003014910DB17CB1A92FBF3F307EE903AB5
:1015D000F8EEE77A1D4BC3ED2E7A1C4BD3ED2E7A35
:1015E000184B1B68002B02DABFEE007A01E0B7EE61
:1015F000007A27EE277A154BD3ED2D7A77EE277AEE
:10160000124BC3ED2D7A114BB3F9A230002BB8BFAA
:101610005B4242F20F72934231DD0C4BB3F85B3008
:101620009BB21A46074B1B68002B19DA4FF0FF33A9
:1016300017E000BF08100020940C0020180B0020B9
:10164000B80F0020480C0020BC0F0020180A002012
:10165000C00F0020D8090020680B0020398EE33825
:10166000012302FB03F2204B93ED2D7A07EE902A23
:10167000F8EEE77A77EE277A1B4BC3ED2D7A1A4BFB
:10168000D3ED2D7A9FED191ADFED190AB0EE670A36
:101690000DF083FAF0EE407A134BC3ED2D7A124B26
:1016A000D3ED2D7AFDEEE77A17EE903A1BB219468C
:1016B00010480CF023FB01F019F902460E4B1B6891
:1016C000D31A42F20F72934294BF01230023DBB27C
:1016D000002B04D0094B1B680133084A1360084BE8
:1016E00000221A70DCE400BF180A002000401C46EB
:1016F00000401CC6680B0020C40F0020C80F00204B
:10170000B80F002080B594B000AF07F1200330225D
:101710000021184611F063FC07F10C0300221A6047
:101720005A609A60DA601A610023BB602D4B1B6C13
:101730002C4A43F0805313642A4B1B6C03F08053F4
:10174000BB60BB6800237B60274B1B68264A43F4C1
:1017500080431360244B1B6803F480437B607B68E9
:1017600001233B624FF480337B620223BB634FF45F
:101770008003FB6308233B644FF4A8737B6402235C
:10178000BB640723FB6407F12003184603F086F8C7
:101790000346002B14BF01230023DBB2002B01D032
:1017A00000F048FC0F23FB6002233B6100237B61B8
:1017B0004FF4A053BB614FF48053FB6107F10C035E
:1017C0000521184603F0DAFA0346002B14BF012363
:1017D0000023DBB2002B01D000F02CFC00BF5037FF
:1017E000BD4680BD003802400070004080B582B028
:1017F00000AF3B4600221A605A601C4B1C4A1A601C
:101800001A4801F0FAF90346002B14BF0123002304
:10181000DBB2002B01D000F00DFC00233B60002365
:101820007B603B4600221946104801F06EFA0346E1
:10183000002B14BF01230023DBB2002B01D000F0EA
:10184000F9FB3B4610221946084801F05EFA0346B0
:10185000002B14BF01230023DBB2002B01D000F0CA
:10186000E9FB00BF0837BD4680BD00BFAC070020C4
:101870000074004080B500AF1A4B1B4A1A60194B28
:101880004FF482725A60174B00229A60154B002267
:10189000DA60144B00221A61124B00225A61114B7C
:1018A0004FF400729A610F4B0022DA610D4B002257
:1018B0001A620C4B00225A620A4B00229A62094BB0
:1018C0000A22DA62074803F04BFC0346002B14BFE0
:1018D00001230023DBB2002B01D000F0ABFB00BFE3
:1018E00080BD00BFC00700200038004080B596B022
:1018F00000AF07F1480300221A605A609A60DA606C
:1019000007F1400300221A605A6007F12403002205
:101910001A605A609A60DA601A615A619A613B1DD6
:1019200020220021184611F05AFB5F4B5F4A1A60D3
:101930005F4B1B685F4AB2F8012092B211465D4AC4
:10194000B2F81F2092B2013202FB01F2B3FBF2F3B4
:10195000013B554A5360544B00229A60554BB3F8F3
:101960001F309BB21A46504BDA604F4B00221A616F
:101970004D4B00225A614C4B00229A614A4803F0B9
:1019800033FE0346002B14BF01230023DBB2002BE0
:1019900001D000F04FFB4FF48053BB6407F14803C4
:1019A0001946414804F0BEF90346002B14BF012339
:1019B0000023DBB2002B01D000F03CFB3A4803F0DF
:1019C00086FE0346002B14BF01230023DBB2002B4D
:1019D00001D000F02FFB00233B6400237B6407F160
:1019E00040031946304804F08DFD0346002B14BF18
:1019F00001230023DBB2002B01D000F01BFB60238E
:101A00007B620023BB620023FB6200233B63002355
:101A10007B630023BB630023FB6307F124030022E5
:101A20001946214804F0B8F80346002B14BF0123DF
:101A30000023DBB2002B01D000F0FCFA07F12403F5
:101A400004221946184804F0A7F80346002B14BFD7
:101A500001230023DBB2002B01D000F0EBFA0023BE
:101A60007B600023BB600023FB6000233B610023FD
:101A70007B614FF40053BB6100233B623B1D194661
:101A8000094804F0BBFD0346002B14BF01230023CB
:101A9000DBB2002B01D000F0CDFA034800F0B0FC1F
:101AA00000BF5837BD4680BD180800200000014027
:101AB00004000020180A002080B58CB000AF07F1A8
:101AC0000C0324220021184611F089FA3B1D002244
:101AD0001A605A60264B4FF080421A60244B002255
:101AE0005A60234B00229A60214B4FF0FF32DA609C
:101AF0001F4B00221A611E4B00229A610323FB60D8
:101B000000233B6101237B610023BB610A23FB614E
:101B100000233B6201237B620023BB620A23FB623A
:101B200007F10C031946124803F044FE0346002B4C
:101B300014BF01230023DBB2002B01D000F07AFA9E
:101B400000237B600023BB603B1D1946084804F05E
:101B5000D9FC0346002B14BF01230023DBB2002B6A
:101B600001D000F067FA00BF3037BD4680BD00BF2E
:101B70005808002080B586B000AF07F108030022A6
:101B80001A605A609A60DA603B4600221A605A6016
:101B9000274B284A1A60264B53225A60244B0022B6
:101BA0009A60254B9B8B1A46244B93FBF2F3013B27
:101BB0001A461F4BDA601E4B00221A611C4B002292
:101BC0009A611B4803F010FD0346002B14BF01234C
:101BD0000023DBB2002B01D000F02CFA4FF480532D
:101BE000BB6007F108031946114804F09BF803464F
:101BF000002B14BF01230023DBB2002B01D000F027
:101C000019FA00233B6000237B603B4619460848D5
:101C100004F078FC0346002B14BF01230023DBB241
:101C2000002B01D000F006FA00BF1837BD4680BD7A
:101C30009808002000040040180A002040420F00CD
:101C400080B586B000AF07F1080300221A605A6021
:101C50009A60DA603B4600221A605A60244B254A9B
:101C60001A60234B53225A60214B00229A60204B6A
:101C70004FF6FF72DA601E4B00221A611C4B0022E5
:101C80009A611B4803F0B0FC0346002B14BF0123EC
:101C90000023DBB2002B01D000F0CCF94FF48053CD
:101CA000BB6007F108031946114804F03BF80346EE
:101CB000002B14BF01230023DBB2002B01D000F066
:101CC000B9F900233B6000237B603B461946084876
:101CD00004F018FC0346002B14BF01230023DBB2E1
:101CE000002B01D000F0A6F900BF1837BD4680BD1B
:101CF000D80800200008004080B586B000AF07F18A
:101D0000080300221A605A609A60DA603B4600229B
:101D10001A605A60244B254A1A60234B53225A609A
:101D2000214B00229A60204B4FF0FF32DA601E4BAD
:101D300000221A611C4B00229A611B4803F054FCDC
:101D40000346002B14BF01230023DBB2002B01D07C
:101D500000F070F94FF48053BB6007F10803194697
:101D6000114803F0DFFF0346002B14BF01230023BB
:101D7000DBB2002B01D000F05DF900233B600023B3
:101D80007B603B461946084804F0BCFB0346002B29
:101D900014BF01230023DBB2002B01D000F04AF96D
:101DA00000BF1837BD4680BD18090020000C004058
:101DB00080B500AF134B144A1A60124B4FF4E13256
:101DC0005A60104B00229A600E4B0022DA600D4BD5
:101DD00000221A610B4B0C225A610A4B00229A61B5
:101DE000084B0022DA61074804F06EFC0346002B22
:101DF00014BF01230023DBB2002B01D000F01AF93D
:101E000000BF80BD580900200010014080B500AF20
:101E1000144B154A1A60134B4FF496425A60114BFB
:101E200000229A600F4B0022DA600E4B4FF4C06222
:101E30001A610C4B0C225A610A4B00229A61094B21
:101E40000022DA61074804F03FFC0346002B14BF70
:101E500001230023DBB2002B01D000F0EBF800BF20
:101E600080BD00BF980900200044004080B58AB0C2
:101E700000AF07F1140300221A605A609A60DA601A
:101E80001A6100233B614F4B1B6B4E4A43F08003AA
:101E900013634C4B1B6B03F080033B613B690023D6
:101EA000FB60484B1B6B474A43F001031363454BF0
:101EB0001B6B03F00103FB60FB680023BB60414B1D
:101EC0001B6B404A43F0100313633E4B1B6B03F044
:101ED0001003BB60BB6800237B603A4B1B6B394A25
:101EE00043F002031363374B1B6B03F002037B6069
:101EF0007B6800233B60334B1B6B324A43F0080383
:101F00001363304B1B6B03F008033B603B680122FB
:101F10004FF480512C4801F023FB01224FF4C051B3
:101F20002A4801F01DFB04237B61294BBB6101237F
:101F3000FB6107F114031946264801F077F9264B97
:101F40001B78022B0FD14FF4C0537B610123BB617F
:101F50000223FB6103233B6207F1140319461A486D
:101F600001F064F90EE04FF480537B610123BB6103
:101F70000223FB6103233B6207F114031946124855
:101F800001F054F94FF4C0537B610123BB6101237D
:101F9000FB6103233B6207F1140319460B4801F070
:101FA00045F90E4B93F83D30002B07D0002200215D
:101FB000082000F0DAFD082000F0F3FD00BF28370C
:101FC000BD4680BD003802400010024000040240BF
:101FD0000000211000000240180A0020480C0020D8
:101FE00080B483B000AF78607B681A68064B1B68CA
:101FF0009A4202D1054B01221A7000BF0C37BD4630
:102000005DF8047B704700BF98080020B80F0020DF
:1020100080B582B000AF0346FB80FB88042B02D161
:10202000034809F029FA00BF0837BD4680BD00BF4C
:10203000480C002080B400AF00BFBD465DF8047BB3
:102040007047000080B582B000AF786039607B686F
:10205000012B1FD13B684FF6FF7293421AD12148E2
:102060000CF0FBFC204806F0EFFC20480CF065FB70
:102070001F480BF041FD1F480CF07CFA1E480BF086
:1020800022FC1E480BF07FFC1D4809F03BF81D4860
:1020900009F0DCFC7B68002B1FD13B684FF6FF7218
:1020A00093421AD1174809F025FD154809F052F856
:1020B00012480BF073FC10480BF010FC0D480CF0AC
:1020C00064FA0B480BF046FD08480CF048FB064844
:1020D00006F0DEFC03480CF0CDFC00BF0837BD461F
:1020E00080BD00BFD8090020180A0020180B00206E
:1020F000680B0020300C0020340C0020380C00202D
:10210000480C0020940C002080B500AF4FF6FF7102
:102110000120FFF797FF80BD80B500AF4FF6FF713C
:102120000020FFF78FFF80BD80B582B000AF002395
:102130007B60104B5B6C0F4A43F4804353640D4B40
:102140005B6C03F480437B607B6800233B60094B3E
:102150001B6C084A43F080531364064B1B6C03F05E
:1021600080533B603B68072000F0F4FC00BF083759
:10217000BD4680BD0038024080B58AB000AF7860AF
:1021800007F1140300221A605A609A60DA601A613B
:102190007B681B68174A934227D100233B61164B8B
:1021A0001B6C154A43F000531364134B1B6C03F074
:1021B00000533B613B690023FB600F4B1B6B0E4AD6
:1021C00043F0010313630C4B1B6B03F00103FB6033
:1021D000FB6830237B610323BB610023FB6107F1B4
:1021E00014031946054801F021F800BF2837BD4601
:1021F00080BD00BF00740040003802400000024073
:1022000080B58AB000AF786007F1140300221A602D
:102210005A609A60DA601A617B681B68194A9342B7
:102220002CD100233B61184B1B6C174A43F48043AD
:102230001364154B1B6C03F480433B613B69002323
:10224000FB60114B1B6B104A43F0020313630E4BF0
:102250001B6B03F00203FB60FB684FF420437B61C0
:102260000223BB610123FB6103233B6205237B62E5
:1022700007F114031946054800F0D8FF00BF2837BE
:10228000BD4680BD003800400038024000040240D6
:1022900080B586B000AF78607B681B682C4A93429B
:1022A0000ED100237B612B4B5B6C2A4A43F0010368
:1022B0005364284B5B6C03F001037B617B6942E054
:1022C0007B681B68244A934216D100233B61214B53
:1022D0001B6C204A43F0020313641E4B1B6C03F07B
:1022E00002033B613B69002200211D2000F03DFC00
:1022F0001D2000F056FC26E07B681B68174A9342BD
:102300000ED10023FB60134B1B6C124A43F00403F5
:102310001364104B1B6C03F00403FB60FB6812E0BA
:102320007B681B680E4A93420DD10023BB60094BAA
:102330001B6C084A43F008031364064B1B6C03F044
:102340000803BB60BB6800BF1837BD4680BD00BF37
:102350000000014000380240000400400008004036
:10236000000C004080B58AB000AF786007F114031C
:1023700000221A605A609A60DA601A617B681B68F2
:10238000B3F1804F33D100233B611B4B1B6C1A4AC6
:1023900043F001031364184B1B6C03F001033B6112
:1023A0003B690023FB60144B1B6B134A43F0010392
:1023B0001363114B1B6B03F00103FB60FB680323EA
:1023C0007B610223BB610123FB6103233B62012389
:1023D0007B6207F114031946084800F027FF00222A
:1023E00000211C2000F0C1FB1C2000F0DAFB00BF24
:1023F0002837BD4680BD00BF0038024000000240C3
:1024000080B588B000AF786007F10C0300221A6035
:102410005A609A60DA601A617B681B68174A9342B7
:1024200027D10023BB60164B1B6B154A43F01003EA
:102430001363134B1B6B03F01003BB60BB680CF002
:1024400015FD0346022B03D14FF40073FB6002E03D
:102450004FF42063FB6002233B6102237B61032373
:10246000BB610123FB6107F10C031946054800F02D
:10247000DDFE00BF2037BD4680BD00BF000001402B
:10248000003802400010024080B58CB000AF786088
:1024900007F11C0300221A605A609A60DA601A6120
:1024A0007B681B68364A93422DD10023BB61354BB4
:1024B0005B6C344A43F010035364324B5B6C03F0A3
:1024C0001003BB61BB6900237B612E4B1B6B2D4A44
:1024D00043F0010313632B4B1B6B03F001037B6180
:1024E0007B694FF4C063FB6102233B6200237B6284
:1024F0000323BB620723FB6207F11C031946224832
:1025000000F094FE38E07B681B68204A934233D188
:1025100000233B611B4B1B6C1A4A43F400331364CA
:10252000184B1B6C03F400333B613B690023FB60D9
:10253000144B1B6B134A43F008031363114B1B6BC3
:1025400003F00803FB60FB686023FB6102233B622E
:1025500000237B620323BB620723FB6207F11C039A
:1025600019460B4800F062FE00220021262000F0F0
:10257000FCFA262000F015FB00BF3037BD4680BDB9
:1025800000100140003802400000024000440040BA
:10259000000C024080B400AF00BFBD465DF8047B74
:1025A000704780B400AF04205FEA0E01084202D0F9
:1025B000EFF3098001E0EFF30880416900F056B8BD
:1025C00000BE00BFFDE780B400AFFEE780B400AFFF
:1025D000FEE780B400AFFEE780B400AF00BFBD46A9
:1025E0005DF8047B704780B400AF00BFBD465DF866
:1025F000047B704780B400AF00BFBD465DF8047B2C
:10260000704780B500AF00F05DF900BF80BD80B5B8
:1026100000AF042000F0BEFF00BF80BD80B500AF5A
:10262000024803F0B0F900BF80BD00BF5808002089
:1026300080B500AF024803F0A6F900BF80BD00BF1F
:102640009808002080B500AF024804F08BF800BF66
:1026500080BD00BF9809002080B500AF024801F09E
:1026600001F900BF80BD00BFD814002080B491B034
:1026700000AF78607B681B68FB637B685B68BB634B
:102680007B689B687B637B68DB683B637B681B695B
:10269000FB627B685B69BB627B689B697B627B6872
:1026A000DB693B620C4B1B68FB610C4B1B68BB611D
:1026B0000B4B1B687B610B4B1B683B610A4B1B6818
:1026C000BB600A4B1B68FB6000BE00BF4437BD46C1
:1026D0005DF8047B704700BF28ED00E02CED00E0C2
:1026E00030ED00E03CED00E034ED00E038ED00E0DE
:1026F00080B400AF01231846BD465DF8047B7047E7
:1027000080B582B000AF7860396010F023FC0246DB
:10271000162313604FF0FF3318460837BD4680BDBF
:1027200080B582B000AF78604FF0FF317868FFF776
:10273000E7FFFEE780B586B000AF7860144A154B1E
:10274000D31A7B617B693B61134B1B68002B02D161
:10275000114B124A1A60104B1A687B6813443A698D
:102760009A4207D210F0F6FB02460C2313604FF09A
:10277000FF3309E0084B1B68FB60074B1A687B6856
:102780001344054A1360FB6818461837BD4680BDE0
:102790000000022000040000CC0F0020E8180020F8
:1027A00080B400AF084BD3F88830074A43F4700375
:1027B000C2F88830044B4FF000629A6000BFBD46FB
:1027C0005DF8047B704700BF00ED00E0DFF834D017
:1027D000002103E00C4B5B58435004310B480C4B79
:1027E00042189A42F6D30B4A02E0002342F8043B17
:1027F000094B9A42F9D3FFF7D3FF10F0B1FBFEF774
:10280000D3FB704700000220443F01080000002075
:102810009007002090070020E4180020FEE7000049
:1028200080B500AF0E4B1B680D4A43F40073136074
:102830000B4B1B680A4A43F480631360084B1B6808
:10284000074A43F480731360032000F083F90020EB
:1028500000F008F8FFF768FC0023184680BD00BFB1
:10286000003C024080B582B000AF7860124B1A681D
:10287000124B1B7819464FF47A73B3FBF1F3B2FB9A
:10288000F3F3184600F0ADF90346002B01D0012305
:102890000EE07B680F2B0AD8002279684FF0FF30DA
:1028A00000F063F9064A7B681360002300E001230F
:1028B00018460837BD4680BD040000200C000020EB
:1028C0000800002080B400AF064B1B781A46064B68
:1028D0001B681344044A136000BFBD465DF8047BC7
:1028E000704700BF0C000020E00F002080B400AF54
:1028F000034B1B681846BD465DF8047B704700BF5C
:10290000E00F002080B584B000AF7860FFF7EEFFE5
:10291000B8607B68FB60FB68B3F1FF3F05D0094BF3
:102920001B781A46FB681344FB6000BFFFF7DEFF0D
:102930000246BB68D31AFA689A42F7D800BF10372C
:10294000BD4680BD0C00002080B485B000AF78602B
:102950007B6803F00703FB600C4BDB68BB60BA6865
:102960004FF6FF031340BB60FB681A02BB681343BA
:1029700043F0BF6343F40033BB60044ABB68D360D9
:1029800000BF1437BD465DF8047B704700ED00E0E2
:1029900080B400AF044BDB681B0A03F00703184642
:1029A000BD465DF8047B704700ED00E080B483B065
:1029B00000AF0346FB7197F90730002B0BDBFB7967
:1029C00003F01F02074997F907305B09012000FA5D
:1029D00002F241F8232000BF0C37BD465DF8047BAE
:1029E000704700BF00E100E080B483B000AF034651
:1029F000FB7197F90730002B10DBFB7903F01F0206
:102A0000094997F907305B09012000FA02F22033E7
:102A100041F82320BFF34F8FBFF36F8F00BF0C37F8
:102A2000BD465DF8047B704700E100E080B483B0F0
:102A300000AF03463960FB7197F90730002B0ADBC2
:102A40003B68DAB20C4997F907301201D2B20B4455
:102A500083F800230AE03B68DAB20849FB7903F007
:102A60000F03043B1201D2B20B441A7600BF0C379D
:102A7000BD465DF8047B704700E100E000ED00E03A
:102A800080B489B000AFF860B9607A60FB6803F089
:102A90000703FB61FB69C3F10703042B28BF042371
:102AA000BB61FB690433062B02D9FB69033B00E0E1
:102AB00000237B614FF0FF32BB6902FA03F3DA4374
:102AC000BB681A407B699A404FF0FF317B6901FA7D
:102AD00003F3D9437B680B40134318462437BD46A4
:102AE0005DF8047B7047000080B400AFBFF34F8FE8
:102AF000054BDB6803F4E0620349044B1343CB60EE
:102B0000BFF34F8F00BFFDE700ED00E00400FA05C2
:102B100080B582B000AF78607B68013BB3F1807F05
:102B200001D301230FE00A4A7B68013B53600F2168
:102B30004FF0FF30FFF77AFF054B00229A60044BFD
:102B400007221A60002318460837BD4680BD00BF23
:102B500010E000E080B582B000AF78607868FFF7E1
:102B6000F3FE00BF0837BD4680BD80B586B000AF1C
:102B70000346B9607A60FB7300237B61FFF708FFAF
:102B800078617A68B9687869FFF77AFF024697F941
:102B90000F3011461846FFF749FF00BF1837BD46F2
:102BA00080BD80B582B000AF0346FB7197F9073056
:102BB0001846FFF7FBFE00BF0837BD4680BD80B555
:102BC00082B000AF0346FB7197F907301846FFF754
:102BD0000BFF00BF0837BD4680BD80B500AFFFF7D3
:102BE00083FF80B582B000AF78607868FFF790FF10
:102BF000034618460837BD4680BD80B582B000AF99
:102C000078607B68002B01D1012314E07B681B797D
:102C1000DBB2002B05D17B6800225A717868FFF780
:102C2000ABFA7B6802221A717B6800221A617B680A
:102C300001221A71002318460837BD4680BD80B4B2
:102C400085B000AF786039600023FB600023BB6073
:102C50007B685B79012B01D1022350E07B68012264
:102C60005A717B6802221A717B681B6819680122FD
:102C70003B689A407B681B680A431A603B68002BDC
:102C80001AD17B681B681B6803F00403FB607B6838
:102C90001B681B6803F03803BB60FB68042B27D15B
:102CA000BB68382B24D17B681B685A687B681B681B
:102CB00042F001025A601BE07B681B681B6803F44A
:102CC0008023FB607B681B681B6803F46013BB6098
:102CD000FB68B3F5802F0BD1BB68B3F5601F07D13C
:102CE0007B681B685A687B681B6842F002025A6066
:102CF0007B6801221A717B6800225A7100231846F2
:102D00001437BD465DF8047B704780B487B000AFD0
:102D1000F860B9607A6000237B6100233B61FB6847
:102D20005B79012B01D1022336E0FB6801225A7145
:102D3000FB6802221A71FB681B681B687B6140F606
:102D4000FE727B6802FA03F3DB437A6913407B610E
:102D5000BB681A68BB685B6813433B613A697B6870
:102D600002FA03F37A6913437B61FB681B687A6993
:102D70001A60FB681B681968C0227B6802FA03F3BB
:102D8000DA43FB681B680A401A60FB6801221A716B
:102D9000FB6800225A71002318461C37BD465DF8B7
:102DA000047B704780B487B000AFF860B9607A6088
:102DB0003B6000237B61FB681B687B61BB68002B69
:102DC00005D17A697B68134408337B6104E07A6932
:102DD0007B68134414337B617B691A463B6813603C
:102DE000002318461C37BD465DF8047B704780B44D
:102DF00083B000AF78607B6893F83530DBB2022B8C
:102E000004D07B6880225A6501230CE07B68052290
:102E100083F835207B681B681A687B681B6822F082
:102E200001021A60002318460C37BD465DF8047B8A
:102E30007047000080B586B000AFF860B960C7E9A0
:102E400000230123FB75234B1B7E012B01D10223A1
:102E50003BE0204B01221A764CF2503000F070F823
:102E60000346FB75FB7D002B2BD1FB68002B05D1A6
:102E70003B781946B86800F019F916E0FB68012B99
:102E800005D13B881946B86800F0ECF80DE0FB6806
:102E9000022B05D13B681946B86800F0C1F804E080
:102EA000D7E90023B86800F08BF84CF2503000F0FE
:102EB00047F80346FB75084B1B69074A23F00103DB
:102EC0001361044B00221A76FB7D18461837BD4665
:102ED00080BD00BFE40F0020003C024080B483B0FE
:102EE00000AF0023FB710B4B1B69002B0BDA094B66
:102EF000094A5A60074B094A5A60064B1B69002B66
:102F000001DA0123FB71FB7918460C37BD465DF8E9
:102F1000047B7047003C024023016745AB89EFCD3D
:102F200080B400AF054B1B69044A43F000431361B2
:102F300000231846BD465DF8047B7047003C024004
:102F400080B584B000AF78600023FB601A4B00228C
:102F5000DA61FFF7CBFCF86010E07B68B3F1FF3F6C
:102F60000CD07B68002B07D0FFF7C0FC0246FB6843
:102F7000D31A7A689A4201D2032319E00F4BDB6817
:102F800003F48033002BE8D10C4BDB6803F0010322
:102F9000002B02D0094B0122DA60084BDB6803F0FA
:102FA000F203002B03D000F0A3F8012300E000237C
:102FB00018461037BD4680BDE40F0020003C02409B
:102FC00090B484B000AFF860C7E90023134B1B69CD
:102FD000124A23F440731361104B1B690F4A43F4E8
:102FE000407313610D4B1B690C4A43F001031361DD
:102FF000FB683A681A60BFF36F8FD7E900124FF091
:1030000000034FF0000413000024FA680432136038
:1030100000BF1037BD4690BC704700BF003C024067
:1030200080B483B000AF786039600D4B1B690C4AE7
:1030300023F4407313610A4B1B69094A43F400737C
:103040001361074B1B69064A43F0010313617B6858
:103050003A681A6000BF0C37BD465DF8047B7047C4
:10306000003C024080B483B000AF78600B467B80A8
:103070000D4B1B690C4A23F4407313610A4B1B6907
:10308000094A43F480731361074B1B69064A43F0F6
:10309000010313617B687A881A8000BF0C37BD4634
:1030A0005DF8047B704700BF003C024080B483B0F1
:1030B00000AF78600B46FB700C4B1B690B4A23F486
:1030C00040731361094B094A1B691361074B1B6964
:1030D000064A43F0010313617B68FA781A7000BF57
:1030E0000C37BD465DF8047B704700BF003C0240D2
:1030F00080B400AF274BDB6803F01003002B08D02F
:10310000254BDB6943F01003234AD361214B102286
:10311000DA60204BDB6803F02003002B08D01E4B45
:10312000DB6943F008031C4AD3611A4B2022DA60A2
:10313000184BDB6803F04003002B08D0164BDB690B
:1031400043F00403144AD361124B4022DA60114B5E
:10315000DB6803F08003002B08D00F4BDB6943F0E2
:1031600002030D4AD3610B4B8022DA60094BDB6806
:1031700003F00203002B08D0074BDB6943F0200368
:10318000054AD361034B0222DA6000BFBD465DF8F9
:10319000047B7047003C0240E40F002080B485B0FF
:1031A00000AF78600B46FB700023FB60FB78002BC0
:1031B00002D10023FB6010E0FB78012B03D14FF418
:1031C0008073FB6009E0FB78022B03D14FF400739E
:1031D000FB6002E04FF44073FB60134B1B69124A23
:1031E00023F440731361104B1A690F49FB681343B2
:1031F0000B610D4B1B690C4A23F0F80313610A4B5A
:103200001A697B68DB001343074A43F0020313612A
:10321000054B1B69044A43F48033136100BF143724
:10322000BD465DF8047B7047003C024080B489B025
:1032300000AF7860396000237B6100233B6100238D
:10324000BB610023FB616BE10122FB6902FA03F31E
:103250007B613B681B687A6913403B613A697B6913
:103260009A4240F05A813B685B68012B0BD03B6867
:103270005B68022B07D03B685B68112B03D03B686F
:103280005B68122B30D17B689B68BB61FB695B007C
:10329000032202FA03F3DB43BA691340BB613B68C4
:1032A000DA68FB695B0002FA03F3BA691343BB6196
:1032B0007B68BA699A607B685B68BB610122FB69C5
:1032C00002FA03F3DB43BA691340BB613B685B68F6
:1032D0001B0903F00102FB6902FA03F3BA69134305
:1032E000BB617B68BA695A607B68DB68BB61FB695C
:1032F0005B00032202FA03F3DB43BA691340BB61AC
:103300003B689A68FB695B0002FA03F3BA691343EE
:10331000BB617B68BA69DA603B685B68022B03D0EB
:103320003B685B68122B23D1FB69DA087B680832A3
:1033300053F82230BB61FB6903F007039B000F22A7
:1033400002FA03F3DB43BA691340BB613B681A69B5
:10335000FB6903F007039B0002FA03F3BA69134306
:10336000BB61FB69DA087B680832B96943F822104F
:103370007B681B68BB61FB695B00032202FA03F3F5
:10338000DB43BA691340BB613B685B6803F003022F
:10339000FB695B0002FA03F3BA691343BB617B6804
:1033A000BA691A603B685B6803F08053002B00F039
:1033B000B4800023FB605F4B5B6C5E4A43F4804348
:1033C00053645C4B5B6C03F48043FB60FB685A4ABC
:1033D000FB699B08023352F82330BB61FB6903F0A1
:1033E00003039B000F2202FA03F3DB43BA69134085
:1033F000BB617B68514A93422BD07B68504A934211
:1034000025D07B684F4A93421FD07B684E4A934237
:1034100019D07B684D4A934213D07B684C4A934243
:103420000DD07B684B4A934207D07B684A4A93424F
:1034300001D107230EE008230CE006230AE0052350
:1034400008E0042306E0032304E0022302E0012352
:1034500000E00023FA6902F0030292009340BA6987
:103460001343BB613449FB699B080233BA6941F8D5
:1034700023203A4B1B68BB613B69DB43BA691340AD
:10348000BB613B685B6803F48033002B03D0BA69EF
:103490003B691343BB61314ABB6913602F4B5B68C7
:1034A000BB613B69DB43BA691340BB613B685B6846
:1034B00003F40033002B03D0BA693B691343BB61AB
:1034C000264ABB695360254B9B68BB613B69DB4364
:1034D000BA691340BB613B685B6803F48013002B3F
:1034E00003D0BA693B691343BB611C4ABB69936053
:1034F0001A4BDB68BB613B69DB43BA691340BB61B4
:103500003B685B6803F40013002B03D0BA693B6986
:103510001343BB61114ABB69D360FB690133FB6193
:10352000FB690F2B7FF690AE00BF2437BD465DF8D8
:10353000047B704700380240003801400000024020
:103540000004024000080240000C0240001002404B
:103550000014024000180240001C0240003C0140E0
:1035600080B483B000AF78600B467B8013467B70DD
:103570007B78002B03D07A887B689A6103E07B8894
:103580001A047B689A6100BF0C37BD465DF8047B66
:103590007047000080B582B000AF0346FB80084B47
:1035A0005A69FB881340002B06D0054AFB885361FB
:1035B000FB881846FEF72CFD00BF0837BD4680BDCE
:1035C000003C0140F0B58FB00AAF78607B68002BFB
:1035D00001D101230FE17B681B68BB607B6893F816
:1035E000BD33DBB2002B06D17B68002283F8BC23FD
:1035F00078680DF051FA7B68032283F8BD23BB681D
:10360000DB6B03F48073002B02D17B6800221A610C
:103610007B681B68184603F076FF7B681B683B607D
:103620007E686D4606F110040FCC0FC50FCC0FC598
:1036300094E8030085E80300331D0ECB386803F0DF
:103640004DFE0346002B05D07B68022283F8BD2384
:103650000123D0E07B681B680021184603F064FF5B
:103660000023FB734AE0FA7B79681346DB009B1A60
:103670009B000B443D3301221A70FA7B7968134694
:10368000DB009B1A9B000B443C33FA7B1A70FA7BDD
:10369000FB7B98B279681346DB009B1A9B000B44B6
:1036A000423302461A80FA7B79681346DB009B1A84
:1036B0009B000B443F3300221A70FA7B7968134653
:1036C000DB009B1A9B000B44443300221A60FA7BF8
:1036D00079681346DB009B1A9B000B444833002299
:1036E0001A60FA7B79681346DB009B1A9B000B4437
:1036F000503300221A60FB7B0133FB73FA7B7B683B
:103700005B689A42AFD30023FB7344E0FA7B79688D
:103710001346DB009B1A9B000B4403F2FD130022AF
:103720001A70FA7B79681346DB009B1A9B000B44E6
:1037300003F5FE73FA7B1A70FA7B79681346DB0097
:103740009B1A9B000B4403F2FF1300221A70FA7BB2
:1037500079681346DB009B1A9B000B4403F5017349
:1037600000221A60FA7B79681346DB009B1A9B00E3
:103770000B4403F5027300221A60FA7B7968134642
:10378000DB009B1A9B000B4403F5047300221A60B4
:10379000FB7B0133FB73FA7B7B685B689A42B5D392
:1037A0007B681B683B607E686D4606F110040FCC99
:1037B0000FC50FCC0FC594E8030085E80300331D47
:1037C0000ECB386803F0DAFE0346002B05D07B6889
:1037D000022283F8BD2301230DE07B68002283F8D9
:1037E00038207B68012283F8BD237B681B6818465C
:1037F00004F022FF002318461437BD46F0BD80B503
:1038000084B000AF78607B681B68FB607B6893F8CE
:10381000BC33012B01D1022320E07B68012283F815
:10382000BC237B689B6A012B09D17B689B69012BB8
:1038300005D0FB689B6B43F48032FB689A637B681E
:103840001B68184603F04EFE7B681B68184604F0A0
:10385000D2FE7B68002283F8BC2300231846103771
:10386000BD4680BD90B58DB000AF78607B681B68A9
:103870003B623B6AFB617B681B68184604F090FF63
:103880000346002B40F09D837B681B68184604F0BC
:10389000F4FE0346002B00F093837B681B681846F8
:1038A00004F0EBFE034603F00203022B07D17B6812
:1038B0001B685A697B681B6802F002025A617B68C8
:1038C0001B68184604F0D9FE034603F01003102BC2
:1038D00061D17B681B689A697B681B6822F01002C3
:1038E0009A613B6A1B6ABB61BB6903F00F02134616
:1038F000DB009B1A9B0003F5FC737A6813440433C6
:103900007B61BB695B0C03F00F03022B24D1BA6906
:1039100047F6F0731340002B35D07B69D968BB693B
:103920001B099BB2C3F30A039BB21A46386A04F020
:103930003FFD7B69DA68BB691B09C3F30A031A44BC
:103940007B69DA607B699A69BB691B09C3F30A0367
:103950001A447B699A6116E0BB695B0C03F00F03A4
:10396000062B10D17B6803F5717308221946386A5B
:1039700004F01EFD7B699A69BB691B09C3F30A0346
:103980001A447B699A617B681B689A697B681B682B
:1039900042F010029A617B681B68184604F06DFEC5
:1039A000034603F40023B3F5002F6ED100237B629E
:1039B0007B681B68184604F073FEB86262E0BB6A5D
:1039C00003F00103002B57D07B681B687A6AD2B2E0
:1039D0001146184604F098FE38613B6903F0010374
:1039E000002B0CD07B6A5A01FB69134403F530634A
:1039F0001A4601239360796A786800F099FD3B6963
:103A000003F00803002B0CD07B6A5A01FB691344B6
:103A100003F530631A4608239360796A786800F0EA
:103A200093FE3B6903F01003002B08D07B6A5A0118
:103A3000FB69134403F530631A46102393603B6916
:103A400003F02003002B08D07B6A5A01FB69134462
:103A500003F530631A46202393603B6903F4005357
:103A6000002B09D07B6A5A01FB69134403F53063CC
:103A70001A464FF4005393607B6A01337B62BB6A42
:103A80005B08BB62BB6A002B99D17B681B68184638
:103A900004F0F3FD034603F48023B3F5802F40F0D8
:103AA000C0807B681B68184604F014FEB8620023CF
:103AB0007B62B2E0BB6A03F00103002B00F0A78039
:103AC0007B681B687A6AD2B21146184604F03AFE47
:103AD00038613B6903F00103002B57D07B6A03F088
:103AE0000F03012202FA03F3FB60FB6903F5006395
:103AF0005A6BFB68DB43F96901F5006113404B63C6
:103B00007B6A5A01FB69134403F510631A460123CB
:103B100093607B681B69012B32D179687A6A1346FE
:103B2000DB009B1A9B000B444833196878687A6A5B
:103B30001346DB009B1A9B00034444331B68194463
:103B400078687A6A1346DB009B1A9B00034448336B
:103B500019607B6A002B13D179687A6A1346DB00FF
:103B60009B1A9B000B4450331B68002B08D17B68C9
:103B700018687B6803F571731A46012104F042FE50
:103B80007B6ADBB2194678680DF007F83B6903F0F1
:103B90000803002B08D07B6A5A01FB69134403F524
:103BA00010631A46082393603B6903F01003002B4F
:103BB00008D07B6A5A01FB69134403F510631A4667
:103BC000102393603B6903F04003002B08D07B6A0D
:103BD0005A01FB69134403F510631A4640239360AE
:103BE0003B6903F00203002B08D07B6A5A01FB6992
:103BF000134403F510631A46022393603B6903F0F4
:103C00008003002B03D0796A786800F003FC7B6A9C
:103C100001337B62BB6A5B08BB62BB6A002B7FF42B
:103C200049AF7B681B68184604F027FD034603F084
:103C30000043B3F1004F22D1FB6903F500635B68D9
:103C4000FA6902F5006223F0010353607B6893F880
:103C5000F433012B08D17B68002283F8F423002180
:103C6000786800F00FFE02E078680DF00DF87B68D0
:103C70001B685A697B681B6802F000425A617B68C6
:103C80001B68184604F0F9FC034603F40063B3F51F
:103C9000006F12D1FB6903F500639B6803F0010319
:103CA000012B02D178680CF0C9FF7B681B685A6948
:103CB0007B681B6802F400625A617B681B681846C7
:103CC00004F0DBFC034603F48053B3F5805F40F05F
:103CD000C780FB6903F500635B68FA6902F500625F
:103CE00023F0010353607B681B681021184603F022
:103CF000A9FD0023FB6256E0FB6A5A01FB691344ED
:103D000003F510631A464FF67F339360FB6A5A013E
:103D1000FB69134403F510631B68FA6A5101FA69E1
:103D20000A4402F5106223F400131360FB6A5A017F
:103D3000FB69134403F510631B68FA6A5101FA69C1
:103D40000A4402F5106243F000631360FB6A5A01F3
:103D5000FB69134403F530631A464FF67F339360D3
:103D6000FB6A5A01FB69134403F530631B68FA6A66
:103D70005101FA690A4402F5306223F4001313601A
:103D8000FB6A5A01FB69134403F530631B68FA6A46
:103D90005101FA690A4402F5306243F0006313608E
:103DA000FB6A0133FB627B685B68FA6A9A42A3D3C1
:103DB000FB6903F50063DB69FA6902F5006243F011
:103DC0000113D3617B681B6B002B16D0FB6903F5D5
:103DD0000063D3F88430FA6902F5006243F00B0304
:103DE000C2F88430FB6903F500635B6CFA6902F585
:103DF000006243F00B03536415E0FB6903F50063B5
:103E00005B69FA6902F5006243F4005343F02B0347
:103E10005361FB6903F500631B69FA6902F50062EF
:103E200043F00B031361FB6903F500631B68FA6938
:103E300002F5006223F4FE6313607B6818687B68F8
:103E40001B69D9B27B6803F571731A4604F0DAFC7A
:103E50007B681B685A697B681B6802F480525A6150
:103E60007B681B68184604F008FC034603F4005303
:103E7000B3F5005F24D17B681B68184604F09EFCF4
:103E80007B681B68184603F03EFD03461A467B68B4
:103E9000DA607B681C6801F02FF901467B68DB68FB
:103EA000DBB21A46204603F07BFA78680CF09DFEE0
:103EB0007B681B685A697B681B6802F400525A6170
:103EC0007B681B68184604F0D8FB034603F0080320
:103ED000082B0AD178680CF07AFE7B681B685A6957
:103EE0007B681B6802F008025A617B681B681846F1
:103EF00004F0C3FB034603F48013B3F5801F0FD116
:103F000000237B627B6ADBB2194678680CF0DCFE2A
:103F10007B681B685A697B681B6802F480125A61CF
:103F20007B681B68184604F0A8FB034603F40013E3
:103F3000B3F5001F0FD100237B627B6ADBB2194609
:103F400078680CF0AFFE7B681B685A697B681B6859
:103F500002F400125A617B681B68184604F08DFB5E
:103F6000034603F08043B3F1804F0AD178680CF028
:103F7000BDFE7B681B685A697B681B6802F0804243
:103F80005A617B681B68184604F077FB034603F010
:103F90000403042B15D17B681B685B68BB61BB699C
:103FA00003F00403002B02D078680CF0ADFE7B68B0
:103FB0001B6859687B681B68BA690A435A6000E04D
:103FC00000BF3437BD4690BD80B582B000AF786089
:103FD0000B46FB707B6893F8BC33012B01D10223A5
:103FE00013E07B68012283F8BC237B68FA7883F8AE
:103FF00038207B681B68FA781146184604F0D5FA19
:104000007B68002283F8BC23002318460837BD468E
:1040100080BD80B584B000AF7860084611461A466E
:104020000346FB700B463B801346BB700023FB72BC
:1040300097F90330002B0FDAFB7803F00F021346D9
:10404000DB009B1A9B0038337A6813440433FB600F
:10405000FB6801225A700FE0FB7803F00F02134651
:10406000DB009B1A9B0003F5FC737A68134404334E
:10407000FB60FB6800225A70FB7803F00F03DAB292
:10408000FB681A703A88FB689A60FB68BA78DA7045
:10409000FB685B78002B04D0FB681B789AB2FB6846
:1040A000DA80BB78022B02D1FB6800221A717B6890
:1040B00093F8BC33012B01D102230EE07B6801226F
:1040C00083F8BC237B681B68F968184603F040FC42
:1040D0007B68002283F8BC23FB7A18461037BD4664
:1040E00080BD80B584B000AF78600B46FB7097F957
:1040F0000330002B0FDAFB7803F00F021346DB00CE
:104100009B1A9B0038337A6813440433FB60FB68C6
:1041100001225A700FE0FB7803F00F021346DB0018
:104120009B1A9B0003F5FC737A6813440433FB600D
:10413000FB6800225A70FB7803F00F03DAB2FB68C9
:104140001A707B6893F8BC33012B01D102230EE077
:104150007B68012283F8BC237B681B68F9681846DA
:1041600003F07EFC7B68002283F8BC230023184602
:104170001037BD4680BD80B586B000AFF8607A606C
:104180003B600B46FB72FB7A03F00F021346DB0029
:104190009B1A9B0003F5FC73FA68134404337B619C
:1041A0007B697A68DA607B693A685A617B690022C8
:1041B0009A617B6900225A70FB7A03F00F03DAB22E
:1041C0007B691A70FB681B69012B02D17A687B69D5
:1041D0001A61FB7A03F00F03002B09D1FB68186802
:1041E000FB681B69DBB21A46796903F059FF08E0E6
:1041F000FB681868FB681B69DBB21A46796903F033
:104200000BFD002318461837BD4680BD80B586B02B
:1042100000AFF8607A603B600B46FB72FB7A03F0FC
:104220000F021346DB009B1A9B003833FA681344D5
:1042300004337B617B697A68DA607B693A685A612A
:104240007B6900229A617B6901225A70FB7A03F034
:104250000F03DAB27B691A70FB681B69012B02D16C
:104260007A687B691A61FB7A03F00F03002B09D18E
:10427000FB681868FB681B69DBB21A46796903F0B2
:104280000FFF08E0FB681868FB681B69DBB21A4681
:10429000796903F0C1FC002318461837BD4680BD7C
:1042A00080B584B000AF78600B46FB70FB7803F0FC
:1042B0000F027B685B689A4201D9012350E097F9AD
:1042C0000330002B0FDAFB7803F00F021346DB00FC
:1042D0009B1A9B0038337A6813440433FB60FB68F5
:1042E00001225A700DE0FA781346DB009B1A9B00FE
:1042F00003F5FC737A6813440433FB60FB68002207
:104300005A70FB6801229A70FB7803F00F03DAB24F
:10431000FB681A707B6893F8BC33012B01D1022330
:104320001EE07B68012283F8BC237B681B68F96868
:10433000184604F066F8FB7803F00F03002B0AD14F
:104340007B6818687B681B69D9B27B6803F5717359
:104350001A4604F057FA7B68002283F8BC23002336
:1043600018461037BD4680BD80B584B000AF786078
:104370000B46FB70FB7803F00F027B685B689A4288
:1043800001D9012342E097F90330002B0FDAFB78C3
:1043900003F00F021346DB009B1A9B0038337A6848
:1043A00013440433FB60FB6801225A700FE0FB7872
:1043B00003F00F021346DB009B1A9B0003F5FC730E
:1043C0007A6813440433FB60FB6800225A70FB6870
:1043D00000229A70FB7803F00F03DAB2FB681A70C0
:1043E0007B6893F8BC33012B01D102230EE07B687C
:1043F000012283F8BC237B681B68F968184604F027
:104400006EF87B68002283F8BC230023184610371F
:10441000BD4680BD80B58AB002AF786039607B68E8
:104420001B687B617B693B613A681346DB009B1A22
:104430009B0038337A6813440433FB60FB689A6945
:10444000FB685B699A4201D901236CE0FB685A69F9
:10445000FB689B69D31AFB61FB689B68FA699A4207
:1044600002D9FB689B68FB61FB6903339B08BB6156
:104470002BE0FB685A69FB689B69D31AFB61FB68F8
:104480009B68FA699A4202D9FB689B68FB61FB69E9
:1044900003339B08BB61FB68D9683B68DAB2FB69F0
:1044A00098B27B681B69DBB200930346786903F01E
:1044B0004AFFFB68DA68FB691A44FB68DA60FB684C
:1044C0009A69FB691A44FB689A613B685A013B6927
:1044D000134403F510639B699BB2BA699A4209D8E9
:1044E000FB689A69FB685B699A4203D2FB685B6967
:1044F000002BBED1FB685A69FB689B699A4211D8B0
:104500003B6803F00F03012202FA03F3BB603B692F
:1045100003F500635A6BBB68DB43396901F5006141
:1045200013404B63002318462037BD4680BD000072
:1045300080B586B000AF786039607B681B687B61AE
:104540007B693B617B693C3304331B68FB603B68E0
:104550005A013B69134403F530639B68BB607B6879
:104560001B69012B40F0A080BB6803F00803002BFF
:1045700015D0FB68724A934240F2DD80BB6803F4B9
:104580000043002B00F0D7803B685A013B6913447D
:1045900003F530631A464FF400439360CBE0BB68E9
:1045A00003F02003002B09D03B685A013B691344F8
:1045B00003F530631A4620239360BCE0BB6803F028
:1045C0002803002B40F0B780FB685D4A93420FD967
:1045D000BB6803F40043002B0AD03B685A013B69D7
:1045E000134403F530631A464FF400439360A2E08E
:1045F00079683A681346DB009B1A9B000B4403F56D
:1046000001731A683B6859013B690B4403F5306339
:104610001B69C3F31203D11A78683A681346DB00AA
:104620009B1A9B00034403F50573196079683A6887
:104630001346DB009B1A9B000B4403F502731968B9
:1046400078683A681346DB009B1A9B00034403F525
:1046500001731B68194478683A681346DB009B1A9B
:104660009B00034403F5027319603B68002B14D1CF
:1046700079683A681346DB009B1A9B000B4403F5EC
:1046800004731B68002B08D17B6818687B6803F5EE
:1046900071731A46012104F0B5F83B68DBB2194684
:1046A00078680CF05FFA46E0FB68264A934224D112
:1046B000BB6803F40043002B0AD03B685A013B69F6
:1046C000134403F530631A464FF40043936032E01D
:1046D000BB6803F02003002B08D03B685A013B69FC
:1046E000134403F530631A46202393603B68DBB222
:1046F000194678680CF036FA1DE03B68002B14D19F
:1047000079683A681346DB009B1A9B000B4403F55B
:1047100004731B68002B08D17B6818687B6803F55D
:1047200071731A46002104F06DF83B68DBB219463C
:1047300078680CF017FA002318461837BD4680BD7C
:104740000A30544F0A31544F80B586B000AF7860BC
:1047500039607B681B687B617B693B617B693C33AB
:1047600004331B68FB603B685A013B69134403F543
:1047700030639B68BB60FB68154A93420ED9BB68E7
:1047800003F40043002B09D03B685A013B691344F2
:1047900003F530631A464FF40043936078680CF0D9
:1047A000CFF9FB680A4A93420CD97B681B69012B3D
:1047B00008D17B6818687B6803F571731A4601217C
:1047C00004F020F8002318461837BD4680BD00BF0E
:1047D0000A30544F80B485B000AF78600B46FB7050
:1047E00013463B807B681B685B6ABB60FB78002BD1
:1047F00007D13B8819047B681B68BA680A439A6230
:1048000028E07B681B689B6A1B0CBA681344BB607A
:104810000023FB730DE07B681A68FB7B40339B0031
:1048200013445B681B0CBA681344BB60FB7B013309
:10483000FB73FA7BFB78013B9A42ECD33B8818046C
:104840007B681968FB78013BBA68024340339B00E0
:104850000B445A60002318461437BD465DF8047BAC
:10486000704780B483B000AF78600B467B807B6874
:104870001B687A885A62002318460C37BD465DF8DB
:10488000047B704780B483B000AF78600B46FB7048
:1048900000BF0C37BD465DF8047B704780B586B01D
:1048A00000AF78607B68002B01D101235BE27B685D
:1048B0001B6803F00103002B75D0A34B9B6803F02A
:1048C0000C03042B0CD0A04B9B6803F00C03082BAB
:1048D00012D19D4B5B6803F48003B3F5800F0BD1BD
:1048E000994B1B6803F40033002B5BD07B685B683B
:1048F000002B57D1012336E27B685B68B3F5803F1C
:1049000006D1914B1B68904A43F4803313601DE03D
:104910007B685B68B3F5A02F0CD18B4B1B688A4A70
:1049200043F480231360884B1B68874A43F4803329
:1049300013600BE0844B1B68834A23F480331360BD
:10494000814B1B68804A23F4802313607B685B687B
:10495000002B13D0FDF7CAFF386108E0FDF7C6FF52
:1049600002463B69D31A642B01D90323FBE1764B42
:104970001B6803F40033002BF0D014E0FDF7B6FF02
:10498000386108E0FDF7B2FF02463B69D31A642B99
:1049900001D90323E7E16C4B1B6803F40033002BC0
:1049A000F0D100E000BF7B681B6803F00203002B1E
:1049B00063D0654B9B6803F00C03002B0BD0624B5C
:1049C0009B6803F00C03082B1CD15F4B5B6803F45E
:1049D0008003002B16D15C4B1B6803F00203002BF5
:1049E00005D07B68DB68012B01D00123BBE1564B6E
:1049F0001B6823F0F8027B681B69DB0052491343F4
:104A00000B603AE07B68DB68002B20D04F4B012223
:104A10001A60FDF76BFF386108E0FDF767FF02469B
:104A20003B69D31A022B01D903239CE1464B1B6837
:104A300003F00203002BF0D0434B1B6823F0F80275
:104A40007B681B69DB00404913430B6015E03F4B5B
:104A500000221A60FDF74AFF386108E0FDF746FFC3
:104A600002463B69D31A022B01D903237BE1364B63
:104A70001B6803F00203002BF0D17B681B6803F076
:104A80000803002B30D07B685B69002B16D0304BBD
:104A900001221A60FDF72AFF386108E0FDF726FFC2
:104AA00002463B69D31A022B01D903235BE1264B53
:104AB0005B6F03F00203002BF0D015E0244B0022C3
:104AC0001A60FDF713FF386108E0FDF70FFF02469B
:104AD0003B69D31A022B01D9032344E11A4B5B6FC4
:104AE00003F00203002BF0D17B681B6803F0040382
:104AF000002B00F0A0800023FB75134B1B6C03F010
:104B00008053002B0FD10023BB600F4B1B6C0E4A50
:104B100043F0805313640C4B1B6C03F08053BB6059
:104B2000BB680123FB750B4B1B6803F48073002BE0
:104B300021D1084B1B68074A43F480731360FDF7CB
:104B4000D5FE386111E000BF003802400000474246
:104B5000800E474200700040FDF7C8FE02463B69E8
:104B6000D31A022B01D90323FDE0814B1B6803F408
:104B70008073002BF0D07B689B68012B06D17D4BA6
:104B80001B6F7C4A43F0010313671CE07B689B6842
:104B9000052B0CD1774B1B6F764A43F00403136748
:104BA000744B1B6F734A43F0010313670BE0714BA7
:104BB0001B6F704A23F0010313676E4B1B6F6D4A26
:104BC00023F0040313677B689B68002B15D0FDF767
:104BD0008DFE38610AE0FDF789FE02463B69D31A73
:104BE00041F28832934201D90323BCE0614B1B6F31
:104BF00003F00203002BEED014E0FDF777FE3861DE
:104C00000AE0FDF773FE02463B69D31A41F288328F
:104C1000934201D90323A6E0564B1B6F03F0020316
:104C2000002BEED1FB7D012B05D1524B1B6C514A61
:104C300023F0805313647B689B69002B00F0928003
:104C40004C4B9B6803F00C03082B5CD07B689B6982
:104C5000022B41D1484B00221A60FDF747FE386114
:104C600008E0FDF743FE02463B69D31A022B01D947
:104C7000032378E03F4B1B6803F00073002BF0D157
:104C80007B68DA697B681B6A1A437B685B6A9B01F5
:104C90001A437B689B6A5B08013B1B041A437B68D1
:104CA000DB6A1B06334913434B60334B01221A6006
:104CB000FDF71CFE386108E0FDF718FE02463B696F
:104CC000D31A022B01D903234DE02A4B1B6803F0B2
:104CD0000073002BF0D045E0274B00221A60FDF74F
:104CE00005FE386108E0FDF701FE02463B69D31A74
:104CF000022B01D9032336E01E4B1B6803F000731F
:104D0000002BF0D12EE07B689B69012B01D10123A0
:104D100029E0184B5B68FB60FB6803F480027B684A
:104D2000DB699A421CD1FB6803F03F027B681B6A77
:104D30009A4215D1FA6847F6C07313407A68526AEE
:104D400093420DD1FB6803F440327B689B6A9A4220
:104D500006D1FB6803F070627B68DB6A9A4201D07F
:104D6000012300E0002318461837BD4680BD00BF70
:104D700000700040003802406000474280B584B0B7
:104D800000AF786039607B68002B01D10123CCE053
:104D9000684B1B6803F00F033A689A420CD9654BC5
:104DA0003A68D2B21A70634B1B6803F00F033A687B
:104DB0009A4201D00123B8E07B681B6803F002032C
:104DC000002B20D07B681B6803F00403002B05D068
:104DD000594B9B68584A43F4E05393607B681B68C7
:104DE00003F00803002B05D0534B9B68524A43F451
:104DF00060439360504B9B6823F0F0027B689B6894
:104E00004D4913438B607B681B6803F00103002B43
:104E100044D07B685B68012B07D1474B1B6803F4C8
:104E20000033002B19D101237FE07B685B68022BE4
:104E300003D07B685B68032B07D13F4B1B6803F0F3
:104E40000073002B09D101236FE03B4B1B6803F07B
:104E50000203002B01D1012367E0374B9B6823F04D
:104E600003027B685B68344913438B60FDF73EFDAA
:104E7000F8600AE0FDF73AFD0246FB68D31A41F2FA
:104E80008832934201D903234FE02B4B9B6803F0F8
:104E90000C027B685B689B009A42EBD1254B1B6838
:104EA00003F00F033A689A420CD2224B3A68D2B20E
:104EB0001A70204B1B6803F00F033A689A4201D026
:104EC000012332E07B681B6803F00403002B08D049
:104ED000194B9B6823F4E0527B68DB681649134347
:104EE0008B607B681B6803F00803002B09D0124B12
:104EF0009B6823F460427B681B69DB000E49134307
:104F00008B6000F021F801460B4B9B681B0903F0F6
:104F10000F030A4AD35C21FA03F3094A1360094BD1
:104F20001B681846FDF79EFC002318461037BD4647
:104F300080BD00BF003C024000380240103901082B
:104F40000400002008000020F0B585B000AF002369
:104F50007B600023FB6000233B600023BB60634B4E
:104F60009B6803F00C03042B07D0082B08D0002B00
:104F700040F0B4805E4BBB60B3E05E4BBB60B0E022
:104F80005A4B5B6803F03F037B60584B5B6803F44C
:104F90008003002B4AD0554B5B689B094FF00004FF
:104FA00040F2FF114FF0000203EA010504EA020695
:104FB000294632464FF000034FF00004540144EA02
:104FC000D1644B0119462246491B62EB06024FF0A1
:104FD00000034FF00004940144EA91648B015B1AD2
:104FE00064EB02044FF000014FF00002E20042EADD
:104FF0005372D9000B4614465B1944EB06044FF07C
:1050000000014FF00002620242EAD35259020B46FD
:105010001446184621467B684FF000041A46234682
:10502000FBF714FE03460C46FB6049E02F4B5B6820
:105030009B094FF0000440F2FF114FF0000203EA19
:10504000010504EA0206294632464FF000034FF0FC
:105050000004540144EAD1644B0119462246491B1D
:1050600062EB06024FF000034FF00004940144EAA3
:1050700091648B015B1A64EB02044FF000014FF066
:105080000002E20042EA5372D9000B4614465B1953
:1050900044EB06044FF000014FF00002A20242EA86
:1050A000935299020B461446184621467B684FF0EE
:1050B00000041A462346FBF7C9FD03460C46FB6075
:1050C0000A4B5B681B0C03F0030301335B003B607E
:1050D000FA683B68B2FBF3F3BB6002E0044BBB60D1
:1050E00000BFBB6818461437BD46F0BD003802400B
:1050F0000024F40000127A0080B400AF034B1B6858
:105100001846BD465DF8047B704700BF04000020D0
:1051100080B500AFFFF7F0FF0146054B9B689B0A87
:1051200003F00703034AD35C21FA03F3184680BD5A
:10513000003802402039010880B500AFFFF7DCFFDE
:105140000146054B9B685B0B03F00703034AD35CE6
:1051500021FA03F3184680BD0038024020390108C7
:1051600080B582B000AF78607B68002B01D101234D
:1051700056E07B6800229A627B6893F85130DBB27C
:10518000002B06D17B68002283F850207868FDF759
:1051900037F87B68022283F851207B681B681A6805
:1051A0007B681B6822F040021A607B685A687B6843
:1051B0009B681A437B68DB681A437B681B691A4348
:1051C0007B685B691A437B689B6903F400731A432D
:1051D0007B68DB691A437B681B6A42EA03017B68D0
:1051E0009A6A7B681B680A431A607B689B691B0C80
:1051F00003F004017B685A6A7B681B680A435A60A3
:105200007B681B68DA697B681B6822F40062DA61DC
:105210007B6800225A657B68012283F851200023B5
:1052200018460837BD4680BD80B588B000AFF8602D
:10523000B9603B601346FB800023FB77FB6893F863
:105240005030012B01D102231EE1FB68012283F8BB
:105250005020FDF74BFBB861FB88FB82FB6893F89D
:105260005130DBB2012B02D00223FB7703E1BB6894
:10527000002B02D0FB88002B02D10123FB77FAE040
:10528000FB68032283F85120FB6800225A65FB6803
:10529000BA681A63FB68FA889A86FB68FA88DA8625
:1052A000FB6800229A63FB6800229A87FB68002251
:1052B000DA87FB6800225A64FB6800221A64FB68E4
:1052C0009B68B3F5004F07D1FB681B681A68FB6841
:1052D0001B6842F480421A60FB681B681B6803F07D
:1052E0004003402B07D0FB681B681A68FB681B68EB
:1052F00042F040021A60FB68DB68B3F5006F4BD1E7
:10530000FB685B68002B02D0FB8A012B3ED1FB6857
:105310001B6B1A88FB681B68DA60FB681B6B9A1CA6
:10532000FB681A63FB68DB8E9BB2013B9AB2FB6899
:10533000DA862BE0FB681B689B6803F00203022BF4
:1053400012D1FB681B6B1A88FB681B68DA60FB686C
:105350001B6B9A1CFB681A63FB68DB8E9BB2013BDC
:105360009AB2FB68DA8611E0FDF7C0FA0246BB6923
:10537000D31A3A689A4203D83B68B3F1FF3F02D18F
:105380003B68002B02D10323FB7774E0FB68DB8EC4
:105390009BB2002BCED14CE0FB685B68002B02D0A7
:1053A000FB8A012B40D1FB681A6BFB681B680C332E
:1053B00012781A70FB681B6B5A1CFB681A63FB6837
:1053C000DB8E9BB2013B9AB2FB68DA862CE0FB686D
:1053D0001B689B6803F00203022B13D1FB681A6B56
:1053E000FB681B680C3312781A70FB681B6B5A1C25
:1053F000FB681A63FB68DB8E9BB2013B9AB2FB68C9
:10540000DA8611E0FDF772FA0246BB69D31A3A68F0
:105410009A4203D83B68B3F1FF3F02D13B68002BAF
:1054200002D10323FB7726E0FB68DB8E9BB2002BC7
:10543000CDD1BA693968F86800F094F80346002BBA
:1054400002D0FB6820225A65FB689B68002B0AD1BA
:1054500000233B61FB681B68DB683B61FB681B68E2
:105460009B683B613B69FB685B6D002B02D00123AD
:10547000FB7700E000BFFB68012283F85120FB6846
:10548000002283F85020FB7F18462037BD4680BDA0
:1054900080B584B000AFF860B9603B601346FB7123
:1054A0004CE03B68B3F1FF3F48D0FDF71FFA0246DE
:1054B000BB69D31A3A689A4202D93B68002B3DD1A6
:1054C000FB681B685A68FB681B6822F0E0025A60A0
:1054D000FB685B68B3F5827F11D1FB689B68B3F50D
:1054E000004F04D0FB689B68B3F5806F07D1FB6861
:1054F0001B681A68FB681B6822F040021A60FB6890
:105500009B6AB3F5005F0FD1FB681B681A68FB68E4
:105510001B6822F400521A60FB681B681A68FB685B
:105520001B6842F400521A60FB68012283F8512084
:10553000FB68002283F8502003230FE0FB681B6800
:105540009A68BB681340BA689A420CBF01230023D3
:10555000DBB21A46FB799A42A3D1002318461037D2
:10556000BD4680BD80B588B002AFF860B9607A6092
:105570001B4B1B681B4AA2FB03235B0D4FF47A7283
:1055800002FB03F37B61FB685B68B3F5827F12D19A
:105590007B680093BB6800228021F868FFF778FFE2
:1055A0000346002B16D0FB685B6D43F02002FB68BE
:1055B0005A6503230FE07B69002B0AD07B69013B0E
:1055C0007B61FB681B689B6803F08003802BF2D033
:1055D00000E000BF002318461837BD4680BD00BF5D
:1055E00004000020819F5E1680B582B000AF786015
:1055F0007B68002B01D101231DE07B6893F83D30CF
:10560000DBB2002B06D17B68002283F83C2078684F
:10561000FCF73EFE7B68022283F83D207B681A6817
:105620007B6804331946104600F05CFC7B6801225D
:1056300083F83D20002318460837BD4680BD80B45E
:1056400085B000AF78607B68022283F83D207B68DC
:105650001B689B6803F00703FB60FB68062B07D001
:105660007B681B681A687B681B6842F001021A603D
:105670007B68012283F83D20002318461437BD467D
:105680005DF8047B704780B485B000AF78607B68BC
:105690001B68DA687B681B6842F00102DA607B688D
:1056A0001B689B6803F00703FB60FB68062B07D0B1
:1056B0007B681B681A687B681B6842F001021A60ED
:1056C000002318461437BD465DF8047B704780B54B
:1056D00082B000AF78607B68002B01D101231DE010
:1056E0007B6893F83D30DBB2002B06D17B6800224B
:1056F00083F83C20786800F015F87B68022283F874
:105700003D207B681A687B6804331946104600F018
:10571000E9FB7B68012283F83D2000231846083707
:10572000BD4680BD80B483B000AF786000BF0C3749
:10573000BD465DF8047B704780B584B000AF7860EB
:1057400039607B681B6801223968184600F0B4FE96
:105750007B681B68154A934204D07B681B68144A17
:10576000934201D1012300E00023002B07D07B6886
:105770001B685A6C7B681B6842F400425A647B6861
:105780001B689B6803F00703FB60FB68062B07D0D0
:105790007B681B681A687B681B6842F001021A600C
:1057A000002318461037BD4680BD00BF00000140F1
:1057B0000004014080B586B000AF786039607B6836
:1057C000002B01D1012383E07B6893F83D30DBB2ED
:1057D000002B06D17B68002283F83C207868FCF718
:1057E000C1FD7B68022283F83D207B681B689B68B3
:1057F0007A68126823F4804323F0070393607B6880
:105800001A687B6804331946104600F06BFB7B680E
:105810001B689B687B617B681B689B693B617B683D
:105820001B681B6AFB603B681B687A6913437B61DA
:105830003B6923F4407323F003033B613B689A68A0
:105840003B689B691B0213433A6913433B613B6905
:1058500023F4406323F00C033B613B6923F4704362
:1058600023F0F0033B613B68DA683B68DB691B02AD
:1058700013433A6913433B613B681B691A013B6858
:105880001B6A1B0313433A6913433B61FB6823F014
:105890002203FB60FB6823F08803FB603B685A68C7
:1058A0003B685B691B011343FA681343FB607B6829
:1058B0001B687A699A607B681B683A699A617B68A1
:1058C0001B68FA681A627B68012283F83D20002376
:1058D00018461837BD4680BD80B582B000AF7860ED
:1058E00039603B68002B02D0042B10D01FE07B688E
:1058F0001B6801220021184600F0DEFD7B681B6852
:10590000DA687B681B6842F00202DA602EE07B688E
:105910001B6801220421184600F0CEFD7B681B683D
:10592000DA687B681B6842F00402DA601EE07B687C
:105930001B6801220021184600F0BEFD7B681B6831
:1059400001220421184600F0B7FD7B681B68DA6865
:105950007B681B6842F00202DA607B681B68DA68C9
:105960007B681B6842F00402DA6000BF7B681B683A
:105970001A687B681B6842F001021A60002318460F
:105980000837BD4680BD80B582B000AF78607B68C7
:105990001B681B6903F00203022B22D17B681B6882
:1059A000DB6803F00203022B1BD17B681B686FF0DE
:1059B00002021A617B6801221A777B681B689B6967
:1059C00003F00303002B03D0786800F06CFA05E0C5
:1059D000786800F05EFA786800F06FFA7B68002261
:1059E0001A777B681B681B6903F00403042B22D120
:1059F0007B681B68DB6803F00403042B1BD17B6806
:105A00001B686FF004021A617B6802221A777B68B8
:105A10001B689B6903F44073002B03D0786800F087
:105A200042FA05E0786800F034FA786800F045FA48
:105A30007B6800221A777B681B681B6903F00803E8
:105A4000082B22D17B681B68DB6803F00803082B56
:105A50001BD17B681B686FF008021A617B68042207
:105A60001A777B681B68DB6903F00303002B03D004
:105A7000786800F018FA05E0786800F00AFA7868AB
:105A800000F01BFA7B6800221A777B681B681B6991
:105A900003F01003102B22D17B681B68DB6803F036
:105AA0001003102B1BD17B681B686FF010021A616A
:105AB0007B6808221A777B681B68DB6903F44073F4
:105AC000002B03D0786800F0EEF905E0786800F06C
:105AD000E0F9786800F0F1F97B6800221A777B68BA
