:020000040800F2
:1000000000000220511B0008811A0008831A000812
:10001000851A0008871A0008891A000800000000E5
:100020000000000000000000000000008B1A000823
:100030008D1A0008000000008F1A0008911A0008AD
:10004000A11B0008A11B0008A11B0008A11B0008A0
:10005000A11B0008A11B0008A11B0008A11B000890
:10006000951A0008A11B0008A11B0008A11B00088D
:10007000A11B0008A11B0008A11B0008A11B000870
:10008000A11B0008A11B0008A11B0008A11B000860
:10009000A11B0008A11B0008A11B0008A11B000850
:1000A000A11B0008A11B0008A11B0008A11B000840
:1000B000A51A0008B11A0008A11B0008A11B00081E
:1000C000A11B0008A11B0008A11B0008A11B000820
:1000D000A11B0008A11B0008BD1A0008A11B0008F5
:1000E000A11B0008A11B0008A11B0008A11B000800
:1000F000A11B0008A11B0008A11B0008A11B0008F0
:10010000A11B0008A11B0008A11B0008A11B0008DF
:10011000A11B0008A11B0008A11B0008A11B0008CF
:10012000A11B0008A11B0008A11B0008A11B0008BF
:10013000A11B0008A11B0008A11B0008A11B0008AF
:10014000A11B0008A11B0008A11B0008C91A000878
:10015000A11B0008A11B0008A11B0008A11B00088F
:10016000A11B0008A11B0008A11B0008A11B00087F
:10017000A11B0008A11B0008A11B00080000000033
:08018000A11B0008A11B0008EF
:1001900010B5054C237833B9044B13B10448AFF3C1
:1001A00000800123237010BD000700200000000024
:1001B000BCB7000808B5034B1BB103490348AFF3B4
:1001C000008008BD0000000004070020BCB7000844
:1001D00001F0FF01102A2BDB10F0070F08D010F8F8
:1001E000013B013A8B422DD010F0070F42B3F6D1FC
:1001F000F0B441EA012141EA014122F007047FF015
:1002000000070023F0E80256083C85EA010586EA6B
:10021000010685FA47F5A3FA87F586FA47F6A5FAA7
:1002200087F68EB9EED1F0BC01F0FF0102F00702B3
:1002300032B110F8013B013A83EA010313B1F8D15E
:100240000020704701387047002D06BF354603383F
:10025000073815F0010F07D1013015F4807F02BF78
:10026000013015F4C03F0130F0BC0138704700BFC9
:1002700081F0004102E000BF83F0004330B54FEA57
:1002800041044FEA430594EA050F08BF90EA020FC4
:100290001FBF54EA000C55EA020C7FEA645C7FEA57
:1002A000655C00F0E2804FEA5454D4EB5555B8BF7A
:1002B0006D420CDD2C4480EA020281EA030382EAEB
:1002C000000083EA010180EA020281EA0303362D7D
:1002D00088BF30BD11F0004F4FEA01314FF4801C50
:1002E0004CEA113102D0404261EB410113F0004F62
:1002F0004FEA03334CEA133302D0524263EB430319
:1003000094EA050F00F0A780A4F10104D5F1200EB6
:100310000DDB02FA0EFC22FA05F2801841F1000111
:1003200003FA0EF2801843FA05F359410EE0A5F1E5
:1003300020050EF1200E012A03FA0EFC28BF4CF016
:10034000020C43FA05F3C01851EBE37101F00045CC
:1003500007D54FF0000EDCF1000C7EEB00006EEBD9
:100360000101B1F5801F1BD3B1F5001F0CD3490863
:100370005FEA30004FEA3C0C04F101044FEA4452BA
:1003800012F5800F80F09A80BCF1004F08BF5FEA41
:10039000500C50F1000041EB045141EA050130BD21
:1003A0005FEA4C0C404141EB010111F4801FA4F1C4
:1003B0000104E9D191F0000F04BF01460020B1FA19
:1003C00081F308BF2033A3F10B03B3F120020CDA51
:1003D0000C3208DD02F1140CC2F10C0201FA0CF02F
:1003E00021FA02F10CE002F11402D8BFC2F1200C94
:1003F00001FA02F120FA0CFCDCBF41EA0C0190404A
:10040000E41AA2BF01EB0451294330BD6FEA040492
:100410001F3C1CDA0C340EDC04F11404C4F120027D
:1004200020FA04F001FA02F340EA030021FA04F38F
:1004300045EA030130BDC4F10C04C4F1200220FAE6
:1004400002F001FA04F340EA0300294630BD21FA24
:1004500004F0294630BD94F0000F83F4801306BFEA
:1004600081F480110134013D4EE77FEA645C18BFDE
:100470007FEA655C29D094EA050F08BF90EA020F75
:1004800005D054EA000C04BF1946104630BD91EA6D
:10049000030F1EBF0021002030BD5FEA545C05D170
:1004A0004000494128BF41F0004130BD14F58004AF
:1004B0003CBF01F5801130BD01F0004545F0FE4123
:1004C00041F470014FF0000030BD7FEA645C1ABF58
:1004D000194610467FEA655C1CBF0B46024650EA8F
:1004E000013406BF52EA033591EA030F41F40021BB
:1004F00030BD00BF90F0000F04BF0021704730B541
:100500004FF4806404F132044FF000054FF0000115
:1005100050E700BF90F0000F04BF0021704730B5D6
:100520004FF4806404F1320410F0004548BF4042AB
:100530004FF000013EE700BF42004FEAE2014FEA00
:1005400031014FEA02701FBF12F07F4393F07F4FDB
:1005500081F06051704732F07F4208BF704793F0DE
:100560007F4F04BF41F40021704730B54FF46074F1
:1005700001F0004521F000411CE700BF50EA0102F4
:1005800008BF704730B54FF000050AE050EA01029D
:1005900008BF704730B511F0004502D5404261EB0D
:1005A00041014FF4806404F132045FEA915C3FF44E
:1005B000D8AE4FF003025FEADC0C18BF03325FEAEB
:1005C000DC0C18BF033202EBDC02C2F1200300FA9C
:1005D00003FC20FA02F001FA03FE40EA0E0021FAC1
:1005E00002F11444BDE600BF70B54FF0FF0C4CF4AF
:1005F000E06C1CEA11541DBF1CEA135594EA0C0F61
:1006000095EA0C0F00F0DEF82C4481EA030621EA9B
:100610004C5123EA4C5350EA013518BF52EA0335D6
:1006200041F4801143F4801338D0A0FB02CE4FF088
:100630000005E1FB02E506F00042E0FB03E54FF0B8
:100640000006E1FB03569CF0000F18BF4EF0010EB0
:10065000A4F1FF04B6F5007F64F5407404D25FEAAC
:100660004E0E6D4146EB060642EAC62141EA55515F
:100670004FEAC52040EA5E504FEACE2EB4F1FD0CA1
:1006800088BFBCF5E06F1ED8BEF1004F08BF5FEA1F
:10069000500E50F1000041EB045170BD06F00046D1
:1006A00046EA010140EA020081EA0301B4EB5C047E
:1006B000C2BFD4EB0C0541EA045170BD41F4801176
:1006C0004FF0000E013C00F3AB8014F1360FDEBF9B
:1006D000002001F0004170BDC4F10004203C35DA77
:1006E0000C341BDC04F11404C4F1200500FA05F3FA
:1006F00020FA04F001FA05F240EA020001F000429B
:1007000021F0004110EBD37021FA04F642EB060110
:100710005EEA430E08BF20EAD37070BDC4F10C043A
:10072000C4F1200500FA04F320FA05F001FA04F2FE
:1007300040EA020001F0004110EBD37041F10001EA
:100740005EEA430E08BF20EAD37070BDC4F12005F5
:1007500000FA05F24EEA020E20FA04F301FA05F25D
:1007600043EA020321FA04F001F0004121FA04F205
:1007700020EA020000EBD3705EEA430E08BF20EAD5
:10078000D37070BD94F0000F0FD101F0004640000F
:1007900041EB010111F4801F08BF013CF7D041EA91
:1007A000060195F0000F18BF704703F00046520095
:1007B00043EB030313F4801F08BF013DF7D043EA66
:1007C0000603704794EA0C0F0CEA135518BF95EA1C
:1007D0000C0F0CD050EA410618BF52EA4306D1D1A3
:1007E00081EA030101F000414FF0000070BD50EAC2
:1007F000410606BF1046194652EA430619D094EA4C
:100800000C0F02D150EA013613D195EA0C0F05D135
:1008100052EA03361CBF104619460AD181EA030189
:1008200001F0004141F0FE4141F470014FF0000041
:1008300070BD41F0FE4141F4780170BD70B54FF0DC
:10084000FF0C4CF4E06C1CEA11541DBF1CEA13555C
:1008500094EA0C0F95EA0C0F00F0A7F8A4EB05043E
:1008600081EA030E52EA03354FEA013100F0888035
:100870004FEA03334FF0805545EA131343EA1263FE
:100880004FEA022245EA111545EA10654FEA0026B3
:100890000EF000419D4208BF964244F1FD0404F56C
:1008A000407402D25B084FEA3202B61A65EB0305C8
:1008B0005B084FEA32024FF480104FF4002CB6EB85
:1008C000020E75EB030E22BFB61A754640EA0C0005
:1008D0005B084FEA3202B6EB020E75EB030E22BF45
:1008E000B61A754640EA5C005B084FEA3202B6EB86
:1008F000020E75EB030E22BFB61A754640EA9C0045
:100900005B084FEA3202B6EB020E75EB030E22BF14
:10091000B61A754640EADC0055EA060E18D04FEAD2
:10092000051545EA16754FEA06164FEAC30343EA72
:1009300052734FEAC2025FEA1C1CC0D111F4801F3F
:100940000BD141EA00014FF000004FF0004CB6E738
:1009500011F4801F04BF01430020B4F1FD0C88BFD7
:10096000BCF5E06F3FF6AFAEB5EB030C04BFB6EBE2
:10097000020C5FEA500C50F1000041EB045170BDD5
:100980000EF0004E4EEA113114EB5C04C2BFD4EB02
:100990000C0541EA045170BD41F480114FF0000E86
:1009A000013C90E645EA060E8DE60CEA135594EA02
:1009B0000C0F08BF95EA0C0F3FF43BAF94EA0C0F05
:1009C0000AD150EA01347FF434AF95EA0C0F7FF47A
:1009D00025AF104619462CE795EA0C0F06D152EACE
:1009E00003353FF4FDAE1046194622E750EA4106B2
:1009F00018BF52EA43067FF4C5AE50EA41047FF4C3
:100A00000DAF52EA43057FF4EBAE12E74FF0FF3C27
:100A100006E000BF4FF0010C02E000BF4FF0010CF8
:100A20004DF804CD4FEA410C7FEA6C5C4FEA430C71
:100A300018BF7FEA6C5C1BD001B050EA410C0CBFC0
:100A400052EA430C91EA030F02BF90EA020F002022
:100A5000704710F1000F91EA030F58BF994208BF89
:100A600090422CBFD8176FEAE37040F00100704746
:100A70004FEA410C7FEA6C5C02D150EA013C07D19D
:100A80004FEA430C7FEA6C5CD6D152EA033CD3D0E8
:100A90005DF8040B704700BF8446104662468C46E2
:100AA0001946634600E000BF01B5FFF7B7FF002815
:100AB00048BF10F1000F01BD4DF808EDFFF7F4FF3E
:100AC0000CBF012000205DF808FB00BF4DF808EDC9
:100AD000FFF7EAFF34BF012000205DF808FB00BFEC
:100AE0004DF808EDFFF7E0FF94BF012000205DF80E
:100AF00008FB00BF4DF808EDFFF7CEFF94BF0120C3
:100B000000205DF808FB00BF4DF808EDFFF7C4FFBB
:100B100034BF012000205DF808FB00BF4FEA410C04
:100B20007FEA6C5C02D150EA013C0AD14FEA430CE7
:100B30007FEA6C5C02D152EA033C02D14FF0000024
:100B400070474FF0010070474FEA410212F5001262
:100B500015D211D56FF47873B3EB625212D94FEA04
:100B6000C12343F0004343EA505311F0004F23FAEE
:100B700002F018BF404270474FF00000704750EA43
:100B8000013005D111F0004008BF6FF00040704700
:100B90004FF00000704700BF4FEA4102B2F1E0435E
:100BA00024BFB3F5001CDCF1FE5C0DD901F0004C54
:100BB0004FEAC0024CEA5070B2F1004F40EB8300A4
:100BC00008BF20F00100704711F0804F21D113F1D0
:100BD0003872BCBF01F00040704741F480114FEA09
:100BE0005252C2F11802C2F1200C10FA0CF320FA92
:100BF00002F018BF40F001004FEAC1234FEAD323AF
:100C000003FA0CFC40EA0C0023FA02F34FEA430318
:100C1000CCE77FEA625307D150EA01331EBF4FF0A1
:100C2000FE4040F44000704701F0004040F0FE40BC
:100C300040F40000704700BF53B94AB9002908BF0B
:100C400000281CBF4FF0FF314FF0FF3000F072B9A9
:100C5000ADF1080C6DE904CE00F006F8DDF804E013
:100C6000DDE9022304B070472DE9F047089E0446F1
:100C70008846002B4BD18A42154667D9B2FA82F2D8
:100C80004AB1C2F1200701FA02F320FA07F79540B2
:100C900047EA030894404FEA154E230CB8FBFEF7D1
:100CA0001FFA85FC0EFB178843EA084307FB0CF18B
:100CB000994209D9EB1807F1FF3080F01B81994266
:100CC00040F21881023F2B445B1AA4B2B3FBFEF042
:100CD0000EFB103344EA034400FB0CFCA44509D985
:100CE0002C1900F1FF3380F00781A44540F2048104
:100CF00002382C4440EA0740A4EB0C0400271EB144
:100D0000D4400023C6E900433946BDE8F0878B4252
:100D100009D9002E00F0EB800027C6E90001384613
:100D20003946BDE8F087B3FA83F7002F47D18B42ED
:100D300002D3824200F2FA80841A61EB030301209D
:100D40009846002EE0D0C6E90048DDE702B9FFDE94
:100D5000B2FA82F2002A40F08F80491B4FEA154E0A
:100D60001FFA85F80127B1FBFEFC230C0EFB1C11BA
:100D700043EA014308FB0CF1994207D9EB180CF147
:100D8000FF3002D2994200F2CD808446591AA3B2B4
:100D9000B1FBFEF00EFB101443EA044408FB00F81C
:100DA000A04507D92C1900F1FF3302D2A04500F26B
:100DB000B6801846A4EB080440EA0C409FE7C7F150
:100DC000200CBB4022FA0CFE4EEA030E01FA07F497
:100DD00020FA0CF521FA0CF34FEA1E482543B3FB29
:100DE000F8F92C0C08FB19331FFA8EFA44EA034376
:100DF00009FB0AF49C4202FA07F200FA07F10BD948
:100E00001EEB030309F1FF3080F087809C4240F223
:100E10008480A9F1020973441B1BADB2B3FBF8F047
:100E200008FB103345EA034400FB0AFAA24508D93F
:100E30001EEB040400F1FF336BD2A24569D90238DE
:100E4000744440EA0940A0FB0289A4EB0A044C4523
:100E5000C2464B4654D351D0002E69D0B1EB0A059F
:100E600064EB030404FA0CFCFD40FC404CEA05056D
:100E7000C6E90054002747E7C2F1200320FA03F730
:100E8000954001FA02F021FA03F34FEA154E384378
:100E9000010CB3FBFEF71FFA85F80EFB173341EA8E
:100EA000034107FB08F38B4204FA02F407D96918DF
:100EB00007F1FF3C2FD28B422DD9023F2944CB1A98
:100EC00081B2B3FBFEF00EFB103341EA034100FB9D
:100ED00008F38B4207D9691800F1FF3C17D28B4207
:100EE00015D902382944C91A40EA07473BE7374673
:100EF000304609E70746E7E61846FBE64145ABD230
:100F0000B8EB020A69EB0E0201381346A4E760460B
:100F1000E9E7184695E76746D1E781467CE702385E
:100F20002C4447E7ACF1020C2B442FE7384608E786
:100F30003746E9E6704700BF30B595B01022002172
:100F40000AA809F0F2FF1422002103A809F0EDFF1E
:100F500000241D4B01941A6C42F080521A641B6CE1
:100F600003F080530193019B184B02941A6842F4DA
:100F700080421A601B6803F4804302930122029BA3
:100F80004FF48033CDE9082302254FF48003CDE9E7
:100F90000E5308214FF4A873CDE9101308A80723B6
:100FA0001393129501F042FE0F23CDE903354FF460
:100FB000A0504FF48053CDE90603052103A8059402
:100FC00002F008F815B030BD003802400070004053
:100FD0002DE98048CA4DCB4E9FB000F007FEFFF7C9
:100FE000ABFF284603F0AEFBC749284603F0A3FB3E
:100FF000C649284603F0A2FB0B21284603F0C4FE95
:10100000C24AC149C24806F07FF81422002115A83F
:10101000002409F08AFFBF4B03941A6BBE4842F0CC
:1010200080021A631A6B02F080020392039A0494FE
:101030001A6B42F001021A631A6B02F00102049269
:10104000049A05941A6B42F010021A631A6B02F0AC
:1010500010020592059A06941A6B42F002021A6376
:101060001A6B02F002020692069A07941A6B42F07B
:1010700008021A631B6B03F00803079301224FF465
:101080008051079B01F00EF901224FF4C051A34893
:1010900001F008F9A24BA34817944FF0040815A9D2
:1010A00001274FF480594FF0030BCDE9158301F070
:1010B00019F8022315A99848CDE9173BCDE91597F2
:1010C00001F010F84FF4C05315A99448CDE9153735
:1010D000CDE9177B01F006F822462146082000F0F2
:1010E000D7FD082000F008FE8F4B33603046CDE975
:1010F000154400F04BFE224615A93046CDE91544B3
:1011000000F085FE15A91022304600F080FE8748C9
:10111000874A84624FF48273C0E900234FF400735E
:10112000C0E906340A23C362C0E90244C0E90444AA
:10113000C0E9084402F00EF8214610220AA809F07E
:10114000F4FE21461C220EA87A4ECDE9084409F08F
:10115000ECFE2022214615A809F0E7FE764BD5F8D3
:10116000C000336006F056FA42F2107343437348EE
:1011700090FBF3F0013842F20F73C6E901043046E8
:10118000C6E90334C6E9054402F016FA0AA9304656
:10119000CDF8289002F032FB304602F027FA08A979
:1011A0003046CDE9084402F0EDFB602322460EA94B
:1011B0003046CDE90E34CDE91044CDE91244149403
:1011C00002F0B0FA42460EA9304602F0ABFA4FF4F4
:1011D000005315A930461A93CDE91544CDE91744BB
:1011E00019941C9402F010FC3046DFF8788100F06E
:1011F000AFFB1C22214616A809F097FE4FF0804352
:10120000C8E900344FF0FF3A0F2315A94046C8F84B
:101210000840C8E903A4C8F8184019931D93CDE904
:101220000E44CDF854B017971B9702F0F9F90EA9A8
:101230004046CDE90E4402F0A5FB41484149046116
:101240004FF4E1330C26C0E90013C0E90564C0E99E
:101250000244C4613C4F02F07DFC3C484FF496438D
:10126000C0E900734FF4C063C0E90436C0E902442A
:10127000C0E9064402F06EFC07F010F82146102287
:1012800015A809F052FE324E324BAA8BB4604FF0D3
:10129000530BC6E9003B30462F4B93FBF2F353440C
:1012A000C6E90334B461CDE90E4402F085F915A90D
:1012B0003046CDF8549002F0A1FA0EA93046CDE99F
:1012C0000E4402F05FFB1022214615A809F02DFE06
:1012D000224F234BBC60C7E9003B38464FF6FF73F3
:1012E000C7E90334BC61CDE90E4402F065F915A9E4
:1012F0003846CDF8549002F081FA0EA9384633E012
:101300001C070020940B0020180800200C0F002060
:10131000C80D0020003802400010024000040240C6
:10132000000021100000024000740040A80B0020C3
:1013300000380040000C002000000140007A030A41
:10134000400D00200010014000440040800D0020AE
:10135000800C00200004004040420F00C00C002020
:1013600000080040400C0020CDE90E44A34F02F0DD
:1013700009FB1022214615A809F0D7FDA04B3C61BE
:101380003846C7E9003BC7E9024ABC61CDE90E44D3
:1013900002F012F915A93846CDF8549002F02EFA51
:1013A0000EA93846CDE90E4402F0ECFA384601F0B9
:1013B0009DFF304601F0ACFF41469248924E934F5C
:1013C000DFF8808204F000F82B7891499148022BD5
:1013D00008BF347032788B4C05F063FE32788E494A
:1013E0008E488F4E06F053F88A498C4806F05FF815
:1013F000B5F80110894806F00FF98A498A4806F0C5
:1014000020F900F019FC30603B7803B9FEE795F84D
:10141000C43033B1854805F0ABFE10B1002385F828
:10142000C430784804F000F8236822692168002B52
:10143000B8BF5B429A427E4B05DC0029B4BF4FF037
:10144000FF31012151431960D5F822101868D5F8F1
:101450001E300091514206F01FF9764B1860196852
:10146000404606F063F9404606F0FAF82146724815
:1014700005F054FB07EE900AF8EEE77AC5ED2C7AFA
:10148000D5ED2C7AF0EEE77AF5EEC07AF1EE10FAAF
:101490001FDDB5F85A2095ED2C7A07EE902AF8EE6C
:1014A000E77AB0EEC77AF4EEC77AF1EE10FA10DB05
:1014B000D5ED2C7AF5EEC07AF1EE10FA4CBF4FF074
:1014C000FF330123534307EE903AF8EEE77AC5ED78
:1014D0002C7A216822690029B8BF49428A4224DA5D
:1014E0002368002BB8BF5B429A1AB5F8583009211F
:1014F0005343E26992FBF1F293FBF2F307EE903A69
:10150000F8EEE77ABFEE007AC5ED2D7AD5ED2D6ABB
:101510002368F7EE007A002BA8BFB0EE677AD5ED0E
:101520002C7AE6EE877AC5ED2C7AB5F99E30002B41
:10153000B8BF5B4242F20F72934212DD2368B5F8E6
:10154000582095ED2C7A002BB4BF4FF0FF330123C8
:10155000534307EE903AF8EEE77A77EE877AC5EDD7
:101560002C7AB5F87D3095ED2C0A5A4207EE903A68
:1015700000EE902AB8EE671AF8EEE00A06F0BBF823
:1015800085ED2C0AD5ED2C7AB5F87D20FDEEE77AB5
:1015900042F20F735142009317EE900A274B06F068
:1015A0007BF807EE900AF8EEE77A2269C5ED2C7A0F
:1015B00023681A48002BB8BF5B429A42A1BFD5ED01
:1015C0002C7A95ED2B7A67EE877AC5ED2C7AD5EDDE
:1015D0002C7AFDEEE77A17EE903A19B205F06AFF21
:1015E00000F02AFB3368C01AB0F57A7F3FBF144A77
:1015F00013680133136000233B7005E7000D0020E2
:10160000000C00401808002000000020680800209E
:10161000940B0020C00D0020000C00200C0F0020B7
:10162000180F00201C070020800E0020C80D00208D
:10163000600F00205C0F00206C080020F1D8FFFF35
:10164000900B00201C0F0020044B02681B689A427C
:1016500002BF034B01221A70704700BF800C0020AC
:10166000680800207047000008B50D4805F0EBFF42
:101670000C4803F04DF80C4805F0D5FF0B4805F079
:1016800025FD0B4805F0FCFE0A4803F061FE0A4800
:1016900005F0F4FC0948BDE8084004F087BC00BF31
:1016A0001C0F00201C070020800E0020C80D002009
:1016B0000C0F002018080020C00D00206C0800202E
:1016C00008B50D4804F09EFC0C4805F0D8FC0C4809
:1016D00003F054FE0B4805F0D9FE0B4805F012FD4F
:1016E0000A4805F0ADFF0A4803F049FC0948BDE887
:1016F000084005F0AEBF00BF6C080020C00D002000
:10170000180800200C0F0020C80D0020800E0020BB
:101710001C0700201C0F002082B00D4B00210091FF
:101720005A6C42F480425A645A6C02F4804200922D
:10173000009A01911A6C42F080521A641B6C03F0FB
:1017400080530193019B072002B000F08FBA00BFC5
:101750000038024010B5044688B01422002103A8C6
:1017600009F0E3FB2268124B9A421ED103F5E233E3
:10177000002101911A6C0F4842F000521A641A6C51
:1017800002F000520192019A02911A6B42F001029A
:101790001A631B6B03F001030293029B30220323A5
:1017A00003A9CDE9032300F09DFC08B010BD00BFE4
:1017B000007400400000024010B5044688B01422B6
:1017C000002103A809F0B1FB2268154B9A4225D1EC
:1017D00003F50033002101911A6C124842F4804253
:1017E0001A641A6C02F480420192019A02911A6BF7
:1017F00042F002021A631B6B03F002030293029B86
:101800004FF4204202230121CDE903230323CDE934
:101810000513052303A9079300F064FC08B010BD6D
:1018200000380040000402401FB50368254A934277
:101830000ED100230093244B5A6C42F001025A64EB
:101840005B6C03F001030093009B05B05DF804FBA3
:101850001E4A934215D100221B4B0192196C41F094
:10186000020119641B6C03F00203019311461D2051
:10187000019B00F00DFA1D2005B05DF804EB00F0AF
:101880003BBA134A93420CD1002302930E4B1A6CBD
:1018900042F004021A641B6C03F004030293029BDF
:1018A000D3E70C4A9342D0D100230393064B1A6C22
:1018B00042F008021A641B6C03F008030393039BB5
:1018C000C3E700BF000001400038024000040040B0
:1018D00000080040000C004010B5044688B01422F7
:1018E000002103A809F021FB2368B3F1804F2AD11E
:1018F00003F50E33002401941A6C144842F00102DF
:101900001A641A6C02F001020192019A02941A6B95
:1019100042F001021A631B6B03F0010302930322DE
:10192000029B0223CDE9032303A90123CDE905325C
:10193000079300F0D7FB1C202246214600F0A8F9AF
:101940001C2000F0D9F908B010BD00BF0000024013
:1019500010B5044686B01422002101A809F0E5FA6A
:1019600022680F4B9A4219D1002300930D4B0E4869
:101970001A6B42F010021A631B6B03F01003009302
:10198000009B4FF4206202230321CDE9012303933E
:101990000123CDE9041301A900F0A4FB06B010BD9A
:1019A00000000140003802400010024010B514222F
:1019B0008AB0044600210DEB020009F0B6FA236854
:1019C0002A4A934224D12A4B002101915A6C42F0B9
:1019D00010025A645A6C02F010020192019A0291AC
:1019E0001A6B42F001021A631B6B03F001030293AE
:1019F0004FF4C060029B0223CDE9050303240723B3
:101A000005A91C48CDE9084300F06CFB0AB010BDE5
:101A1000194A9342FAD1164B1848002403941A6CC1
:101A200042F400321A641A6C02F400320392039AF0
:101A300004941A6B42F008021A631B6B03F008034C
:101A40000493049B60220223CDE90523032107238D
:101A5000CDE9081305A900F045FB224621462620C2
:101A600000F016F9262000F047F9CFE700100140FA
:101A7000003802400000024000440040000C0240D8
:101A80007047FEE7FEE7FEE7FEE7704770477047E6
:101A900000F0C6B808B505F087FE0420BDE8084090
:101AA00000F006BC014801F07FBC00BF400C0020E4
:101AB000014801F079BC00BF800C0020014802F011
:101AC000B5B800BF800D0020014800F0A3BC00BFE6
:101AD000701400200120704708B509F0E1F91623C1
:101AE00003604FF0FF3008BD08B509F0D9F916239F
:101AF0000360FEE70B4B196810B5024609B90A49A5
:101B00001960186809490A4C0244091B8A4206D91F
:101B100009F0C6F90C2303604FF0FF3010BD1A60C6
:101B2000FCE700BF640F00208018002000000220A6
:101B300000040000054BD3F8882042F47002C3F87B
:101B400088204FF000629A60704700BF00ED00E00F
:101B5000DFF834D0002103E00C4B5B5843500431D4
:101B60000B480C4B42189A42F6D30B4A02E0002372
:101B700042F8043B094B9A42F9D3FFF7DBFF09F027
:101B800095F9FFF725FA704700000220F4BA000823
:101B900000000020FC060020000700207C18002028
:101BA000FEE7000038B50E4A0E4B054618784FF494
:101BB0007A73B3FBF0F31068B0FBF3F000F0D0F8E9
:101BC000044658B90F2D09D8024629464FF0FF3078
:101BD00000F05EF8044B20461D6038BD0120FCE794
:101BE00004000020080000200C00002008B50B4B6A
:101BF0001A6842F400721A601A6842F480621A602D
:101C00001A6842F480721A60032000F02FF8002056
:101C1000FFF7C8FFFFF780FD002008BD003C024031
:101C2000034A044B11681B780B441360704700BFD4
:101C3000780F002008000020014B1868704700BF93
:101C4000780F002038B50446FFF7F6FF631C1CBF71
:101C5000054B1B78054618BFE418FFF7EDFF401B46
:101C6000A042FAD338BD00BF08000020074AD3685D
:101C700023F4E0631B041B0C43F0BF63000243F436
:101C8000003300F4E0600343D360704700ED00E0F0
:101C9000174B70B5DC68C4F30224C4F10705042DAA
:101CA00004F1040328BF04254FF0FF36062B06FA83
:101CB00005F38CBF033C002421EA0303A34006FA8A
:101CC00004F422EA0404002843EA0403A8BF00F154
:101CD00060404FEA0313BCBF00F00F00054ADBB2BF
:101CE000AABF00F56140135480F8003370BD00BFF7
:101CF00000ED00E014ED00E0002808DB42090123BC
:101D000000F01F0003FA00F0014B43F82200704777
:101D100000E100E000280DDB4309012200F01F0074
:101D200002FA00F02033044A42F82300BFF34F8F39
:101D3000BFF36F8F704700BF00E100E0BFF34F8F2C
:101D40000549064BCA6802F4E0621343CB60BFF357
:101D50004F8F00BFFDE700BF00ED00E00400FA0573
:101D60000138B0F1807F0AD2064B074A5860F02153
:101D700082F823100020072298601A607047012023
:101D8000704700BF10E000E000ED00E010B5044631
:101D900068B1037903F0FF0213B94271FFF7DAFC6F
:101DA00002232371002001232061237110BD012033
:101DB000FCE74379012B10B54FF0020318D00371F3
:101DC000036801221C6842718A4022431A6089B963
:101DD00019681A684C0707D502F03802382A03D16F
:101DE0005A6842F001025A600123037100234371D3
:101DF000184610BD19681A684903F5D502F4601237
:101E0000B2F5601FF0D15A6842F00202EBE7437965
:101E1000012B30B54FF0020318D00468037123681A
:101E200040F6FE75954023EA0505D1E900310B43E4
:101E300093402B4323602368C02101FA02F223EA76
:101E4000020201232260037100234371184630BD52
:101E500013B5002400680194019041B9019908313B
:101E60000A440192019A0020136002B010BD01994A
:101E70001431F5E790F83530022B03D08023436509
:101E8000012070470268052380F83530136823F07D
:101E90000103136000207047094910B50C6924F450
:101EA00040740C610C6944F440740C610C6944F09A
:101EB00001040C610260BFF36F8F436010BD00BF6F
:101EC000003C0240074B1A6922F440721A611A69F9
:101ED00042F400721A611A6942F001021A6101604B
:101EE000704700BF003C0240074B1A6922F4407261
:101EF0001A611A6942F480721A611A6942F0010289
:101F00001A610180704700BF003C02401A4BDA683A
:101F1000D20606D51949CA6942F01002CA611022D8
:101F2000DA60DA68900606D51449CA6942F00802F8
:101F3000CA612022DA60104BDA68510606D50F49D3
:101F4000CA6942F00402CA614022DA60DA68120605
:101F500006D50A49CA6942F00202CA618022DA60E3
:101F6000054AD3689B0706D50449CB6943F0200393
:101F7000CB610223D3607047003C02407C0F0020FD
:101F8000064B1A69002ABFBF054A5A6002F188321F
:101F90005A60BABF1869C00F00207047003C024069
:101FA00023016745034A136943F00043136100208E
:101FB000704700BF003C0240F8B5124B124C0022A3
:101FC0000546DA61FFF738FE26460746E368DA037E
:101FD0000CD4E368DB0744BF0123E360F06810F032
:101FE000F20007D0FFF792FF012003E0691CEDD05B
:101FF0000DB90320F8BDFFF71FFEC01BA842E5D9AD
:10200000F7E700BF7C0F0020003C02402DE9F041C3
:102010001F4D98462B7E012B07460E46144635D0A1
:1020200001234CF250302B76FFF7C6FFB0B9CFB981
:10203000184B1A6922F440721A611A691A611A69F6
:10204000E4B242F001021A6134704CF25030FFF7F2
:10205000B3FF104A136923F00103136100232B76A9
:10206000BDE8F081012F04D1A1B23046FFF73CFF5B
:10207000EBE7022F04D121463046FFF723FFE4E7C8
:10208000224643463046FFF707FFDEE70220E7E738
:102090007C0F0020003C024039B101291CD00229EC
:1020A0000CBF4FF400714FF440710D4B1A6922F4CC
:1020B00040721A611A69114319611A6922F0F80213
:1020C0001A611A6942F0020242EAC00018611A69F4
:1020D00042F480321A6170474FF48071E5E700BF27
:1020E000003C02402DE9F04F85B00B68DFF8AC8171
:1020F000684ADFF8AC91019300230124019D9C40C4
:102100002540AC4240F0B0804C6824F0100C4FEAFF
:10211000430E03260CF1FF3706FA0EF6012F6FEA85
:10212000060611D8876807EA060ACF6807FA0EF78D
:1021300047EA0A078760476827EA050AC4F30017D9
:102140009F4047EA0A074760C76807EA060A8F68A0
:1021500007FA0EF747EA0A07BCF1020FC76016D16B
:102160004FEAD30A00EB8A0A03F0070BDAF8207073
:102170004FEA8B0B4FF00F0C0CFA0BFC27EA0C0C00
:102180000F6907FA0BF747EA0C07CAF820700768CF
:102190003E4004F0030707FA0EFE4EEA060606600C
:1021A000E60061D54FF0000BCDF80CB0D8F84470C4
:1021B000394E47F48047C8F84470D8F8447007F4A3
:1021C00080470397039F23F0030707F1804707F534
:1021D0009C3703F0030ED7F808A04FEA8E0E4FF09D
:1021E0000F0C0CFA0EFCB0422AEA0C0C43D006F598
:1021F0008066B04241D006F58066B0423FD006F519
:102200008066B0423DD006F58066B0423BD048457E
:102210003BD006F50066B04239D006F58066B04284
:1022200014BF0826072606FA0EF646EA0C06BE601C
:102230001668EF4314F4803F0CBF3E402E431660F7
:10224000566814F4003F0CBF3E402E43566096681B
:1022500014F4801F0CBF3E402E439660D668A40243
:1022600054BF3E402E43D6600133102B7FF445AF60
:1022700005B0BDE8F08F5E46D5E70126D3E702261C
:10228000D1E70326CFE70426CDE70526CBE70626D0
:10229000C9E700BF003C0140000002400038024096
:1022A000001402400AB1816170470904FBE77047DE
:1022B00008B5044B5969014202D05861FFF7F7FF96
:1022C00008BD00BF003C0140F0B504468BB060B3D0
:1022D00090F8BD33056803F0FF021BB980F8BC23FA
:1022E00006F08CF8032384F8BD33EB6B254613F41A
:1022F000807355F8100B08BF236101F013FE0FCD5A
:102300006E460FC60FCD0FC695E8030086E80300A2
:102310002546271D97E80E0055F8100B01F048FDE3
:10232000064620B1022384F8BD33012550E0014662
:10233000206801F0FDFD3046D4F804C01C264FF0A3
:10234000010E0146C2B2944500F101001CD80023E1
:102350001C261946D8B2844503F1010322D80FCDBB
:102360006E460FC60FCD0FC695E8030086E8030042
:1023700097E80E00206801F01DFE0123054600B31A
:10238000022284F8BD23D0E706FB0243C3E9111102
:1023900083F83DE083F83C20A3F8422083F83F1007
:1023A0001965CFE706FB004282F8FD1182F8FC01B7
:1023B00082F8FF11C2F80412C2F80812C2F8101213
:1023C000C8E784F8380084F8BD33206802F028F9A3
:1023D00028460BB0F0BD90F8BC33012B10B5044675
:1023E00016D00123006884F8BC33A36A012B06D100
:1023F000A369012B1EBF836B43F48033836301F019
:102400008BFD206802F0FEF8002084F8BC0310BDAC
:102410000220FCE72DE9F04F056887B00446284606
:1024200002F03BF90290002840F02181206802F080
:1024300005F9002800F01B81206802F0FFF88207F0
:1024400048BF2268206842BF536903F0020353610A
:1024500002F0F4F8C3062AD52268936923F010032A
:1024600093612E6AC6F34343022B06F00F0840F037
:10247000018147F6F0731E4214D01C2707FB084762
:10248000C6F30A163246D7F80812284602F048F872
:10249000D7F808323344C7F80832D7F814321E444C
:1024A000C7F814622268936943F0100393612068AF
:1024B00002F0C4F8070300F1EC80206802F0BEF8D7
:1024C00046030BD5206802F0C5F826468246002751
:1024D00005F51069BAF1000F40F08981206802F01B
:1024E000ADF8002815DAD5F8043823F00103C5F853
:1024F000043894F8F433012B40F01482002184F85E
:10250000F413204600F091FB2268536903F0004366
:102510005361206802F092F801050BD5D5F8083810
:10252000DA0702D5204605F0D9FF2268536903F483
:1025300000635361206802F081F8C30435D505F5C6
:1025400000667368206823F001037360102101F0B6
:1025500007FD606805F510634FF67F31029A9042DF
:1025600040F0E481F36943F00113F361236B002B26
:1025700000F0F881D6F8843043F00B03C6F88430BD
:10258000736C43F00B037364D5F80038217C20682A
:1025900023F4FE63C5F8003804F5717202F092F876
:1025A0002268536903F480535361206802F046F8AF
:1025B000870416D5206802F074F8206801F0B4FD95
:1025C000E060256800F0A0FD227B0146284601F06E
:1025D0002FFC204605F06FFF2268536903F4005377
:1025E0005361206802F02AF8060707D5204605F057
:1025F0005EFF2268536903F008035361206802F00C
:102600001DF8C50208D50021204605F087FF226885
:10261000536903F480135361206802F00FF88002BD
:1026200008D50021204605F075FF2268536903F4A0
:1026300000135361206802F001F8410007D52046DD
:1026400005F070FF2268536903F0804353612068EE
:1026500001F0F4FF42070AD523685D686B0702D5D5
:10266000204605F063FF226853682B43536007B090
:10267000BDE8F08F062B7FF415AF082204F57171C9
:1026800028461C2701F04CFF07FB0847C6F30A1633
:1026900003E72068DFF8E492DFF8E4B201F0D2FF4C
:1026A00000268046B8F1000F3FF407AF18F0010F85
:1026B00061D05FFA86FA5146206801F0D3FF0746E1
:1026C000F8071CD5730105F530621A442068012112
:1026D000916000F530622169D0F840C013440129AF
:1026E0009A686DD1110706D5CC4508D9100406D5D6
:1026F0004FF4004202E0910641D520229A6038074B
:1027000020D5730105F530621A44082191602268D2
:10271000D2F840A002F530621344CA459A6804D941
:10272000110444BF4FF400429A60204605F0A8FE11
:10273000CA4507D92169012904D104F571722068BD
:1027400001F0C0FFFA0641BF05F5306303EB461305
:1027500010229A60BB0641BF05F5306303EB4613B8
:1027600020229A60B80441BF05F5306303EB46139D
:102770004FF400529A6001364FEA580892E712F07F
:10278000280FBCD1CC4501D91204B1D41C2202FBC4
:1027900006421B69D2F80412C3F31203CB1AC2F823
:1027A0001432D2F808321944C2F8081286B9D4F8A3
:1027B00010326BB904F57172012101F083FF07E05B
:1027C000DC450AD1110493D4920601D520229A60E7
:1027D0005146204605F05AFE91E7002EF8D1D4F874
:1027E0001032002BF4D104F571723146E5E71AF08E
:1027F000010F74D05FFA87FB5946206801F03BFF58
:1028000010F0010F804620D0D5F83438216901201E
:1028100007F00F0200FA02F223EA0203C5F8343887
:1028200009EB4713814298600BD1D6E91123134479
:10283000B36437B9236D23B904F57172206801F0D0
:1028400041FF5946204605F02AFE18F0080F1EBF2A
:1028500009EB471308229A6018F0100F1EBF09EB0E
:10286000471310229A6018F0400F1EBF09EB471360
:1028700040229A6018F0020F1EBF09EB4713022294
:102880009A6018F0800F2AD0D6E914329A4226D8DE
:102890009B1A726C21680391934228BF134603333D
:1028A0009B08049301F5106303EB47130593059B05
:1028B0000498996989B28142D6E9143214D29342BC
:1028C0000DD8039B07F00F0203F5006B0121D3F82D
:1028D000343801FA02F223EA0203CBF8343001372C
:1028E0004FEA5A0A1C36F5E59342EAD9002BE8D0A4
:1028F000A3EB0208736C0398984528BF984608F12B
:1029000003039B080493237C00935A461FFA88F321
:10291000B16C01F019FDB36C4344B364736D43446F
:102920007365C4E7204605F0F1FDEDE599601A688E
:1029300022F400121A601A6842F000621A60C3F8AA
:102940000812D3F8002222F40012C3F80022D3F8B0
:10295000002242F00062C3F80022029A0132029281
:102960002033FBE5736943F4005343F02B03736199
:10297000336943F00B03336106E600BF0A30544F5E
:102980000A31544F90F8BC23012A10B504460BD0ED
:10299000012280F8BC2384F83810006801F022FE80
:1029A000002084F8BC0310BD0220FCE770B501F0E4
:1029B0000F05044611F0800FC5EBC5004FEA8000FB
:1029C0004FF01C061FD006FB054600F13C0101201C
:1029D000214486F83D008A604A780D70CB7002B1C0
:1029E000CD80022B04BF00230B7194F8BC33012B64
:1029F00012D0012384F8BC33206801F0A0FB002032
:102A000084F8BC0370BD06FB054600F5FE7100208E
:102A1000214486F8FD01DEE70220F3E710B5044605
:102A200001F00F00C0EBC00311F0800F4FEA8303E9
:102A30004FF01C0216D002FB004203F13C010123BF
:102A4000214482F83D30087094F8BC33012B12D039
:102A5000012384F8BC33206801F0B0FB002084F827
:102A6000BC0310BD02FB004203F5FE7100232144AC
:102A700082F8FD31E7E70220F3E738B501F00F05F2
:102A80001C2404FB050104FB050401F5FE71C4F8D8
:102A900010320023C4F80822C4F8143284F8FD313F
:102AA00084F8FC5103690068012B08BFC4F80C22AC
:102AB000DAB21DB901F0D4FB002038BD01F058FC9A
:102AC000FAE738B501F00F051C2404FB050104FBEF
:102AD00005043C312365002363650123A26484F867
:102AE0003D3084F83C5003690068012B08BFE26464
:102AF000DAB21DB901F0B4FB002038BD01F038FC9A
:102B0000FAE738B5436801F00F059D4204462ED818
:102B100011F0800F4FF01C021FD002FB050102FBD9
:102B2000050301223C3381F83D2001229A701D707B
:102B300094F8BC1391421CD084F8BC231946206839
:102B400001F0FCFC2DB904F57172217C206801F0C4
:102B5000B9FD002084F8BC0338BD02FB010302FB71
:102B60000101002203F5FE7381F8FD21DDE701205C
:102B7000F2E70220F0E738B5436801F00F029A420D
:102B800004462AD8C2EBC20311F0800F4FEA830338
:102B90004FF01C0018D000FB024003F13C01012360
:102BA000214480F83D3000258D700A7094F8BC33C4
:102BB000012B14D0012384F8BC33206801F0E9FC18
:102BC00084F8BC53284638BD00FB024003F5FE7173
:102BD0000023214480F8FD31E5E70120F3E70220DE
:102BE000F1E7006870B51204446A19B922438262A1
:102BF000002070BD836A4D1E04EB134400235E1C4D
:102C0000DBB29D4205D83F3100EB81002243426098
:102C1000EEE7403300EB83035B6804EB1344334679
:102C2000EDE7036800205962704770472DE9F341D2
:102C3000044608B901203FE00368DD0710D423688B
:102C400098075AD423681A0700F19C8023685B0711
:102C500000F1BA80A069002840F01B8100202BE021
:102C6000A74B9A6802F00C02042A07D09A6802F077
:102C70000C02082A0AD15B68590207D5A04B1B68D1
:102C80009A03DCD56368002BD9D1D3E763689C4DE8
:102C9000B3F5803F13D12B6843F480332B60FEF7EC
:102CA000CBFF974D06462B689B03C8D4FEF7C4FFA5
:102CB000801B6428F7D9032002B0BDE8F081B3F58A
:102CC000A02F04D12B6843F480232B60E3E72A680C
:102CD00022F480322A602A6822F480222A60002BA3
:102CE000DDD1FEF7A9FF06462B689F03A7D5FEF7A7
:102CF000A3FF801B6428F7D9DDE7814B9A6812F0A7
:102D00000C0F07D09A6802F00C02082A11D15B68F8
:102D10005E020ED47A4B1A68950702D5E268012A42
:102D200088D11A68216922F0F80242EAC1021A60C9
:102D300088E7E268734BB2B101221A60FEF77CFFAC
:102D40006F4D06462B68980707D52B68226923F03C
:102D5000F80343EAC2032B6074E7FEF76DFF801BA4
:102D60000228EFD9A7E71A60FEF766FF644D064612
:102D70002B6899077FF566AFFEF75EFF801B022880
:102D8000F6D998E76269604B7AB101221A60FEF7C2
:102D900053FF5B4D06466B6F9F073FF557AFFEF73E
:102DA0004BFF801B0228F6D985E71A60FEF744FF27
:102DB000534D06466B6F98077FF548AFFEF73CFF13
:102DC000801B0228F6D976E74D4B1A6C12F0805220
:102DD00028D101921A6C42F080521A641B6C03F0E5
:102DE00080530193019B0126484D2B68D9051BD5C3
:102DF000A368434D012B27D12B6F43F001032B67B1
:102E0000FEF71AFF3E4D074641F288382B6F9B07AD
:102E100039D5002E3FF41EAF394A136C23F080538E
:102E2000136417E70026DFE72B6843F480732B60F9
:102E3000FEF702FF07462B68DA05D9D4FEF7FCFE41
:102E4000C01B0228F7D936E7052B04D12B6F43F0BE
:102E500004032B67D0E72A6F22F001022A672A6F4A
:102E600022F004022A67002BCAD1FEF7E5FE41F2E8
:102E7000883807462B6F9807CBD5FEF7DDFEC01BC1
:102E80004045F7D917E7FEF7D7FEC01B4045BDD92F
:102E900011E71B4DAB6803F00C03082B47D01C4E09
:102EA00000230228336035D1FEF7C6FE07462B68A3
:102EB00099011ED4D4E907321343626A43EA8213AC
:102EC000E26A43EA0263A26A0D4C5208013A43EAFD
:102ED00002436B6001233360FEF7AEFE05462368B4
:102EE0009A013FF5BBAEFEF7A7FE401B0228F6D9BC
:102EF000E1E6FEF7A1FEC01B0228D8D9DBE600BF41
:102F00000038024000004742800E474200700040F7
:102F100060004742FEF790FE04462B689B017FF558
:102F20009DAEFEF789FE001B0228F6D9C3E60128F4
:102F30003FF4C2AE6868E36900F480029A427FF40D
:102F400079AE226A00F03F0393427FF473AE626A67
:102F500047F6C073034093427FF46CAEA26A00F45C
:102F6000403393427FF466AEE36A00F07060C01AAB
:102F700018BF0120A0E600BF134908B58B6803F015
:102F80000C03042B03D0082B03D0104800E010489A
:102F900008BD4A684B68496813F4800314BF0C48A5
:102FA0000A48C1F3881118BF002302F03F02A1FBB9
:102FB0000001FDF741FE044B5B68C3F3014301339D
:102FC0005B00B0FBF3F0E3E7003802400024F400BC
:102FD00000127A002DE9F0410D46044610B9012097
:102FE000BDE8F081434B1A6802F00F028A4228D3F1
:102FF00021688F072DD4C80740D43E4B1A6802F0D1
:103000000F02AA4265D8226851076BD4130707D56F
:10301000394A2169936823F4604343EAC10393600A
:10302000FFF7AAFF344B354A9B68C3F30313D35C05
:10303000D840334B1860334B1868FEF7B3FD0020BF
:10304000CEE7CAB21A701B6803F00F038B42C6D1D9
:10305000CEE7294B11F0040F1EBF9A6842F4E052EC
:103060009A600E0742BF9A6842F460429A609A687A
:10307000A06822F0F00202439A60BCE762681E4B2F
:10308000012A1CD11B6813F4003FA8D01A4EB36864
:1030900023F003031343B360FEF7CEFD41F28838FB
:1030A0000746B368626803F00C03B3EB820FA4D049
:1030B000FEF7C2FDC01B4045F3D9032090E7911EE7
:1030C00001291B6802D813F0007FDEE713F0020F1E
:1030D000DBE7EAB21A701B6803F00F03AB427FF420
:1030E0007EAF90E70449E0688B6823F4E053034324
:1030F0008B608BE7003C024000380240D8B70008E4
:10310000040000200C000020014B1868704700BF2D
:1031100004000020044B054A9B68C3F38223D35C60
:10312000034A1068D840704700380240E8B70008EA
:1031300004000020044B054A9B68C3F34233D35C70
:10314000034A1068D840704700380240E8B70008CA
:103150000400002010B50446002836D00023836206
:1031600090F8513003F0FF021BB980F85020FEF7B1
:1031700023FB2168A269022384F851300B6823F0F5
:1031800040030B60D4E901300343E0680343206946
:10319000034360690343E0690343206A0343A06A71
:1031A000034302F4007003430B60120C636A02F0E5
:1031B00004021A434A60CB6923F40063CB61002008
:1031C0000123606584F8513010BD0120FCE7000048
:1031D000036A23F001030362036A70B544688269DD
:1031E0000D6822F073022A438D6823F002032B43FB
:1031F0000E4DA84202D00E4EB04210D1CE6823F040
:1032000008033343A84223F0040302D0084DA84228
:1032100005D1D1E9055624F4407435432C4344606C
:1032200082614A684263036270BD00BF00000140D2
:1032300000040140036A23F480730362036A70B5DB
:103240004468C2690D6822F073022A438D6823F432
:10325000007343EA0523114DA84203D005F58065AC
:10326000A84214D1CD6823F4006343EA05230B4D33
:10327000A84223F4806303D005F58065A84206D1F7
:10328000D1E9055624F44054354344EA051444601A
:10329000C2614A68C263036270BD00BF00000140A2
:1032A000036A23F480530362036A30B54468C26939
:1032B0000D6822F4E64242EA05228D6823F40053A9
:1032C00043EA0533084DA84203D005F58065A842BE
:1032D00004D14D6924F4804444EA85144460C261F9
:1032E0004A680264036230BD00000140022380F896
:1032F0003D3003689A6802F00702062A1EBF1A686A
:1033000042F001021A60012380F83D30002070472E
:103310000368DA6842F00102DA609A6802F0070294
:10332000062A1EBF1A6842F001021A600020704788
:1033300070470368B1B1042926D01A6A22F001024D
:103340001A621A6A42F001021A621A6A22F0100224
:103350001A621A6A42F010021A62DA6842F0020235
:10336000DA6019E01A6A22F001021A621A6A42F05F
:1033700001021A62DA6842F00202DA601A6842F068
:1033800001021A60002070471A6A22F010021A62C5
:103390001A6A42F010021A62DA6842F00402ECE79C
:1033A000704770477047704703681A69910710B5F6
:1033B00004460ED5DA6892070BD56FF002021A6147
:1033C0009B6901229B07027777D0FFF7EAFF002372
:1033D000237723681A69500710D5DA6851070DD58D
:1033E0006FF004021A619B69022213F4407F227776
:1033F000204668D0FFF7D5FF0023237723681A699A
:1034000012070FD5DA6810070CD56FF008021A61A1
:10341000DB6904229907227720465AD0FFF7C1FFC3
:103420000023237723681A69D20610D5DA68D006FC
:103430000DD56FF010021A61DB69082213F4407F8A
:10344000227720464BD0FFF7ACFF00232377236879
:103450001A69D10708D5DA68D20705D56FF00102DD
:103460001A612046FEF7F0F823681A69100608D59D
:10347000DA68110605D56FF080021A61204600F067
:10348000EAFA23681A69520608D5DA68500605D5A3
:103490006FF040021A612046FFF785FF23681A6922
:1034A000910622D5DA6892061FD56FF020022046D9
:1034B0001A61BDE8104000F0CDBAFFF771FF204659
:1034C000FFF770FF83E7FFF76BFF2046FFF76AFF08
:1034D00092E7FFF765FF2046FFF764FFA0E7FFF7DD
:1034E0005FFF2046FFF75EFFAFE710BD304A03687D
:1034F000904212D0B0F1804F0FD0A2F57C429042A2
:103500000BD002F58062904207D002F580629042B3
:1035100003D002F57842904219D14A6823F0700333
:103520001343234A904229D0B0F1804F26D0A2F510
:103530007C42904222D002F5806290421ED002F579
:10354000806290421AD002F57842904216D0194A11
:10355000904213D002F5806290420FD002F5806253
:1035600090420BD0A2F59832904207D002F58062CB
:10357000904203D002F58062904203D1CA6823F4DE
:10358000407313434A6923F08003134303608B683D
:10359000C3620B688362064B984203D003F58063D5
:1035A000984201D10B69036301234361704700BF57
:1035B000000001400040014010B50446A0B190F861
:1035C0003D3003F0FF021BB980F83C20FEF72CF9D8
:1035D000022384F83D302068211DFFF787FF012377
:1035E00084F83D30002010BD0120FCE710B50446F2
:1035F000A0B190F83D3003F0FF021BB980F83C20E9
:10360000FFF796FE022384F83D302068211DFFF766
:103610006DFF012384F83D30002010BD0120FCE740
:10362000F8B50C460546002843D090F83D3003F02D
:10363000FF021BB980F83C20FEF74EF92946022311
:1036400051F8040B85F83D30836823F4804323F060
:1036500007038360FFF74AFF28682368866882694A
:10366000A168076A1E43A36922F4407222F0030294
:1036700041EA0323134323F47C422369E1691B01DC
:1036800043EA0123E1680B43216A22F0FC0243EA8A
:1036900001331343616927F0AA026768866047EA2D
:1036A0000117836117430123076285F83D3000202D
:1036B000F8BD0120FCE70000036A23F01003036259
:1036C000036A70B5446882690D6822F4E64242EAF2
:1036D00005228D6823F0200343EA0513104DA8420C
:1036E00003D005F58065A84214D1CD6823F080038E
:1036F00043EA05130A4DA84223F0400303D005F521
:103700008065A84206D1D1E9055624F440643543CA
:1037100044EA8504446082614A688263036270BD42
:103720000000014038B590F83C30012B04464FF0C2
:10373000020025D0012384F83C3084F83D000C2A97
:1037400018D8DFE802F0071717171E1717172F17DB
:10375000171740002068FFF73BFD236809699A6945
:1037600042F008029A619A6922F004029A619A6909
:103770000A439A610123002084F83D3084F83C001C
:1037800038BD2068FFF798FF236809699A6942F4F9
:1037900000629A619A6922F480629A619A6942EAA7
:1037A0000122E6E72068FFF745FD23680969DA6929
:1037B00042F00802DA61DA6922F00402DA61DA69B9
:1037C0000A43DA61D6E72068FFF76AFD23680969D2
:1037D000DA6942F40062DA61DA6922F48062DA615D
:1037E000DA6942EA0122ECE710B584680A4324F45E
:1037F0007F4442EA03232343836010BD90F83C30AA
:10380000012B70B504464FF0020019D084F83D003A
:103810002068012384F83C30836823F47F4323F03D
:10382000770383600B68402B65D015D8102B0CD024
:1038300007D853B10123002084F83D3084F83C00C0
:1038400070BD202B01D0302BF4D1826843F00703E8
:1038500022F0700213431AE0602B34D019D8502B99
:10386000E8D14A68CE68016A056A25F0010505625B
:10387000836921F00A0123F0F00343EA06130A43A7
:1038800083610262836823F0700343F0570383600F
:10389000D0E7702B0CD0B3F5005FCBD1CB68D1E96A
:1038A0000121FFF7A1FF2268936843F4804308E0F9
:1038B000CB68D1E90121FFF797FF2268936843F0B5
:1038C00077039360B6E74D68CE68016A21F0100176
:1038D00001628269036A22F4704223F0A00343EA82
:1038E000051342EA063282610362836823F07003A3
:1038F00043F06703CBE74A68CE68016A056A25F0A2
:1039000001050562836921F00A0123F0F00343EA0F
:1039100006130A4383610262836823F0700343F055
:103920004703B4E7036A01F01F0110B501248C407E
:1039300023EA04030362036A8A401A43026210BD49
:1039400010B5044601220068FFF7ECFF23680B4A1C
:10395000934203D002F58062934203D15A6C42F441
:1039600000425A649A6802F00702062A1EBF1A68CB
:1039700042F001021A60002010BD00BF00000140AB
:10398000FFF7DEBF90F83C30012B30B54FF002035B
:1039900035D080F83D3003680D685C6824F0700411
:1039A00001222C4380F83C209A685C60154CA342AD
:1039B0001AD0B3F1804F17D0A4F57C44A34213D0A2
:1039C00004F58064A3420FD004F58064A3420BD0B9
:1039D00004F57844A34207D004F57054A34203D001
:1039E000A4F59434A34204D1496822F080020A432A
:1039F0009A60012380F83D30002380F83C3018465F
:103A000030BD00BF0000014090F83C30012B1FD0BA
:103A1000CB688A6823F4407313434A6823F48063B5
:103A200013430A6823F4006313430A6923F48053A1
:103A300013434A6923F400531343CA6923F48043B0
:103A4000134302685364002380F83C3018467047E3
:103A500002207047704770470368DA6822F490725A
:103A6000DA605A6922F001025A61202380F83A3064
:103A7000704700000368C1681A6970B522F44052AB
:103A800004460A431A612569A268D968C0692A43B5
:103A9000656921F416412A4321F00C0102430A43CF
:103AA000DA605A69A16922F440720A43B0F5004F06
:103AB0005A61264A29D1934203D002F5806293428B
:103AC00020D1FFF737FB6268002692184FF01901EA
:103AD00046EB0603A0FB0101FDF7AEF86421B0FB45
:103AE000F1F501FB1503DB003233B3FBF1F303F017
:103AF00007025B00216802EB051203F4F87313441C
:103B00008B6070BDFFF706FBDDE7934202D0104AE1
:103B1000934217D1FFF70EFB636819219A00A0FBAF
:103B200001019B0FFDF788F86422B0FBF2F102FB64
:103B3000110324681B013233B3FBF2F303EB0113CF
:103B4000A360DEE7FFF7E6FAE6E700BF00100140FA
:103B50000014014010B5044640B390F8393003F02A
:103B6000FF021BB980F83820FDF720FF22682423CC
:103B700084F83930D36823F40053D3602046FFF72C
:103B800079FF23681A6922F490421A615A6922F077
:103B90002A025A61DA6842F40052DA6000202023D7
:103BA000E06384F8393084F83A3010BD0120FCE736
:103BB0007047704790F83A30222B10B533D18168A6
:103BC0000469836A0268B1F5805F23D15268ECB959
:103BD000C2F3080223F8022B8362C48D013CA4B215
:103BE000C4858CB90368DA6822F02002DA60DA68EA
:103BF00022F48072DA605A6922F001025A612023AD
:103C000080F83A30FFF7D5FF00200DE0D2B223F85C
:103C1000012BE1E7591C526881620CB91A70DCE78C
:103C200002F07F02FAE7022010BD704703681A68AD
:103C3000D96870B5160704465D6907D196065AD54E
:103C40008D0658D5BDE87040FFF7B4BF15F00105EB
:103C500002D111F4907F4ED0D00705D5CB0542BFDD
:103C6000E36B43F00103E363560704D51DB1E36B37
:103C700043F00203E363900704D51DB1E36B43F007
:103C80000403E363130706D58E0600D41DB1E36B6E
:103C900043F00803E363E36B43B3950604D588065A
:103CA00002D52046FFF786FF23685D69E26B1107A6
:103CB000204602D415F0400519D0FFF7CDFE236849
:103CC0005A6952060FD55A69606B22F040025A6158
:103CD00048B1264B0365FEF7CDF838B1606BBDE8FF
:103CE0007040036D18472046FFF79FFF70BDFFF738
:103CF0009CFFE563FAE7160628D50D0626D594F84D
:103D00003920212AF2D1A168226AB1F5805F18D149
:103D10001188C1F308015960216981B90232226218
:103D2000E28C013A92B2E284002ADFD1DA6822F012
:103D30008002DA60DA6842F04002DA60D6E70132E7
:103D4000EDE7511C216212785A60E9E75006CDD5A3
:103D50004A06CBD5DA6822F04002DA60202384F8E4
:103D600039302046FFF724FFC0E700BF713D00084F
:103D700008B5806B0023C385C384FFF756FF08BDD9
:103D80000A4B013B0FD00269002AFADA0369074A9D
:103D900043F001030361013A05D0036913F0010305
:103DA000F9D1184670470320704700BF410D03004A
:103DB00084B038B505AD85E80E000A9B012B04469A
:103DC00025D1836B23F480338363C36823F4840396
:103DD00023F04003C360C36823F44013C360119B06
:103DE000012B02BFC36843F48013C360FFF7C8FF11
:103DF000089B012B07D1A36843F00603A360A368C7
:103E000043F02003A360BDE8384004B07047C368A6
:103E100043F04003C360FFF7B3FF0E9B23B9A36BCE
:103E200043F48033A363E3E7A36B23F48033F9E720
:103E3000022A58D12E4B2F4A0B44934247D92E4B7E
:103E40002E4A0B44934244D9A1F574032C4AA3F59E
:103E5000105393423FD9A1F1837302F5C332A3F506
:103E6000E743A032934238D9264B274A0B4493426A
:103E700035D9264B02F592220B4402F57872934213
:103E80002FD9234B02F5C3220B4402F52072934233
:103E900029D9A1F1B77302F5B712A3F5585302F56A
:103EA0005872934221D91B4B02F512220B4402F5A2
:103EB000F862934294BF07230623C26822F470522B
:103EC000C260C26842EA8323C360002070470F23A8
:103ED000F3E70E23F1E70D23EFE70C23EDE70B23C8
:103EE000EBE70A23E9E70923E7E70823E5E700BF53
:103EF000405327FFFF340C00401E1BFF3F420F00C2
:103F00007F4F120060B6E5FE5FE3160000D3CEFEE1
:103F1000C05BB3FEE05459FE836843F00103836045
:103F200000207047836823F00103836000207047FE
:103F300008B5C368012923F0C043C36008D1C36832
:103F400043F00053C3603220FDF77CFE002008BD23
:103F500019B9C36843F08043F4E70120F7E7000094
:103F6000890141F02001064A0161013A05D0036947
:103F700013F02003F9D1184670470320704700BFA3
:103F8000410D03001023064A0361013A05D003697D
:103F900013F01003F9D1184670470320704700BF93
:103FA000410D0300D0F800381943C0F80018002074
:103FB0007047000084B02DE9F843044609A880E862
:103FC0000E000023139D0F46194603F1400204EB37
:103FD000820201330F2B5160F7D104F50066002DEA
:103FE0006CD1736843F002037360A36B43F4001356
:103FF000A363A36B23F40023A363A36B23F48023A5
:10400000A3630023C4F8003ED4F80038C4F8003895
:104010000E9B012B5CD10B99002957D12046FFF74D
:10402000C1FF10212046FFF79BFF01462046FFF706
:10403000A9FF00284ED1081C18BF012000233361BE
:1040400004F5106273611946F3614FF0904C4FF024
:10405000006E4FF67F38BB423ED1002104F530623E
:104060000F464FF0904C4FF0006E4FF67F388B426A
:1040700045D1336923F4807333610023A3616FF06A
:10408000804363610C9B1BB9A36943F01003A361D8
:10409000A269244B1343A3610F9B1BB1A36943F097
:1040A0000803A361012D01BFA36943F0804343F0DE
:1040B0000403A361BDE8F84304B07047A36B23F485
:1040C0000013A363A36B43F4002399E71946A5E704
:1040D0000321A3E70120B1E7D2F80090B9F1000F66
:1040E0000BDA3BB9C2F800E011610133C2F8088075
:1040F0002032B0E7C2F800C0F6E71160F4E7D2F86A
:104100000090B9F1000F0BDA39B9C2F800E017617D
:104110000131C2F808802032A9E7C2F800C0F6E7F2
:104120001760F4E700383C80D0F8083813F0060038
:1041300004D013F0020F14BF02200F20704730B5D7
:104140000D78012405F00F039C404B7800F50062C8
:10415000012B00EB4510D36918D11C43D461D0F872
:1041600000391A0410D48B68C978D0F80029C3F339
:104170000A0343F0805343F4004343EA814343EA94
:1041800085531343C0F80039002030BD43EA04448E
:10419000D461D0F8003B1B04F6D48B68C978D0F802
:1041A000002BC3F30A0343F0805343F4004343EA74
:1041B00081431343C0F8003BE6E7000010B50A78DE
:1041C0004978012900EB421302F00F0100F500606D
:1041D00020D1D3F80029002A0BDAD3F8002942F0C5
:1041E0000062C3F80029D3F8002942F08042C3F8E6
:1041F00000290122C46B8A40D2431440C463C169C0
:104200000A40C261D3F80019134A0A40C3F80029D2
:10421000002010BDD3F8002B002A0BDAD3F8002BB6
:1042200042F00062C3F8002BD3F8002B42F080422A
:10423000C3F8002B4FF48032C46B8A40D243144041
:10424000C463C1690A40C261D3F8001B034A0A4033
:10425000C3F8002BDCE700BF007833EC0078F3EF05
:104260004B78F0B50C784D69354E364F012B00EB8D
:10427000441444D104F51063B5B91D692E401E6184
:104280001D6945F400251D611D692F401F61012A2C
:1042900021D10A6902B15A61D4F8003943F00443CC
:1042A000C4F800390020F0BDD3F810C00CEA0707AD
:1042B0001F611F693E401E618E68AE421D6938BF96
:1042C0004E6145F400251D614D691E69C5F3120557
:1042D00035431D61DBE7D4F8003943F00443C4F8EB
:1042E00000394B69002BDDD00B78D0F8344803F04F
:1042F0000F02012393402343C0F83438D2E704F57A
:10430000306318693840186118693040186188684E
:1043100005B148611D6945F400251D611D69C0F3A3
:1043200012002843012A186102D1CA6802B15A61F9
:10433000D4F8003B43F00443C4F8003BB2E700BFAD
:10434000FFFF07E00000F8FF10B59DF808404CB9EA
:10435000033300EB02309B0800F5805001EB830330
:10436000994201D1002010BD51F8042B0260F7E7FB
:10437000F7B54D780C784B69CE78DFF89CC1DFF843
:104380009CE1012D00EB44147CD104F510652F69EC
:104390003BBB07EA0C072F612F6947F400272F6109
:1043A0002F6907EA0E072F61012A41D10B6903B17A
:1043B0006B61012E0CD1D0F8083813F4807FD4F84B
:1043C00000390CBF43F0005343F08053C4F8003968
:1043D000D4F8003943F00443C4F80039002003B096
:1043E000F0BD07EA0E072F612F6907EA0C07D1F825
:1043F00008C02F610CEB0307013FB7FBFCFC454FE6
:10440000D5F810E007EACC4747EA0E072F61D5F848
:1044100010C0C3F3120747EA0C07012E2F61C3D166
:104420002F6927F0C0472F612F6947F00057BAE77F
:10443000D4F80059012E45F00445C4F800590CD0B9
:10444000002BCBD00B78D0F8344803F00F020123B7
:1044500093402343C0F83438C0E7D0F8085815F427
:10446000807FD4F800590CBF45F0005545F08055C9
:10447000C4F800590C7800929BB22246C968FFF735
:1044800063FFABE704F530673D6905EA0E053D6162
:104490003D6905EA0C053D618D681BBB3B69C5F3B1
:1044A00012051D433D613B6943F40023012A3B6132
:1044B00002D1CB6803B17B61012E0CD1D0F8083852
:1044C00013F4807FD4F8003B0CBF43F0005343F05B
:1044D0008053C4F8003BD4F8003B43F00443C4F8D5
:1044E000003B7BE7DFF82CC0D7F810E02B44013B02
:1044F000B3FBF5F30CEAC34C4CEA0E0CC7F810C042
:104500009BB2D7F810C06B43C3F3120343EA0C030A
:10451000CCE700BF0000F81FFFFF07E00000F8FF36
:104520000332920801EB820200F58050914201D1E2
:1045300008467047036841F8043BF7E74A780B7870
:10454000012A00EB431012D1D0F80029002A06DB23
:104550002BB1D0F8003923F08043C0F80039D0F8EF
:10456000003943F40013C0F8003900207047D0F838
:10457000002B002A06DB2BB1D0F8003B23F0804350
:10458000C0F8003BD0F8003B43F40013C0F8003BF8
:10459000EBE70B784A7800EB4310CB78012AA3F1C4
:1045A0000203DBB20FD1D0F80029012B22F4001254
:1045B000C0F8002905D8D0F8003943F08053C0F87E
:1045C000003900207047D0F8002B22F40012012B94
:1045D000C0F8002B9EBFD0F8003B43F08053C0F8DA
:1045E000003BEEE7D0F8003823F4FE63C0F8003853
:1045F000D0F80038090101F4FE611943C0F8001831
:1046000000207047D0F8003E23F00303C0F8003EBE
:10461000D0F8043823F00203C0F8043800207047B3
:10462000D0F8003E23F00303C0F8003ED0F8043871
:1046300043F00203C0F804380020704742698069E3
:1046400010407047D0F8183800F50060C069184075
:10465000000C7047D0F8183800F50060C0691840A9
:1046600080B2704700EB411100F50060D1F8082BD3
:1046700040691040704710B5D0F81048D0F8343871
:1046800000EB411001F00F01CB4000F51060DB01A1
:104690008068DBB22343184010BD406900F0010080
:1046A0007047D0F8003923F4FF6323F00703C0F804
:1046B0000039D0F8043843F48073C0F8043800207F
:1046C0007047000030B5056C104CA54200F5306312
:1046D00003D9D0F8004B002C16DB00241C611C69A8
:1046E00044F400241C611C6944F018041C611C691A
:1046F000012944F0C0441C6101BF5A61D0F8003B5D
:1047000043F08023C0F8003B002030BD0A30544FF6
:10471000002200F1CC01C0E93421C0E9361280F852
:10472000CC204FF4A051A0F8A8200622A0F8A61093
:1047300080F8AA207047C0F8BC107047C0F8C010BD
:104740007047000030B57249724B734A09781B7884
:1047500012788BB004460991704909780891704924
:10476000097807916F49097806916F490978059191
:104770006E49097804916E49097803916D49097869
:1047800002916D49097801916C4909780091E030F6
:104790006B4906F0CFFC6FF05F0161704121A170A1
:1047A0004FF47A71E1806749E1606749216140F621
:1047B000C411A18347F66011E1836FF0010101226A
:1047C00000234FF07E50218448F2A06184F8C52078
:1047D000E272227122706061A2616184A2846185AB
:1047E000A2856186A2866187A287E3702381E38424
:1047F0002385E3852386E3862387E387A4F8403077
:10480000A4F84210A4F84A104FF48761A4F8561097
:1048100042F21071A4F87610A4F86610A4F868109B
:10482000A4F86A10A4F86C10A4F86E10A4F8721022
:10483000A4F87010A4F87410A4F87810A4F87A10F2
:104840004FF4FA71A4F85A1041F27071A4F858109C
:10485000C821A4F85C10A4F85E10A4F86010A4F8B5
:10486000621040F6B831C4F84E00A4F8641010206D
:104870002721A4F84420A4F84C20A4F84630A4F83A
:10488000483084F87D0084F87E1084F87F0084F836
:10489000801084F8830084F8841084F887006FF017
:1048A000770584F8881084F8972084F8992084F894
:1048B000982084F89A20254A84F89150132584F88A
:1048C0008B0084F88C1084F8810084F8821084F8BE
:1048D000850084F8861084F8890084F88A1084F8AA
:1048E0008D0084F88E1084F88F3084F8903084F82E
:1048F000925084F8930084F8941084F8950084F81A
:104900009610C4F8AC2084F8A4300BB030BD00BFC2
:104910001B7AFF1F117AFF1F107AFF1F1A7AFF1FE1
:10492000197AFF1F187AFF1F177AFF1F167AFF1FC9
:10493000157AFF1F147AFF1F137AFF1F127AFF1FC9
:1049400004B800080000F041000020419A99993E07
:1049500070B50B78142B0C46154617D113704E7892
:1049600056708B789370CB78D3700B7913714B7929
:1049700053718B799371CA7905F10800083106F0FB
:10498000C9FAA35D85F83F30012070BD0020FCE727
:104990000B88A0F87F308B88A0F883300B89A0F8B3
:1049A00087308B89A0F88B304B88A0F88130CB887A
:1049B000A0F885304B89A0F88930CB89A0F88D30DC
:1049C0000B8AA0F88F304B8AA0F891308B8AA0F820
:1049D0009330CB8AA0F895300B7E80F897308B7E91
:1049E00080F899304B7E80F89830CB7E80F89A30F2
:1049F000704700000B7980F8A4304B7980F8A5301F
:104A00000B6807EE903AF5EEC07AF1EE10FA09D98C
:104A10009FED077AF4EEC77AF1EE10FA02DAC0F8E9
:104A2000A03070474FF07E53C0F8A030704700BFF1
:104A30000000C84238B50B7803700D46044609786B
:104A4000D0F8C00002F0E4FDB5F80130A4F8013060
:104A5000B5F80110D4F8C00002F0DEFDD5F806303C
:104A6000C4F80630EB78E3702B7923716B796371AE
:104A7000AB7AA372EB7AE372EB68E3602B69236194
:104A80006B696361AB69A361AB8BA383012184F87C
:104A9000C610D4F8BC00BDE8384000F071BC0B680B
:104AA000C0F81E304B68C0F822308B68C0F8263042
:104AB000CB68C0F82A300B69C0F82E304B69C0F8BB
:104AC00032308B69C0F83630CB69C0F83A300B6AA7
:104AD000C0F83E304B6AC0F842308B6AC0F84630AE
:104AE000CB6AC0F84A30704738B50D460B89A0F83C
:104AF000563004460121D0F8BC0000F041FC6B891F
:104B0000A4F85830AB89A4F85A30EB89B4F85C208B
:104B1000DFED3E6A9A421EBFA4F85C30012384F8A0
:104B2000C5302B8AB4F85E209A421EBFA4F85E30CE
:104B3000012384F8C5306B8AB4F860209A421EBF06
:104B4000A4F86030012384F8C530AB8AB4F8622041
:104B50009A421EBFA4F86230012384F8C5302B6846
:104B6000D4F84E2007EE903A07EE102AF4EE477A7A
:104B7000F1EE10FA1EBFC4F84E30012384F8C530A0
:104B80006B68D4F8522007EE903A07EE102AF4EE44
:104B9000477AF1EE10FA1EBFC4F85230012384F8B0
:104BA000C530EB8AA4F864302A8BA4F866206A8B9F
:104BB000A4F86820AA8BA4F86A20EA8BA4F86C20D9
:104BC00007EE903A2A8CA4F86E20F8EE677AAA8C49
:104BD000A4F8722087EEA67A6A8CA4F87020EA8C7A
:104BE000A4F874202A8DA4F876206A8DA4F8782081
:104BF000AA8DA4F87A2095F82E2084F87C20B5F8A8
:104C00002F20A4F87D2084ED2B7A38BD00401C466F
:104C10008B79052B13D8DFE803F006030C09120F7C
:104C20000831FFF73CBF0831FFF75EBF0831FFF7DF
:104C3000AFBE0831FFF7FEBE0831FFF7DBBE70479D
:104C40007FB50C460646084600F017FBE31FDBB2B3
:104C5000042B96BF4A4A4B4D52F8235004AACC234A
:104C60000B2C4FF0000402F8013D40F2E7310094B4
:104C70004FF0010328466AD100F00BFB1E23324699
:104C800021462846009400F004FB302306F11E0262
:104C900040212846009400F0FCFAD6F8BC2000948D
:104CA00004232C324FF40071284600F0F2FAD6F8B3
:104CB000BC200094042334324FF40171284600F0E4
:104CC000E8FAD6F8BC20009404230C324FF40271A9
:104CD000284600F0DEFAD6F8BC20009404231432F3
:104CE0004FF40371284600F0D4FAD6F8BC200094A3
:104CF000042318324FF40471284600F0CAFAD6F89B
:104D0000BC20009401233D324FF40571284600F089
:104D1000C0FAD6F8BC20009401233C324FF406714F
:104D2000284600F0B6FA012306F1AA024FF40771F3
:104D30000094284600F0ADFA0094062306F1A00284
:104D40004FF48071284600F0A4FA04B070BD00F062
:104D5000A0FA312306F14E0221462846009400F0C5
:104D600098FA1C2306F17F0240210094284600F0A7
:104D700090FA0094052306F19B024FF40071E1E7DD
:104D8000F0B7000800000408F0B5CB1FDBB2042B1D
:104D900096BF6E4A6E4E52F8236085B000250123FF
:104DA00004460F4600950DF10F0240F2E731304600
:104DB0008DF80F5000F0A7FA9DF80F30CC2B40F083
:104DC0009B800B2F009540F099801E2322460021E6
:104DD000304600F098FA302304F11E02402130469C
:104DE000009500F090FAD4F8BC20009504232C32F2
:104DF0004FF40071304600F086FAD4F8BC200095DC
:104E0000042334324FF40171304600F07CFAD4F8B8
:104E1000BC20009504230C324FF40271304600F0A0
:104E200072FAD4F8BC200095042314324FF40371B5
:104E3000304600F068FAD4F8BC20009504231832FC
:104E40004FF40471304600F05EFAD4F8BC200095AF
:104E500001233D324FF40571304600F054FAD4F886
:104E6000BC20009501233C324FF40671304600F01F
:104E70004AFA012304F1AA024FF407713046009563
:104E800000F041FA04F1A00206234FF4807130468D
:104E9000009500F038FA94F8AA302178D4F8C000D0
:104EA000063B042B84BF062384F8AA3002F0B0FB33
:104EB000B4F80110D4F8C00002F0AEFB0121D4F820
:104EC000BC0000F05DFAD4ED287AF5EEC07AF1EE80
:104ED00010FA0BD99FED1F7AF4EEC77AF1EE10FAB3
:104EE00004DAF4EE677AF1EE10FA02D71A4BC4F83E
:104EF000A030012384F8C63005B0F0BD312304F1A1
:104F00004E020021304600F0FEF91C2304F17F021E
:104F100040213046009500F0F6F90523009504F194
:104F20009B024FF40071304600F0EDF9B4F86430A4
:104F3000DFED0A6A07EE903AF8EE677A012387EE12
:104F4000A67A84F8C53084ED2B7AD5E7F0B700084F
:104F5000000004080000C8420000704100401C46E8
:104F600070B506460C464CB1E1683046FFF7F8FFD5
:104F7000A568204603F0ACFB2C46F4E770BD10B5E5
:104F8000D0F8D0100446C830FFF7EAFF204610BD25
:104F90002DE9F84304460846A168271D3E460B4606
:104FA00003B31A7C0578AA4204D2DA6833461E4657
:104FB0001346F5E79A68FAD8D8685AB192F810C043
:104FC000AC4536BFD2F80CC0D2F808C01A4613461A
:104FD0006246F2E738B1027CAA428ABF0646C06840
:104FE0008068F7E73346E568D4F814809D420ED117
:104FF000B7420DD12046FFF7B3FF0023C4E90237C3
:10500000C4E904736069A8EB0000BDE8F8831D469D
:10501000AE42F7D0284603F0B2FB39468146284617
:1050200003F025FC03F054FB6369013B63614D46CB
:10503000EEE78B6870B5044616460D1D01205BB186
:105040001A7C3078904234BF9A68DA681D4634BFC3
:10505000012000201346F2E790B1CA68AA4203D1AA
:10506000C4E90035204670BD284603F09CFB337828
:10507000027C9A424FF00003F2D3C4E90003F1E747
:105080002846F4E72DE9F74FD0F8D03000F1CC08EE
:1050900005468946444653B199F80520197C91424A
:1050A00036BFDA689A6823461C461346F3E7A045E4
:1050B00004D099F80520237C9A4233D2142003F0BF
:1050C000EDFA99F805700774064600F1100BA0453B
:1050D0004FF0000005F1C80A707429D1D5F8DC3012
:1050E00023B1D5F8D820137CBB420AD35A46514687
:1050F0006846FFF79EFFDDE90042002A53D0002CEE
:105100004FD190454DD0107CB84294BF0020012073
:105110004346314603F049FBD5F8DC300133C5F88E
:10512000DC30344699F80430637403B0BDE8F08F86
:10513000237CBB421AD9D5F8D4309C420BD02046F0
:1051400003F031FB037CBB4208D2C368002B0ABFCB
:1051500004462346002322461C46CEE75A465146C3
:105160006846FFF766FFDDE90034F4E71BD2D5F8A7
:10517000D820944209D0204603F0EDFA037CBB42CC
:1051800005D9E3685BB9224618460446B5E75A4696
:1051900068465146FFF74DFFDDE90002F5E702469C
:1051A000F3E70120B4E7304603F092FA2646B8E769
:1051B00070B5002590B004460E463722294602A855
:1051C0008DF8075005F0B1FE6A46314620468DF84D
:1051D0003F50FFF7BDFB58B19DF80330042B29D099
:1051E00008D8012B15D00FD3022B17D0032B1BD0BF
:1051F00010B070BD062B27D021D3902B36D0FF2BBB
:10520000F6D1FCF79BFDF3E769462046FFF73AFF2E
:10521000EEE769462046FFF7FBFCE9E79DF8021040
:105220002046FFF7B1FDE3E79DF802102046FFF7A7
:1052300007FDDDE79DF8020000F01FF8D8E7D4F87D
:10524000BC0000F09CF9D3E7D4F8BC20012384F81B
:10525000C43000235363D4F8BC20D362D4F8BC30EC
:10526000DD60D4F8BC3083F83C50C1E70DF1050196
:1052700004F1C800FFF78CFEBAE710B50446FCF74E
:105280007FFE20460221FCF707FFBDE81040FCF737
:1052900089BEF8B59DF8187014461D464618FCF7EF
:1052A0006FFE012F10D01DD3022F28D104EB8505EE
:1052B000361BAC4206EB040121D054F8042B00232A
:1052C0000220FCF7A3FEF4E704EB4505361BAC42D5
:1052D00006EB040113D034F8022B00230120FCF765
:1052E00095FEF4E72544361BAC4206EB040106D0DC
:1052F00014F8012B00230020FCF788FEF4E7BDE83A
:10530000F840FCF74FBE10B59DF80840012C014451
:105310000BD013D3022C19D102EB8303891A9A42C2
:1053200014D0885842F8040BF9E702EB4303891ABA
:105330009A420BD0885A22F8020BF9E71344891AD3
:105340009A4203D0885C02F8010BF9E710BD000017
:1053500041F64C5147F23052C0E907120A22A0F838
:105360004C20012280F83D20002280F83C20024A97
:105370001268526A42647047000D002070470000B6
:105380000F4A21B1D2F80630C3619B000362B2F824
:105390005630D0ED087ADFED0B6A07EE103AF8EEE2
:1053A000E77AB8EE477A27EE877AC7EE267AB6EE26
:1053B000007A67EE877AFDEEE77AC0ED047A7047EF
:1053C0001C0700200000B44338B50C460021FFF74D
:1053D000D7FF042104642046BDE83840FDF7A9BF8B
:1053E0008368D0ED0A7A90ED0B7AC268002BF0EE5C
:1053F000E77AB8BF5B42B4EEE77A9A42B8BFC360BF
:10540000F1EE10FA48BFC0ED0B7AD0ED0C7A90EDBA
:105410000D7AF0EEE77AB4EEE77AF1EE10FA48BFD3
:10542000C0ED0D7A70470000036C426C1B685B6A2C
:105430000360254B1B68596A81648A1A92B210B4C2
:10544000A0F84E20002A3BD00368846B90ED097AC7
:1054500063435EBF03681B1B836084684FF47A73E9
:10546000634393FBF2F307EE903AF8EEE77A67EEC8
:10547000876AC0ED0A7AF5EEC06AF1EE10FA0DDB2C
:1054800037EEC77ADFED116A67EE266A07EE102A5B
:10549000B8EEC77A86EE876A80ED0C6A03684360CF
:1054A000036883630A4BC0ED097A416493F8C43002
:1054B00033B1084B1B781BB15DF8044BFFF790BF6D
:1054C0005DF8044B704700BF000D002000007A44D7
:1054D0001C0700201000002090F83D3010B5044655
:1054E000E3B10268036A002AB8BF5242934215DB57
:1054F00090F83C209AB90268002A04DD02684261F3
:105500000268D21A82612268002A04DA2268A26143
:10551000226813446361012384F83C3010BD0368A2
:105520004169B0F84C205B1A002BB8BF5B429A422D
:105530000CDA0368002B09DD1C20FCF7EBFB236C65
:1055400062691B681C205A62FCF7D6FB2368A169BC
:10555000B4F84C205B1A002BB8BF5B429A42DDDAEC
:105560002368002BDADA1C20FCF7D4FB236CA26939
:105570001B681C205A62BDE81040FCF7BDBB0168E7
:10558000026A91FBF2F302FB131310B5036001688A
:1055900043695B1A002B4361B6BF83619B1A9B185A
:1055A0000446B4BF43618361002303601C20FCF701
:1055B000B1FB236C22681B681C205A62BDE81040B6
:1055C000FCF79ABB00000000F0B5134F134D002606
:1055D000C0E90C670EA7D7E900670024C0E90245BF
:1055E0000022002400250260C0E90A45C0E9084500
:1055F000C0E90645C0E90445C0E90E67C0E91045A9
:10560000C0E91445C0E91245F0BD00BFAFF300800A
:1056100039B4C876BE9FE63F0000E03F0000F03F8F
:105620002DE9F04782462DED028BD0E9100386B0BC
:10563000002223F00041AA4BFBF700F99FEDA40BD9
:1056400041EC110B03F068FAA3A3D3E90023DAE9D4
:105650000C0159EC108BFAF7C7FF41EC100B03F06B
:105660002BFADAF8003057EC106B062B5DD8DFE828
:1056700013F007006100AC00E2003B01EE012B03D8
:1056800010EE100ADAE90E233946FBF7D7F8324656
:10569000CDE900013B4630463946FAF7A5FF002226
:1056A00004460D468F4BDDE90001FAF7E7FD22467F
:1056B0002B46FAF7E3FD02460B4600208949FBF72B
:1056C000BDF802460B4606460F4620462946FAF725
:1056D0008BFF8046894602460B46CAE90289FAF7E3
:1056E000CDFD0022CAE904017E4BCAE906892046A5
:1056F0002946FAF7C1FD02460B46FAF7BFFD3246CE
:105700003B46FAF771FFDDE90023CAE908010020F2
:105710007449FAF7B1FD22462B46FAF7AFFD32463F
:105720003B46FAF761FFCAE90A0106B0BDEC028BFD
:10573000BDE8F08710EE100ADAE90E233946FBF7D0
:105740007DF832463B468046894630463946FAF770
:105750004BFF002206460F46624B40464946FAF789
:105760008DFD32463B46FAF789FD02460B46002086
:105770005C49FBF763F804460D46CAE9024500227E
:105780004FF04043FAF730FFCAE90645CAE9040181
:105790000022544B30463946FAF76EFD02460B465E
:1057A000FAF76CFD22462B46FAF71EFF4246CAE97D
:1057B00008014B4600204B49FAF75EFD32463B4656
:1057C000FAF75CFD22462B46ABE710EE100ADAE949
:1057D0000E233946FBF732F83246804689463B466F
:1057E00030463946FAF700FF002206460F463D4B89
:1057F00040464946FAF742FD32463B46FAF73EFD3F
:1058000002460B4600203749FBF718F802460B46C4
:1058100004460D4640464946FAF7E6FE00230022BC
:10582000CAE9042301F10043CAE90201CAF81800D9
:10583000CAF81C30ACE710EE100ADAE90E2339463C
:10584000FAF7FCFF3246804689463B4630463946E9
:10585000FAF7CAFE002204460D46224B404649464E
:10586000FAF70CFD22462B46FAF708FD02460B46D6
:1058700000201C49FAF7E2FF002206460F46194BAA
:1058800020462946FAF7FAFC32463B46FAF7ACFEC8
:105890000022CDE90001CAE90201124B2046294647
:1058A000FAF7EAFC02460B46FAF7E8FC32463B46BA
:1058B000FAF79AFE9DED007BCAE904018AED067BAA
:1058C000CAE9080142464B4621E700BFAFF300801A
:1058D0000000000000002440182D4454FB21094022
:1058E000000034400000F03F9AED0E7B404653EC40
:1058F000172B49468DED007BFAF7A0FF32463B4659
:10590000FAF772FE3246804689463B4630463946B3
:10591000FAF76AFE002204460D46A14B404649466E
:10592000FAF7ACFC22462B46FAF7A8FCDDE9002387
:10593000CDE9020100209A49FAF780FF32463B4642
:10594000FAF752FE0022964B06460F46FAF796FCEF
:1059500022462B46FAF792FC3246CDE900013B463F
:1059600000208F49FAF788FC22462B46FAF786FC7E
:105970004246CDE904014B4600208949FAF77CFCF8
:1059800022462B46FAF77AFC0022854B8046894650
:1059900020462946FAF770FC02460B46FAF76EFCE1
:1059A000002206460F460023DAE91001FBF7A2F8B1
:1059B00040B3DDE9002300207949FAF73FFF0446B0
:1059C0000D4602460B46DDE90201FAF70DFE3246AE
:1059D000CAE902013B4620462946FAF705FE06467B
:1059E0000F4642464B46CAE9046720462946FAF765
:1059F000FBFDCAE90867CAE90601DDE90423204680
:105A000029468EE6DDE9022300206549FAF716FFF4
:105A1000DDE9002304460D46FAF7E6FD3246CAE901
:105A200002013B4620462946FAF7DEFD06460F46B0
:105A3000DDE90423CAE9046720462946FAF7D4FDC4
:105A4000CAE90867CAE9060142464B46D7E742461B
:105A50004B4640464946FAF711FC002241EC180B30
:105A60000023DAE91001FBF745F8002800F09A80DE
:105A700049A3D3E9002330463946FAF7B5FD32464B
:105A8000CDE902013B4630463946FAF7ADFD00222A
:105A9000CDE90001424BDDE90201FAF7EFFBDDE958
:105AA0000023FAF7EBFB02460B4600203C49FAF7CD
:105AB000C5FEB0EE480AF0EE680A04460D4603F053
:105AC0009BF942464B46304639468DED040BFAF7BA
:105AD0008BFD32463B46FAF787FD9DED040B804671
