:020000040800F2
:1000000000000220D12400083D2200084B220008F5
:1000100051220008572200085D220008000000005D
:100020000000000000000000000000006322000843
:1000300071220008000000007F2200088D220008C5
:100040002125000821250008212500082125000878
:100050002125000821250008212500082125000868
:1000600099220008212500082125000821250008E3
:100070002125000821250008212500082125000848
:100080002125000821250008212500082125000838
:100090002125000821250008212500082125000828
:1000A0002125000821250008212500082125000818
:1000B000AD2200082125000821250008212500087F
:1000C00021250008212500082125000821250008F8
:1000D00021250008212500082125000821250008E8
:1000E00021250008212500082125000821250008D8
:1000F00021250008212500082125000821250008C8
:1001000021250008212500082125000821250008B7
:1001100021250008212500082125000821250008A7
:100120002125000821250008212500082125000897
:100130002125000821250008212500082125000887
:10014000212500082125000821250008C1220008DA
:1001500021250008D52200082125000821250008B6
:100160002125000821250008212500082125000857
:100170002125000821250008212500080000000095
:080180002125000821250008DB
:1001900010B5054C237833B9044B13B10448AFF3C1
:1001A00000800123237010BD100700200000000014
:1001B0008C41010808B5034B1BB103490348AFF359
:1001C000008008BD00000000140700208C410108D9
:1001D00001F0FF01102A2BDB10F0070F08D010F8F8
:1001E000013B013A8B422DD010F0070F42B3F6D1FC
:1001F000F0B441EA012141EA014122F007047FF015
:1002000000070023F0E80256083C85EA010586EA6B
:10021000010685FA47F5A3FA87F586FA47F6A5FAA7
:1002200087F68EB9EED1F0BC01F0FF0102F00702B3
:1002300032B110F8013B013A83EA010313B1F8D15E
:100240000020704701387047002D06BF354603383F
:10025000073815F0010F07D1013015F4807F02BF78
:10026000013015F4C03F0130F0BC0138704700BFC9
:1002700081F0004102E000BF83F0004330B54FEA57
:1002800041044FEA430594EA050F08BF90EA020FC4
:100290001FBF54EA000C55EA020C7FEA645C7FEA57
:1002A000655C00F0E2804FEA5454D4EB5555B8BF7A
:1002B0006D420CDD2C4480EA020281EA030382EAEB
:1002C000000083EA010180EA020281EA0303362D7D
:1002D00088BF30BD11F0004F4FEA01314FF4801C50
:1002E0004CEA113102D0404261EB410113F0004F62
:1002F0004FEA03334CEA133302D0524263EB430319
:1003000094EA050F00F0A780A4F10104D5F1200EB6
:100310000DDB02FA0EFC22FA05F2801841F1000111
:1003200003FA0EF2801843FA05F359410EE0A5F1E5
:1003300020050EF1200E012A03FA0EFC28BF4CF016
:10034000020C43FA05F3C01851EBE37101F00045CC
:1003500007D54FF0000EDCF1000C7EEB00006EEBD9
:100360000101B1F5801F1BD3B1F5001F0CD3490863
:100370005FEA30004FEA3C0C04F101044FEA4452BA
:1003800012F5800F80F09A80BCF1004F08BF5FEA41
:10039000500C50F1000041EB045141EA050130BD21
:1003A0005FEA4C0C404141EB010111F4801FA4F1C4
:1003B0000104E9D191F0000F04BF01460020B1FA19
:1003C00081F308BF2033A3F10B03B3F120020CDA51
:1003D0000C3208DD02F1140CC2F10C0201FA0CF02F
:1003E00021FA02F10CE002F11402D8BFC2F1200C94
:1003F00001FA02F120FA0CFCDCBF41EA0C0190404A
:10040000E41AA2BF01EB0451294330BD6FEA040492
:100410001F3C1CDA0C340EDC04F11404C4F120027D
:1004200020FA04F001FA02F340EA030021FA04F38F
:1004300045EA030130BDC4F10C04C4F1200220FAE6
:1004400002F001FA04F340EA0300294630BD21FA24
:1004500004F0294630BD94F0000F83F4801306BFEA
:1004600081F480110134013D4EE77FEA645C18BFDE
:100470007FEA655C29D094EA050F08BF90EA020F75
:1004800005D054EA000C04BF1946104630BD91EA6D
:10049000030F1EBF0021002030BD5FEA545C05D170
:1004A0004000494128BF41F0004130BD14F58004AF
:1004B0003CBF01F5801130BD01F0004545F0FE4123
:1004C00041F470014FF0000030BD7FEA645C1ABF58
:1004D000194610467FEA655C1CBF0B46024650EA8F
:1004E000013406BF52EA033591EA030F41F40021BB
:1004F00030BD00BF90F0000F04BF0021704730B541
:100500004FF4806404F132044FF000054FF0000115
:1005100050E700BF90F0000F04BF0021704730B5D6
:100520004FF4806404F1320410F0004548BF4042AB
:100530004FF000013EE700BF42004FEAE2014FEA00
:1005400031014FEA02701FBF12F07F4393F07F4FDB
:1005500081F06051704732F07F4208BF704793F0DE
:100560007F4F04BF41F40021704730B54FF46074F1
:1005700001F0004521F000411CE700BF50EA0102F4
:1005800008BF704730B54FF000050AE050EA01029D
:1005900008BF704730B511F0004502D5404261EB0D
:1005A00041014FF4806404F132045FEA915C3FF44E
:1005B000D8AE4FF003025FEADC0C18BF03325FEAEB
:1005C000DC0C18BF033202EBDC02C2F1200300FA9C
:1005D00003FC20FA02F001FA03FE40EA0E0021FAC1
:1005E00002F11444BDE600BF70B54FF0FF0C4CF4AF
:1005F000E06C1CEA11541DBF1CEA135594EA0C0F61
:1006000095EA0C0F00F0DEF82C4481EA030621EA9B
:100610004C5123EA4C5350EA013518BF52EA0335D6
:1006200041F4801143F4801338D0A0FB02CE4FF088
:100630000005E1FB02E506F00042E0FB03E54FF0B8
:100640000006E1FB03569CF0000F18BF4EF0010EB0
:10065000A4F1FF04B6F5007F64F5407404D25FEAAC
:100660004E0E6D4146EB060642EAC62141EA55515F
:100670004FEAC52040EA5E504FEACE2EB4F1FD0CA1
:1006800088BFBCF5E06F1ED8BEF1004F08BF5FEA1F
:10069000500E50F1000041EB045170BD06F00046D1
:1006A00046EA010140EA020081EA0301B4EB5C047E
:1006B000C2BFD4EB0C0541EA045170BD41F4801176
:1006C0004FF0000E013C00F3AB8014F1360FDEBF9B
:1006D000002001F0004170BDC4F10004203C35DA77
:1006E0000C341BDC04F11404C4F1200500FA05F3FA
:1006F00020FA04F001FA05F240EA020001F000429B
:1007000021F0004110EBD37021FA04F642EB060110
:100710005EEA430E08BF20EAD37070BDC4F10C043A
:10072000C4F1200500FA04F320FA05F001FA04F2FE
:1007300040EA020001F0004110EBD37041F10001EA
:100740005EEA430E08BF20EAD37070BDC4F12005F5
:1007500000FA05F24EEA020E20FA04F301FA05F25D
:1007600043EA020321FA04F001F0004121FA04F205
:1007700020EA020000EBD3705EEA430E08BF20EAD5
:10078000D37070BD94F0000F0FD101F0004640000F
:1007900041EB010111F4801F08BF013CF7D041EA91
:1007A000060195F0000F18BF704703F00046520095
:1007B00043EB030313F4801F08BF013DF7D043EA66
:1007C0000603704794EA0C0F0CEA135518BF95EA1C
:1007D0000C0F0CD050EA410618BF52EA4306D1D1A3
:1007E00081EA030101F000414FF0000070BD50EAC2
:1007F000410606BF1046194652EA430619D094EA4C
:100800000C0F02D150EA013613D195EA0C0F05D135
:1008100052EA03361CBF104619460AD181EA030189
:1008200001F0004141F0FE4141F470014FF0000041
:1008300070BD41F0FE4141F4780170BD70B54FF0DC
:10084000FF0C4CF4E06C1CEA11541DBF1CEA13555C
:1008500094EA0C0F95EA0C0F00F0A7F8A4EB05043E
:1008600081EA030E52EA03354FEA013100F0888035
:100870004FEA03334FF0805545EA131343EA1263FE
:100880004FEA022245EA111545EA10654FEA0026B3
:100890000EF000419D4208BF964244F1FD0404F56C
:1008A000407402D25B084FEA3202B61A65EB0305C8
:1008B0005B084FEA32024FF480104FF4002CB6EB85
:1008C000020E75EB030E22BFB61A754640EA0C0005
:1008D0005B084FEA3202B6EB020E75EB030E22BF45
:1008E000B61A754640EA5C005B084FEA3202B6EB86
:1008F000020E75EB030E22BFB61A754640EA9C0045
:100900005B084FEA3202B6EB020E75EB030E22BF14
:10091000B61A754640EADC0055EA060E18D04FEAD2
:10092000051545EA16754FEA06164FEAC30343EA72
:1009300052734FEAC2025FEA1C1CC0D111F4801F3F
:100940000BD141EA00014FF000004FF0004CB6E738
:1009500011F4801F04BF01430020B4F1FD0C88BFD7
:10096000BCF5E06F3FF6AFAEB5EB030C04BFB6EBE2
:10097000020C5FEA500C50F1000041EB045170BDD5
:100980000EF0004E4EEA113114EB5C04C2BFD4EB02
:100990000C0541EA045170BD41F480114FF0000E86
:1009A000013C90E645EA060E8DE60CEA135594EA02
:1009B0000C0F08BF95EA0C0F3FF43BAF94EA0C0F05
:1009C0000AD150EA01347FF434AF95EA0C0F7FF47A
:1009D00025AF104619462CE795EA0C0F06D152EACE
:1009E00003353FF4FDAE1046194622E750EA4106B2
:1009F00018BF52EA43067FF4C5AE50EA41047FF4C3
:100A00000DAF52EA43057FF4EBAE12E74FF0FF3C27
:100A100006E000BF4FF0010C02E000BF4FF0010CF8
:100A20004DF804CD4FEA410C7FEA6C5C4FEA430C71
:100A300018BF7FEA6C5C1BD001B050EA410C0CBFC0
:100A400052EA430C91EA030F02BF90EA020F002022
:100A5000704710F1000F91EA030F58BF994208BF89
:100A600090422CBFD8176FEAE37040F00100704746
:100A70004FEA410C7FEA6C5C02D150EA013C07D19D
:100A80004FEA430C7FEA6C5CD6D152EA033CD3D0E8
:100A90005DF8040B704700BF8446104662468C46E2
:100AA0001946634600E000BF01B5FFF7B7FF002815
:100AB00048BF10F1000F01BD4DF808EDFFF7F4FF3E
:100AC0000CBF012000205DF808FB00BF4DF808EDC9
:100AD000FFF7EAFF34BF012000205DF808FB00BFEC
:100AE0004DF808EDFFF7E0FF94BF012000205DF80E
:100AF00008FB00BF4DF808EDFFF7CEFF94BF0120C3
:100B000000205DF808FB00BF4DF808EDFFF7C4FFBB
:100B100034BF012000205DF808FB00BF4FEA410C04
:100B20007FEA6C5C02D150EA013C0AD14FEA430CE7
:100B30007FEA6C5C02D152EA033C02D14FF0000024
:100B400070474FF0010070474FEA410212F5001262
:100B500015D211D56FF47873B3EB625212D94FEA04
:100B6000C12343F0004343EA505311F0004F23FAEE
:100B700002F018BF404270474FF00000704750EA43
:100B8000013005D111F0004008BF6FF00040704700
:100B90004FF00000704700BF4FEA4102B2F1E0435E
:100BA00024BFB3F5001CDCF1FE5C0DD901F0004C54
:100BB0004FEAC0024CEA5070B2F1004F40EB8300A4
:100BC00008BF20F00100704711F0804F21D113F1D0
:100BD0003872BCBF01F00040704741F480114FEA09
:100BE0005252C2F11802C2F1200C10FA0CF320FA92
:100BF00002F018BF40F001004FEAC1234FEAD323AF
:100C000003FA0CFC40EA0C0023FA02F34FEA430318
:100C1000CCE77FEA625307D150EA01331EBF4FF0A1
:100C2000FE4040F44000704701F0004040F0FE40BC
:100C300040F40000704700BF53B94AB9002908BF0B
:100C400000281CBF4FF0FF314FF0FF3000F072B9A9
:100C5000ADF1080C6DE904CE00F006F8DDF804E013
:100C6000DDE9022304B070472DE9F047089E0446F1
:100C70008846002B4BD18A42154667D9B2FA82F2D8
:100C80004AB1C2F1200701FA02F320FA07F79540B2
:100C900047EA030894404FEA154E230CB8FBFEF7D1
:100CA0001FFA85FC0EFB178843EA084307FB0CF18B
:100CB000994209D9EB1807F1FF3080F01B81994266
:100CC00040F21881023F2B445B1AA4B2B3FBFEF042
:100CD0000EFB103344EA034400FB0CFCA44509D985
:100CE0002C1900F1FF3380F00781A44540F2048104
:100CF00002382C4440EA0740A4EB0C0400271EB144
:100D0000D4400023C6E900433946BDE8F0878B4252
:100D100009D9002E00F0EB800027C6E90001384613
:100D20003946BDE8F087B3FA83F7002F47D18B42ED
:100D300002D3824200F2FA80841A61EB030301209D
:100D40009846002EE0D0C6E90048DDE702B9FFDE94
:100D5000B2FA82F2002A40F08F80491B4FEA154E0A
:100D60001FFA85F80127B1FBFEFC230C0EFB1C11BA
:100D700043EA014308FB0CF1994207D9EB180CF147
:100D8000FF3002D2994200F2CD808446591AA3B2B4
:100D9000B1FBFEF00EFB101443EA044408FB00F81C
:100DA000A04507D92C1900F1FF3302D2A04500F26B
:100DB000B6801846A4EB080440EA0C409FE7C7F150
:100DC000200CBB4022FA0CFE4EEA030E01FA07F497
:100DD00020FA0CF521FA0CF34FEA1E482543B3FB29
:100DE000F8F92C0C08FB19331FFA8EFA44EA034376
:100DF00009FB0AF49C4202FA07F200FA07F10BD948
:100E00001EEB030309F1FF3080F087809C4240F223
:100E10008480A9F1020973441B1BADB2B3FBF8F047
:100E200008FB103345EA034400FB0AFAA24508D93F
:100E30001EEB040400F1FF336BD2A24569D90238DE
:100E4000744440EA0940A0FB0289A4EB0A044C4523
:100E5000C2464B4654D351D0002E69D0B1EB0A059F
:100E600064EB030404FA0CFCFD40FC404CEA05056D
:100E7000C6E90054002747E7C2F1200320FA03F730
:100E8000954001FA02F021FA03F34FEA154E384378
:100E9000010CB3FBFEF71FFA85F80EFB173341EA8E
:100EA000034107FB08F38B4204FA02F407D96918DF
:100EB00007F1FF3C2FD28B422DD9023F2944CB1A98
:100EC00081B2B3FBFEF00EFB103341EA034100FB9D
:100ED00008F38B4207D9691800F1FF3C17D28B4207
:100EE00015D902382944C91A40EA07473BE7374673
:100EF000304609E70746E7E61846FBE64145ABD230
:100F0000B8EB020A69EB0E0201381346A4E760460B
:100F1000E9E7184695E76746D1E781467CE702385E
:100F20002C4447E7ACF1020C2B442FE7384608E786
:100F30003746E9E6704700BF80B483B000AF786001
:100F40007B68002BB8BF5B4218460C37BD465DF886
:100F5000047B704780B483B000AF87ED010AD7ED02
:100F6000017AF0EEE77AB0EE670A0C37BD465DF81D
:100F7000047B704780B582B000AF78607B68033334
:100F80003D220021184612F0B8FC7B68184608374D
:100F9000BD4680BDF0B52DED028B97B002AF01F0DC
:100FA000C1FA00F06BFABE4807F050FABD49BC48E0
:100FB00007F02EFABC49BA4807F039FA0B21B848B5
:100FC00008F01CF8B64BD3ED277AF5EEC07AF1EEB7
:100FD00010FA03D8B24BB54AC3F89C20B04B93F932
:100FE000A530DBB21946AE4808F008F800F070FDF5
:100FF00000F04EFD00F0B6FA00F0F8FA00F032FB17
:1010000000F0A8FB00F08AFC00F0E6FC00F012FD06
:101010000FF08CFB00F062FBA5480EF045F9A549E6
:10102000A04809F037FF4FF480530193A24B00937F
:101030004FF40063A04AA149A1480CF0CCFF012362
:1010400087F84F30964B1B78022B02D1002387F88C
:101050004F3097F84F301A469A499B480CF070FF72
:1010600097F84F301A4699498F480CF0ECFF964993
:101070008D480DF00AF88A4BB3F801309BB219463F
:1010800089480DF053F9884A864991480DF014FAC1
:10109000834990480DF0C2FE07F10C031846FFF794
:1010A00069FF8C480DF0C8FE7D4B93F8C030002BD3
:1010B00031D04FF47A7001F0A7FA0B21784808F08C
:1010C000C9F8774B002283F8A020764B00225A63A0
:1010D000744B0022DA62734B0022DA60714B0022FB
:1010E00083F83C206F4B1B695B42194678480DF032
:1010F00083FA6C4B1B69194675480DF07DFA4FF465
:101100007A7001F081FA0B21654807F0A7FE644B65
:10111000002283F8C02064480DF0E4F803463B71D8
:1011200061480DF0F7F80346A7F805305E480DF06A
:10113000E5F803461BB2A7F8073041233B73FF23B2
:10114000BB73A1237B7307F10F033A1D106818606E
:1011500012791A7107F10C03402219465E4809F012
:101160003FFDFE237B73524B1C4607F10F0C04F12D
:10117000300E654626460FCE28606960AA60EB6097
:1011800010340CF1100C7445F3D107F10C0340221C
:101190001946514809F024FD424809F093FE414B9D
:1011A0001B681846FFF7C8FE02463E4B1B699A4271
:1011B000ACBF01230023DBB2002B0ED0394B1A69E0
:1011C000384B1B68002B02DA4FF0FF3300E001239D
:1011D00002FB03F3414A136003E0324B1B683F4AB2
:1011E00013603E4B18682F4B1B6959422D4B1A69EF
:1011F0002B4BDC692A4B1B6A0093234601F0D8F87D
:101200000246374B1A60364B1B68194628480EF0C9
:101210006AF827480EF076F8224925480BF054FA70
:10122000034607EE903AF8EEE77A1D4BC3ED2B7AB2
:101230001B4BD3ED2B7AB0EE670AFFF78BFEF0EE77
:10124000407AF5EEC07AF1EE10FA16DD144BD3EDCC
:101250002B7AB0EE670AFFF77DFEB0EE407A104BB6
:10126000B3F8503007EE903AF8EEE77AB4EEE77A4A
:10127000F1EE10FA01D8012300E00023002B3BD04F
:10128000074BB3F850301A46054BD3ED2B7AF5EEE9
:10129000C07AF1EE10FA25D54FF0FF3323E000BFFE
:1012A000900B0020B0090020700A0020000070415F
:1012B000300B00208808002000040240980700201E
:1012C0005C0A00202C0700206C0A0020480800203F
:1012D000800A0020880C00204C100020A809002063
:1012E000AC090020012302FB03F307EE903AF8EE6D
:1012F000E77A5B4BC3ED2B7A5A4B1B681846FFF716
:101300001BFE0246574B1B699A42CCBF01230023A8
:10131000DBB2002B35D0524BB3F84E301C46514B4C
:101320001B681846FFF708FE02464E4B1B69D31A8E
:1013300003FB04F24B4BDB694B4981FB0301491072
:10134000DB17CB1A92FBF3F307EE903AF8EEE77A4D
:10135000434BC3ED2C7A424BD3ED2C7A414B1B68A7
:10136000002B02DABFEE007A01E0B7EE007A27EE3A
:10137000277A3B4BD3ED2B7A77EE277A384BC3EDA8
:101380002B7A374BB3F99A30002BB8BF5B4242F24D
:101390000F72934219DD324BB3F84E301A46314B7F
:1013A0001B68002B02DA4FF0FF3300E0012302FB41
:1013B00003F22B4B93ED2B7A07EE902AF8EEE77AA7
:1013C00077EE277A264BC3ED2B7A254BD3ED2B7A7C
:1013D0009FED261ADFED260AB0EE670A01F02BF822
:1013E000F0EE407A1E4BC3ED2B7A1D4BD3ED2B7ADA
:1013F000BDEEE78A1F480CF081FF03465C421D48A2
:101400000CF07CFF03460093234642F210721A4907
:1014100018EE100A00F0CCFF07EE900AF8EEE77A1B
:101420000F4BC3ED2B7A0E4B93ED2B7A0C4BD3ED78
:101430002A6A0B4BD3ED277A66EEA77A67EE277AF6
:10144000074BC3ED2B7A064BD3ED2B7AFDEEE77AF3
:1014500017EE903A1BB2194606480CF025FE20E61E
:10146000900B0020B0090020398EE33800401C4664
:1014700000401CC6700A0020F0D8FFFF80B594B071
:1014800000AF07F1200330220021184612F035FA90
:1014900007F10C0300221A605A609A60DA601A6140
:1014A0000023BB602D4B1B6C2C4A43F0805313640C
:1014B0002A4B1B6C03F08053BB60BB6800237B602E
:1014C000274B1B68264A43F480431360244B1B6858
:1014D00003F480437B607B6801233B624FF48033DD
:1014E0007B620223BB634FF48003FB6308233B64EE
:1014F0004FF4A8737B640223BB640723FB6407F1EA
:101500002003184603F0ECFA0346002B14BF012316
:101510000023DBB2002B01D000F084FB0F23FB6023
:1015200002233B6100237B614FF4A053BB614FF466
:101530008053FB6107F10C030521184603F040FDC1
:101540000346002B14BF01230023DBB2002B01D084
:1015500000F068FB00BF5037BD4680BD0038024038
:101560000070004080B582B000AF3B4600221A6098
:101570005A601C4B1C4A1A601A4801F090F9034645
:10158000002B14BF01230023DBB2002B01D000F09D
:1015900049FB00233B6000237B603B460022194649
:1015A000104801F004FA0346002B14BF0123002366
:1015B000DBB2002B01D000F035FB3B461022194670
:1015C000084801F0F4F90346002B14BF012300235F
:1015D000DBB2002B01D000F025FB00BF0837BD4671
:1015E00080BD00BF2C0700200074004080B500AF14
:1015F0001A4B1B4A1A60194B4FF482725A60174BF0
:1016000000229A60154B0022DA60144B00221A6106
:10161000124B00225A61114B4FF400729A610F4B2A
:101620000022DA610D4B00221A620C4B00225A6232
:101630000A4B00229A62094B0A22DA62074803F039
:10164000B1FE0346002B14BF01230023DBB2002BA5
:1016500001D000F0E7FA00BF80BD00BF40070020C6
:101660000030014080B500AF1A4B1B4A1A60194B7D
:101670004FF482725A60174B00229A60154B002279
:10168000DA60144B00221A61124B00225A61114B8E
:101690004FF400729A610F4B0022DA610D4B002269
:1016A0001A620C4B00225A620A4B00229A62094BC2
:1016B0000A22DA62074803F075FE0346002B14BFC6
:1016C00001230023DBB2002B01D000F0ABFA00BFF6
:1016D00080BD00BF980700200038004080B500AFF3
:1016E0001A4B1B4A1A60194B4FF482725A60174BFF
:1016F00000229A60154B0022DA60144B00221A6116
:10170000124B00225A61114B4FF400729A610F4B39
:101710000022DA610D4B00221A620C4B00225A6241
:101720000A4B00229A62094B0A22DA62074803F048
:1017300039FE0346002B14BF01230023DBB2002B2C
:1017400001D000F06FFA00BF80BD00BFF00700209D
:10175000003C004080B596B000AF07F1480300227E
:101760001A605A609A60DA6007F1400300221A603A
:101770005A6007F1240300221A605A609A60DA6006
:101780001A615A619A613B1D20220021184612F00D
:10179000B4F85E4B5E4A1A605E4BD3F8BC30184614
:1017A0000CF0B8FD03461A4641F2883303FB02F3FE
:1017B000594A92FBF3F3013B1A46544B5A60534B80
:1017C00000229A60514B41F28832DA604F4B00227E
:1017D0001A614E4B00225A614C4B00229A614B48D1
:1017E00003F044FE0346002B14BF01230023DBB2A9
:1017F000002B01D000F016FA4FF48053BB6407F1C0
:1018000048031946414804F087F90346002B14BFEA
:1018100001230023DBB2002B01D000F003FA3B4888
:1018200003F04FFE0346002B14BF01230023DBB25D
:10183000002B01D000F0F6F900233B6400237B6409
:1018400007F140031946314804F060FD0346002BC0
:1018500014BF01230023DBB2002B01D000F0E2F91A
:1018600060237B620023BB620023FB6200233B6397
:1018700000237B630023BB630023FB6307F1240386
:1018800000221946214804F081F80346002B14BFBA
:1018900001230023DBB2002B01D000F0C3F907F1D4
:1018A000240304221946194804F070F80346002B5B
:1018B00014BF01230023DBB2002B01D000F0B2F9EA
:1018C00000237B600023BB600023FB6000233B619F
:1018D00000237B614FF40053BB6100233B623B1D3F
:1018E00019460A4804F08EFD0346002B14BF01235D
:1018F0000023DBB2002B01D000F094F9034800F084
:10190000CFFB00BF5837BD4680BD00BF4808002050
:1019100000000140900B002000BD010580B58CB097
:1019200000AF07F10C0324220021184611F0E5FF57
:101930003B1D00221A605A60264B4FF080421A600D
:10194000244B00225A60234B00229A60214B4FF017
:10195000FF32DA601F4B00221A611E4B00229A618F
:101960000323FB6000233B6101237B610023BB61F8
:101970000F23FB6100233B6201237B620023BB62D8
:101980000F23FB6207F10C031946124803F00CFE0B
:101990000346002B14BF01230023DBB2002B01D030
:1019A00000F040F900237B600023BB603B1D19461B
:1019B000084804F0ABFC0346002B14BF01230023AE
:1019C000DBB2002B01D000F02DF900BF3037BD464F
:1019D00080BD00BF8808002080B500AF134B144ABB
:1019E0001A60124B4FF4E1325A60104B00229A6099
:1019F0000E4B0022DA600D4B00221A610B4B0C22B9
:101A00005A610A4B00229A61084B0022DA610748AA
:101A100004F05EFD0346002B14BF01230023DBB25C
:101A2000002B01D000F0FEF800BF80BD2809002087
:101A30000010014080B500AF134B144A1A60124BDE
:101A40004FF4E1325A60104B00229A600E4B002294
:101A5000DA600D4B00221A610B4B0C225A610A4BC3
:101A600000229A61084B0022DA61074804F030FD39
:101A70000346002B14BF01230023DBB2002B01D04F
:101A800000F0D0F800BF80BD68090020004400408D
:101A900080B582B000AF00237B600C4B1B6B0B4A00
:101AA00043F480031363094B1B6B03F480037B60D7
:101AB0007B6800220021452000F0B7FE452000F0A1
:101AC000D0FE00BF0837BD4680BD00BF00380240D1
:101AD00080B58CB000AF07F11C0300221A605A6079
:101AE0009A60DA601A610023BB61484B1B6B474A5E
:101AF00043F080031363454B1B6B03F08003BB6112
:101B0000BB6900237B61414B1B6B404A43F00103DF
:101B100013633E4B1B6B03F001037B617B69002366
:101B20003B613A4B1B6B394A43F010031363374B4D
:101B30001B6B03F010033B613B690023FB60334BDD
:101B40001B6B324A43F002031363304B1B6B03F0F1
:101B50000203FB60FB680023BB602C4B1B6B2B4A12
:101B600043F004031363294B1B6B03F00403BB60B6
:101B7000BB6800237B60254B1B6B244A43F00803A2
:101B80001363224B1B6B03F008037B607B6800220E
:101B90004FF4C0511E4801F0FBFD0423FB611D4BB7
:101BA0003B6202237B6207F11C0319461A4801F0CD
:101BB00055FC4FF4C053FB6101233B6200237B6261
:101BC0000023BB6207F11C031946114801F046FCD3
:101BD000124B1B78022B0CD14FF40063FB610123E5
:101BE0003B6200237B6207F11C0319460C4801F09D
:101BF00035FC00220021082000F017FE082000F02C
:101C000030FE00BF3037BD4680BD00BF0038024007
:101C1000000402400000111000000240900B002060
:101C20000010024080B400AF00BFBD465DF8047BE9
:101C30007047000080B582B000AF786039607B6883
:101C4000012B1CD13B684FF6FF72934217D11E48FF
:101C500009F0AFF81D480CF0A8F91D480CF05AF92E
:101C60001C480CF0D4F91C480CF0F2FB1B480DF09A
:101C700001FB1B4806F09AFB1A480DF0B1F87B688F
:101C8000002B1CD13B684FF6FF72934217D11548C9
:101C90000DF0B9F8124806F0ADFB10480DF0F7FA58
:101CA0000D480CF0FBFB0B480CF0C2F908480CF097
:101CB0003CF906480CF084F9034809F0A3F800BF8A
:101CC0000837BD4680BD00BFB00900205C0A002077
:101CD0006C0A0020700A0020800A0020300B0020CF
:101CE000900B0020880C002080B500AF4FF6FF71EC
:101CF0000120FFF79FFF80BD80B500AF4FF6FF7159
:101D00000020FFF797FF80BD80B582B000AF0023B1
:101D10007B60104B5B6C0F4A43F4804353640D4B64
:101D20005B6C03F480437B607B6800233B60094B62
:101D30001B6C084A43F080531364064B1B6C03F082
:101D400080533B603B68072000F064FD00BF08370C
:101D5000BD4680BD0038024080B58AB000AF7860D3
:101D600007F1140300221A605A609A60DA601A615F
:101D70007B681B68174A934227D100233B61164BAF
:101D80001B6C154A43F000531364134B1B6C03F098
:101D900000533B613B690023FB600F4B1B6B0E4AFA
:101DA00043F0010313630C4B1B6B03F00103FB6057
:101DB000FB6830237B610323BB610023FB6107F1D8
:101DC00014031946054801F049FB00BF2837BD46FA
:101DD00080BD00BF00740040003802400000024097
:101DE00080B58EB000AF786007F1240300221A603E
:101DF0005A609A60DA601A617B681B684C4A9342A9
:101E00002CD100233B624B4B5B6C4A4A43F480531A
:101E10005364484B5B6C03F480533B623B6A002382
:101E2000FB61444B1B6B434A43F002031363414B7A
:101E30001B6B03F00203FB61FB6938237B62022307
:101E4000BB620023FB6203233B6305237B6307F133
:101E500024031946384801F001FB64E07B681B68E5
:101E6000364A93422DD10023BB61324B1B6C314A61
:101E700043F4804313642F4B1B6C03F48043BB611A
:101E8000BB6900237B612B4B1B6B2A4A43F0020387
:101E90001363284B1B6B03F002037B617B694FF4D8
:101EA00020437B620223BB620023FB6203233B636C
:101EB00005237B6307F1240319461F4801F0CEFA7E
:101EC00031E07B681B681E4A93422CD100233B61A2
:101ED000184B1B6C174A43F400431364154B1B6CDF
:101EE00003F400433B613B690023FB60114B1B6B18
:101EF000104A43F0040313630E4B1B6B03F00403FF
:101F0000FB60FB684FF4E0537B620223BB6200235B
:101F1000FB6203233B6306237B6307F1240319461B
:101F2000084801F09BFA00BF3837BD4680BD00BFAE
:101F300000300140003802400004024000380040F8
:101F4000003C00400008024080B584B000AF7860DB
:101F50007B681B68274A934248D10023FB60264BCD
:101F60005B6C254A43F001035364234B5B6C03F025
:101F70000103FB60FB68214B214A1A601F4B0022C2
:101F80005A601E4B40229A601C4B0022DA601B4BA9
:101F90004FF480621A61194B4FF400625A61174B7B
:101FA0004FF400529A61154B0022DA61134B002264
:101FB0001A62124B00225A62104800F06BFD034671
:101FC000002B01D0FFF72EFE7B680C4A5A620B4AA9
:101FD0007B6893637B68094A9A62084A7B689363CB
:101FE0007B68064ADA62054A7B68936300BF103754
:101FF000BD4680BD0000014000380240C8080020F6
:10200000A064024080B58AB000AF786007F1140385
:1020100000221A605A609A60DA601A617B681B6855
:10202000B3F1804F33D100233B611B4B1B6C1A4A29
:1020300043F001031364184B1B6C03F001033B6175
:102040003B690023FB60144B1B6B134A43F00103F5
:102050001363114B1B6B03F00103FB60FB6803234D
:102060007B610223BB610023FB6100233B620123F0
:102070007B6207F114031946084801F0EFF90022CA
:1020800000211C2000F0D1FB1C2000F0EAFB00BF67
:102090002837BD4680BD00BF003802400000024026
:1020A00080B588B000AF786007F10C0300221A6099
:1020B0005A609A60DA601A617B681B681D4A934215
:1020C00034D10023BB601C4B1B6B1B4A43F0100335
:1020D0001363194B1B6B03F01003BB60BB684FF419
:1020E0000073FB6002233B6102237B610323BB611E
:1020F0000123FB6107F10C031946104801F0AEF90A
:1021000000F0DAF90346012B10D14FF40063FB60B5
:1021100002233B6100237B610023BB610123FB6140
:1021200007F10C031946054801F098F900BF203764
:10213000BD4680BD00000140003802400010024052
:1021400080B58CB000AF786007F11C0300221A60E4
:102150005A609A60DA601A617B681B68324A93425F
:102160002DD10023BB61314B5B6C304A43F010032F
:1021700053642E4B5B6C03F01003BB61BB690023FF
:102180007B612A4B1B6B294A43F001031363274BE6
:102190001B6B03F001037B617B694FF4C063FB6140
:1021A00002233B6200237B620323BB620723FB62A3
:1021B00007F11C0319461E4801F050F930E07B6816
:1021C0001B681C4A93422BD100233B61174B1B6CAD
:1021D000164A43F400331364144B1B6C03F40033AE
:1021E0003B613B690023FB60104B1B6B0F4A43F0C4
:1021F000080313630D4B1B6B03F00803FB60FB68C4
:102200006023FB6102233B6200237B620323BB62EA
:102210000723FB6207F11C031946074801F01EF96A
:1022200000BF3037BD4680BD00100140003802407D
:102230000000024000440040000C024080B400AFA7
:1022400000BFBD465DF8047B704780B400AFFEE779
:1022500080B400AFFEE780B400AFFEE780B400AF0B
:10226000FEE780B400AF00BFBD465DF8047B704759
:1022700080B400AF00BFBD465DF8047B704780B4FA
:1022800000AF00BFBD465DF8047B704780B500AF6E
:1022900000F09AF900BF80BD80B500AF00F0F4F8FF
:1022A000042001F08FFA00BF80BD000080B500AFB0
:1022B000024803F062FA00BF80BD00BF880800201A
:1022C00080B500AF024801F0F0FB00BF80BD00BF49
:1022D0001C15002080B500AF024800F089FC00BF4B
:1022E00080BD00BFC808002080B400AF012318469D
:1022F000BD465DF8047B704780B582B000AF786062
:10230000396011F0B5FA0246162313604FF0FF331F
:1023100018460837BD4680BD80B582B000AF7860F2
:102320004FF0FF317868FFF7E7FFFEE780B584B034
:1023300000AF7860114B1B68002B02D10F4B104A85
:102340001A600E4B1B68FB600C4B1A687B681344C9
:102350006A46934207D911F08BFA02460C231360A8
:102360004FF0FF3306E0054B1A687B681344034ABD
:102370001360FB6818461037BD4680BD140D002061
:102380002819002080B400AF084BD3F88830074AE2
:1023900043F47003C2F88830044B4FF000629A6037
:1023A00000BFBD465DF8047B704700BF00ED00E054
:1023B000B0B584B000AFF860B9607A603B60FA688D
:1023C000BB68D31A1846FEF7A5F804460D463A6ACC
:1023D0003B68D31A1846FEF79DF802460B46204686
:1023E0002946FEF701F903460C4625461C467A6845
:1023F000BB68D31A1846FEF78DF802460B462046F6
:102400002946FEF71BFA03460C4625461C4638684B
:10241000FEF780F802460B4620462946FDF72EFFC0
:1024200003460C4618462146FEF78EFB0346184627
:102430001037BD46B0BD80B485B000AF87ED030A4C
:10244000C7ED020A87ED011A97ED037AD7ED017AFD
:10245000B4EEE77AF1EE10FA01DD7B680BE097ED60
:10246000037AD7ED027AB4EEE77AF1EE10FA01D5ED
:10247000BB6800E0FB6807EE903AB0EE670A1437DD
:10248000BD465DF8047B704780B500AF024808F098
:10249000F9FD00BF80BD00BFB009002080B582B04B
:1024A00000AF78607968034806F0E3F900BF0837A9
:1024B000BD4680BD900B002080B400AF034B1B785D
:1024C0001846BD465DF8047B704700BF900B0020A6
:1024D000DFF834D0002103E00C4B5B58435004314B
:1024E0000B480C4B42189A42F6D30B4A02E00023E9
:1024F00042F8043B094B9A42F9D3FFF743FF11F02E
:10250000BDF9FEF747FD704700000220C4440108F2
:1025100000000020100700201007002028190020CC
:10252000FEE7000080B500AF0E4B1B680D4A43F478
:10253000007313600B4B1B680A4A43F480631360FB
:10254000084B1B68074A43F480731360032000F0B4
:1025500061F9002000F008F8FFF7D6FB00231846C9
:1025600080BD00BF003C024080B582B000AF786003
:10257000124B1A68124B1B7819464FF47A73B3FB4F
:10258000F1F3B2FBF3F3184600F07DF90346002B9C
:1025900001D001230EE07B680F2B0AD80022796856
:1025A0004FF0FF3000F041F9064A7B6813600023CA
:1025B00000E0012318460837BD4680BD000000201A
:1025C000080000200400002080B400AF064B1B78F8
:1025D0001A46064B1B681344044A136000BFBD46ED
:1025E0005DF8047B704700BF08000020440D002008
:1025F00080B400AF034B1B681846BD465DF8047BF2
:10260000704700BF440D002080B584B000AF7860F3
:10261000FFF7EEFFB8607B68FB60FB68B3F1FF3F3C
:1026200005D0094B1B781A46FB681344FB6000BFBA
:10263000FFF7DEFF0246BB68D31AFA689A42F7D862
:1026400000BF1037BD4680BD0800002080B485B0B3
:1026500000AF78607B6803F00703FB600C4BDB681E
:10266000BB60BA684FF6FF031340BB60FB681A02F9
:10267000BB68134343F0BF6343F40033BB60044AB9
:10268000BB68D36000BF1437BD465DF8047B70475C
:1026900000ED00E080B400AF044BDB681B0A03F0E0
:1026A00007031846BD465DF8047B704700ED00E067
:1026B00080B483B000AF0346FB7197F90730002B5D
:1026C0000BDBFB7903F01F02074997F907305B0921
:1026D000012000FA02F241F8232000BF0C37BD466A
:1026E0005DF8047B704700BF00E100E080B483B078
:1026F00000AF03463960FB7197F90730002B0ADB06
:102700003B68DAB20C4997F907301201D2B20B4498
:1027100083F800230AE03B68DAB20849FB7903F04A
:102720000F03043B1201D2B20B441A7600BF0C37E0
:10273000BD465DF8047B704700E100E000ED00E07D
:1027400080B489B000AFF860B9607A60FB6803F0CC
:102750000703FB61FB69C3F10703042B28BF0423B4
:10276000BB61FB690433062B02D9FB69033B00E024
:1027700000237B614FF0FF32BB6902FA03F3DA43B7
:10278000BB681A407B699A404FF0FF317B6901FAC0
:1027900003F3D9437B680B40134318462437BD46E7
:1027A0005DF8047B7047000080B400AFBFF34F8F2B
:1027B000054BDB6803F4E0620349044B1343CB6031
:1027C000BFF34F8F00BFFDE700ED00E00400FA0506
:1027D00080B582B000AF78607B68013BB3F1807F49
:1027E00001D301230FE00A4A7B68013B53600F21AC
:1027F0004FF0FF30FFF77AFF054B00229A60044B41
:1028000007221A60002318460837BD4680BD00BF66
:1028100010E000E080B582B000AF78607868FFF724
:1028200015FF00BF0837BD4680BD80B586B000AF3C
:102830000346B9607A60FB7300237B61FFF72AFFD0
:1028400078617A68B9687869FFF77AFF024697F984
:102850000F3011461846FFF749FF00BF1837BD4635
:1028600080BD80B582B000AF0346FB7197F9073099
:102870001846FFF71DFF00BF0837BD4680BD80B575
:1028800000AFFFF791FF80B582B000AF7860786845
:10289000FFF79EFF034618460837BD4680BD80B54A
:1028A00082B000AF78607B68002B01D1012314E077
:1028B0007B681B79DBB2002B05D17B6800225A7143
:1028C0007868FFF749FA7B6802221A717B68002258
:1028D0001A617B6801221A71002318460837BD4629
:1028E00080BD80B485B000AF786039600023FB60A4
:1028F0000023BB607B685B79012B01D1022350E090
:102900007B6801225A717B6802221A717B681B68FE
:10291000196801223B689A407B681B680A431A6069
:102920003B68002B1AD17B681B681B6803F004030B
:10293000FB607B681B681B6803F03803BB60FB68A7
:10294000042B27D1BB68382B24D17B681B685A68BD
:102950007B681B6842F001025A601BE07B681B68C1
:102960001B6803F48023FB607B681B681B6803F40F
:102970006013BB60FB68B3F5802F0BD1BB68B3F568
:10298000601F07D17B681B685A687B681B6842F030
:1029900002025A607B6801221A717B6800225A7118
:1029A000002318461437BD465DF8047B704780B499
:1029B00087B000AFF860B9607A6000237B610023C4
:1029C0003B61FB685B79012B01D1022336E0FB6898
:1029D00001225A71FB6802221A71FB681B681B688E
:1029E0007B6140F6FE727B6802FA03F3DB437A698F
:1029F00013407B61BB681A68BB685B6813433B612B
:102A00003A697B6802FA03F37A6913437B61FB68D6
:102A10001B687A691A60FB681B681968C0227B68AA
:102A200002FA03F3DA43FB681B680A401A60FB688A
:102A300001221A71FB6800225A71002318461C37C4
:102A4000BD465DF8047B704780B487B000AFF86086
:102A5000B9607A603B6000237B61FB681B687B6127
:102A6000BB68002B05D17A697B68134408337B610E
:102A700004E07A697B68134414337B617B691A46EE
:102A80003B681360002318461C37BD465DF8047B85
:102A90007047000080B586B000AF786000237B618E
:102AA000FFF7A6FD38617B68002B01D1012399E077
:102AB0007B68002283F834207B68022283F835206B
:102AC0007B681B681A687B681B6822F001021A6029
:102AD0000FE0FFF78DFD02463B69D31A052B08D99D
:102AE0007B6820225A657B68032283F83520032304
:102AF00078E07B681B681B6803F00103002BE8D1BA
:102B00007B681B681B687B617A69384B13407B616B
:102B10007B685A687B689B681A437B68DB681A434A
:102B20007B681B691A437B685B691A437B689B69F6
:102B30001A437B68DB691A437B681B6A13437A6913
:102B400013437B617B685B6A042B07D17B68DA6A7D
:102B50007B681B6B13437A6913437B617B681B683B
:102B60007A691A607B681B685B697B617B6923F00B
:102B700007037B617B685B6A7A6913437B617B68CF
:102B80005B6A042B17D17B689B6A7A6913437B616C
:102B90007B68DB6A002B0ED0786800F0E9F9034609
:102BA000002B08D07B6840225A657B68012283F89D
:102BB0003520012316E07B681B687A695A617868C2
:102BC00000F0A0F90346FB607B68DB6D3F229A4072
:102BD000FB689A607B6800225A657B68012283F853
:102BE0003520002318461837BD4680BD3F8010F0C1
:102BF00080B586B000AF78600023BB60924B1B6845
:102C0000924AA2FB03239B0A7B617B689B6D3B611D
:102C10003B691B68FB607B68DB6D08229A40FB68A0
:102C20001340002B1AD07B681B681B6803F0040359
:102C3000002B13D07B681B681A687B681B6822F026
:102C400004021A607B68DB6D08229A403B699A6037
:102C50007B685B6D43F001027B685A657B68DB6DC6
:102C600001229A40FB681340002B12D07B681B683E
:102C70005B6903F08003002B0BD07B68DB6D0122C6
:102C80009A403B699A607B685B6D43F002027B6807
:102C90005A657B68DB6D04229A40FB681340002B69
:102CA00012D07B681B681B6803F00203002B0BD05B
:102CB0007B68DB6D04229A403B699A607B685B6DA0
:102CC00043F004027B685A657B68DB6D10229A40F2
:102CD000FB681340002B43D07B681B681B6803F024
:102CE0000803002B3CD07B68DB6D10229A403B69C7
:102CF0009A607B681B681B6803F48023002B18D044
:102D00007B681B681B6803F40023002B08D17B68D9
:102D10001B6C002B24D07B681B6C786898471FE0E5
:102D20007B689B6C002B1BD07B689B6C78689847FA
:102D300016E07B681B681B6803F48073002B07D1C7
:102D40007B681B681A687B681B6822F008021A609F
:102D50007B681B6C002B03D07B681B6C78689847E2
:102D60007B68DB6D20229A40FB681340002B00F04B
:102D70008E807B681B681B6803F01003002B00F03B
:102D800086807B68DB6D20229A403B699A607B6875
:102D900093F83530DBB2052B36D17B681B681A6897
:102DA0007B681B6822F016021A607B681B685A69F0
:102DB0007B681B6822F080025A617B681B6C002BC9
:102DC00003D17B689B6C002B07D07B681B681A685B
:102DD0007B681B6822F008021A607B68DB6D3F226B
:102DE0009A403B699A607B68002283F834207B68B4
:102DF000012283F835207B681B6D002B7DD07B681A
:102E00001B6D7868984778E07B681B681B6803F443
:102E10008023002B1CD07B681B681B6803F40023F5
:102E2000002B08D17B685B6C002B30D07B685B6C1F
:102E3000786898472BE07B68DB6B002B27D07B689A
:102E4000DB6B7868984722E000000020B5814E1BBC
:102E50007B681B681B6803F48073002B0FD17B68B1
:102E60001B681A687B681B6822F010021A607B6876
:102E7000002283F834207B68012283F835207B68A8
:102E8000DB6B002B03D07B68DB6B786898477B6833
:102E90005B6D002B32D07B685B6D03F00103002B70
:102EA00022D07B68052283F835207B681B681A686E
:102EB0007B681B6822F001021A60BB680133BB60AB
:102EC0007A699A4207D37B681B681B6803F0010389
:102ED000002BF2D100E000BF7B68002283F8342091
:102EE0007B68012283F835207B68DB6C002B05D0E2
:102EF0007B68DB6C7868984700E000BF1837BD46F8
:102F000080BD00BF80B485B000AF78607B681B686F
:102F1000DBB2103B144AA2FB03231B09FB60134ADC
:102F2000FB6813441B781A467B68DA65FB68032B41
:102F300009D97B681B6823F47F7323F003031A1DF0
:102F40007B689A6507E07B681B6823F47F7323F036
:102F500003037A6893657B689B6D18461437BD46FA
:102F60005DF8047B704700BFABAAAAAA48420108DB
:102F700080B485B000AF78600023FB737B689B6AE8
:102F8000BB607B689B69002B1FD1BB68032B55D8A6
:102F900001A252F823F000BFA92F0008BB2F0008A0
:102FA000A92F00083D3000087B68DB6A03F08073BE
:102FB000002B45D00123FB7342E07B68DB6AB3F151
:102FC000C07F3FD10123FB733CE07B689B69B3F575
:102FD000005F21D1BB68032B36D801A252F823F041
:102FE000F12F0008F72F0008F12F00080930000822
:102FF0000123FB732FE07B68DB6A03F08073002BF7
:1030000024D00123FB7321E07B68DB6AB3F1C07F2E
:103010001ED10123FB731BE0BB68022B02D9032BDB
:1030200003D018E00123FB7315E07B68DB6A03F033
:103030008073002B0ED00123FB730BE000BF0AE06E
:1030400000BF08E000BF06E000BF04E000BF02E0F0
:1030500000BF00E000BFFB7B18461437BD465DF89B
:10306000047B704780B586B000AFF860B960C7E9EF
:1030700000230123FB75234B1B7E012B01D102236F
:103080003BE0204B01221A764CF2503000F070F8F1
:103090000346FB75FB7D002B2BD1FB68002B05D174
:1030A0003B781946B86800F019F916E0FB68012B67
:1030B00005D13B881946B86800F0ECF80DE0FB68D4
:1030C000022B05D13B681946B86800F0C1F804E04E
:1030D000D7E90023B86800F08BF84CF2503000F0CC
:1030E00047F80346FB75084B1B69074A23F00103A9
:1030F0001361044B00221A76FB7D18461837BD4633
:1031000080BD00BF480D0020003C024080B483B069
:1031100000AF0023FB710B4B1B69002B0BDA094B33
:10312000094A5A60074B094A5A60064B1B69002B33
:1031300001DA0123FB71FB7918460C37BD465DF8B7
:10314000047B7047003C024023016745AB89EFCD0B
:1031500080B400AF054B1B69044A43F00043136180
:1031600000231846BD465DF8047B7047003C0240D2
:1031700080B584B000AF78600023FB601A4B00225A
:10318000DA61FFF735FAF86010E07B68B3F1FF3FD2
:103190000CD07B68002B07D0FFF72AFA0246FB68A9
:1031A000D31A7A689A4201D2032319E00F4BDB68E5
:1031B00003F48033002BE8D10C4BDB6803F00103F0
:1031C000002B02D0094B0122DA60084BDB6803F0C8
:1031D000F203002B03D000F0A3F8012300E000234A
:1031E00018461037BD4680BD480D0020003C024007
:1031F00090B484B000AFF860C7E90023134B1B699B
:10320000124A23F440731361104B1B690F4A43F4B5
:10321000407313610D4B1B690C4A43F001031361AA
:10322000FB683A681A60BFF36F8FD7E900124FF05E
:1032300000034FF0000413000024FA680432136006
:1032400000BF1037BD4690BC704700BF003C024035
:1032500080B483B000AF786039600D4B1B690C4AB5
:1032600023F4407313610A4B1B69094A43F400734A
:103270001361074B1B69064A43F0010313617B6826
:103280003A681A6000BF0C37BD465DF8047B704792
:10329000003C024080B483B000AF78600B467B8076
:1032A0000D4B1B690C4A23F4407313610A4B1B69D5
:1032B000094A43F480731361074B1B69064A43F0C4
:1032C000010313617B687A881A8000BF0C37BD4602
:1032D0005DF8047B704700BF003C024080B483B0BF
:1032E00000AF78600B46FB700C4B1B690B4A23F454
:1032F00040731361094B094A1B691361074B1B6932
:10330000064A43F0010313617B68FA781A7000BF24
:103310000C37BD465DF8047B704700BF003C02409F
:1033200080B400AF274BDB6803F01003002B08D0FC
:10333000254BDB6943F01003234AD361214B102254
:10334000DA60204BDB6803F02003002B08D01E4B13
:10335000DB6943F008031C4AD3611A4B2022DA6070
:10336000184BDB6803F04003002B08D0164BDB69D9
:1033700043F00403144AD361124B4022DA60114B2C
:10338000DB6803F08003002B08D00F4BDB6943F0B0
:1033900002030D4AD3610B4B8022DA60094BDB68D4
:1033A00003F00203002B08D0074BDB6943F0200336
:1033B000054AD361034B0222DA6000BFBD465DF8C7
:1033C000047B7047003C0240480D002080B485B06B
:1033D00000AF78600B46FB700023FB60FB78002B8E
:1033E00002D10023FB6010E0FB78012B03D14FF4E6
:1033F0008073FB6009E0FB78022B03D14FF400736C
:10340000FB6002E04FF44073FB60134B1B69124AF0
:1034100023F440731361104B1A690F49FB6813437F
:103420000B610D4B1B690C4A23F0F80313610A4B27
:103430001A697B68DB001343074A43F002031361F8
:10344000054B1B69044A43F48033136100BF1437F2
:10345000BD465DF8047B7047003C024080B489B0F3
:1034600000AF7860396000237B6100233B6100235B
:10347000BB610023FB616BE10122FB6902FA03F3EC
:103480007B613B681B687A6913403B613A697B69E1
:103490009A4240F05A813B685B68012B0BD03B6835
:1034A0005B68022B07D03B685B68112B03D03B683D
:1034B0005B68122B30D17B689B68BB61FB695B004A
:1034C000032202FA03F3DB43BA691340BB613B6892
:1034D000DA68FB695B0002FA03F3BA691343BB6164
:1034E0007B68BA699A607B685B68BB610122FB6993
:1034F00002FA03F3DB43BA691340BB613B685B68C4
:103500001B0903F00102FB6902FA03F3BA691343D2
:10351000BB617B68BA695A607B68DB68BB61FB6929
:103520005B00032202FA03F3DB43BA691340BB6179
:103530003B689A68FB695B0002FA03F3BA691343BC
:10354000BB617B68BA69DA603B685B68022B03D0B9
:103550003B685B68122B23D1FB69DA087B68083271
:1035600053F82230BB61FB6903F007039B000F2275
:1035700002FA03F3DB43BA691340BB613B681A6983
:10358000FB6903F007039B0002FA03F3BA691343D4
:10359000BB61FB69DA087B680832B96943F822101D
:1035A0007B681B68BB61FB695B00032202FA03F3C3
:1035B000DB43BA691340BB613B685B6803F00302FD
:1035C000FB695B0002FA03F3BA691343BB617B68D2
:1035D000BA691A603B685B6803F08053002B00F007
:1035E000B4800023FB605F4B5B6C5E4A43F4804316
:1035F00053645C4B5B6C03F48043FB60FB685A4A8A
:10360000FB699B08023352F82330BB61FB6903F06E
:1036100003039B000F2202FA03F3DB43BA69134052
:10362000BB617B68514A93422BD07B68504A9342DE
:1036300025D07B684F4A93421FD07B684E4A934205
:1036400019D07B684D4A934213D07B684C4A934211
:103650000DD07B684B4A934207D07B684A4A93421D
:1036600001D107230EE008230CE006230AE005231E
:1036700008E0042306E0032304E0022302E0012320
:1036800000E00023FA6902F0030292009340BA6955
:103690001343BB613449FB699B080233BA6941F8A3
:1036A00023203A4B1B68BB613B69DB43BA6913407B
:1036B000BB613B685B6803F48033002B03D0BA69BD
:1036C0003B691343BB61314ABB6913602F4B5B6895
:1036D000BB613B69DB43BA691340BB613B685B6814
:1036E00003F40033002B03D0BA693B691343BB6179
:1036F000264ABB695360254B9B68BB613B69DB4332
:10370000BA691340BB613B685B6803F48013002B0C
:1037100003D0BA693B691343BB611C4ABB69936020
:103720001A4BDB68BB613B69DB43BA691340BB6181
:103730003B685B6803F40013002B03D0BA693B6954
:103740001343BB61114ABB69D360FB690133FB6161
:10375000FB690F2B7FF690AE00BF2437BD465DF8A6
:10376000047B7047003802400038014000000240EE
:103770000004024000080240000C02400010024019
:103780000014024000180240001C0240003C0140AE
:1037900080B483B000AF78600B467B8013467B70AB
:1037A0007B78002B03D07A887B689A6103E07B8862
:1037B0001A047B689A6100BF0C37BD465DF8047B34
:1037C0007047000080B582B000AF0346FB80084B15
:1037D0005A69FB881340002B06D0054AFB885361C9
:1037E000FB88184600F006F800BF0837BD4680BDCC
:1037F000003C014080B483B000AF0346FB8000BFB3
:103800000C37BD465DF8047B7047F0B58FB00AAF4A
:1038100078607B68002B01D101230FE17B681B6876
:10382000BB607B6893F8BD33DBB2002B06D17B68AD
:10383000002283F8BC2378680DF0D8F87B68032257
:1038400083F8BD23BB68DB6B03F48073002B02D1CC
:103850007B6800221A617B681B68184603F017FB1F
:103860007B681B683B607E686D4606F110040FCCD8
:103870000FC50FCC0FC594E8030085E80300331D86
:103880000ECB386803F0EEF90346002B05D07B68B9
:10389000022283F8BD230123D0E07B681B6800214E
:1038A000184603F005FB0023FB734AE0FA7B7968B6
:1038B0001346DB009B1A9B000B443D3301221A7018
:1038C000FA7B79681346DB009B1A9B000B443C3360
:1038D000FA7B1A70FA7BFB7B98B279681346DB009F
:1038E0009B1A9B000B44423302461A80FA7B79688C
:1038F0001346DB009B1A9B000B443F3300221A70D7
:10390000FA7B79681346DB009B1A9B000B44443317
:1039100000221A60FA7B79681346DB009B1A9B0031
:103920000B44483300221A60FA7B79681346DB00A7
:103930009B1A9B000B44503300221A60FB7B01331F
:10394000FB73FA7B7B685B689A42AFD30023FB73FF
:1039500044E0FA7B79681346DB009B1A9B000B441A
:1039600003F2FD1300221A70FA7B79681346DB001C
:103970009B1A9B000B4403F5FE73FA7B1A70FA7BCB
:1039800079681346DB009B1A9B000B4403F2FF137C
:1039900000221A70FA7B79681346DB009B1A9B00A1
:1039A0000B4403F5017300221A60FA7B7968134611
:1039B000DB009B1A9B000B4403F5027300221A6084
:1039C000FA7B79681346DB009B1A9B000B4403F5D6
:1039D000047300221A60FB7B0133FB73FA7B7B6864
:1039E0005B689A42B5D37B681B683B607E686D4616
:1039F00006F110040FCC0FC50FCC0FC594E80300DF
:103A000085E80300331D0ECB386803F07BFA0346CC
:103A1000002B05D07B68022283F8BD2301230DE033
:103A20007B68002283F838207B68012283F8BD235D
:103A30007B681B68184604F0BAFA0023184614374E
:103A4000BD46F0BD80B584B000AF78607B681B6870
:103A5000FB607B6893F8BC33012B01D1022320E08B
:103A60007B68012283F8BC237B689B6A012B09D108
:103A70007B689B69012B05D0FB689B6B43F480320C
:103A8000FB689A637B681B68184604F078FA7B68C9
:103A90001B68184603F0EAF97B68002283F8BC2310
:103AA000002318461037BD4680BD90B58DB000AFDD
:103AB00078607B681B683B623B6AFB617B681B68C4
:103AC000184604F01FFB0346002B40F09D837B68E3
:103AD0001B68184604F083FA0346002B00F093831A
:103AE0007B681B68184604F07AFA034603F0020369
:103AF000022B07D17B681B685A697B681B6802F040
:103B000002025A617B681B68184604F068FA034693
:103B100003F01003102B61D17B681B689A697B68E6
:103B20001B6822F010029A613B6A1B6ABB61BB6989
:103B300003F00F021346DB009B1A9B0003F5FC7396
:103B40007A68134404337B61BB695B0C03F00F0399
:103B5000022B24D1BA6947F6F0731340002B35D0FD
:103B60007B69D968BB691B099BB2C3F30A039BB28B
:103B70001A46386A04F0E0F87B69DA68BB691B0909
:103B8000C3F30A031A447B69DA607B699A69BB69EB
:103B90001B09C3F30A031A447B699A6116E0BB69E7
:103BA0005B0C03F00F03062B10D17B6803F57173D8
:103BB00008221946386A04F0BFF87B699A69BB6924
:103BC0001B09C3F30A031A447B699A617B681B686B
:103BD0009A697B681B6842F010029A617B681B68D7
:103BE000184604F0FCF9034603F40023B3F5002F54
:103BF0006ED100237B627B681B68184604F002FAD2
:103C0000B86262E0BB6A03F00103002B57D07B6807
:103C10001B687A6AD2B21146184604F027FA386156
:103C20003B6903F00103002B0CD07B6A5A01FB694E
:103C3000134403F530631A4601239360796A786868
:103C400000F098FD3B6903F00803002B0CD07B6A61
:103C50005A01FB69134403F530631A460823936045
:103C6000796A786800F092FE3B6903F01003002B3C
:103C700008D07B6A5A01FB69134403F530631A4686
:103C8000102393603B6903F02003002B08D07B6A6C
:103C90005A01FB69134403F530631A4620239360ED
:103CA0003B6903F40053002B09D07B6A5A01FB697E
:103CB000134403F530631A464FF4005393607B6A54
:103CC00001337B62BB6A5B08BB62BB6A002B99D184
:103CD0007B681B68184604F082F9034603F48023CE
:103CE000B3F5802F40F0C0807B681B68184604F055
:103CF000A3F9B86200237B62B2E0BB6A03F0010360
:103D0000002B00F0A7807B681B687A6AD2B211464C
:103D1000184604F0C9F938613B6903F00103002B30
:103D200057D07B6A03F00F03012202FA03F3FB6012
:103D3000FB6903F500635A6BFB68DB43F96901F526
:103D4000006113404B637B6A5A01FB69134403F51E
:103D500010631A46012393607B681B69012B32D1E3
:103D600079687A6A1346DB009B1A9B000B44483340
:103D7000196878687A6A1346DB009B1A9B00034433
:103D800044331B68194478687A6A1346DB009B1A2F
:103D90009B000344483319607B6A002B13D1796878
:103DA0007A6A1346DB009B1A9B000B4450331B6856
:103DB000002B08D17B6818687B6803F571731A467D
:103DC000012104F0D1F97B6ADBB2194678680CF066
:103DD0008EFE3B6903F00803002B08D07B6A5A0172
:103DE000FB69134403F510631A46082393603B698B
:103DF00003F01003002B08D07B6A5A01FB691344BF
:103E000003F510631A46102393603B6903F04003E7
:103E1000002B08D07B6A5A01FB69134403F5106339
:103E20001A46402393603B6903F00203002B08D03D
:103E30007B6A5A01FB69134403F510631A46022397
:103E400093603B6903F08003002B03D0796A7868A4
:103E500000F003FC7B6A01337B62BB6A5B08BB62D8
:103E6000BB6A002B7FF449AF7B681B68184604F0DF
:103E7000B6F8034603F00043B3F1004F22D1FB69CB
:103E800003F500635B68FA6902F5006223F0010341
:103E900053607B6893F8F433012B08D17B680022D0
:103EA00083F8F4230021786800F00EFE02E07868C1
:103EB0000CF094FE7B681B685A697B681B6802F0F3
:103EC00000425A617B681B68184604F088F8034674
:103ED00003F40063B3F5006F12D1FB6903F50063CF
:103EE0009B6803F00103012B02D178680CF050FEAF
:103EF0007B681B685A697B681B6802F400625A6120
:103F00007B681B68184604F06AF8034603F4805384
:103F1000B3F5805F40F0C780FB6903F500635B6821
:103F2000FA6902F5006223F0010353607B681B68A5
:103F30001021184603F04AF90023FB6256E0FB6AA1
:103F40005A01FB69134403F510631A464FF67F3399
:103F50009360FB6A5A01FB69134403F510631B6805
:103F6000FA6A5101FA690A4402F5106223F4001357
:103F70001360FB6A5A01FB69134403F510631B6865
:103F8000FA6A5101FA690A4402F5106243F00063CB
:103F90001360FB6A5A01FB69134403F530631A4648
:103FA0004FF67F339360FB6A5A01FB69134403F5B4
:103FB00030631B68FA6A5101FA690A4402F53062FB
:103FC00023F400131360FB6A5A01FB69134403F5E1
:103FD00030631B68FA6A5101FA690A4402F53062DB
:103FE00043F000631360FB6A0133FB627B685B682C
:103FF000FA6A9A42A3D3FB6903F50063DB69FA69A5
:1040000002F5006243F00113D3617B681B6B002B48
:1040100016D0FB6903F50063D3F88430FA6902F522
:10402000006243F00B03C2F88430FB6903F50063C0
:104030005B6CFA6902F5006243F00B03536415E010
:10404000FB6903F500635B69FA6902F5006243F4FA
:10405000005343F02B035361FB6903F500631B69B5
:10406000FA6902F5006243F00B031361FB6903F583
:1040700000631B68FA6902F5006223F4FE631360B3
:104080007B6818687B681B69D9B27B6803F571731C
:104090001A4604F069F87B681B685A697B681B68DC
:1040A00002F480525A617B681B68184603F097FF40
:1040B000034603F40053B3F5005F24D17B681B680B
:1040C000184604F02DF87B681B68184603F0DFF8EB
:1040D00003461A467B68DA607B681C6801F02EF99B
:1040E00001467B68DB68DBB21A46204602F01CFE04
:1040F00078680CF024FD7B681B685A697B681B6834
:1041000002F400525A617B681B68184603F067FF8F
:10411000034603F00803082B0AD178680CF001FD70
:104120007B681B685A697B681B6802F008025A6149
:104130007B681B68184603F052FF034603F48013A4
:10414000B3F5801F0FD100237B627B6ADBB2194677
:1041500078680CF063FD7B681B685A697B681B6894
:1041600002F480125A617B681B68184603F037FF1F
:10417000034603F40013B3F5001F0FD100237B6245
:104180007B6ADBB2194678680CF036FD7B681B68E9
:104190005A697B681B6802F400125A617B681B68CD
:1041A000184603F01CFF034603F08043B3F1804F31
:1041B0000AD178680CF044FD7B681B685A697B68FB
:1041C0001B6802F080425A617B681B68184603F046
:1041D00006FF034603F00403042B15D17B681B681C
:1041E0005B68BB61BB6903F00403002B02D07868F5
:1041F0000CF034FD7B681B6859687B681B68BA69E2
:104200000A435A6000E000BF3437BD4690BD80B518
:1042100082B000AF78600B46FB707B6893F8BC33CC
:10422000012B01D1022313E07B68012283F8BC2318
:104230007B68FA7883F838207B681B68FA78114627
:10424000184603F076FE7B68002283F8BC23002327
:1042500018460837BD4680BD80B584B000AF786091
:10426000084611461A460346FB700B463B80134630
:10427000BB700023FB7297F90330002B0FDAFB7839
:1042800003F00F021346DB009B1A9B0038337A6859
:1042900013440433FB60FB6801225A700FE0FB7883
:1042A00003F00F021346DB009B1A9B0003F5FC731F
:1042B0007A6813440433FB60FB6800225A70FB7871
:1042C00003F00F03DAB2FB681A703A88FB689A6051
:1042D000FB68BA78DA70FB685B78002B04D0FB6867
:1042E0001B789AB2FB68DA80BB78022B02D1FB689C
:1042F00000221A717B6893F8BC33012B01D1022391
:104300000EE07B68012283F8BC237B681B68F96898
:10431000184602F0E1FF7B68002283F8BC23FB7A99
:1043200018461037BD4680BD80B584B000AF7860B8
:104330000B46FB7097F90330002B0FDAFB7803F084
:104340000F021346DB009B1A9B0038337A68134434
:104350000433FB60FB6801225A700FE0FB7803F026
:104360000F021346DB009B1A9B0003F5FC737A686F
:1043700013440433FB60FB6800225A70FB7803F09F
:104380000F03DAB2FB681A707B6893F8BC33012B19
:1043900001D102230EE07B68012283F8BC237B68F5
:1043A0001B68F968184603F01FF87B68002283F841
:1043B000BC23002318461037BD4680BD80B586B0AB
:1043C00000AFF8607A603B600B46FB72FB7A03F04B
:1043D0000F021346DB009B1A9B0003F5FC73FA687F
:1043E000134404337B617B697A68DA607B693A68DD
:1043F0005A617B6900229A617B6900225A70FB7ABC
:1044000003F00F03DAB27B691A70FB681B69012B9A
:1044100002D17A687B691A61FB7A03F00F03002BE3
:1044200009D1FB681868FB681B69DBB21A46796919
:1044300003F0FAFA08E0FB681868FB681B69DBB256
:104440001A46796903F0ACF8002318461837BD46C0
:1044500080BD80B586B000AFF8607A603B600B46E7
:10446000FB72FB7A03F00F021346DB009B1A9B00E2
:104470003833FA68134404337B617B697A68DA6005
:104480007B693A685A617B6900229A617B690122E3
:104490005A70FB7A03F00F03DAB27B691A70FB687B
:1044A0001B69012B02D17A687B691A61FB7A03F0E0
:1044B0000F03002B09D1FB681868FB681B69DBB28E
:1044C0001A46796903F0B0FA08E0FB681868FB68DF
:1044D0001B69DBB21A46796903F062F800231846BB
:1044E0001837BD4680BD80B584B000AF78600B46FC
:1044F000FB70FB7803F00F027B685B689A4201D97E
:10450000012350E097F90330002B0FDAFB7803F01A
:104510000F021346DB009B1A9B0038337A68134462
:104520000433FB60FB6801225A700DE0FA781346F1
:10453000DB009B1A9B0003F5FC737A681344043379
:10454000FB60FB6800225A70FB6801229A70FB78BE
:1045500003F00F03DAB2FB681A707B6893F8BC3380
:10456000012B01D102231EE07B68012283F8BC23CA
:104570007B681B68F968184603F007FCFB7803F0BA
:104580000F03002B0AD17B6818687B681B69D9B2BE
:104590007B6803F571731A4603F0E6FD7B68002221
:1045A00083F8BC23002318461037BD4680BD80B574
:1045B00084B000AF78600B46FB70FB7803F00F020D
:1045C0007B685B689A4201D9012342E097F9033086
:1045D000002B0FDAFB7803F00F021346DB009B1A67
:1045E0009B0038337A6813440433FB60FB68012274
:1045F0005A700FE0FB7803F00F021346DB009B1AA2
:104600009B0003F5FC737A6813440433FB60FB687A
:1046100000225A70FB6800229A70FB7803F00F03A7
:10462000DAB2FB681A707B6893F8BC33012B01D1B6
:1046300002230EE07B68012283F8BC237B681B68A1
:10464000F968184603F00FFC7B68002283F8BC234E
:10465000002318461037BD4680BD80B58AB002AF32
:10466000786039607B681B687B617B693B613A6875
:104670001346DB009B1A9B0038337A6813440433DB
:10468000FB60FB689A69FB685B699A4201D9012368
:104690006CE0FB685A69FB689B69D31AFB61FB6895
:1046A0009B68FA699A4202D9FB689B68FB61FB69C7
:1046B00003339B08BB612BE0FB685A69FB689B696D
:1046C000D31AFB61FB689B68FA699A4202D9FB68BE
:1046D0009B68FB61FB6903339B08BB61FB68D9687E
:1046E0003B68DAB2FB6998B27B681B69DBB2009366
:1046F0000346786903F0EBFAFB68DA68FB691A4451
:10470000FB68DA60FB689A69FB691A44FB689A6186
:104710003B685A013B69134403F510639B699BB2E4
:10472000BA699A4209D8FB689A69FB685B699A4240
:1047300003D2FB685B69002BBED1FB685A69FB683A
:104740009B699A4211D83B6803F00F03012202FAD9
:1047500003F3BB603B6903F500635A6BBB68DB4343
:10476000396901F5006113404B6300231846203777
:10477000BD4680BD80B586B000AF786039607B688B
:104780001B687B617B693B617B693C3304331B683D
:10479000FB603B685A013B69134403F530639B6837
:1047A000BB607B681B69012B40F0A080BB6803F0F5
:1047B0000803002B15D0FB68724A934240F2DD805B
:1047C000BB6803F40043002B00F0D7803B685A011C
:1047D0003B69134403F530631A464FF4004393607A
:1047E000CBE0BB6803F02003002B09D03B685A01E3
:1047F0003B69134403F530631A4620239360BCE001
:10480000BB6803F02803002B40F0B780FB685D4ACB
:1048100093420FD9BB6803F40043002B0AD03B68D6
:104820005A013B69134403F530631A464FF40043C1
:104830009360A2E079683A681346DB009B1A9B00FC
:104840000B4403F501731A683B6859013B690B443B
:1048500003F530631B69C3F31203D11A78683A6811
:104860001346DB009B1A9B00034403F50573196094
:1048700079683A681346DB009B1A9B000B4403F5EA
:104880000273196878683A681346DB009B1A9B002C
:10489000034403F501731B68194478683A681346AA
:1048A000DB009B1A9B00034403F5027319603B680D
:1048B000002B14D179683A681346DB009B1A9B00E1
:1048C0000B4403F504731B68002B08D17B68186840
:1048D0007B6803F571731A46012103F045FC3B68C0
:1048E000DBB2194678680CF0E7F846E0FB68264A28
:1048F000934224D1BB6803F40043002B0AD03B68E9
:104900005A013B69134403F530631A464FF40043E0
:10491000936032E0BB6803F02003002B08D03B68B3
:104920005A013B69134403F530631A462023936010
:104930003B68DBB2194678680CF0BEF81DE03B68B6
:10494000002B14D179683A681346DB009B1A9B0050
:104950000B4403F504731B68002B08D17B681868AF
:104960007B6803F571731A46002103F0FDFB3B6879
:10497000DBB2194678680CF09FF800231846183708
:10498000BD4680BD0A30544F0A31544F80B586B0C1
:1049900000AF786039607B681B687B617B693B6135
:1049A0007B693C3304331B68FB603B685A013B69FD
:1049B000134403F530639B68BB60FB68154A934260
:1049C0000ED9BB6803F40043002B09D03B685A01A1
:1049D0003B69134403F530631A464FF40043936078
:1049E00078680CF057F8FB680A4A93420CD97B6848
:1049F0001B69012B08D17B6818687B6803F571730C
:104A00001A46012103F0B0FB002318461837BD46B3
:104A100080BD00BF0A30544F80B485B000AF7860CD
:104A20000B46FB7013463B807B681B685B6ABB6070
:104A3000FB78002B07D13B8819047B681B68BA6898
:104A40000A439A6228E07B681B689B6A1B0CBA6861
:104A50001344BB600023FB730DE07B681A68FB7B8B
:104A600040339B0013445B681B0CBA681344BB6063
:104A7000FB7B0133FB73FA7BFB78013B9A42ECD35F
:104A80003B8818047B681968FB78013BBA680243CD
:104A900040339B000B445A60002318461437BD4630
:104AA0005DF8047B704780B483B000AF78600B463C
:104AB0007B807B681B687A885A62002318460C3713
:104AC000BD465DF8047B704780B483B000AF78606A
:104AD0000B46FB7000BF0C37BD465DF8047B70478A
:104AE00080B586B000AF78607B68002B01D10123D0
:104AF0005BE27B681B6803F00103002B75D0A34BBE
:104B00009B6803F00C03042B0CD0A04B9B6803F0B4
:104B10000C03082B12D19D4B5B6803F48003B3F5A3
:104B2000800F0BD1994B1B6803F40033002B5BD033
:104B30007B685B68002B57D1012336E27B685B689A
:104B4000B3F5803F06D1914B1B68904A43F4803304
:104B500013601DE07B685B68B3F5A02F0CD18B4B15
:104B60001B688A4A43F480231360884B1B68874A7A
:104B700043F4803313600BE0844B1B68834A23F4B7
:104B800080331360814B1B68804A23F480231360B9
:104B90007B685B68002B13D0FDF72AFD386108E0C5
:104BA000FDF726FD02463B69D31A642B01D9032386
:104BB000FBE1764B1B6803F40033002BF0D014E0CC
:104BC000FDF716FD386108E0FDF712FD02463B696E
:104BD000D31A642B01D90323E7E16C4B1B6803F460
:104BE0000033002BF0D100E000BF7B681B6803F0AE
:104BF0000203002B63D0654B9B6803F00C03002B72
:104C00000BD0624B9B6803F00C03082B1CD15F4B4D
:104C10005B6803F48003002B16D15C4B1B6803F028
:104C20000203002B05D07B68DB68012B01D0012338
:104C3000BBE1564B1B6823F0F8027B681B69DB0065
:104C4000524913430B603AE07B68DB68002B20D0AD
:104C50004F4B01221A60FDF7CBFC386108E0FDF7ED
:104C6000C7FC02463B69D31A022B01D903239CE1FE
:104C7000464B1B6803F00203002BF0D0434B1B682C
:104C800023F0F8027B681B69DB00404913430B608B
:104C900015E03F4B00221A60FDF7AAFC386108E0DE
:104CA000FDF7A6FC02463B69D31A022B01D9032368
:104CB0007BE1364B1B6803F00203002BF0D17B68CD
:104CC0001B6803F00803002B30D07B685B69002B66
:104CD00016D0304B01221A60FDF78AFC386108E0DB
:104CE000FDF786FC02463B69D31A022B01D9032348
:104CF0005BE1264B5B6F03F00203002BF0D015E065
:104D0000244B00221A60FDF773FC386108E0FDF7C0
:104D10006FFC02463B69D31A022B01D9032344E1FD
:104D20001A4B5B6F03F00203002BF0D17B681B680A
:104D300003F00403002B00F0A0800023FB75134B4D
:104D40001B6C03F08053002B0FD10023BB600F4B73
:104D50001B6C0E4A43F0805313640C4B1B6C03F026
:104D60008053BB60BB680123FB750B4B1B6803F4CE
:104D70008073002B21D1084B1B68074A43F48073D2
:104D80001360FDF735FC386111E000BF00380240C8
:104D900000004742800E474200700040FDF728FCAB
:104DA00002463B69D31A022B01D90323FDE0814B54
:104DB0001B6803F48073002BF0D07B689B68012B89
:104DC00006D17D4B1B6F7C4A43F0010313671CE047
:104DD0007B689B68052B0CD1774B1B6F764A43F0A1
:104DE00004031367744B1B6F734A43F0010313678B
:104DF0000BE0714B1B6F704A23F0010313676E4B7E
:104E00001B6F6D4A23F0040313677B689B68002BBC
:104E100015D0FDF7EDFB38610AE0FDF7E9FB02462E
:104E20003B69D31A41F28832934201D90323BCE093
:104E3000614B1B6F03F00203002BEED014E0FDF773
:104E4000D7FB38610AE0FDF7D3FB02463B69D31A72
:104E500041F28832934201D90323A6E0564B1B6FDF
:104E600003F00203002BEED1FB7D012B05D1524B49
:104E70001B6C514A23F0805313647B689B69002BA1
:104E800000F092804C4B9B6803F00C03082B5CD025
:104E90007B689B69022B41D1484B00221A60FDF7C9
:104EA000A7FB386108E0FDF7A3FB02463B69D31A74
:104EB000022B01D9032378E03F4B1B6803F00073FA
:104EC000002BF0D17B68DA697B681B6A1A437B6828
:104ED0005B6A9B011A437B689B6A5B08013B1B046E
:104EE0001A437B68DB6A1B06334913434B60334B21
:104EF00001221A60FDF77CFB386108E0FDF778FBC2
:104F000002463B69D31A022B01D903234DE02A4BF9
:104F10001B6803F00073002BF0D045E0274B002204
:104F20001A60FDF765FB386108E0FDF761FB02469A
:104F30003B69D31A022B01D9032336E01E4B1B68B1
:104F400003F00073002BF0D12EE07B689B69012BEE
:104F500001D1012329E0184B5B68FB60FB6803F477
:104F600080027B68DB699A421CD1FB6803F03F0238
:104F70007B681B6A9A4215D1FA6847F6C0731340E2
:104F80007A68526A93420DD1FB6803F440327B6821
:104F90009B6A9A4206D1FB6803F070627B68DB6A09
:104FA0009A4201D0012300E0002318461837BD467D
:104FB00080BD00BF007000400038024060004742E2
:104FC00080B584B000AF786039607B68002B01D178
:104FD0000123CCE0684B1B6803F00F033A689A4248
:104FE0000CD9654B3A68D2B21A70634B1B6803F058
:104FF0000F033A689A4201D00123B8E07B681B682E
:1050000003F00203002B20D07B681B6803F004032D
:10501000002B05D0594B9B68584A43F4E0539360EA
:105020007B681B6803F00803002B05D0534B9B687B
:10503000524A43F460439360504B9B6823F0F00264
:105040007B689B684D4913438B607B681B6803F04A
:105050000103002B44D07B685B68012B07D1474BD1
:105060001B6803F40033002B19D101237FE07B6818
:105070005B68022B03D07B685B68032B07D13F4B37
:105080001B6803F00073002B09D101236FE03B4B39
:105090001B6803F00203002B01D1012367E0374BAB
:1050A0009B6823F003027B685B68344913438B6081
:1050B000FDF79EFAF8600AE0FDF79AFA0246FB68EF
:1050C000D31A41F28832934201D903234FE02B4B8C
:1050D0009B6803F00C027B685B689B009A42EBD1F3
:1050E000254B1B6803F00F033A689A420CD2224BFF
:1050F0003A68D2B21A70204B1B6803F00F033A686B
:105100009A4201D0012332E07B681B6803F004035C
:10511000002B08D0194B9B6823F4E0527B68DB68B6
:10512000164913438B607B681B6803F00803002B50
:1051300009D0124B9B6823F460427B681B69DB003B
:105140000E4913438B6000F021F801460B4B9B681E
:105150001B0903F00F030A4AD35C21FA03F3094A3F
:105160001360094B1B681846FDF7FEF9002318462B
:105170001037BD4680BD00BF003C024000380240F1
:10518000304201080000002004000020F0B585B086
:1051900000AF00237B600023FB6000233B60002303
:1051A000BB60634B9B6803F00C03042B07D0082BF8
:1051B00008D0002B40F0B4805E4BBB60B3E05E4B88
:1051C000BB60B0E05A4B5B6803F03F037B60584B19
:1051D0005B6803F48003002B4AD0554B5B689B0946
:1051E0004FF0000440F2FF114FF0000203EA010506
:1051F00004EA0206294632464FF000034FF000044D
:10520000540144EAD1644B0119462246491B62EB22
:1052100006024FF000034FF00004940144EA916449
:105220008B015B1A64EB02044FF000014FF00002A7
:10523000E20042EA5372D9000B4614465B1944EB74
:1052400006044FF000014FF00002620242EAD3521E
:1052500059020B461446184621467B684FF000045D
:105260001A462346FBF7E8FC03460C46FB6049E080
:105270002F4B5B689B094FF0000440F2FF114FF089
:10528000000203EA010504EA0206294632464FF00D
:1052900000034FF00004540144EAD1644B01194665
:1052A0002246491B62EB06024FF000034FF0000458
:1052B000940144EA91648B015B1A64EB02044FF0A1
:1052C00000014FF00002E20042EA5372D9000B469F
:1052D00014465B1944EB06044FF000014FF0000246
:1052E000A20242EA935299020B46144618462146FE
:1052F0007B684FF000041A462346FBF79DFC0346EB
:105300000C46FB600A4B5B681B0C03F00303013384
:105310005B003B60FA683B68B2FBF3F3BB6002E002
:10532000044BBB6000BFBB6818461437BD46F0BDD8
:10533000003802400024F40000127A0080B400AF6C
:10534000034B1B681846BD465DF8047B704700BFE1
:105350000000002080B500AFFFF7F0FF0146054BCD
:105360009B689B0A03F00703034AD35C21FA03F30B
:10537000184680BD003802404042010880B500AFA9
:10538000FFF7DCFF0146054B9B685B0B03F007034F
:10539000034AD35C21FA03F3184680BD003802406B
:1053A0004042010880B582B000AF78607B68002B76
:1053B00001D1012356E07B6800229A627B6893F852
:1053C0005130DBB2002B06D17B68002283F85020DD
:1053D0007868FCF705FD7B68022283F851207B6822
:1053E0001B681A687B681B6822F040021A607B68A1
:1053F0005A687B689B681A437B68DB681A437B6842
:105400001B691A437B685B691A437B689B6903F4D9
:1054100000731A437B68DB691A437B681B6A42EAA4
:1054200003017B689A6A7B681B680A431A607B6881
:105430009B691B0C03F004017B685A6A7B681B683C
:105440000A435A607B681B68DA697B681B6822F430
:105450000062DA617B6800225A657B68012283F86A
:105460005120002318460837BD4680BD80B582B064
:1054700000AF78607B68002B01D101231DE07B68C1
:1054800093F83D30DBB2002B06D17B68002283F815
:105490003C207868FCF758FD7B68022283F83D20A9
:1054A0007B681A687B6804331946104600F01EFCBE
:1054B0007B68012283F83D20002318460837BD464B
:1054C00080BD80B582B000AF78607B68002B01D1D1
:1054D00001231DE07B6893F83D30DBB2002B06D141
:1054E0007B68002283F83C20786800F015F87B6820
:1054F000022283F83D207B681A687B6804331946D2
:10550000104600F0F3FB7B68012283F83D20002366
:1055100018460837BD4680BD80B483B000AF7860C0
:1055200000BF0C37BD465DF8047B704780B584B082
:1055300000AF786039607B681B68012239681846C3
:1055400000F0BEFE7B681B68154A934204D07B685E
:105550001B68144A934201D1012300E00023002B71
:1055600007D07B681B685A6C7B681B6842F400425A
:105570005A647B681B689B6803F00703FB60FB6849
:10558000062B07D07B681B681A687B681B6842F093
:1055900001021A60002318461037BD4680BD00BFC7
:1055A000000001400004014080B586B000AF786083
:1055B00039607B68002B01D1012383E07B6893F87D
:1055C0003D30DBB2002B06D17B68002283F83C2003
:1055D0007868FCF717FD7B68022283F83D207B6822
:1055E0001B689B687A68126823F4804323F00703E2
:1055F00093607B681A687B6804331946104600F094
:1056000075FB7B681B689B687B617B681B689B697B
:105610003B617B681B681B6AFB603B681B687A699F
:1056200013437B613B6923F4407323F003033B6125
:105630003B689A683B689B691B0213433A691343B2
:105640003B613B6923F4406323F00C033B613B69FE
:1056500023F4704323F0F0033B613B68DA683B6856
:10566000DB691B0213433A6913433B613B681B69C7
:105670001A013B681B6A1B0313433A6913433B61DE
:10568000FB6823F02203FB60FB6823F08803FB60C8
:105690003B685A683B685B691B011343FA68134314
:1056A000FB607B681B687A699A607B681B683A6953
:1056B0009A617B681B68FA681A627B68012283F82A
:1056C0003D20002318461837BD4680BD80B582B006
:1056D00000AF786039603B68002B02D0042B10D0FB
:1056E0001FE07B681B6801220021184600F0E8FDDE
:1056F0007B681B68DA687B681B6842F00202DA602C
:105700002EE07B681B6801220421184600F0D8FDBA
:105710007B681B68DA687B681B6842F00402DA6009
:105720001EE07B681B6801220021184600F0C8FDBE
:105730007B681B6801220421184600F0C1FD7B68CC
:105740001B68DA687B681B6842F00202DA607B68DB
:105750001B68DA687B681B6842F00402DA6000BFED
:105760007B681B681A687B681B6842F001021A603C
:10577000002318460837BD4680BD80B582B000AF13
:1057800078607B681B681B6903F00203022B22D13F
:105790007B681B68DB6803F00203022B1BD17B686C
:1057A0001B686FF002021A617B6801221A777B681E
:1057B0001B689B6903F00303002B03D0786800F09B
:1057C00076FA05E0786800F068FA786800F079FA0F
:1057D0007B6800221A777B681B681B6903F004034F
:1057E000042B22D17B681B68DB6803F00403042BC5
:1057F0001BD17B681B686FF004021A617B68022270
:105800001A777B681B689B6903F44073002B03D0F5
:10581000786800F04CFA05E0786800F03EFA7868A5
:1058200000F04FFA7B6800221A777B681B681B69BF
:1058300003F00803082B22D17B681B68DB6803F0A8
:105840000803082B1BD17B681B686FF008021A61E4
:105850007B6804221A777B681B68DB6903F003030B
:10586000002B03D0786800F022FA05E0786800F099
:1058700014FA786800F025FA7B6800221A777B68B2
:105880001B681B6903F01003102B22D17B681B6877
:10589000DB6803F01003102B1BD17B681B686FF0D3
:1058A00010021A617B6808221A777B681B68DB6923
:1058B00003F44073002B03D0786800F0F8F905E09A
:1058C000786800F0EAF9786800F0FBF97B6800225C
:1058D0001A777B681B681B6903F00103012B0ED14B
:1058E0007B681B68DB6803F00103012B07D17B6831
:1058F0001B686FF001021A61786800F0C4F97B68D8
:105900001B681B6903F08003802B0ED17B681B682A
:10591000DB6803F08003802B07D17B681B686FF086
:1059200080021A61786800F0C9FD7B681B681B69FA
:1059300003F04003402B0ED17B681B68DB6803F04B
:105940004003402B07D17B681B686FF040021A614F
:10595000786800F0C0F97B681B681B6903F02003BE
:10596000202B0ED17B681B68DB6803F02003202B03
:1059700007D17B681B686FF020021A61786800F01D
:1059800093FD00BF0837BD4680BD000080B584B0E0
:1059900000AFF860B9607A60FB6893F83C30012B87
:1059A00001D10223B4E0FB68012283F83C20FB68AC
:1059B000022283F83D207B680C2B00F29F8001A21D
:1059C00052F823F0F9590008FD5A0008FD5A000862
:1059D000FD5A0008395A0008FD5A0008FD5A00080F
:1059E000FD5A00087B5A0008FD5A0008FD5A0008BD
:1059F000FD5A0008BB5A0008FB681B68B9681846C6
:105A000000F014FAFB681B689A69FB681B6842F097
:105A100008029A61FB681B689A69FB681B6822F0A0
:105A200004029A61FB681B689969BB681A69FB6884
:105A30001B680A439A6162E0FB681B68B9681846F4
:105A400000F064FAFB681B689A69FB681B6842F403
:105A500000629A61FB681B689A69FB681B6822F404
:105A600080629A61FB681B689969BB681B691A02AE
:105A7000FB681B680A439A6141E0FB681B68B968D0
:105A8000184600F0B9FAFB681B68DA69FB681B6806
:105A900042F00802DA61FB681B68DA69FB681B6880
:105AA00022F00402DA61FB681B68D969BB681A69D5
:105AB000FB681B680A43DA6121E0FB681B68B96870
:105AC000184600F00DFBFB681B68DA69FB681B6871
:105AD00042F40062DA61FB681B68DA69FB681B68E4
